{
	"solidity/JokenPo2.sol": {
		"JoKenPo2": {
			"abi": [
				{
					"inputs": [],
					"stateMutability": "nonpayable",
					"type": "constructor"
				},
				{
					"inputs": [],
					"name": "getBalance",
					"outputs": [
						{
							"internalType": "uint256",
							"name": "",
							"type": "uint256"
						}
					],
					"stateMutability": "view",
					"type": "function"
				},
				{
					"inputs": [],
					"name": "getLeaderBorder",
					"outputs": [
						{
							"components": [
								{
									"internalType": "address",
									"name": "wallet",
									"type": "address"
								},
								{
									"internalType": "uint32",
									"name": "wins",
									"type": "uint32"
								}
							],
							"internalType": "struct JoKenPo2.Player[]",
							"name": "",
							"type": "tuple[]"
						}
					],
					"stateMutability": "view",
					"type": "function"
				},
				{
					"inputs": [
						{
							"internalType": "enum JoKenPo2.Options",
							"name": "newChoice",
							"type": "uint8"
						}
					],
					"name": "play",
					"outputs": [],
					"stateMutability": "payable",
					"type": "function"
				},
				{
					"inputs": [
						{
							"internalType": "uint256",
							"name": "",
							"type": "uint256"
						}
					],
					"name": "players",
					"outputs": [
						{
							"internalType": "address",
							"name": "wallet",
							"type": "address"
						},
						{
							"internalType": "uint32",
							"name": "wins",
							"type": "uint32"
						}
					],
					"stateMutability": "view",
					"type": "function"
				},
				{
					"inputs": [],
					"name": "qtdVitorias",
					"outputs": [
						{
							"internalType": "uint256",
							"name": "",
							"type": "uint256"
						}
					],
					"stateMutability": "view",
					"type": "function"
				},
				{
					"inputs": [],
					"name": "result",
					"outputs": [
						{
							"internalType": "string",
							"name": "",
							"type": "string"
						}
					],
					"stateMutability": "view",
					"type": "function"
				}
			],
			"devdoc": {
				"kind": "dev",
				"methods": {},
				"version": 1
			},
			"evm": {
				"assembly": "    /* \"solidity/JokenPo2.sol\":63:3388  contract JoKenPo2 {... */\n  mstore(0x40, 0xa0)\n    /* \"solidity/JokenPo2.sol\":176:188  Options.NONE */\n  0x00\n    /* \"solidity/JokenPo2.sol\":150:188  Options private choice1 = Options.NONE */\n  dup1\n  exp(0x0100, 0x00)\n  dup2\n  sload\n  dup2\n  0xff\n  mul\n  not\n  and\n  swap1\n  dup4\n  0x03\n  dup2\n  gt\n  iszero\n  tag_1\n  jumpi\n  tag_2\n  tag_3\n  jump\t// in\ntag_2:\ntag_1:\n  mul\n  or\n  swap1\n  sstore\n  pop\n    /* \"solidity/JokenPo2.sol\":225:251  string  public result = \"\" */\n  mload(0x40)\n  dup1\n  0x20\n  add\n  0x40\n  mstore\n  dup1\n  0x00\n  dup2\n  mstore\n  pop\n  0x01\n  swap1\n  dup2\n  tag_4\n  swap2\n  swap1\n  tag_5\n  jump\t// in\ntag_4:\n  pop\n    /* \"solidity/JokenPo2.sol\":284:285  0 */\n  0x00\n    /* \"solidity/JokenPo2.sol\":258:285  uint public qtdVitorias = 0 */\n  0x02\n  sstore\n    /* \"solidity/JokenPo2.sol\":449:509  constructor() {... */\n  callvalue\n  dup1\n  iszero\n  tag_6\n  jumpi\n  0x00\n  dup1\n  revert\ntag_6:\n  pop\n    /* \"solidity/JokenPo2.sol\":490:500  msg.sender */\n  caller\n    /* \"solidity/JokenPo2.sol\":474:501  owner = payable(msg.sender) */\n  0xffffffffffffffffffffffffffffffffffffffff\n  and\n  0x80\n  dup2\n  0xffffffffffffffffffffffffffffffffffffffff\n  and\n  dup2\n  mstore\n  pop\n  pop\n    /* \"solidity/JokenPo2.sol\":63:3388  contract JoKenPo2 {... */\n  jump(tag_9)\n    /* \"#utility.yul\":7:187   */\ntag_3:\n    /* \"#utility.yul\":55:132   */\n  0x4e487b7100000000000000000000000000000000000000000000000000000000\n    /* \"#utility.yul\":52:53   */\n  0x00\n    /* \"#utility.yul\":45:133   */\n  mstore\n    /* \"#utility.yul\":152:156   */\n  0x21\n    /* \"#utility.yul\":149:150   */\n  0x04\n    /* \"#utility.yul\":142:157   */\n  mstore\n    /* \"#utility.yul\":176:180   */\n  0x24\n    /* \"#utility.yul\":173:174   */\n  0x00\n    /* \"#utility.yul\":166:181   */\n  revert\n    /* \"#utility.yul\":193:292   */\ntag_10:\n    /* \"#utility.yul\":245:251   */\n  0x00\n    /* \"#utility.yul\":279:284   */\n  dup2\n    /* \"#utility.yul\":273:285   */\n  mload\n    /* \"#utility.yul\":263:285   */\n  swap1\n  pop\n    /* \"#utility.yul\":193:292   */\n  swap2\n  swap1\n  pop\n  jump\t// out\n    /* \"#utility.yul\":298:478   */\ntag_11:\n    /* \"#utility.yul\":346:423   */\n  0x4e487b7100000000000000000000000000000000000000000000000000000000\n    /* \"#utility.yul\":343:344   */\n  0x00\n    /* \"#utility.yul\":336:424   */\n  mstore\n    /* \"#utility.yul\":443:447   */\n  0x41\n    /* \"#utility.yul\":440:441   */\n  0x04\n    /* \"#utility.yul\":433:448   */\n  mstore\n    /* \"#utility.yul\":467:471   */\n  0x24\n    /* \"#utility.yul\":464:465   */\n  0x00\n    /* \"#utility.yul\":457:472   */\n  revert\n    /* \"#utility.yul\":484:664   */\ntag_12:\n    /* \"#utility.yul\":532:609   */\n  0x4e487b7100000000000000000000000000000000000000000000000000000000\n    /* \"#utility.yul\":529:530   */\n  0x00\n    /* \"#utility.yul\":522:610   */\n  mstore\n    /* \"#utility.yul\":629:633   */\n  0x22\n    /* \"#utility.yul\":626:627   */\n  0x04\n    /* \"#utility.yul\":619:634   */\n  mstore\n    /* \"#utility.yul\":653:657   */\n  0x24\n    /* \"#utility.yul\":650:651   */\n  0x00\n    /* \"#utility.yul\":643:658   */\n  revert\n    /* \"#utility.yul\":670:990   */\ntag_13:\n    /* \"#utility.yul\":714:720   */\n  0x00\n    /* \"#utility.yul\":751:752   */\n  0x02\n    /* \"#utility.yul\":745:749   */\n  dup3\n    /* \"#utility.yul\":741:753   */\n  div\n    /* \"#utility.yul\":731:753   */\n  swap1\n  pop\n    /* \"#utility.yul\":798:799   */\n  0x01\n    /* \"#utility.yul\":792:796   */\n  dup3\n    /* \"#utility.yul\":788:800   */\n  and\n    /* \"#utility.yul\":819:837   */\n  dup1\n    /* \"#utility.yul\":809:890   */\n  tag_36\n  jumpi\n    /* \"#utility.yul\":875:879   */\n  0x7f\n    /* \"#utility.yul\":867:873   */\n  dup3\n    /* \"#utility.yul\":863:880   */\n  and\n    /* \"#utility.yul\":853:880   */\n  swap2\n  pop\n    /* \"#utility.yul\":809:890   */\ntag_36:\n    /* \"#utility.yul\":937:939   */\n  0x20\n    /* \"#utility.yul\":929:935   */\n  dup3\n    /* \"#utility.yul\":926:940   */\n  lt\n    /* \"#utility.yul\":906:924   */\n  dup2\n    /* \"#utility.yul\":903:941   */\n  sub\n    /* \"#utility.yul\":900:984   */\n  tag_37\n  jumpi\n    /* \"#utility.yul\":956:974   */\n  tag_38\n  tag_12\n  jump\t// in\ntag_38:\n    /* \"#utility.yul\":900:984   */\ntag_37:\n    /* \"#utility.yul\":721:990   */\n  pop\n    /* \"#utility.yul\":670:990   */\n  swap2\n  swap1\n  pop\n  jump\t// out\n    /* \"#utility.yul\":996:1137   */\ntag_14:\n    /* \"#utility.yul\":1045:1049   */\n  0x00\n    /* \"#utility.yul\":1068:1071   */\n  dup2\n    /* \"#utility.yul\":1060:1071   */\n  swap1\n  pop\n    /* \"#utility.yul\":1091:1094   */\n  dup2\n    /* \"#utility.yul\":1088:1089   */\n  0x00\n    /* \"#utility.yul\":1081:1095   */\n  mstore\n    /* \"#utility.yul\":1125:1129   */\n  0x20\n    /* \"#utility.yul\":1122:1123   */\n  0x00\n    /* \"#utility.yul\":1112:1130   */\n  keccak256\n    /* \"#utility.yul\":1104:1130   */\n  swap1\n  pop\n    /* \"#utility.yul\":996:1137   */\n  swap2\n  swap1\n  pop\n  jump\t// out\n    /* \"#utility.yul\":1143:1236   */\ntag_15:\n    /* \"#utility.yul\":1180:1186   */\n  0x00\n    /* \"#utility.yul\":1227:1229   */\n  0x20\n    /* \"#utility.yul\":1222:1224   */\n  0x1f\n    /* \"#utility.yul\":1215:1220   */\n  dup4\n    /* \"#utility.yul\":1211:1225   */\n  add\n    /* \"#utility.yul\":1207:1230   */\n  div\n    /* \"#utility.yul\":1197:1230   */\n  swap1\n  pop\n    /* \"#utility.yul\":1143:1236   */\n  swap2\n  swap1\n  pop\n  jump\t// out\n    /* \"#utility.yul\":1242:1349   */\ntag_16:\n    /* \"#utility.yul\":1286:1294   */\n  0x00\n    /* \"#utility.yul\":1336:1341   */\n  dup3\n    /* \"#utility.yul\":1330:1334   */\n  dup3\n    /* \"#utility.yul\":1326:1342   */\n  shl\n    /* \"#utility.yul\":1305:1342   */\n  swap1\n  pop\n    /* \"#utility.yul\":1242:1349   */\n  swap3\n  swap2\n  pop\n  pop\n  jump\t// out\n    /* \"#utility.yul\":1355:1748   */\ntag_17:\n    /* \"#utility.yul\":1424:1430   */\n  0x00\n    /* \"#utility.yul\":1474:1475   */\n  0x08\n    /* \"#utility.yul\":1462:1472   */\n  dup4\n    /* \"#utility.yul\":1458:1476   */\n  mul\n    /* \"#utility.yul\":1497:1594   */\n  tag_43\n    /* \"#utility.yul\":1527:1593   */\n  0xffffffffffffffffffffffffffffffffffffffffffffffffffffffffffffffff\n    /* \"#utility.yul\":1516:1525   */\n  dup3\n    /* \"#utility.yul\":1497:1594   */\n  tag_16\n  jump\t// in\ntag_43:\n    /* \"#utility.yul\":1615:1654   */\n  tag_44\n    /* \"#utility.yul\":1645:1653   */\n  dup7\n    /* \"#utility.yul\":1634:1643   */\n  dup4\n    /* \"#utility.yul\":1615:1654   */\n  tag_16\n  jump\t// in\ntag_44:\n    /* \"#utility.yul\":1603:1654   */\n  swap6\n  pop\n    /* \"#utility.yul\":1687:1691   */\n  dup1\n    /* \"#utility.yul\":1683:1692   */\n  not\n    /* \"#utility.yul\":1676:1681   */\n  dup5\n    /* \"#utility.yul\":1672:1693   */\n  and\n    /* \"#utility.yul\":1663:1693   */\n  swap4\n  pop\n    /* \"#utility.yul\":1736:1740   */\n  dup1\n    /* \"#utility.yul\":1726:1734   */\n  dup7\n    /* \"#utility.yul\":1722:1741   */\n  and\n    /* \"#utility.yul\":1715:1720   */\n  dup5\n    /* \"#utility.yul\":1712:1742   */\n  or\n    /* \"#utility.yul\":1702:1742   */\n  swap3\n  pop\n    /* \"#utility.yul\":1431:1748   */\n  pop\n  pop\n    /* \"#utility.yul\":1355:1748   */\n  swap4\n  swap3\n  pop\n  pop\n  pop\n  jump\t// out\n    /* \"#utility.yul\":1754:1831   */\ntag_18:\n    /* \"#utility.yul\":1791:1798   */\n  0x00\n    /* \"#utility.yul\":1820:1825   */\n  dup2\n    /* \"#utility.yul\":1809:1825   */\n  swap1\n  pop\n    /* \"#utility.yul\":1754:1831   */\n  swap2\n  swap1\n  pop\n  jump\t// out\n    /* \"#utility.yul\":1837:1897   */\ntag_19:\n    /* \"#utility.yul\":1865:1868   */\n  0x00\n    /* \"#utility.yul\":1886:1891   */\n  dup2\n    /* \"#utility.yul\":1879:1891   */\n  swap1\n  pop\n    /* \"#utility.yul\":1837:1897   */\n  swap2\n  swap1\n  pop\n  jump\t// out\n    /* \"#utility.yul\":1903:2045   */\ntag_20:\n    /* \"#utility.yul\":1953:1962   */\n  0x00\n    /* \"#utility.yul\":1986:2039   */\n  tag_48\n    /* \"#utility.yul\":2004:2038   */\n  tag_49\n    /* \"#utility.yul\":2013:2037   */\n  tag_50\n    /* \"#utility.yul\":2031:2036   */\n  dup5\n    /* \"#utility.yul\":2013:2037   */\n  tag_18\n  jump\t// in\ntag_50:\n    /* \"#utility.yul\":2004:2038   */\n  tag_19\n  jump\t// in\ntag_49:\n    /* \"#utility.yul\":1986:2039   */\n  tag_18\n  jump\t// in\ntag_48:\n    /* \"#utility.yul\":1973:2039   */\n  swap1\n  pop\n    /* \"#utility.yul\":1903:2045   */\n  swap2\n  swap1\n  pop\n  jump\t// out\n    /* \"#utility.yul\":2051:2126   */\ntag_21:\n    /* \"#utility.yul\":2094:2097   */\n  0x00\n    /* \"#utility.yul\":2115:2120   */\n  dup2\n    /* \"#utility.yul\":2108:2120   */\n  swap1\n  pop\n    /* \"#utility.yul\":2051:2126   */\n  swap2\n  swap1\n  pop\n  jump\t// out\n    /* \"#utility.yul\":2132:2401   */\ntag_22:\n    /* \"#utility.yul\":2242:2281   */\n  tag_53\n    /* \"#utility.yul\":2273:2280   */\n  dup4\n    /* \"#utility.yul\":2242:2281   */\n  tag_20\n  jump\t// in\ntag_53:\n    /* \"#utility.yul\":2303:2394   */\n  tag_54\n    /* \"#utility.yul\":2352:2393   */\n  tag_55\n    /* \"#utility.yul\":2376:2392   */\n  dup3\n    /* \"#utility.yul\":2352:2393   */\n  tag_21\n  jump\t// in\ntag_55:\n    /* \"#utility.yul\":2344:2350   */\n  dup5\n    /* \"#utility.yul\":2337:2341   */\n  dup5\n    /* \"#utility.yul\":2331:2342   */\n  sload\n    /* \"#utility.yul\":2303:2394   */\n  tag_17\n  jump\t// in\ntag_54:\n    /* \"#utility.yul\":2297:2301   */\n  dup3\n    /* \"#utility.yul\":2290:2395   */\n  sstore\n    /* \"#utility.yul\":2208:2401   */\n  pop\n    /* \"#utility.yul\":2132:2401   */\n  pop\n  pop\n  pop\n  jump\t// out\n    /* \"#utility.yul\":2407:2480   */\ntag_23:\n    /* \"#utility.yul\":2452:2455   */\n  0x00\n    /* \"#utility.yul\":2407:2480   */\n  swap1\n  jump\t// out\n    /* \"#utility.yul\":2486:2675   */\ntag_24:\n    /* \"#utility.yul\":2563:2595   */\n  tag_58\n  tag_23\n  jump\t// in\ntag_58:\n    /* \"#utility.yul\":2604:2669   */\n  tag_59\n    /* \"#utility.yul\":2662:2668   */\n  dup2\n    /* \"#utility.yul\":2654:2660   */\n  dup5\n    /* \"#utility.yul\":2648:2652   */\n  dup5\n    /* \"#utility.yul\":2604:2669   */\n  tag_22\n  jump\t// in\ntag_59:\n    /* \"#utility.yul\":2539:2675   */\n  pop\n    /* \"#utility.yul\":2486:2675   */\n  pop\n  pop\n  jump\t// out\n    /* \"#utility.yul\":2681:2867   */\ntag_25:\n    /* \"#utility.yul\":2741:2861   */\ntag_61:\n    /* \"#utility.yul\":2758:2761   */\n  dup2\n    /* \"#utility.yul\":2751:2756   */\n  dup2\n    /* \"#utility.yul\":2748:2762   */\n  lt\n    /* \"#utility.yul\":2741:2861   */\n  iszero\n  tag_63\n  jumpi\n    /* \"#utility.yul\":2812:2851   */\n  tag_64\n    /* \"#utility.yul\":2849:2850   */\n  0x00\n    /* \"#utility.yul\":2842:2847   */\n  dup3\n    /* \"#utility.yul\":2812:2851   */\n  tag_24\n  jump\t// in\ntag_64:\n    /* \"#utility.yul\":2785:2786   */\n  0x01\n    /* \"#utility.yul\":2778:2783   */\n  dup2\n    /* \"#utility.yul\":2774:2787   */\n  add\n    /* \"#utility.yul\":2765:2787   */\n  swap1\n  pop\n    /* \"#utility.yul\":2741:2861   */\n  jump(tag_61)\ntag_63:\n    /* \"#utility.yul\":2681:2867   */\n  pop\n  pop\n  jump\t// out\n    /* \"#utility.yul\":2873:3416   */\ntag_26:\n    /* \"#utility.yul\":2974:2976   */\n  0x1f\n    /* \"#utility.yul\":2969:2972   */\n  dup3\n    /* \"#utility.yul\":2966:2977   */\n  gt\n    /* \"#utility.yul\":2963:3409   */\n  iszero\n  tag_66\n  jumpi\n    /* \"#utility.yul\":3008:3046   */\n  tag_67\n    /* \"#utility.yul\":3040:3045   */\n  dup2\n    /* \"#utility.yul\":3008:3046   */\n  tag_14\n  jump\t// in\ntag_67:\n    /* \"#utility.yul\":3092:3121   */\n  tag_68\n    /* \"#utility.yul\":3110:3120   */\n  dup5\n    /* \"#utility.yul\":3092:3121   */\n  tag_15\n  jump\t// in\ntag_68:\n    /* \"#utility.yul\":3082:3090   */\n  dup2\n    /* \"#utility.yul\":3078:3122   */\n  add\n    /* \"#utility.yul\":3275:3277   */\n  0x20\n    /* \"#utility.yul\":3263:3273   */\n  dup6\n    /* \"#utility.yul\":3260:3278   */\n  lt\n    /* \"#utility.yul\":3257:3306   */\n  iszero\n  tag_69\n  jumpi\n    /* \"#utility.yul\":3296:3304   */\n  dup2\n    /* \"#utility.yul\":3281:3304   */\n  swap1\n  pop\n    /* \"#utility.yul\":3257:3306   */\ntag_69:\n    /* \"#utility.yul\":3319:3399   */\n  tag_70\n    /* \"#utility.yul\":3375:3397   */\n  tag_71\n    /* \"#utility.yul\":3393:3396   */\n  dup6\n    /* \"#utility.yul\":3375:3397   */\n  tag_15\n  jump\t// in\ntag_71:\n    /* \"#utility.yul\":3365:3373   */\n  dup4\n    /* \"#utility.yul\":3361:3398   */\n  add\n    /* \"#utility.yul\":3348:3359   */\n  dup3\n    /* \"#utility.yul\":3319:3399   */\n  tag_25\n  jump\t// in\ntag_70:\n    /* \"#utility.yul\":2978:3409   */\n  pop\n  pop\n    /* \"#utility.yul\":2963:3409   */\ntag_66:\n    /* \"#utility.yul\":2873:3416   */\n  pop\n  pop\n  pop\n  jump\t// out\n    /* \"#utility.yul\":3422:3539   */\ntag_27:\n    /* \"#utility.yul\":3476:3484   */\n  0x00\n    /* \"#utility.yul\":3526:3531   */\n  dup3\n    /* \"#utility.yul\":3520:3524   */\n  dup3\n    /* \"#utility.yul\":3516:3532   */\n  shr\n    /* \"#utility.yul\":3495:3532   */\n  swap1\n  pop\n    /* \"#utility.yul\":3422:3539   */\n  swap3\n  swap2\n  pop\n  pop\n  jump\t// out\n    /* \"#utility.yul\":3545:3714   */\ntag_28:\n    /* \"#utility.yul\":3589:3595   */\n  0x00\n    /* \"#utility.yul\":3622:3673   */\n  tag_74\n    /* \"#utility.yul\":3670:3671   */\n  0x00\n    /* \"#utility.yul\":3666:3672   */\n  not\n    /* \"#utility.yul\":3658:3663   */\n  dup5\n    /* \"#utility.yul\":3655:3656   */\n  0x08\n    /* \"#utility.yul\":3651:3664   */\n  mul\n    /* \"#utility.yul\":3622:3673   */\n  tag_27\n  jump\t// in\ntag_74:\n    /* \"#utility.yul\":3618:3674   */\n  not\n    /* \"#utility.yul\":3703:3707   */\n  dup1\n    /* \"#utility.yul\":3697:3701   */\n  dup4\n    /* \"#utility.yul\":3693:3708   */\n  and\n    /* \"#utility.yul\":3683:3708   */\n  swap2\n  pop\n    /* \"#utility.yul\":3596:3714   */\n  pop\n    /* \"#utility.yul\":3545:3714   */\n  swap3\n  swap2\n  pop\n  pop\n  jump\t// out\n    /* \"#utility.yul\":3719:4014   */\ntag_29:\n    /* \"#utility.yul\":3795:3799   */\n  0x00\n    /* \"#utility.yul\":3941:3970   */\n  tag_76\n    /* \"#utility.yul\":3966:3969   */\n  dup4\n    /* \"#utility.yul\":3960:3964   */\n  dup4\n    /* \"#utility.yul\":3941:3970   */\n  tag_28\n  jump\t// in\ntag_76:\n    /* \"#utility.yul\":3933:3970   */\n  swap2\n  pop\n    /* \"#utility.yul\":4003:4006   */\n  dup3\n    /* \"#utility.yul\":4000:4001   */\n  0x02\n    /* \"#utility.yul\":3996:4007   */\n  mul\n    /* \"#utility.yul\":3990:3994   */\n  dup3\n    /* \"#utility.yul\":3987:4008   */\n  or\n    /* \"#utility.yul\":3979:4008   */\n  swap1\n  pop\n    /* \"#utility.yul\":3719:4014   */\n  swap3\n  swap2\n  pop\n  pop\n  jump\t// out\n    /* \"#utility.yul\":4019:5414   */\ntag_5:\n    /* \"#utility.yul\":4136:4173   */\n  tag_78\n    /* \"#utility.yul\":4169:4172   */\n  dup3\n    /* \"#utility.yul\":4136:4173   */\n  tag_10\n  jump\t// in\ntag_78:\n    /* \"#utility.yul\":4238:4256   */\n  0xffffffffffffffff\n    /* \"#utility.yul\":4230:4236   */\n  dup2\n    /* \"#utility.yul\":4227:4257   */\n  gt\n    /* \"#utility.yul\":4224:4280   */\n  iszero\n  tag_79\n  jumpi\n    /* \"#utility.yul\":4260:4278   */\n  tag_80\n  tag_11\n  jump\t// in\ntag_80:\n    /* \"#utility.yul\":4224:4280   */\ntag_79:\n    /* \"#utility.yul\":4304:4342   */\n  tag_81\n    /* \"#utility.yul\":4336:4340   */\n  dup3\n    /* \"#utility.yul\":4330:4341   */\n  sload\n    /* \"#utility.yul\":4304:4342   */\n  tag_13\n  jump\t// in\ntag_81:\n    /* \"#utility.yul\":4389:4456   */\n  tag_82\n    /* \"#utility.yul\":4449:4455   */\n  dup3\n    /* \"#utility.yul\":4441:4447   */\n  dup3\n    /* \"#utility.yul\":4435:4439   */\n  dup6\n    /* \"#utility.yul\":4389:4456   */\n  tag_26\n  jump\t// in\ntag_82:\n    /* \"#utility.yul\":4483:4484   */\n  0x00\n    /* \"#utility.yul\":4507:4511   */\n  0x20\n    /* \"#utility.yul\":4494:4511   */\n  swap1\n  pop\n    /* \"#utility.yul\":4539:4541   */\n  0x1f\n    /* \"#utility.yul\":4531:4537   */\n  dup4\n    /* \"#utility.yul\":4528:4542   */\n  gt\n    /* \"#utility.yul\":4556:4557   */\n  0x01\n    /* \"#utility.yul\":4551:5169   */\n  dup2\n  eq\n  tag_84\n  jumpi\n    /* \"#utility.yul\":5213:5214   */\n  0x00\n    /* \"#utility.yul\":5230:5236   */\n  dup5\n    /* \"#utility.yul\":5227:5304   */\n  iszero\n  tag_85\n  jumpi\n    /* \"#utility.yul\":5279:5288   */\n  dup3\n    /* \"#utility.yul\":5274:5277   */\n  dup8\n    /* \"#utility.yul\":5270:5289   */\n  add\n    /* \"#utility.yul\":5264:5290   */\n  mload\n    /* \"#utility.yul\":5255:5290   */\n  swap1\n  pop\n    /* \"#utility.yul\":5227:5304   */\ntag_85:\n    /* \"#utility.yul\":5330:5397   */\n  tag_86\n    /* \"#utility.yul\":5390:5396   */\n  dup6\n    /* \"#utility.yul\":5383:5388   */\n  dup3\n    /* \"#utility.yul\":5330:5397   */\n  tag_29\n  jump\t// in\ntag_86:\n    /* \"#utility.yul\":5324:5328   */\n  dup7\n    /* \"#utility.yul\":5317:5398   */\n  sstore\n    /* \"#utility.yul\":5186:5408   */\n  pop\n    /* \"#utility.yul\":4521:5408   */\n  jump(tag_83)\n    /* \"#utility.yul\":4551:5169   */\ntag_84:\n    /* \"#utility.yul\":4603:4607   */\n  0x1f\n    /* \"#utility.yul\":4599:4608   */\n  not\n    /* \"#utility.yul\":4591:4597   */\n  dup5\n    /* \"#utility.yul\":4587:4609   */\n  and\n    /* \"#utility.yul\":4637:4674   */\n  tag_87\n    /* \"#utility.yul\":4669:4673   */\n  dup7\n    /* \"#utility.yul\":4637:4674   */\n  tag_14\n  jump\t// in\ntag_87:\n    /* \"#utility.yul\":4696:4697   */\n  0x00\n    /* \"#utility.yul\":4710:4918   */\ntag_88:\n    /* \"#utility.yul\":4724:4731   */\n  dup3\n    /* \"#utility.yul\":4721:4722   */\n  dup2\n    /* \"#utility.yul\":4718:4732   */\n  lt\n    /* \"#utility.yul\":4710:4918   */\n  iszero\n  tag_90\n  jumpi\n    /* \"#utility.yul\":4803:4812   */\n  dup5\n    /* \"#utility.yul\":4798:4801   */\n  dup10\n    /* \"#utility.yul\":4794:4813   */\n  add\n    /* \"#utility.yul\":4788:4814   */\n  mload\n    /* \"#utility.yul\":4780:4786   */\n  dup3\n    /* \"#utility.yul\":4773:4815   */\n  sstore\n    /* \"#utility.yul\":4854:4855   */\n  0x01\n    /* \"#utility.yul\":4846:4852   */\n  dup3\n    /* \"#utility.yul\":4842:4856   */\n  add\n    /* \"#utility.yul\":4832:4856   */\n  swap2\n  pop\n    /* \"#utility.yul\":4901:4903   */\n  0x20\n    /* \"#utility.yul\":4890:4899   */\n  dup6\n    /* \"#utility.yul\":4886:4904   */\n  add\n    /* \"#utility.yul\":4873:4904   */\n  swap5\n  pop\n    /* \"#utility.yul\":4747:4751   */\n  0x20\n    /* \"#utility.yul\":4744:4745   */\n  dup2\n    /* \"#utility.yul\":4740:4752   */\n  add\n    /* \"#utility.yul\":4735:4752   */\n  swap1\n  pop\n    /* \"#utility.yul\":4710:4918   */\n  jump(tag_88)\ntag_90:\n    /* \"#utility.yul\":4946:4952   */\n  dup7\n    /* \"#utility.yul\":4937:4944   */\n  dup4\n    /* \"#utility.yul\":4934:4953   */\n  lt\n    /* \"#utility.yul\":4931:5110   */\n  iszero\n  tag_91\n  jumpi\n    /* \"#utility.yul\":5004:5013   */\n  dup5\n    /* \"#utility.yul\":4999:5002   */\n  dup10\n    /* \"#utility.yul\":4995:5014   */\n  add\n    /* \"#utility.yul\":4989:5015   */\n  mload\n    /* \"#utility.yul\":5047:5095   */\n  tag_92\n    /* \"#utility.yul\":5089:5093   */\n  0x1f\n    /* \"#utility.yul\":5081:5087   */\n  dup10\n    /* \"#utility.yul\":5077:5094   */\n  and\n    /* \"#utility.yul\":5066:5075   */\n  dup3\n    /* \"#utility.yul\":5047:5095   */\n  tag_28\n  jump\t// in\ntag_92:\n    /* \"#utility.yul\":5039:5045   */\n  dup4\n    /* \"#utility.yul\":5032:5096   */\n  sstore\n    /* \"#utility.yul\":4954:5110   */\n  pop\n    /* \"#utility.yul\":4931:5110   */\ntag_91:\n    /* \"#utility.yul\":5156:5157   */\n  0x01\n    /* \"#utility.yul\":5152:5153   */\n  0x02\n    /* \"#utility.yul\":5144:5150   */\n  dup9\n    /* \"#utility.yul\":5140:5154   */\n  mul\n    /* \"#utility.yul\":5136:5158   */\n  add\n    /* \"#utility.yul\":5130:5134   */\n  dup9\n    /* \"#utility.yul\":5123:5159   */\n  sstore\n    /* \"#utility.yul\":4558:5169   */\n  pop\n  pop\n  pop\n    /* \"#utility.yul\":4521:5408   */\ntag_83:\n  pop\n    /* \"#utility.yul\":4111:5414   */\n  pop\n  pop\n  pop\n    /* \"#utility.yul\":4019:5414   */\n  pop\n  pop\n  jump\t// out\n    /* \"solidity/JokenPo2.sol\":63:3388  contract JoKenPo2 {... */\ntag_9:\n  mload(0x80)\n  codecopy(0x00, dataOffset(sub_0), dataSize(sub_0))\n  0x00\n  assignImmutable(\"0xf4c2b5de886427473655d4c904c743576dc2d53249b7535d96c06cc97ae7216b\")\n  return(0x00, dataSize(sub_0))\nstop\n\nsub_0: assembly {\n        /* \"solidity/JokenPo2.sol\":63:3388  contract JoKenPo2 {... */\n      mstore(0x40, 0x80)\n      jumpi(tag_1, lt(calldatasize, 0x04))\n      shr(0xe0, calldataload(0x00))\n      dup1\n      0x12065fe0\n      eq\n      tag_2\n      jumpi\n      dup1\n      0x53a04b05\n      eq\n      tag_3\n      jumpi\n      dup1\n      0x65372147\n      eq\n      tag_4\n      jumpi\n      dup1\n      0x6d7b26d0\n      eq\n      tag_5\n      jumpi\n      dup1\n      0xdca9c798\n      eq\n      tag_6\n      jumpi\n      dup1\n      0xf71d96cb\n      eq\n      tag_7\n      jumpi\n    tag_1:\n      0x00\n      dup1\n      revert\n        /* \"solidity/JokenPo2.sol\":1219:1381  function getBalance() public view returns(uint) {... */\n    tag_2:\n      callvalue\n      dup1\n      iszero\n      tag_8\n      jumpi\n      0x00\n      dup1\n      revert\n    tag_8:\n      pop\n      tag_9\n      tag_10\n      jump\t// in\n    tag_9:\n      mload(0x40)\n      tag_11\n      swap2\n      swap1\n      tag_12\n      jump\t// in\n    tag_11:\n      mload(0x40)\n      dup1\n      swap2\n      sub\n      swap1\n      return\n        /* \"solidity/JokenPo2.sol\":1389:2750  function play(Options newChoice) public payable  {... */\n    tag_3:\n      tag_13\n      0x04\n      dup1\n      calldatasize\n      sub\n      dup2\n      add\n      swap1\n      tag_14\n      swap2\n      swap1\n      tag_15\n      jump\t// in\n    tag_14:\n      tag_16\n      jump\t// in\n    tag_13:\n      stop\n        /* \"solidity/JokenPo2.sol\":225:251  string  public result = \"\" */\n    tag_4:\n      callvalue\n      dup1\n      iszero\n      tag_17\n      jumpi\n      0x00\n      dup1\n      revert\n    tag_17:\n      pop\n      tag_18\n      tag_19\n      jump\t// in\n    tag_18:\n      mload(0x40)\n      tag_20\n      swap2\n      swap1\n      tag_21\n      jump\t// in\n    tag_20:\n      mload(0x40)\n      dup1\n      swap2\n      sub\n      swap1\n      return\n        /* \"solidity/JokenPo2.sol\":258:285  uint public qtdVitorias = 0 */\n    tag_5:\n      callvalue\n      dup1\n      iszero\n      tag_22\n      jumpi\n      0x00\n      dup1\n      revert\n    tag_22:\n      pop\n      tag_23\n      tag_24\n      jump\t// in\n    tag_23:\n      mload(0x40)\n      tag_25\n      swap2\n      swap1\n      tag_12\n      jump\t// in\n    tag_25:\n      mload(0x40)\n      dup1\n      swap2\n      sub\n      swap1\n      return\n        /* \"solidity/JokenPo2.sol\":2758:3385  function getLeaderBorder() public view returns(Player[] memory) {... */\n    tag_6:\n      callvalue\n      dup1\n      iszero\n      tag_26\n      jumpi\n      0x00\n      dup1\n      revert\n    tag_26:\n      pop\n      tag_27\n      tag_28\n      jump\t// in\n    tag_27:\n      mload(0x40)\n      tag_29\n      swap2\n      swap1\n      tag_30\n      jump\t// in\n    tag_29:\n      mload(0x40)\n      dup1\n      swap2\n      sub\n      swap1\n      return\n        /* \"solidity/JokenPo2.sol\":417:440  Player[] public players */\n    tag_7:\n      callvalue\n      dup1\n      iszero\n      tag_31\n      jumpi\n      0x00\n      dup1\n      revert\n    tag_31:\n      pop\n      tag_32\n      0x04\n      dup1\n      calldatasize\n      sub\n      dup2\n      add\n      swap1\n      tag_33\n      swap2\n      swap1\n      tag_34\n      jump\t// in\n    tag_33:\n      tag_35\n      jump\t// in\n    tag_32:\n      mload(0x40)\n      tag_36\n      swap3\n      swap2\n      swap1\n      tag_37\n      jump\t// in\n    tag_36:\n      mload(0x40)\n      dup1\n      swap2\n      sub\n      swap1\n      return\n        /* \"solidity/JokenPo2.sol\":1219:1381  function getBalance() public view returns(uint) {... */\n    tag_10:\n        /* \"solidity/JokenPo2.sol\":1261:1265  uint */\n      0x00\n        /* \"solidity/JokenPo2.sol\":1295:1305  msg.sender */\n      caller\n        /* \"solidity/JokenPo2.sol\":1286:1305  owner == msg.sender */\n      0xffffffffffffffffffffffffffffffffffffffff\n      and\n        /* \"solidity/JokenPo2.sol\":1286:1291  owner */\n      immutable(\"0xf4c2b5de886427473655d4c904c743576dc2d53249b7535d96c06cc97ae7216b\")\n        /* \"solidity/JokenPo2.sol\":1286:1305  owner == msg.sender */\n      0xffffffffffffffffffffffffffffffffffffffff\n      and\n      eq\n        /* \"solidity/JokenPo2.sol\":1278:1334  require(owner == msg.sender, \"You dont have permission\") */\n      tag_39\n      jumpi\n      mload(0x40)\n      0x08c379a000000000000000000000000000000000000000000000000000000000\n      dup2\n      mstore\n      0x04\n      add\n      tag_40\n      swap1\n      tag_41\n      jump\t// in\n    tag_40:\n      mload(0x40)\n      dup1\n      swap2\n      sub\n      swap1\n      revert\n    tag_39:\n        /* \"solidity/JokenPo2.sol\":1352:1373  address(this).balance */\n      selfbalance\n        /* \"solidity/JokenPo2.sol\":1345:1373  return address(this).balance */\n      swap1\n      pop\n        /* \"solidity/JokenPo2.sol\":1219:1381  function getBalance() public view returns(uint) {... */\n      swap1\n      jump\t// out\n        /* \"solidity/JokenPo2.sol\":1389:2750  function play(Options newChoice) public payable  {... */\n    tag_16:\n        /* \"solidity/JokenPo2.sol\":1470:1482  Options.NONE */\n      0x00\n        /* \"solidity/JokenPo2.sol\":1457:1482  newChoice != Options.NONE */\n      0x03\n      dup2\n      gt\n      iszero\n      tag_43\n      jumpi\n      tag_44\n      tag_45\n      jump\t// in\n    tag_44:\n    tag_43:\n        /* \"solidity/JokenPo2.sol\":1457:1466  newChoice */\n      dup2\n        /* \"solidity/JokenPo2.sol\":1457:1482  newChoice != Options.NONE */\n      0x03\n      dup2\n      gt\n      iszero\n      tag_46\n      jumpi\n      tag_47\n      tag_45\n      jump\t// in\n    tag_47:\n    tag_46:\n      sub\n        /* \"solidity/JokenPo2.sol\":1449:1501  require(newChoice != Options.NONE, \"Invalid Choice\") */\n      tag_48\n      jumpi\n      mload(0x40)\n      0x08c379a000000000000000000000000000000000000000000000000000000000\n      dup2\n      mstore\n      0x04\n      add\n      tag_49\n      swap1\n      tag_50\n      jump\t// in\n    tag_49:\n      mload(0x40)\n      dup1\n      swap2\n      sub\n      swap1\n      revert\n    tag_48:\n        /* \"solidity/JokenPo2.sol\":1531:1541  msg.sender */\n      caller\n        /* \"solidity/JokenPo2.sol\":1520:1541  player1 != msg.sender */\n      0xffffffffffffffffffffffffffffffffffffffff\n      and\n        /* \"solidity/JokenPo2.sol\":1520:1527  player1 */\n      0x00\n      0x01\n      swap1\n      sload\n      swap1\n      0x0100\n      exp\n      swap1\n      div\n      0xffffffffffffffffffffffffffffffffffffffff\n      and\n        /* \"solidity/JokenPo2.sol\":1520:1541  player1 != msg.sender */\n      0xffffffffffffffffffffffffffffffffffffffff\n      and\n      sub\n        /* \"solidity/JokenPo2.sol\":1512:1572  require(player1 != msg.sender, \"Wait the another player...\") */\n      tag_51\n      jumpi\n      mload(0x40)\n      0x08c379a000000000000000000000000000000000000000000000000000000000\n      dup2\n      mstore\n      0x04\n      add\n      tag_52\n      swap1\n      tag_53\n      jump\t// in\n    tag_52:\n      mload(0x40)\n      dup1\n      swap2\n      sub\n      swap1\n      revert\n    tag_51:\n        /* \"solidity/JokenPo2.sol\":1604:1614  0.01 ether */\n      0x2386f26fc10000\n        /* \"solidity/JokenPo2.sol\":1591:1600  msg.value */\n      callvalue\n        /* \"solidity/JokenPo2.sol\":1591:1614  msg.value >= 0.01 ether */\n      lt\n      iszero\n        /* \"solidity/JokenPo2.sol\":1583:1630  require(msg.value >= 0.01 ether, \"Invalid bit\") */\n      tag_54\n      jumpi\n      mload(0x40)\n      0x08c379a000000000000000000000000000000000000000000000000000000000\n      dup2\n      mstore\n      0x04\n      add\n      tag_55\n      swap1\n      tag_56\n      jump\t// in\n    tag_55:\n      mload(0x40)\n      dup1\n      swap2\n      sub\n      swap1\n      revert\n    tag_54:\n        /* \"solidity/JokenPo2.sol\":1657:1669  Options.NONE */\n      0x00\n        /* \"solidity/JokenPo2.sol\":1646:1669  choice1 == Options.NONE */\n      0x03\n      dup2\n      gt\n      iszero\n      tag_57\n      jumpi\n      tag_58\n      tag_45\n      jump\t// in\n    tag_58:\n    tag_57:\n        /* \"solidity/JokenPo2.sol\":1646:1653  choice1 */\n      0x00\n      dup1\n      sload\n      swap1\n      0x0100\n      exp\n      swap1\n      div\n      0xff\n      and\n        /* \"solidity/JokenPo2.sol\":1646:1669  choice1 == Options.NONE */\n      0x03\n      dup2\n      gt\n      iszero\n      tag_59\n      jumpi\n      tag_60\n      tag_45\n      jump\t// in\n    tag_60:\n    tag_59:\n      sub\n        /* \"solidity/JokenPo2.sol\":1643:2743  if(choice1 == Options.NONE) {... */\n      tag_61\n      jumpi\n        /* \"solidity/JokenPo2.sol\":1696:1706  msg.sender */\n      caller\n        /* \"solidity/JokenPo2.sol\":1686:1693  player1 */\n      0x00\n      0x01\n        /* \"solidity/JokenPo2.sol\":1686:1706  player1 = msg.sender */\n      0x0100\n      exp\n      dup2\n      sload\n      dup2\n      0xffffffffffffffffffffffffffffffffffffffff\n      mul\n      not\n      and\n      swap1\n      dup4\n      0xffffffffffffffffffffffffffffffffffffffff\n      and\n      mul\n      or\n      swap1\n      sstore\n      pop\n        /* \"solidity/JokenPo2.sol\":1731:1740  newChoice */\n      dup1\n        /* \"solidity/JokenPo2.sol\":1721:1728  choice1 */\n      0x00\n      dup1\n        /* \"solidity/JokenPo2.sol\":1721:1740  choice1 = newChoice */\n      0x0100\n      exp\n      dup2\n      sload\n      dup2\n      0xff\n      mul\n      not\n      and\n      swap1\n      dup4\n      0x03\n      dup2\n      gt\n      iszero\n      tag_62\n      jumpi\n      tag_63\n      tag_45\n      jump\t// in\n    tag_63:\n    tag_62:\n      mul\n      or\n      swap1\n      sstore\n      pop\n        /* \"solidity/JokenPo2.sol\":1755:1818  result = \"Player 1 choice his/her option. Waiting for player 2\" */\n      mload(0x40)\n      dup1\n      0x60\n      add\n      0x40\n      mstore\n      dup1\n      0x34\n      dup2\n      mstore\n      0x20\n      add\n      data_e57918cec7be186f52eb94e89d54d42a827037ee60fee8f3804c78ab79e9854e\n      0x34\n      swap2\n      codecopy\n        /* \"solidity/JokenPo2.sol\":1755:1761  result */\n      0x01\n        /* \"solidity/JokenPo2.sol\":1755:1818  result = \"Player 1 choice his/her option. Waiting for player 2\" */\n      swap1\n      dup2\n      tag_64\n      swap2\n      swap1\n      tag_65\n      jump\t// in\n    tag_64:\n      pop\n        /* \"solidity/JokenPo2.sol\":1643:2743  if(choice1 == Options.NONE) {... */\n      jump(tag_66)\n    tag_61:\n        /* \"solidity/JokenPo2.sol\":1850:1862  Options.ROCK */\n      0x01\n        /* \"solidity/JokenPo2.sol\":1839:1862  choice1 == Options.ROCK */\n      0x03\n      dup2\n      gt\n      iszero\n      tag_67\n      jumpi\n      tag_68\n      tag_45\n      jump\t// in\n    tag_68:\n    tag_67:\n        /* \"solidity/JokenPo2.sol\":1839:1846  choice1 */\n      0x00\n      dup1\n      sload\n      swap1\n      0x0100\n      exp\n      swap1\n      div\n      0xff\n      and\n        /* \"solidity/JokenPo2.sol\":1839:1862  choice1 == Options.ROCK */\n      0x03\n      dup2\n      gt\n      iszero\n      tag_69\n      jumpi\n      tag_70\n      tag_45\n      jump\t// in\n    tag_70:\n    tag_69:\n      eq\n        /* \"solidity/JokenPo2.sol\":1839:1895  choice1 == Options.ROCK && newChoice == Options.SCISSORS */\n      dup1\n      iszero\n      tag_71\n      jumpi\n      pop\n        /* \"solidity/JokenPo2.sol\":1879:1895  Options.SCISSORS */\n      0x03\n        /* \"solidity/JokenPo2.sol\":1866:1895  newChoice == Options.SCISSORS */\n      dup1\n      dup2\n      gt\n      iszero\n      tag_72\n      jumpi\n      tag_73\n      tag_45\n      jump\t// in\n    tag_73:\n    tag_72:\n        /* \"solidity/JokenPo2.sol\":1866:1875  newChoice */\n      dup2\n        /* \"solidity/JokenPo2.sol\":1866:1895  newChoice == Options.SCISSORS */\n      0x03\n      dup2\n      gt\n      iszero\n      tag_74\n      jumpi\n      tag_75\n      tag_45\n      jump\t// in\n    tag_75:\n    tag_74:\n      eq\n        /* \"solidity/JokenPo2.sol\":1839:1895  choice1 == Options.ROCK && newChoice == Options.SCISSORS */\n    tag_71:\n        /* \"solidity/JokenPo2.sol\":1836:2743  if(choice1 == Options.ROCK && newChoice == Options.SCISSORS) {... */\n      iszero\n      tag_76\n      jumpi\n        /* \"solidity/JokenPo2.sol\":1912:1948  finishiGame(\"Player 1 WON\", player1) */\n      tag_77\n      mload(0x40)\n      dup1\n      0x40\n      add\n      0x40\n      mstore\n      dup1\n      0x0c\n      dup2\n      mstore\n      0x20\n      add\n      0x506c61796572203120574f4e0000000000000000000000000000000000000000\n      dup2\n      mstore\n      pop\n        /* \"solidity/JokenPo2.sol\":1940:1947  player1 */\n      0x00\n      0x01\n      swap1\n      sload\n      swap1\n      0x0100\n      exp\n      swap1\n      div\n      0xffffffffffffffffffffffffffffffffffffffff\n      and\n        /* \"solidity/JokenPo2.sol\":1912:1923  finishiGame */\n      tag_78\n        /* \"solidity/JokenPo2.sol\":1912:1948  finishiGame(\"Player 1 WON\", player1) */\n      jump\t// in\n    tag_77:\n        /* \"solidity/JokenPo2.sol\":1836:2743  if(choice1 == Options.ROCK && newChoice == Options.SCISSORS) {... */\n      jump(tag_79)\n    tag_76:\n        /* \"solidity/JokenPo2.sol\":1980:1993  Options.PAPER */\n      0x02\n        /* \"solidity/JokenPo2.sol\":1969:1993  choice1 == Options.PAPER */\n      0x03\n      dup2\n      gt\n      iszero\n      tag_80\n      jumpi\n      tag_81\n      tag_45\n      jump\t// in\n    tag_81:\n    tag_80:\n        /* \"solidity/JokenPo2.sol\":1969:1976  choice1 */\n      0x00\n      dup1\n      sload\n      swap1\n      0x0100\n      exp\n      swap1\n      div\n      0xff\n      and\n        /* \"solidity/JokenPo2.sol\":1969:1993  choice1 == Options.PAPER */\n      0x03\n      dup2\n      gt\n      iszero\n      tag_82\n      jumpi\n      tag_83\n      tag_45\n      jump\t// in\n    tag_83:\n    tag_82:\n      eq\n        /* \"solidity/JokenPo2.sol\":1969:2022  choice1 == Options.PAPER && newChoice == Options.ROCK */\n      dup1\n      iszero\n      tag_84\n      jumpi\n      pop\n        /* \"solidity/JokenPo2.sol\":2010:2022  Options.ROCK */\n      0x01\n        /* \"solidity/JokenPo2.sol\":1997:2022  newChoice == Options.ROCK */\n      0x03\n      dup2\n      gt\n      iszero\n      tag_85\n      jumpi\n      tag_86\n      tag_45\n      jump\t// in\n    tag_86:\n    tag_85:\n        /* \"solidity/JokenPo2.sol\":1997:2006  newChoice */\n      dup2\n        /* \"solidity/JokenPo2.sol\":1997:2022  newChoice == Options.ROCK */\n      0x03\n      dup2\n      gt\n      iszero\n      tag_87\n      jumpi\n      tag_88\n      tag_45\n      jump\t// in\n    tag_88:\n    tag_87:\n      eq\n        /* \"solidity/JokenPo2.sol\":1969:2022  choice1 == Options.PAPER && newChoice == Options.ROCK */\n    tag_84:\n        /* \"solidity/JokenPo2.sol\":1966:2743  if(choice1 == Options.PAPER && newChoice == Options.ROCK) {... */\n      iszero\n      tag_89\n      jumpi\n        /* \"solidity/JokenPo2.sol\":2039:2075  finishiGame(\"Player 1 WON\", player1) */\n      tag_90\n      mload(0x40)\n      dup1\n      0x40\n      add\n      0x40\n      mstore\n      dup1\n      0x0c\n      dup2\n      mstore\n      0x20\n      add\n      0x506c61796572203120574f4e0000000000000000000000000000000000000000\n      dup2\n      mstore\n      pop\n        /* \"solidity/JokenPo2.sol\":2067:2074  player1 */\n      0x00\n      0x01\n      swap1\n      sload\n      swap1\n      0x0100\n      exp\n      swap1\n      div\n      0xffffffffffffffffffffffffffffffffffffffff\n      and\n        /* \"solidity/JokenPo2.sol\":2039:2050  finishiGame */\n      tag_78\n        /* \"solidity/JokenPo2.sol\":2039:2075  finishiGame(\"Player 1 WON\", player1) */\n      jump\t// in\n    tag_90:\n        /* \"solidity/JokenPo2.sol\":1966:2743  if(choice1 == Options.PAPER && newChoice == Options.ROCK) {... */\n      jump(tag_91)\n    tag_89:\n        /* \"solidity/JokenPo2.sol\":2107:2123  Options.SCISSORS */\n      0x03\n        /* \"solidity/JokenPo2.sol\":2096:2123  choice1 == Options.SCISSORS */\n      dup1\n      dup2\n      gt\n      iszero\n      tag_92\n      jumpi\n      tag_93\n      tag_45\n      jump\t// in\n    tag_93:\n    tag_92:\n        /* \"solidity/JokenPo2.sol\":2096:2103  choice1 */\n      0x00\n      dup1\n      sload\n      swap1\n      0x0100\n      exp\n      swap1\n      div\n      0xff\n      and\n        /* \"solidity/JokenPo2.sol\":2096:2123  choice1 == Options.SCISSORS */\n      0x03\n      dup2\n      gt\n      iszero\n      tag_94\n      jumpi\n      tag_95\n      tag_45\n      jump\t// in\n    tag_95:\n    tag_94:\n      eq\n        /* \"solidity/JokenPo2.sol\":2096:2153  choice1 == Options.SCISSORS && newChoice == Options.PAPER */\n      dup1\n      iszero\n      tag_96\n      jumpi\n      pop\n        /* \"solidity/JokenPo2.sol\":2140:2153  Options.PAPER */\n      0x02\n        /* \"solidity/JokenPo2.sol\":2127:2153  newChoice == Options.PAPER */\n      0x03\n      dup2\n      gt\n      iszero\n      tag_97\n      jumpi\n      tag_98\n      tag_45\n      jump\t// in\n    tag_98:\n    tag_97:\n        /* \"solidity/JokenPo2.sol\":2127:2136  newChoice */\n      dup2\n        /* \"solidity/JokenPo2.sol\":2127:2153  newChoice == Options.PAPER */\n      0x03\n      dup2\n      gt\n      iszero\n      tag_99\n      jumpi\n      tag_100\n      tag_45\n      jump\t// in\n    tag_100:\n    tag_99:\n      eq\n        /* \"solidity/JokenPo2.sol\":2096:2153  choice1 == Options.SCISSORS && newChoice == Options.PAPER */\n    tag_96:\n        /* \"solidity/JokenPo2.sol\":2093:2743  if(choice1 == Options.SCISSORS && newChoice == Options.PAPER) {... */\n      iszero\n      tag_101\n      jumpi\n        /* \"solidity/JokenPo2.sol\":2170:2206  finishiGame(\"Player 1 WON\", player1) */\n      tag_102\n      mload(0x40)\n      dup1\n      0x40\n      add\n      0x40\n      mstore\n      dup1\n      0x0c\n      dup2\n      mstore\n      0x20\n      add\n      0x506c61796572203120574f4e0000000000000000000000000000000000000000\n      dup2\n      mstore\n      pop\n        /* \"solidity/JokenPo2.sol\":2198:2205  player1 */\n      0x00\n      0x01\n      swap1\n      sload\n      swap1\n      0x0100\n      exp\n      swap1\n      div\n      0xffffffffffffffffffffffffffffffffffffffff\n      and\n        /* \"solidity/JokenPo2.sol\":2170:2181  finishiGame */\n      tag_78\n        /* \"solidity/JokenPo2.sol\":2170:2206  finishiGame(\"Player 1 WON\", player1) */\n      jump\t// in\n    tag_102:\n        /* \"solidity/JokenPo2.sol\":2093:2743  if(choice1 == Options.SCISSORS && newChoice == Options.PAPER) {... */\n      jump(tag_103)\n    tag_101:\n        /* \"solidity/JokenPo2.sol\":2238:2254  Options.SCISSORS */\n      0x03\n        /* \"solidity/JokenPo2.sol\":2227:2254  choice1 == Options.SCISSORS */\n      dup1\n      dup2\n      gt\n      iszero\n      tag_104\n      jumpi\n      tag_105\n      tag_45\n      jump\t// in\n    tag_105:\n    tag_104:\n        /* \"solidity/JokenPo2.sol\":2227:2234  choice1 */\n      0x00\n      dup1\n      sload\n      swap1\n      0x0100\n      exp\n      swap1\n      div\n      0xff\n      and\n        /* \"solidity/JokenPo2.sol\":2227:2254  choice1 == Options.SCISSORS */\n      0x03\n      dup2\n      gt\n      iszero\n      tag_106\n      jumpi\n      tag_107\n      tag_45\n      jump\t// in\n    tag_107:\n    tag_106:\n      eq\n        /* \"solidity/JokenPo2.sol\":2227:2283  choice1 == Options.SCISSORS && newChoice == Options.ROCK */\n      dup1\n      iszero\n      tag_108\n      jumpi\n      pop\n        /* \"solidity/JokenPo2.sol\":2271:2283  Options.ROCK */\n      0x01\n        /* \"solidity/JokenPo2.sol\":2258:2283  newChoice == Options.ROCK */\n      0x03\n      dup2\n      gt\n      iszero\n      tag_109\n      jumpi\n      tag_110\n      tag_45\n      jump\t// in\n    tag_110:\n    tag_109:\n        /* \"solidity/JokenPo2.sol\":2258:2267  newChoice */\n      dup2\n        /* \"solidity/JokenPo2.sol\":2258:2283  newChoice == Options.ROCK */\n      0x03\n      dup2\n      gt\n      iszero\n      tag_111\n      jumpi\n      tag_112\n      tag_45\n      jump\t// in\n    tag_112:\n    tag_111:\n      eq\n        /* \"solidity/JokenPo2.sol\":2227:2283  choice1 == Options.SCISSORS && newChoice == Options.ROCK */\n    tag_108:\n        /* \"solidity/JokenPo2.sol\":2224:2743  if(choice1 == Options.SCISSORS && newChoice == Options.ROCK) {... */\n      iszero\n      tag_113\n      jumpi\n        /* \"solidity/JokenPo2.sol\":2300:2339  finishiGame(\"Player 2 WON\", msg.sender) */\n      tag_114\n      mload(0x40)\n      dup1\n      0x40\n      add\n      0x40\n      mstore\n      dup1\n      0x0c\n      dup2\n      mstore\n      0x20\n      add\n      0x506c61796572203220574f4e0000000000000000000000000000000000000000\n      dup2\n      mstore\n      pop\n        /* \"solidity/JokenPo2.sol\":2328:2338  msg.sender */\n      caller\n        /* \"solidity/JokenPo2.sol\":2300:2311  finishiGame */\n      tag_78\n        /* \"solidity/JokenPo2.sol\":2300:2339  finishiGame(\"Player 2 WON\", msg.sender) */\n      jump\t// in\n    tag_114:\n        /* \"solidity/JokenPo2.sol\":2224:2743  if(choice1 == Options.SCISSORS && newChoice == Options.ROCK) {... */\n      jump(tag_115)\n    tag_113:\n        /* \"solidity/JokenPo2.sol\":2371:2383  Options.ROCK */\n      0x01\n        /* \"solidity/JokenPo2.sol\":2360:2383  choice1 == Options.ROCK */\n      0x03\n      dup2\n      gt\n      iszero\n      tag_116\n      jumpi\n      tag_117\n      tag_45\n      jump\t// in\n    tag_117:\n    tag_116:\n        /* \"solidity/JokenPo2.sol\":2360:2367  choice1 */\n      0x00\n      dup1\n      sload\n      swap1\n      0x0100\n      exp\n      swap1\n      div\n      0xff\n      and\n        /* \"solidity/JokenPo2.sol\":2360:2383  choice1 == Options.ROCK */\n      0x03\n      dup2\n      gt\n      iszero\n      tag_118\n      jumpi\n      tag_119\n      tag_45\n      jump\t// in\n    tag_119:\n    tag_118:\n      eq\n        /* \"solidity/JokenPo2.sol\":2360:2413  choice1 == Options.ROCK && newChoice == Options.PAPER */\n      dup1\n      iszero\n      tag_120\n      jumpi\n      pop\n        /* \"solidity/JokenPo2.sol\":2400:2413  Options.PAPER */\n      0x02\n        /* \"solidity/JokenPo2.sol\":2387:2413  newChoice == Options.PAPER */\n      0x03\n      dup2\n      gt\n      iszero\n      tag_121\n      jumpi\n      tag_122\n      tag_45\n      jump\t// in\n    tag_122:\n    tag_121:\n        /* \"solidity/JokenPo2.sol\":2387:2396  newChoice */\n      dup2\n        /* \"solidity/JokenPo2.sol\":2387:2413  newChoice == Options.PAPER */\n      0x03\n      dup2\n      gt\n      iszero\n      tag_123\n      jumpi\n      tag_124\n      tag_45\n      jump\t// in\n    tag_124:\n    tag_123:\n      eq\n        /* \"solidity/JokenPo2.sol\":2360:2413  choice1 == Options.ROCK && newChoice == Options.PAPER */\n    tag_120:\n        /* \"solidity/JokenPo2.sol\":2357:2743  if(choice1 == Options.ROCK && newChoice == Options.PAPER) {... */\n      iszero\n      tag_125\n      jumpi\n        /* \"solidity/JokenPo2.sol\":2430:2469  finishiGame(\"Player 2 WON\", msg.sender) */\n      tag_126\n      mload(0x40)\n      dup1\n      0x40\n      add\n      0x40\n      mstore\n      dup1\n      0x0c\n      dup2\n      mstore\n      0x20\n      add\n      0x506c61796572203220574f4e0000000000000000000000000000000000000000\n      dup2\n      mstore\n      pop\n        /* \"solidity/JokenPo2.sol\":2458:2468  msg.sender */\n      caller\n        /* \"solidity/JokenPo2.sol\":2430:2441  finishiGame */\n      tag_78\n        /* \"solidity/JokenPo2.sol\":2430:2469  finishiGame(\"Player 2 WON\", msg.sender) */\n      jump\t// in\n    tag_126:\n        /* \"solidity/JokenPo2.sol\":2357:2743  if(choice1 == Options.ROCK && newChoice == Options.PAPER) {... */\n      jump(tag_127)\n    tag_125:\n        /* \"solidity/JokenPo2.sol\":2501:2514  Options.PAPER */\n      0x02\n        /* \"solidity/JokenPo2.sol\":2490:2514  choice1 == Options.PAPER */\n      0x03\n      dup2\n      gt\n      iszero\n      tag_128\n      jumpi\n      tag_129\n      tag_45\n      jump\t// in\n    tag_129:\n    tag_128:\n        /* \"solidity/JokenPo2.sol\":2490:2497  choice1 */\n      0x00\n      dup1\n      sload\n      swap1\n      0x0100\n      exp\n      swap1\n      div\n      0xff\n      and\n        /* \"solidity/JokenPo2.sol\":2490:2514  choice1 == Options.PAPER */\n      0x03\n      dup2\n      gt\n      iszero\n      tag_130\n      jumpi\n      tag_131\n      tag_45\n      jump\t// in\n    tag_131:\n    tag_130:\n      eq\n        /* \"solidity/JokenPo2.sol\":2490:2547  choice1 == Options.PAPER && newChoice == Options.SCISSORS */\n      dup1\n      iszero\n      tag_132\n      jumpi\n      pop\n        /* \"solidity/JokenPo2.sol\":2531:2547  Options.SCISSORS */\n      0x03\n        /* \"solidity/JokenPo2.sol\":2518:2547  newChoice == Options.SCISSORS */\n      dup1\n      dup2\n      gt\n      iszero\n      tag_133\n      jumpi\n      tag_134\n      tag_45\n      jump\t// in\n    tag_134:\n    tag_133:\n        /* \"solidity/JokenPo2.sol\":2518:2527  newChoice */\n      dup2\n        /* \"solidity/JokenPo2.sol\":2518:2547  newChoice == Options.SCISSORS */\n      0x03\n      dup2\n      gt\n      iszero\n      tag_135\n      jumpi\n      tag_136\n      tag_45\n      jump\t// in\n    tag_136:\n    tag_135:\n      eq\n        /* \"solidity/JokenPo2.sol\":2490:2547  choice1 == Options.PAPER && newChoice == Options.SCISSORS */\n    tag_132:\n        /* \"solidity/JokenPo2.sol\":2487:2743  if(choice1 == Options.PAPER && newChoice == Options.SCISSORS) {... */\n      iszero\n      tag_137\n      jumpi\n        /* \"solidity/JokenPo2.sol\":2564:2603  finishiGame(\"Player 2 WON\", msg.sender) */\n      tag_138\n      mload(0x40)\n      dup1\n      0x40\n      add\n      0x40\n      mstore\n      dup1\n      0x0c\n      dup2\n      mstore\n      0x20\n      add\n      0x506c61796572203220574f4e0000000000000000000000000000000000000000\n      dup2\n      mstore\n      pop\n        /* \"solidity/JokenPo2.sol\":2592:2602  msg.sender */\n      caller\n        /* \"solidity/JokenPo2.sol\":2564:2575  finishiGame */\n      tag_78\n        /* \"solidity/JokenPo2.sol\":2564:2603  finishiGame(\"Player 2 WON\", msg.sender) */\n      jump\t// in\n    tag_138:\n        /* \"solidity/JokenPo2.sol\":2487:2743  if(choice1 == Options.PAPER && newChoice == Options.SCISSORS) {... */\n      jump(tag_139)\n    tag_137:\n        /* \"solidity/JokenPo2.sol\":2632:2667  result = \"Draw game, prize doubled\" */\n      mload(0x40)\n      dup1\n      0x40\n      add\n      0x40\n      mstore\n      dup1\n      0x18\n      dup2\n      mstore\n      0x20\n      add\n      0x447261772067616d652c207072697a6520646f75626c65640000000000000000\n      dup2\n      mstore\n      pop\n        /* \"solidity/JokenPo2.sol\":2632:2638  result */\n      0x01\n        /* \"solidity/JokenPo2.sol\":2632:2667  result = \"Draw game, prize doubled\" */\n      swap1\n      dup2\n      tag_140\n      swap2\n      swap1\n      tag_65\n      jump\t// in\n    tag_140:\n      pop\n        /* \"solidity/JokenPo2.sol\":2696:2697  0 */\n      0x00\n        /* \"solidity/JokenPo2.sol\":2678:2685  player1 */\n      dup1\n      0x01\n        /* \"solidity/JokenPo2.sol\":2678:2698  player1 = address(0) */\n      0x0100\n      exp\n      dup2\n      sload\n      dup2\n      0xffffffffffffffffffffffffffffffffffffffff\n      mul\n      not\n      and\n      swap1\n      dup4\n      0xffffffffffffffffffffffffffffffffffffffff\n      and\n      mul\n      or\n      swap1\n      sstore\n      pop\n        /* \"solidity/JokenPo2.sol\":2719:2731  Options.NONE */\n      0x00\n        /* \"solidity/JokenPo2.sol\":2709:2716  choice1 */\n      dup1\n      0x00\n        /* \"solidity/JokenPo2.sol\":2709:2731  choice1 = Options.NONE */\n      0x0100\n      exp\n      dup2\n      sload\n      dup2\n      0xff\n      mul\n      not\n      and\n      swap1\n      dup4\n      0x03\n      dup2\n      gt\n      iszero\n      tag_141\n      jumpi\n      tag_142\n      tag_45\n      jump\t// in\n    tag_142:\n    tag_141:\n      mul\n      or\n      swap1\n      sstore\n      pop\n        /* \"solidity/JokenPo2.sol\":2487:2743  if(choice1 == Options.PAPER && newChoice == Options.SCISSORS) {... */\n    tag_139:\n        /* \"solidity/JokenPo2.sol\":2357:2743  if(choice1 == Options.ROCK && newChoice == Options.PAPER) {... */\n    tag_127:\n        /* \"solidity/JokenPo2.sol\":2224:2743  if(choice1 == Options.SCISSORS && newChoice == Options.ROCK) {... */\n    tag_115:\n        /* \"solidity/JokenPo2.sol\":2093:2743  if(choice1 == Options.SCISSORS && newChoice == Options.PAPER) {... */\n    tag_103:\n        /* \"solidity/JokenPo2.sol\":1966:2743  if(choice1 == Options.PAPER && newChoice == Options.ROCK) {... */\n    tag_91:\n        /* \"solidity/JokenPo2.sol\":1836:2743  if(choice1 == Options.ROCK && newChoice == Options.SCISSORS) {... */\n    tag_79:\n        /* \"solidity/JokenPo2.sol\":1643:2743  if(choice1 == Options.NONE) {... */\n    tag_66:\n        /* \"solidity/JokenPo2.sol\":1389:2750  function play(Options newChoice) public payable  {... */\n      pop\n      jump\t// out\n        /* \"solidity/JokenPo2.sol\":225:251  string  public result = \"\" */\n    tag_19:\n      0x01\n      dup1\n      sload\n      tag_143\n      swap1\n      tag_144\n      jump\t// in\n    tag_143:\n      dup1\n      0x1f\n      add\n      0x20\n      dup1\n      swap2\n      div\n      mul\n      0x20\n      add\n      mload(0x40)\n      swap1\n      dup2\n      add\n      0x40\n      mstore\n      dup1\n      swap3\n      swap2\n      swap1\n      dup2\n      dup2\n      mstore\n      0x20\n      add\n      dup3\n      dup1\n      sload\n      tag_145\n      swap1\n      tag_144\n      jump\t// in\n    tag_145:\n      dup1\n      iszero\n      tag_146\n      jumpi\n      dup1\n      0x1f\n      lt\n      tag_147\n      jumpi\n      0x0100\n      dup1\n      dup4\n      sload\n      div\n      mul\n      dup4\n      mstore\n      swap2\n      0x20\n      add\n      swap2\n      jump(tag_146)\n    tag_147:\n      dup3\n      add\n      swap2\n      swap1\n      0x00\n      mstore\n      keccak256(0x00, 0x20)\n      swap1\n    tag_148:\n      dup2\n      sload\n      dup2\n      mstore\n      swap1\n      0x01\n      add\n      swap1\n      0x20\n      add\n      dup1\n      dup4\n      gt\n      tag_148\n      jumpi\n      dup3\n      swap1\n      sub\n      0x1f\n      and\n      dup3\n      add\n      swap2\n    tag_146:\n      pop\n      pop\n      pop\n      pop\n      pop\n      dup2\n      jump\t// out\n        /* \"solidity/JokenPo2.sol\":258:285  uint public qtdVitorias = 0 */\n    tag_24:\n      sload(0x02)\n      dup2\n      jump\t// out\n        /* \"solidity/JokenPo2.sol\":2758:3385  function getLeaderBorder() public view returns(Player[] memory) {... */\n    tag_28:\n        /* \"solidity/JokenPo2.sol\":2805:2820  Player[] memory */\n      0x60\n        /* \"solidity/JokenPo2.sol\":2853:2854  2 */\n      0x02\n        /* \"solidity/JokenPo2.sol\":2836:2843  players */\n      0x03\n        /* \"solidity/JokenPo2.sol\":2836:2850  players.length */\n      dup1\n      sload\n      swap1\n      pop\n        /* \"solidity/JokenPo2.sol\":2836:2854  players.length < 2 */\n      lt\n        /* \"solidity/JokenPo2.sol\":2833:2870  if(players.length < 2) return players */\n      iszero\n      tag_150\n      jumpi\n        /* \"solidity/JokenPo2.sol\":2863:2870  players */\n      0x03\n        /* \"solidity/JokenPo2.sol\":2856:2870  return players */\n      dup1\n      sload\n      dup1\n      0x20\n      mul\n      0x20\n      add\n      mload(0x40)\n      swap1\n      dup2\n      add\n      0x40\n      mstore\n      dup1\n      swap3\n      swap2\n      swap1\n      dup2\n      dup2\n      mstore\n      0x20\n      add\n      0x00\n      swap1\n    tag_151:\n      dup3\n      dup3\n      lt\n      iszero\n      tag_152\n      jumpi\n      dup4\n      dup3\n      swap1\n      0x00\n      mstore\n      keccak256(0x00, 0x20)\n      add\n      mload(0x40)\n      dup1\n      0x40\n      add\n      0x40\n      mstore\n      swap1\n      dup2\n      0x00\n      dup3\n      add\n      0x00\n      swap1\n      sload\n      swap1\n      0x0100\n      exp\n      swap1\n      div\n      0xffffffffffffffffffffffffffffffffffffffff\n      and\n      0xffffffffffffffffffffffffffffffffffffffff\n      and\n      0xffffffffffffffffffffffffffffffffffffffff\n      and\n      dup2\n      mstore\n      0x20\n      add\n      0x00\n      dup3\n      add\n      0x14\n      swap1\n      sload\n      swap1\n      0x0100\n      exp\n      swap1\n      div\n      0xffffffff\n      and\n      0xffffffff\n      and\n      0xffffffff\n      and\n      dup2\n      mstore\n      pop\n      pop\n      dup2\n      mstore\n      0x20\n      add\n      swap1\n      0x01\n      add\n      swap1\n      jump(tag_151)\n    tag_152:\n      pop\n      pop\n      pop\n      pop\n      swap1\n      pop\n      jump(tag_149)\n        /* \"solidity/JokenPo2.sol\":2833:2870  if(players.length < 2) return players */\n    tag_150:\n        /* \"solidity/JokenPo2.sol\":2883:2902  Player[] memory arr */\n      0x00\n        /* \"solidity/JokenPo2.sol\":2918:2925  players */\n      0x03\n        /* \"solidity/JokenPo2.sol\":2918:2932  players.length */\n      dup1\n      sload\n      swap1\n      pop\n        /* \"solidity/JokenPo2.sol\":2905:2933  new Player[](players.length) */\n      0xffffffffffffffff\n      dup2\n      gt\n      iszero\n      tag_154\n      jumpi\n      tag_155\n      tag_156\n      jump\t// in\n    tag_155:\n    tag_154:\n      mload(0x40)\n      swap1\n      dup1\n      dup3\n      mstore\n      dup1\n      0x20\n      mul\n      0x20\n      add\n      dup3\n      add\n      0x40\n      mstore\n      dup1\n      iszero\n      tag_157\n      jumpi\n      dup2\n      0x20\n      add\n    tag_158:\n      tag_159\n      tag_160\n      jump\t// in\n    tag_159:\n      dup2\n      mstore\n      0x20\n      add\n      swap1\n      0x01\n      swap1\n      sub\n      swap1\n      dup2\n      tag_158\n      jumpi\n      swap1\n      pop\n    tag_157:\n      pop\n        /* \"solidity/JokenPo2.sol\":2883:2933  Player[] memory arr = new Player[](players.length) */\n      swap1\n      pop\n        /* \"solidity/JokenPo2.sol\":2950:2956  uint i */\n      0x00\n        /* \"solidity/JokenPo2.sol\":2946:3031  for(uint i=0; i < players.length; i++) {... */\n    tag_161:\n        /* \"solidity/JokenPo2.sol\":2964:2971  players */\n      0x03\n        /* \"solidity/JokenPo2.sol\":2964:2978  players.length */\n      dup1\n      sload\n      swap1\n      pop\n        /* \"solidity/JokenPo2.sol\":2960:2961  i */\n      dup2\n        /* \"solidity/JokenPo2.sol\":2960:2978  i < players.length */\n      lt\n        /* \"solidity/JokenPo2.sol\":2946:3031  for(uint i=0; i < players.length; i++) {... */\n      iszero\n      tag_162\n      jumpi\n        /* \"solidity/JokenPo2.sol\":3009:3016  players */\n      0x03\n        /* \"solidity/JokenPo2.sol\":3017:3018  i */\n      dup2\n        /* \"solidity/JokenPo2.sol\":3009:3019  players[i] */\n      dup2\n      sload\n      dup2\n      lt\n      tag_164\n      jumpi\n      tag_165\n      tag_166\n      jump\t// in\n    tag_165:\n    tag_164:\n      swap1\n      0x00\n      mstore\n      keccak256(0x00, 0x20)\n      add\n        /* \"solidity/JokenPo2.sol\":3000:3019  arr[i] = players[i] */\n      mload(0x40)\n      dup1\n      0x40\n      add\n      0x40\n      mstore\n      swap1\n      dup2\n      0x00\n      dup3\n      add\n      0x00\n      swap1\n      sload\n      swap1\n      0x0100\n      exp\n      swap1\n      div\n      0xffffffffffffffffffffffffffffffffffffffff\n      and\n      0xffffffffffffffffffffffffffffffffffffffff\n      and\n      0xffffffffffffffffffffffffffffffffffffffff\n      and\n      dup2\n      mstore\n      0x20\n      add\n      0x00\n      dup3\n      add\n      0x14\n      swap1\n      sload\n      swap1\n      0x0100\n      exp\n      swap1\n      div\n      0xffffffff\n      and\n      0xffffffff\n      and\n      0xffffffff\n      and\n      dup2\n      mstore\n      pop\n      pop\n        /* \"solidity/JokenPo2.sol\":3000:3003  arr */\n      dup3\n        /* \"solidity/JokenPo2.sol\":3004:3005  i */\n      dup3\n        /* \"solidity/JokenPo2.sol\":3000:3006  arr[i] */\n      dup2\n      mload\n      dup2\n      lt\n      tag_168\n      jumpi\n      tag_169\n      tag_166\n      jump\t// in\n    tag_169:\n    tag_168:\n      0x20\n      mul\n      0x20\n      add\n      add\n        /* \"solidity/JokenPo2.sol\":3000:3019  arr[i] = players[i] */\n      dup2\n      swap1\n      mstore\n      pop\n        /* \"solidity/JokenPo2.sol\":2980:2983  i++ */\n      dup1\n      dup1\n      0x01\n      add\n      swap2\n      pop\n      pop\n        /* \"solidity/JokenPo2.sol\":2946:3031  for(uint i=0; i < players.length; i++) {... */\n      jump(tag_161)\n    tag_162:\n      pop\n        /* \"solidity/JokenPo2.sol\":3045:3051  uint i */\n      0x00\n        /* \"solidity/JokenPo2.sol\":3041:3357  for(uint i = 0; i < arr.length - 1; i++) {... */\n    tag_170:\n        /* \"solidity/JokenPo2.sol\":3074:3075  1 */\n      0x01\n        /* \"solidity/JokenPo2.sol\":3061:3064  arr */\n      dup3\n        /* \"solidity/JokenPo2.sol\":3061:3071  arr.length */\n      mload\n        /* \"solidity/JokenPo2.sol\":3061:3075  arr.length - 1 */\n      tag_173\n      swap2\n      swap1\n      tag_174\n      jump\t// in\n    tag_173:\n        /* \"solidity/JokenPo2.sol\":3057:3058  i */\n      dup2\n        /* \"solidity/JokenPo2.sol\":3057:3075  i < arr.length - 1 */\n      lt\n        /* \"solidity/JokenPo2.sol\":3041:3357  for(uint i = 0; i < arr.length - 1; i++) {... */\n      iszero\n      tag_171\n      jumpi\n        /* \"solidity/JokenPo2.sol\":3101:3107  uint j */\n      0x00\n        /* \"solidity/JokenPo2.sol\":3110:3111  1 */\n      0x01\n        /* \"solidity/JokenPo2.sol\":3101:3111  uint j = 1 */\n      swap1\n      pop\n        /* \"solidity/JokenPo2.sol\":3097:3346  for(uint j = 1; j < arr.length; j++) {... */\n    tag_175:\n        /* \"solidity/JokenPo2.sol\":3117:3120  arr */\n      dup3\n        /* \"solidity/JokenPo2.sol\":3117:3127  arr.length */\n      mload\n        /* \"solidity/JokenPo2.sol\":3113:3114  j */\n      dup2\n        /* \"solidity/JokenPo2.sol\":3113:3127  j < arr.length */\n      lt\n        /* \"solidity/JokenPo2.sol\":3097:3346  for(uint j = 1; j < arr.length; j++) {... */\n      iszero\n      tag_176\n      jumpi\n        /* \"solidity/JokenPo2.sol\":3170:3173  arr */\n      dup3\n        /* \"solidity/JokenPo2.sol\":3174:3175  j */\n      dup2\n        /* \"solidity/JokenPo2.sol\":3170:3176  arr[j] */\n      dup2\n      mload\n      dup2\n      lt\n      tag_178\n      jumpi\n      tag_179\n      tag_166\n      jump\t// in\n    tag_179:\n    tag_178:\n      0x20\n      mul\n      0x20\n      add\n      add\n      mload\n        /* \"solidity/JokenPo2.sol\":3170:3181  arr[j].wins */\n      0x20\n      add\n      mload\n        /* \"solidity/JokenPo2.sol\":3156:3181  arr[i].wins < arr[j].wins */\n      0xffffffff\n      and\n        /* \"solidity/JokenPo2.sol\":3156:3159  arr */\n      dup4\n        /* \"solidity/JokenPo2.sol\":3160:3161  i */\n      dup4\n        /* \"solidity/JokenPo2.sol\":3156:3162  arr[i] */\n      dup2\n      mload\n      dup2\n      lt\n      tag_180\n      jumpi\n      tag_181\n      tag_166\n      jump\t// in\n    tag_181:\n    tag_180:\n      0x20\n      mul\n      0x20\n      add\n      add\n      mload\n        /* \"solidity/JokenPo2.sol\":3156:3167  arr[i].wins */\n      0x20\n      add\n      mload\n        /* \"solidity/JokenPo2.sol\":3156:3181  arr[i].wins < arr[j].wins */\n      0xffffffff\n      and\n      lt\n        /* \"solidity/JokenPo2.sol\":3153:3331  if(arr[i].wins < arr[j].wins) {... */\n      iszero\n      tag_182\n      jumpi\n        /* \"solidity/JokenPo2.sol\":3206:3226  Player memory change */\n      0x00\n        /* \"solidity/JokenPo2.sol\":3229:3232  arr */\n      dup4\n        /* \"solidity/JokenPo2.sol\":3233:3234  i */\n      dup4\n        /* \"solidity/JokenPo2.sol\":3229:3235  arr[i] */\n      dup2\n      mload\n      dup2\n      lt\n      tag_183\n      jumpi\n      tag_184\n      tag_166\n      jump\t// in\n    tag_184:\n    tag_183:\n      0x20\n      mul\n      0x20\n      add\n      add\n      mload\n        /* \"solidity/JokenPo2.sol\":3206:3235  Player memory change = arr[i] */\n      swap1\n      pop\n        /* \"solidity/JokenPo2.sol\":3267:3270  arr */\n      dup4\n        /* \"solidity/JokenPo2.sol\":3271:3272  j */\n      dup3\n        /* \"solidity/JokenPo2.sol\":3267:3273  arr[j] */\n      dup2\n      mload\n      dup2\n      lt\n      tag_185\n      jumpi\n      tag_186\n      tag_166\n      jump\t// in\n    tag_186:\n    tag_185:\n      0x20\n      mul\n      0x20\n      add\n      add\n      mload\n        /* \"solidity/JokenPo2.sol\":3258:3261  arr */\n      dup5\n        /* \"solidity/JokenPo2.sol\":3262:3263  i */\n      dup5\n        /* \"solidity/JokenPo2.sol\":3258:3264  arr[i] */\n      dup2\n      mload\n      dup2\n      lt\n      tag_187\n      jumpi\n      tag_188\n      tag_166\n      jump\t// in\n    tag_188:\n    tag_187:\n      0x20\n      mul\n      0x20\n      add\n      add\n        /* \"solidity/JokenPo2.sol\":3258:3273  arr[i] = arr[j] */\n      dup2\n      swap1\n      mstore\n      pop\n        /* \"solidity/JokenPo2.sol\":3305:3311  change */\n      dup1\n        /* \"solidity/JokenPo2.sol\":3296:3299  arr */\n      dup5\n        /* \"solidity/JokenPo2.sol\":3300:3301  j */\n      dup4\n        /* \"solidity/JokenPo2.sol\":3296:3302  arr[j] */\n      dup2\n      mload\n      dup2\n      lt\n      tag_189\n      jumpi\n      tag_190\n      tag_166\n      jump\t// in\n    tag_190:\n    tag_189:\n      0x20\n      mul\n      0x20\n      add\n      add\n        /* \"solidity/JokenPo2.sol\":3296:3311  arr[j] = change */\n      dup2\n      swap1\n      mstore\n      pop\n        /* \"solidity/JokenPo2.sol\":3183:3331  {... */\n      pop\n        /* \"solidity/JokenPo2.sol\":3153:3331  if(arr[i].wins < arr[j].wins) {... */\n    tag_182:\n        /* \"solidity/JokenPo2.sol\":3129:3132  j++ */\n      dup1\n      dup1\n      0x01\n      add\n      swap2\n      pop\n      pop\n        /* \"solidity/JokenPo2.sol\":3097:3346  for(uint j = 1; j < arr.length; j++) {... */\n      jump(tag_175)\n    tag_176:\n      pop\n        /* \"solidity/JokenPo2.sol\":3077:3080  i++ */\n      dup1\n      dup1\n      0x01\n      add\n      swap2\n      pop\n      pop\n        /* \"solidity/JokenPo2.sol\":3041:3357  for(uint i = 0; i < arr.length - 1; i++) {... */\n      jump(tag_170)\n    tag_171:\n      pop\n        /* \"solidity/JokenPo2.sol\":3374:3377  arr */\n      dup1\n        /* \"solidity/JokenPo2.sol\":3367:3377  return arr */\n      swap2\n      pop\n      pop\n        /* \"solidity/JokenPo2.sol\":2758:3385  function getLeaderBorder() public view returns(Player[] memory) {... */\n    tag_149:\n      swap1\n      jump\t// out\n        /* \"solidity/JokenPo2.sol\":417:440  Player[] public players */\n    tag_35:\n      0x03\n      dup2\n      dup2\n      sload\n      dup2\n      lt\n      tag_191\n      jumpi\n      0x00\n      dup1\n      revert\n    tag_191:\n      swap1\n      0x00\n      mstore\n      keccak256(0x00, 0x20)\n      add\n      0x00\n      swap2\n      pop\n      swap1\n      pop\n      dup1\n      0x00\n      add\n      0x00\n      swap1\n      sload\n      swap1\n      0x0100\n      exp\n      swap1\n      div\n      0xffffffffffffffffffffffffffffffffffffffff\n      and\n      swap1\n      dup1\n      0x00\n      add\n      0x14\n      swap1\n      sload\n      swap1\n      0x0100\n      exp\n      swap1\n      div\n      0xffffffff\n      and\n      swap1\n      pop\n      dup3\n      jump\t// out\n        /* \"solidity/JokenPo2.sol\":810:1211  function finishiGame(string memory newResult, address winner) private {... */\n    tag_78:\n        /* \"solidity/JokenPo2.sol\":891:914  address contractAddress */\n      0x00\n        /* \"solidity/JokenPo2.sol\":925:929  this */\n      address\n        /* \"solidity/JokenPo2.sol\":891:930  address contractAddress = address(this) */\n      swap1\n      pop\n        /* \"solidity/JokenPo2.sol\":949:955  winner */\n      dup2\n        /* \"solidity/JokenPo2.sol\":941:965  payable(winner).transfer */\n      0xffffffffffffffffffffffffffffffffffffffff\n      and\n        /* \"solidity/JokenPo2.sol\":941:1003  payable(winner).transfer((contractAddress.balance / 100) * 90) */\n      0x08fc\n        /* \"solidity/JokenPo2.sol\":1000:1002  90 */\n      0x5a\n        /* \"solidity/JokenPo2.sol\":993:996  100 */\n      0x64\n        /* \"solidity/JokenPo2.sol\":967:982  contractAddress */\n      dup5\n        /* \"solidity/JokenPo2.sol\":967:990  contractAddress.balance */\n      0xffffffffffffffffffffffffffffffffffffffff\n      and\n      balance\n        /* \"solidity/JokenPo2.sol\":967:996  contractAddress.balance / 100 */\n      tag_194\n      swap2\n      swap1\n      tag_195\n      jump\t// in\n    tag_194:\n        /* \"solidity/JokenPo2.sol\":966:1002  (contractAddress.balance / 100) * 90 */\n      tag_196\n      swap2\n      swap1\n      tag_197\n      jump\t// in\n    tag_196:\n        /* \"solidity/JokenPo2.sol\":941:1003  payable(winner).transfer((contractAddress.balance / 100) * 90) */\n      swap1\n      dup2\n      iszero\n      mul\n      swap1\n      mload(0x40)\n      0x00\n      mload(0x40)\n      dup1\n      dup4\n      sub\n      dup2\n      dup6\n      dup9\n      dup9\n      call\n      swap4\n      pop\n      pop\n      pop\n      pop\n      iszero\n      dup1\n      iszero\n      tag_199\n      jumpi\n      returndatasize\n      0x00\n      dup1\n      returndatacopy\n      revert(0x00, returndatasize)\n    tag_199:\n      pop\n        /* \"solidity/JokenPo2.sol\":1014:1019  owner */\n      immutable(\"0xf4c2b5de886427473655d4c904c743576dc2d53249b7535d96c06cc97ae7216b\")\n        /* \"solidity/JokenPo2.sol\":1014:1028  owner.transfer */\n      0xffffffffffffffffffffffffffffffffffffffff\n      and\n        /* \"solidity/JokenPo2.sol\":1014:1053  owner.transfer(contractAddress.balance) */\n      0x08fc\n        /* \"solidity/JokenPo2.sol\":1029:1044  contractAddress */\n      dup3\n        /* \"solidity/JokenPo2.sol\":1029:1052  contractAddress.balance */\n      0xffffffffffffffffffffffffffffffffffffffff\n      and\n      balance\n        /* \"solidity/JokenPo2.sol\":1014:1053  owner.transfer(contractAddress.balance) */\n      swap1\n      dup2\n      iszero\n      mul\n      swap1\n      mload(0x40)\n      0x00\n      mload(0x40)\n      dup1\n      dup4\n      sub\n      dup2\n      dup6\n      dup9\n      dup9\n      call\n      swap4\n      pop\n      pop\n      pop\n      pop\n      iszero\n      dup1\n      iszero\n      tag_201\n      jumpi\n      returndatasize\n      0x00\n      dup1\n      returndatacopy\n      revert(0x00, returndatasize)\n    tag_201:\n      pop\n        /* \"solidity/JokenPo2.sol\":1064:1084  updateWinner(winner) */\n      tag_202\n        /* \"solidity/JokenPo2.sol\":1077:1083  winner */\n      dup3\n        /* \"solidity/JokenPo2.sol\":1064:1076  updateWinner */\n      tag_203\n        /* \"solidity/JokenPo2.sol\":1064:1084  updateWinner(winner) */\n      jump\t// in\n    tag_202:\n        /* \"solidity/JokenPo2.sol\":1130:1139  newResult */\n      dup3\n        /* \"solidity/JokenPo2.sol\":1121:1127  result */\n      0x01\n        /* \"solidity/JokenPo2.sol\":1121:1139  result = newResult */\n      swap1\n      dup2\n      tag_204\n      swap2\n      swap1\n      tag_65\n      jump\t// in\n    tag_204:\n      pop\n        /* \"solidity/JokenPo2.sol\":1168:1169  0 */\n      0x00\n        /* \"solidity/JokenPo2.sol\":1150:1157  player1 */\n      dup1\n      0x01\n        /* \"solidity/JokenPo2.sol\":1150:1170  player1 = address(0) */\n      0x0100\n      exp\n      dup2\n      sload\n      dup2\n      0xffffffffffffffffffffffffffffffffffffffff\n      mul\n      not\n      and\n      swap1\n      dup4\n      0xffffffffffffffffffffffffffffffffffffffff\n      and\n      mul\n      or\n      swap1\n      sstore\n      pop\n        /* \"solidity/JokenPo2.sol\":1191:1203  Options.NONE */\n      0x00\n        /* \"solidity/JokenPo2.sol\":1181:1188  choice1 */\n      dup1\n      0x00\n        /* \"solidity/JokenPo2.sol\":1181:1203  choice1 = Options.NONE */\n      0x0100\n      exp\n      dup2\n      sload\n      dup2\n      0xff\n      mul\n      not\n      and\n      swap1\n      dup4\n      0x03\n      dup2\n      gt\n      iszero\n      tag_205\n      jumpi\n      tag_206\n      tag_45\n      jump\t// in\n    tag_206:\n    tag_205:\n      mul\n      or\n      swap1\n      sstore\n      pop\n        /* \"solidity/JokenPo2.sol\":880:1211  {... */\n      pop\n        /* \"solidity/JokenPo2.sol\":810:1211  function finishiGame(string memory newResult, address winner) private {... */\n      pop\n      pop\n      jump\t// out\n        /* \"solidity/JokenPo2.sol\":542:802  function updateWinner(address winner) private{... */\n    tag_203:\n        /* \"solidity/JokenPo2.sol\":602:608  uint i */\n      0x00\n        /* \"solidity/JokenPo2.sol\":618:625  players */\n      0x03\n        /* \"solidity/JokenPo2.sol\":618:632  players.length */\n      dup1\n      sload\n      swap1\n      pop\n        /* \"solidity/JokenPo2.sol\":614:615  i */\n      dup2\n        /* \"solidity/JokenPo2.sol\":614:632  i < players.length */\n      lt\n        /* \"solidity/JokenPo2.sol\":598:753  for(uint i = 0; i < players.length; i++) {... */\n      iszero\n      tag_209\n      jumpi\n        /* \"solidity/JokenPo2.sol\":678:684  winner */\n      dup2\n        /* \"solidity/JokenPo2.sol\":657:684  players[i].wallet == winner */\n      0xffffffffffffffffffffffffffffffffffffffff\n      and\n        /* \"solidity/JokenPo2.sol\":657:664  players */\n      0x03\n        /* \"solidity/JokenPo2.sol\":665:666  i */\n      dup3\n        /* \"solidity/JokenPo2.sol\":657:667  players[i] */\n      dup2\n      sload\n      dup2\n      lt\n      tag_211\n      jumpi\n      tag_212\n      tag_166\n      jump\t// in\n    tag_212:\n    tag_211:\n      swap1\n      0x00\n      mstore\n      keccak256(0x00, 0x20)\n      add\n        /* \"solidity/JokenPo2.sol\":657:674  players[i].wallet */\n      0x00\n      add\n      0x00\n      swap1\n      sload\n      swap1\n      0x0100\n      exp\n      swap1\n      div\n      0xffffffffffffffffffffffffffffffffffffffff\n      and\n        /* \"solidity/JokenPo2.sol\":657:684  players[i].wallet == winner */\n      0xffffffffffffffffffffffffffffffffffffffff\n      and\n      sub\n        /* \"solidity/JokenPo2.sol\":654:716  if(players[i].wallet == winner)... */\n      tag_214\n      jumpi\n        /* \"solidity/JokenPo2.sol\":699:706  players */\n      0x03\n        /* \"solidity/JokenPo2.sol\":707:708  i */\n      dup2\n        /* \"solidity/JokenPo2.sol\":699:709  players[i] */\n      dup2\n      sload\n      dup2\n      lt\n      tag_215\n      jumpi\n      tag_216\n      tag_166\n      jump\t// in\n    tag_216:\n    tag_215:\n      swap1\n      0x00\n      mstore\n      keccak256(0x00, 0x20)\n      add\n        /* \"solidity/JokenPo2.sol\":699:714  players[i].wins */\n      0x00\n      add\n      0x14\n        /* \"solidity/JokenPo2.sol\":699:716  players[i].wins++ */\n      dup2\n      dup2\n      swap1\n      sload\n      swap1\n      0x0100\n      exp\n      swap1\n      div\n      0xffffffff\n      and\n      dup1\n      swap3\n      swap2\n      swap1\n      tag_218\n      swap1\n      tag_219\n      jump\t// in\n    tag_218:\n      swap2\n      swap1\n      0x0100\n      exp\n      dup2\n      sload\n      dup2\n      0xffffffff\n      mul\n      not\n      and\n      swap1\n      dup4\n      0xffffffff\n      and\n      mul\n      or\n      swap1\n      sstore\n      pop\n      pop\n        /* \"solidity/JokenPo2.sol\":654:716  if(players[i].wallet == winner)... */\n    tag_214:\n        /* \"solidity/JokenPo2.sol\":735:742  return; */\n      pop\n      jump(tag_207)\n        /* \"solidity/JokenPo2.sol\":598:753  for(uint i = 0; i < players.length; i++) {... */\n    tag_209:\n      pop\n        /* \"solidity/JokenPo2.sol\":763:770  players */\n      0x03\n        /* \"solidity/JokenPo2.sol\":776:793  Player(winner, 1) */\n      mload(0x40)\n      dup1\n      0x40\n      add\n      0x40\n      mstore\n      dup1\n        /* \"solidity/JokenPo2.sol\":783:789  winner */\n      dup4\n        /* \"solidity/JokenPo2.sol\":776:793  Player(winner, 1) */\n      0xffffffffffffffffffffffffffffffffffffffff\n      and\n      dup2\n      mstore\n      0x20\n      add\n        /* \"solidity/JokenPo2.sol\":791:792  1 */\n      0x01\n        /* \"solidity/JokenPo2.sol\":776:793  Player(winner, 1) */\n      0xffffffff\n      and\n      dup2\n      mstore\n      pop\n        /* \"solidity/JokenPo2.sol\":763:794  players.push(Player(winner, 1)) */\n      swap1\n      dup1\n      0x01\n      dup2\n      sload\n      add\n      dup1\n      dup3\n      sstore\n      dup1\n      swap2\n      pop\n      pop\n      0x01\n      swap1\n      sub\n      swap1\n      0x00\n      mstore\n      keccak256(0x00, 0x20)\n      add\n      0x00\n      swap1\n      swap2\n      swap1\n      swap2\n      swap1\n      swap2\n      pop\n      0x00\n      dup3\n      add\n      mload\n      dup2\n      0x00\n      add\n      exp(0x0100, 0x00)\n      dup2\n      sload\n      dup2\n      0xffffffffffffffffffffffffffffffffffffffff\n      mul\n      not\n      and\n      swap1\n      dup4\n      0xffffffffffffffffffffffffffffffffffffffff\n      and\n      mul\n      or\n      swap1\n      sstore\n      pop\n      0x20\n      dup3\n      add\n      mload\n      dup2\n      0x00\n      add\n      exp(0x0100, 0x14)\n      dup2\n      sload\n      dup2\n      0xffffffff\n      mul\n      not\n      and\n      swap1\n      dup4\n      0xffffffff\n      and\n      mul\n      or\n      swap1\n      sstore\n      pop\n      pop\n      pop\n        /* \"solidity/JokenPo2.sol\":542:802  function updateWinner(address winner) private{... */\n    tag_207:\n      pop\n      jump\t// out\n    tag_160:\n      mload(0x40)\n      dup1\n      0x40\n      add\n      0x40\n      mstore\n      dup1\n      and(0xffffffffffffffffffffffffffffffffffffffff, 0x00)\n      dup2\n      mstore\n      0x20\n      add\n      and(0xffffffff, 0x00)\n      dup2\n      mstore\n      pop\n      swap1\n      jump\t// out\n        /* \"#utility.yul\":7:84   */\n    tag_221:\n        /* \"#utility.yul\":44:51   */\n      0x00\n        /* \"#utility.yul\":73:78   */\n      dup2\n        /* \"#utility.yul\":62:78   */\n      swap1\n      pop\n        /* \"#utility.yul\":7:84   */\n      swap2\n      swap1\n      pop\n      jump\t// out\n        /* \"#utility.yul\":90:208   */\n    tag_222:\n        /* \"#utility.yul\":177:201   */\n      tag_278\n        /* \"#utility.yul\":195:200   */\n      dup2\n        /* \"#utility.yul\":177:201   */\n      tag_221\n      jump\t// in\n    tag_278:\n        /* \"#utility.yul\":172:175   */\n      dup3\n        /* \"#utility.yul\":165:202   */\n      mstore\n        /* \"#utility.yul\":90:208   */\n      pop\n      pop\n      jump\t// out\n        /* \"#utility.yul\":214:436   */\n    tag_12:\n        /* \"#utility.yul\":307:311   */\n      0x00\n        /* \"#utility.yul\":345:347   */\n      0x20\n        /* \"#utility.yul\":334:343   */\n      dup3\n        /* \"#utility.yul\":330:348   */\n      add\n        /* \"#utility.yul\":322:348   */\n      swap1\n      pop\n        /* \"#utility.yul\":358:429   */\n      tag_280\n        /* \"#utility.yul\":426:427   */\n      0x00\n        /* \"#utility.yul\":415:424   */\n      dup4\n        /* \"#utility.yul\":411:428   */\n      add\n        /* \"#utility.yul\":402:408   */\n      dup5\n        /* \"#utility.yul\":358:429   */\n      tag_222\n      jump\t// in\n    tag_280:\n        /* \"#utility.yul\":214:436   */\n      swap3\n      swap2\n      pop\n      pop\n      jump\t// out\n        /* \"#utility.yul\":523:640   */\n    tag_224:\n        /* \"#utility.yul\":632:633   */\n      0x00\n        /* \"#utility.yul\":629:630   */\n      dup1\n        /* \"#utility.yul\":622:634   */\n      revert\n        /* \"#utility.yul\":769:877   */\n    tag_226:\n        /* \"#utility.yul\":851:852   */\n      0x04\n        /* \"#utility.yul\":844:849   */\n      dup2\n        /* \"#utility.yul\":841:853   */\n      lt\n        /* \"#utility.yul\":831:871   */\n      tag_285\n      jumpi\n        /* \"#utility.yul\":867:868   */\n      0x00\n        /* \"#utility.yul\":864:865   */\n      dup1\n        /* \"#utility.yul\":857:869   */\n      revert\n        /* \"#utility.yul\":831:871   */\n    tag_285:\n        /* \"#utility.yul\":769:877   */\n      pop\n      jump\t// out\n        /* \"#utility.yul\":883:1040   */\n    tag_227:\n        /* \"#utility.yul\":938:943   */\n      0x00\n        /* \"#utility.yul\":976:982   */\n      dup2\n        /* \"#utility.yul\":963:983   */\n      calldataload\n        /* \"#utility.yul\":954:983   */\n      swap1\n      pop\n        /* \"#utility.yul\":992:1034   */\n      tag_287\n        /* \"#utility.yul\":1028:1033   */\n      dup2\n        /* \"#utility.yul\":992:1034   */\n      tag_226\n      jump\t// in\n    tag_287:\n        /* \"#utility.yul\":883:1040   */\n      swap3\n      swap2\n      pop\n      pop\n      jump\t// out\n        /* \"#utility.yul\":1046:1393   */\n    tag_15:\n        /* \"#utility.yul\":1114:1120   */\n      0x00\n        /* \"#utility.yul\":1163:1165   */\n      0x20\n        /* \"#utility.yul\":1151:1160   */\n      dup3\n        /* \"#utility.yul\":1142:1149   */\n      dup5\n        /* \"#utility.yul\":1138:1161   */\n      sub\n        /* \"#utility.yul\":1134:1166   */\n      slt\n        /* \"#utility.yul\":1131:1250   */\n      iszero\n      tag_289\n      jumpi\n        /* \"#utility.yul\":1169:1248   */\n      tag_290\n      tag_224\n      jump\t// in\n    tag_290:\n        /* \"#utility.yul\":1131:1250   */\n    tag_289:\n        /* \"#utility.yul\":1289:1290   */\n      0x00\n        /* \"#utility.yul\":1314:1376   */\n      tag_291\n        /* \"#utility.yul\":1368:1375   */\n      dup5\n        /* \"#utility.yul\":1359:1365   */\n      dup3\n        /* \"#utility.yul\":1348:1357   */\n      dup6\n        /* \"#utility.yul\":1344:1366   */\n      add\n        /* \"#utility.yul\":1314:1376   */\n      tag_227\n      jump\t// in\n    tag_291:\n        /* \"#utility.yul\":1304:1376   */\n      swap2\n      pop\n        /* \"#utility.yul\":1260:1386   */\n      pop\n        /* \"#utility.yul\":1046:1393   */\n      swap3\n      swap2\n      pop\n      pop\n      jump\t// out\n        /* \"#utility.yul\":1399:1498   */\n    tag_228:\n        /* \"#utility.yul\":1451:1457   */\n      0x00\n        /* \"#utility.yul\":1485:1490   */\n      dup2\n        /* \"#utility.yul\":1479:1491   */\n      mload\n        /* \"#utility.yul\":1469:1491   */\n      swap1\n      pop\n        /* \"#utility.yul\":1399:1498   */\n      swap2\n      swap1\n      pop\n      jump\t// out\n        /* \"#utility.yul\":1504:1673   */\n    tag_229:\n        /* \"#utility.yul\":1588:1599   */\n      0x00\n        /* \"#utility.yul\":1622:1628   */\n      dup3\n        /* \"#utility.yul\":1617:1620   */\n      dup3\n        /* \"#utility.yul\":1610:1629   */\n      mstore\n        /* \"#utility.yul\":1662:1666   */\n      0x20\n        /* \"#utility.yul\":1657:1660   */\n      dup3\n        /* \"#utility.yul\":1653:1667   */\n      add\n        /* \"#utility.yul\":1638:1667   */\n      swap1\n      pop\n        /* \"#utility.yul\":1504:1673   */\n      swap3\n      swap2\n      pop\n      pop\n      jump\t// out\n        /* \"#utility.yul\":1679:1818   */\n    tag_230:\n        /* \"#utility.yul\":1768:1774   */\n      dup3\n        /* \"#utility.yul\":1763:1766   */\n      dup2\n        /* \"#utility.yul\":1758:1761   */\n      dup4\n        /* \"#utility.yul\":1752:1775   */\n      mcopy\n        /* \"#utility.yul\":1809:1810   */\n      0x00\n        /* \"#utility.yul\":1800:1806   */\n      dup4\n        /* \"#utility.yul\":1795:1798   */\n      dup4\n        /* \"#utility.yul\":1791:1807   */\n      add\n        /* \"#utility.yul\":1784:1811   */\n      mstore\n        /* \"#utility.yul\":1679:1818   */\n      pop\n      pop\n      pop\n      jump\t// out\n        /* \"#utility.yul\":1824:1926   */\n    tag_231:\n        /* \"#utility.yul\":1865:1871   */\n      0x00\n        /* \"#utility.yul\":1916:1918   */\n      0x1f\n        /* \"#utility.yul\":1912:1919   */\n      not\n        /* \"#utility.yul\":1907:1909   */\n      0x1f\n        /* \"#utility.yul\":1900:1905   */\n      dup4\n        /* \"#utility.yul\":1896:1910   */\n      add\n        /* \"#utility.yul\":1892:1920   */\n      and\n        /* \"#utility.yul\":1882:1920   */\n      swap1\n      pop\n        /* \"#utility.yul\":1824:1926   */\n      swap2\n      swap1\n      pop\n      jump\t// out\n        /* \"#utility.yul\":1932:2309   */\n    tag_232:\n        /* \"#utility.yul\":2020:2023   */\n      0x00\n        /* \"#utility.yul\":2048:2087   */\n      tag_297\n        /* \"#utility.yul\":2081:2086   */\n      dup3\n        /* \"#utility.yul\":2048:2087   */\n      tag_228\n      jump\t// in\n    tag_297:\n        /* \"#utility.yul\":2103:2174   */\n      tag_298\n        /* \"#utility.yul\":2167:2173   */\n      dup2\n        /* \"#utility.yul\":2162:2165   */\n      dup6\n        /* \"#utility.yul\":2103:2174   */\n      tag_229\n      jump\t// in\n    tag_298:\n        /* \"#utility.yul\":2096:2174   */\n      swap4\n      pop\n        /* \"#utility.yul\":2183:2248   */\n      tag_299\n        /* \"#utility.yul\":2241:2247   */\n      dup2\n        /* \"#utility.yul\":2236:2239   */\n      dup6\n        /* \"#utility.yul\":2229:2233   */\n      0x20\n        /* \"#utility.yul\":2222:2227   */\n      dup7\n        /* \"#utility.yul\":2218:2234   */\n      add\n        /* \"#utility.yul\":2183:2248   */\n      tag_230\n      jump\t// in\n    tag_299:\n        /* \"#utility.yul\":2273:2302   */\n      tag_300\n        /* \"#utility.yul\":2295:2301   */\n      dup2\n        /* \"#utility.yul\":2273:2302   */\n      tag_231\n      jump\t// in\n    tag_300:\n        /* \"#utility.yul\":2268:2271   */\n      dup5\n        /* \"#utility.yul\":2264:2303   */\n      add\n        /* \"#utility.yul\":2257:2303   */\n      swap2\n      pop\n        /* \"#utility.yul\":2024:2309   */\n      pop\n        /* \"#utility.yul\":1932:2309   */\n      swap3\n      swap2\n      pop\n      pop\n      jump\t// out\n        /* \"#utility.yul\":2315:2628   */\n    tag_21:\n        /* \"#utility.yul\":2428:2432   */\n      0x00\n        /* \"#utility.yul\":2466:2468   */\n      0x20\n        /* \"#utility.yul\":2455:2464   */\n      dup3\n        /* \"#utility.yul\":2451:2469   */\n      add\n        /* \"#utility.yul\":2443:2469   */\n      swap1\n      pop\n        /* \"#utility.yul\":2515:2524   */\n      dup2\n        /* \"#utility.yul\":2509:2513   */\n      dup2\n        /* \"#utility.yul\":2505:2525   */\n      sub\n        /* \"#utility.yul\":2501:2502   */\n      0x00\n        /* \"#utility.yul\":2490:2499   */\n      dup4\n        /* \"#utility.yul\":2486:2503   */\n      add\n        /* \"#utility.yul\":2479:2526   */\n      mstore\n        /* \"#utility.yul\":2543:2621   */\n      tag_302\n        /* \"#utility.yul\":2616:2620   */\n      dup2\n        /* \"#utility.yul\":2607:2613   */\n      dup5\n        /* \"#utility.yul\":2543:2621   */\n      tag_232\n      jump\t// in\n    tag_302:\n        /* \"#utility.yul\":2535:2621   */\n      swap1\n      pop\n        /* \"#utility.yul\":2315:2628   */\n      swap3\n      swap2\n      pop\n      pop\n      jump\t// out\n        /* \"#utility.yul\":2634:2770   */\n    tag_233:\n        /* \"#utility.yul\":2723:2729   */\n      0x00\n        /* \"#utility.yul\":2757:2762   */\n      dup2\n        /* \"#utility.yul\":2751:2763   */\n      mload\n        /* \"#utility.yul\":2741:2763   */\n      swap1\n      pop\n        /* \"#utility.yul\":2634:2770   */\n      swap2\n      swap1\n      pop\n      jump\t// out\n        /* \"#utility.yul\":2776:2982   */\n    tag_234:\n        /* \"#utility.yul\":2897:2908   */\n      0x00\n        /* \"#utility.yul\":2931:2937   */\n      dup3\n        /* \"#utility.yul\":2926:2929   */\n      dup3\n        /* \"#utility.yul\":2919:2938   */\n      mstore\n        /* \"#utility.yul\":2971:2975   */\n      0x20\n        /* \"#utility.yul\":2966:2969   */\n      dup3\n        /* \"#utility.yul\":2962:2976   */\n      add\n        /* \"#utility.yul\":2947:2976   */\n      swap1\n      pop\n        /* \"#utility.yul\":2776:2982   */\n      swap3\n      swap2\n      pop\n      pop\n      jump\t// out\n        /* \"#utility.yul\":2988:3142   */\n    tag_235:\n        /* \"#utility.yul\":3077:3081   */\n      0x00\n        /* \"#utility.yul\":3100:3103   */\n      dup2\n        /* \"#utility.yul\":3092:3103   */\n      swap1\n      pop\n        /* \"#utility.yul\":3130:3134   */\n      0x20\n        /* \"#utility.yul\":3125:3128   */\n      dup3\n        /* \"#utility.yul\":3121:3135   */\n      add\n        /* \"#utility.yul\":3113:3135   */\n      swap1\n      pop\n        /* \"#utility.yul\":2988:3142   */\n      swap2\n      swap1\n      pop\n      jump\t// out\n        /* \"#utility.yul\":3148:3274   */\n    tag_236:\n        /* \"#utility.yul\":3185:3192   */\n      0x00\n        /* \"#utility.yul\":3225:3267   */\n      0xffffffffffffffffffffffffffffffffffffffff\n        /* \"#utility.yul\":3218:3223   */\n      dup3\n        /* \"#utility.yul\":3214:3268   */\n      and\n        /* \"#utility.yul\":3203:3268   */\n      swap1\n      pop\n        /* \"#utility.yul\":3148:3274   */\n      swap2\n      swap1\n      pop\n      jump\t// out\n        /* \"#utility.yul\":3280:3376   */\n    tag_237:\n        /* \"#utility.yul\":3317:3324   */\n      0x00\n        /* \"#utility.yul\":3346:3370   */\n      tag_308\n        /* \"#utility.yul\":3364:3369   */\n      dup3\n        /* \"#utility.yul\":3346:3370   */\n      tag_236\n      jump\t// in\n    tag_308:\n        /* \"#utility.yul\":3335:3370   */\n      swap1\n      pop\n        /* \"#utility.yul\":3280:3376   */\n      swap2\n      swap1\n      pop\n      jump\t// out\n        /* \"#utility.yul\":3382:3490   */\n    tag_238:\n        /* \"#utility.yul\":3459:3483   */\n      tag_310\n        /* \"#utility.yul\":3477:3482   */\n      dup2\n        /* \"#utility.yul\":3459:3483   */\n      tag_237\n      jump\t// in\n    tag_310:\n        /* \"#utility.yul\":3454:3457   */\n      dup3\n        /* \"#utility.yul\":3447:3484   */\n      mstore\n        /* \"#utility.yul\":3382:3490   */\n      pop\n      pop\n      jump\t// out\n        /* \"#utility.yul\":3496:3589   */\n    tag_239:\n        /* \"#utility.yul\":3532:3539   */\n      0x00\n        /* \"#utility.yul\":3572:3582   */\n      0xffffffff\n        /* \"#utility.yul\":3565:3570   */\n      dup3\n        /* \"#utility.yul\":3561:3583   */\n      and\n        /* \"#utility.yul\":3550:3583   */\n      swap1\n      pop\n        /* \"#utility.yul\":3496:3589   */\n      swap2\n      swap1\n      pop\n      jump\t// out\n        /* \"#utility.yul\":3595:3700   */\n    tag_240:\n        /* \"#utility.yul\":3670:3693   */\n      tag_313\n        /* \"#utility.yul\":3687:3692   */\n      dup2\n        /* \"#utility.yul\":3670:3693   */\n      tag_239\n      jump\t// in\n    tag_313:\n        /* \"#utility.yul\":3665:3668   */\n      dup3\n        /* \"#utility.yul\":3658:3694   */\n      mstore\n        /* \"#utility.yul\":3595:3700   */\n      pop\n      pop\n      jump\t// out\n        /* \"#utility.yul\":3762:4253   */\n    tag_241:\n        /* \"#utility.yul\":3893:3897   */\n      0x40\n        /* \"#utility.yul\":3888:3891   */\n      dup3\n        /* \"#utility.yul\":3884:3898   */\n      add\n        /* \"#utility.yul\":3982:3986   */\n      0x00\n        /* \"#utility.yul\":3975:3980   */\n      dup3\n        /* \"#utility.yul\":3971:3987   */\n      add\n        /* \"#utility.yul\":3965:3988   */\n      mload\n        /* \"#utility.yul\":4001:4064   */\n      tag_315\n        /* \"#utility.yul\":4058:4062   */\n      0x00\n        /* \"#utility.yul\":4053:4056   */\n      dup6\n        /* \"#utility.yul\":4049:4063   */\n      add\n        /* \"#utility.yul\":4035:4047   */\n      dup3\n        /* \"#utility.yul\":4001:4064   */\n      tag_238\n      jump\t// in\n    tag_315:\n        /* \"#utility.yul\":3908:4074   */\n      pop\n        /* \"#utility.yul\":4156:4160   */\n      0x20\n        /* \"#utility.yul\":4149:4154   */\n      dup3\n        /* \"#utility.yul\":4145:4161   */\n      add\n        /* \"#utility.yul\":4139:4162   */\n      mload\n        /* \"#utility.yul\":4175:4236   */\n      tag_316\n        /* \"#utility.yul\":4230:4234   */\n      0x20\n        /* \"#utility.yul\":4225:4228   */\n      dup6\n        /* \"#utility.yul\":4221:4235   */\n      add\n        /* \"#utility.yul\":4207:4219   */\n      dup3\n        /* \"#utility.yul\":4175:4236   */\n      tag_240\n      jump\t// in\n    tag_316:\n        /* \"#utility.yul\":4084:4246   */\n      pop\n        /* \"#utility.yul\":3862:4253   */\n      pop\n        /* \"#utility.yul\":3762:4253   */\n      pop\n      pop\n      jump\t// out\n        /* \"#utility.yul\":4259:4526   */\n    tag_242:\n        /* \"#utility.yul\":4372:4382   */\n      0x00\n        /* \"#utility.yul\":4393:4483   */\n      tag_318\n        /* \"#utility.yul\":4479:4482   */\n      dup4\n        /* \"#utility.yul\":4471:4477   */\n      dup4\n        /* \"#utility.yul\":4393:4483   */\n      tag_241\n      jump\t// in\n    tag_318:\n        /* \"#utility.yul\":4515:4519   */\n      0x40\n        /* \"#utility.yul\":4510:4513   */\n      dup4\n        /* \"#utility.yul\":4506:4520   */\n      add\n        /* \"#utility.yul\":4492:4520   */\n      swap1\n      pop\n        /* \"#utility.yul\":4259:4526   */\n      swap3\n      swap2\n      pop\n      pop\n      jump\t// out\n        /* \"#utility.yul\":4532:4667   */\n    tag_243:\n        /* \"#utility.yul\":4624:4628   */\n      0x00\n        /* \"#utility.yul\":4656:4660   */\n      0x20\n        /* \"#utility.yul\":4651:4654   */\n      dup3\n        /* \"#utility.yul\":4647:4661   */\n      add\n        /* \"#utility.yul\":4639:4661   */\n      swap1\n      pop\n        /* \"#utility.yul\":4532:4667   */\n      swap2\n      swap1\n      pop\n      jump\t// out\n        /* \"#utility.yul\":4733:5641   */\n    tag_244:\n        /* \"#utility.yul\":4896:4899   */\n      0x00\n        /* \"#utility.yul\":4925:5001   */\n      tag_321\n        /* \"#utility.yul\":4995:5000   */\n      dup3\n        /* \"#utility.yul\":4925:5001   */\n      tag_233\n      jump\t// in\n    tag_321:\n        /* \"#utility.yul\":5017:5125   */\n      tag_322\n        /* \"#utility.yul\":5118:5124   */\n      dup2\n        /* \"#utility.yul\":5113:5116   */\n      dup6\n        /* \"#utility.yul\":5017:5125   */\n      tag_234\n      jump\t// in\n    tag_322:\n        /* \"#utility.yul\":5010:5125   */\n      swap4\n      pop\n        /* \"#utility.yul\":5149:5227   */\n      tag_323\n        /* \"#utility.yul\":5221:5226   */\n      dup4\n        /* \"#utility.yul\":5149:5227   */\n      tag_235\n      jump\t// in\n    tag_323:\n        /* \"#utility.yul\":5250:5257   */\n      dup1\n        /* \"#utility.yul\":5281:5282   */\n      0x00\n        /* \"#utility.yul\":5266:5616   */\n    tag_324:\n        /* \"#utility.yul\":5291:5297   */\n      dup4\n        /* \"#utility.yul\":5288:5289   */\n      dup2\n        /* \"#utility.yul\":5285:5298   */\n      lt\n        /* \"#utility.yul\":5266:5616   */\n      iszero\n      tag_326\n      jumpi\n        /* \"#utility.yul\":5367:5373   */\n      dup2\n        /* \"#utility.yul\":5361:5374   */\n      mload\n        /* \"#utility.yul\":5394:5501   */\n      tag_327\n        /* \"#utility.yul\":5497:5500   */\n      dup9\n        /* \"#utility.yul\":5482:5495   */\n      dup3\n        /* \"#utility.yul\":5394:5501   */\n      tag_242\n      jump\t// in\n    tag_327:\n        /* \"#utility.yul\":5387:5501   */\n      swap8\n      pop\n        /* \"#utility.yul\":5524:5606   */\n      tag_328\n        /* \"#utility.yul\":5599:5605   */\n      dup4\n        /* \"#utility.yul\":5524:5606   */\n      tag_243\n      jump\t// in\n    tag_328:\n        /* \"#utility.yul\":5514:5606   */\n      swap3\n      pop\n        /* \"#utility.yul\":5326:5616   */\n      pop\n        /* \"#utility.yul\":5313:5314   */\n      0x01\n        /* \"#utility.yul\":5310:5311   */\n      dup2\n        /* \"#utility.yul\":5306:5315   */\n      add\n        /* \"#utility.yul\":5301:5315   */\n      swap1\n      pop\n        /* \"#utility.yul\":5266:5616   */\n      jump(tag_324)\n    tag_326:\n        /* \"#utility.yul\":5270:5284   */\n      pop\n        /* \"#utility.yul\":5632:5635   */\n      dup6\n        /* \"#utility.yul\":5625:5635   */\n      swap4\n      pop\n        /* \"#utility.yul\":4901:5641   */\n      pop\n      pop\n      pop\n        /* \"#utility.yul\":4733:5641   */\n      swap3\n      swap2\n      pop\n      pop\n      jump\t// out\n        /* \"#utility.yul\":5647:6108   */\n    tag_30:\n        /* \"#utility.yul\":5834:5838   */\n      0x00\n        /* \"#utility.yul\":5872:5874   */\n      0x20\n        /* \"#utility.yul\":5861:5870   */\n      dup3\n        /* \"#utility.yul\":5857:5875   */\n      add\n        /* \"#utility.yul\":5849:5875   */\n      swap1\n      pop\n        /* \"#utility.yul\":5921:5930   */\n      dup2\n        /* \"#utility.yul\":5915:5919   */\n      dup2\n        /* \"#utility.yul\":5911:5931   */\n      sub\n        /* \"#utility.yul\":5907:5908   */\n      0x00\n        /* \"#utility.yul\":5896:5905   */\n      dup4\n        /* \"#utility.yul\":5892:5909   */\n      add\n        /* \"#utility.yul\":5885:5932   */\n      mstore\n        /* \"#utility.yul\":5949:6101   */\n      tag_330\n        /* \"#utility.yul\":6096:6100   */\n      dup2\n        /* \"#utility.yul\":6087:6093   */\n      dup5\n        /* \"#utility.yul\":5949:6101   */\n      tag_244\n      jump\t// in\n    tag_330:\n        /* \"#utility.yul\":5941:6101   */\n      swap1\n      pop\n        /* \"#utility.yul\":5647:6108   */\n      swap3\n      swap2\n      pop\n      pop\n      jump\t// out\n        /* \"#utility.yul\":6114:6236   */\n    tag_245:\n        /* \"#utility.yul\":6187:6211   */\n      tag_332\n        /* \"#utility.yul\":6205:6210   */\n      dup2\n        /* \"#utility.yul\":6187:6211   */\n      tag_221\n      jump\t// in\n    tag_332:\n        /* \"#utility.yul\":6180:6185   */\n      dup2\n        /* \"#utility.yul\":6177:6212   */\n      eq\n        /* \"#utility.yul\":6167:6230   */\n      tag_333\n      jumpi\n        /* \"#utility.yul\":6226:6227   */\n      0x00\n        /* \"#utility.yul\":6223:6224   */\n      dup1\n        /* \"#utility.yul\":6216:6228   */\n      revert\n        /* \"#utility.yul\":6167:6230   */\n    tag_333:\n        /* \"#utility.yul\":6114:6236   */\n      pop\n      jump\t// out\n        /* \"#utility.yul\":6242:6381   */\n    tag_246:\n        /* \"#utility.yul\":6288:6293   */\n      0x00\n        /* \"#utility.yul\":6326:6332   */\n      dup2\n        /* \"#utility.yul\":6313:6333   */\n      calldataload\n        /* \"#utility.yul\":6304:6333   */\n      swap1\n      pop\n        /* \"#utility.yul\":6342:6375   */\n      tag_335\n        /* \"#utility.yul\":6369:6374   */\n      dup2\n        /* \"#utility.yul\":6342:6375   */\n      tag_245\n      jump\t// in\n    tag_335:\n        /* \"#utility.yul\":6242:6381   */\n      swap3\n      swap2\n      pop\n      pop\n      jump\t// out\n        /* \"#utility.yul\":6387:6716   */\n    tag_34:\n        /* \"#utility.yul\":6446:6452   */\n      0x00\n        /* \"#utility.yul\":6495:6497   */\n      0x20\n        /* \"#utility.yul\":6483:6492   */\n      dup3\n        /* \"#utility.yul\":6474:6481   */\n      dup5\n        /* \"#utility.yul\":6470:6493   */\n      sub\n        /* \"#utility.yul\":6466:6498   */\n      slt\n        /* \"#utility.yul\":6463:6582   */\n      iszero\n      tag_337\n      jumpi\n        /* \"#utility.yul\":6501:6580   */\n      tag_338\n      tag_224\n      jump\t// in\n    tag_338:\n        /* \"#utility.yul\":6463:6582   */\n    tag_337:\n        /* \"#utility.yul\":6621:6622   */\n      0x00\n        /* \"#utility.yul\":6646:6699   */\n      tag_339\n        /* \"#utility.yul\":6691:6698   */\n      dup5\n        /* \"#utility.yul\":6682:6688   */\n      dup3\n        /* \"#utility.yul\":6671:6680   */\n      dup6\n        /* \"#utility.yul\":6667:6689   */\n      add\n        /* \"#utility.yul\":6646:6699   */\n      tag_246\n      jump\t// in\n    tag_339:\n        /* \"#utility.yul\":6636:6699   */\n      swap2\n      pop\n        /* \"#utility.yul\":6592:6709   */\n      pop\n        /* \"#utility.yul\":6387:6716   */\n      swap3\n      swap2\n      pop\n      pop\n      jump\t// out\n        /* \"#utility.yul\":6722:6840   */\n    tag_247:\n        /* \"#utility.yul\":6809:6833   */\n      tag_341\n        /* \"#utility.yul\":6827:6832   */\n      dup2\n        /* \"#utility.yul\":6809:6833   */\n      tag_237\n      jump\t// in\n    tag_341:\n        /* \"#utility.yul\":6804:6807   */\n      dup3\n        /* \"#utility.yul\":6797:6834   */\n      mstore\n        /* \"#utility.yul\":6722:6840   */\n      pop\n      pop\n      jump\t// out\n        /* \"#utility.yul\":6846:6961   */\n    tag_248:\n        /* \"#utility.yul\":6931:6954   */\n      tag_343\n        /* \"#utility.yul\":6948:6953   */\n      dup2\n        /* \"#utility.yul\":6931:6954   */\n      tag_239\n      jump\t// in\n    tag_343:\n        /* \"#utility.yul\":6926:6929   */\n      dup3\n        /* \"#utility.yul\":6919:6955   */\n      mstore\n        /* \"#utility.yul\":6846:6961   */\n      pop\n      pop\n      jump\t// out\n        /* \"#utility.yul\":6967:7295   */\n    tag_37:\n        /* \"#utility.yul\":7086:7090   */\n      0x00\n        /* \"#utility.yul\":7124:7126   */\n      0x40\n        /* \"#utility.yul\":7113:7122   */\n      dup3\n        /* \"#utility.yul\":7109:7127   */\n      add\n        /* \"#utility.yul\":7101:7127   */\n      swap1\n      pop\n        /* \"#utility.yul\":7137:7208   */\n      tag_345\n        /* \"#utility.yul\":7205:7206   */\n      0x00\n        /* \"#utility.yul\":7194:7203   */\n      dup4\n        /* \"#utility.yul\":7190:7207   */\n      add\n        /* \"#utility.yul\":7181:7187   */\n      dup6\n        /* \"#utility.yul\":7137:7208   */\n      tag_247\n      jump\t// in\n    tag_345:\n        /* \"#utility.yul\":7218:7288   */\n      tag_346\n        /* \"#utility.yul\":7284:7286   */\n      0x20\n        /* \"#utility.yul\":7273:7282   */\n      dup4\n        /* \"#utility.yul\":7269:7287   */\n      add\n        /* \"#utility.yul\":7260:7266   */\n      dup5\n        /* \"#utility.yul\":7218:7288   */\n      tag_248\n      jump\t// in\n    tag_346:\n        /* \"#utility.yul\":6967:7295   */\n      swap4\n      swap3\n      pop\n      pop\n      pop\n      jump\t// out\n        /* \"#utility.yul\":7301:7475   */\n    tag_249:\n        /* \"#utility.yul\":7441:7467   */\n      0x596f7520646f6e742068617665207065726d697373696f6e0000000000000000\n        /* \"#utility.yul\":7437:7438   */\n      0x00\n        /* \"#utility.yul\":7429:7435   */\n      dup3\n        /* \"#utility.yul\":7425:7439   */\n      add\n        /* \"#utility.yul\":7418:7468   */\n      mstore\n        /* \"#utility.yul\":7301:7475   */\n      pop\n      jump\t// out\n        /* \"#utility.yul\":7481:7847   */\n    tag_250:\n        /* \"#utility.yul\":7623:7626   */\n      0x00\n        /* \"#utility.yul\":7644:7711   */\n      tag_349\n        /* \"#utility.yul\":7708:7710   */\n      0x18\n        /* \"#utility.yul\":7703:7706   */\n      dup4\n        /* \"#utility.yul\":7644:7711   */\n      tag_229\n      jump\t// in\n    tag_349:\n        /* \"#utility.yul\":7637:7711   */\n      swap2\n      pop\n        /* \"#utility.yul\":7720:7813   */\n      tag_350\n        /* \"#utility.yul\":7809:7812   */\n      dup3\n        /* \"#utility.yul\":7720:7813   */\n      tag_249\n      jump\t// in\n    tag_350:\n        /* \"#utility.yul\":7838:7840   */\n      0x20\n        /* \"#utility.yul\":7833:7836   */\n      dup3\n        /* \"#utility.yul\":7829:7841   */\n      add\n        /* \"#utility.yul\":7822:7841   */\n      swap1\n      pop\n        /* \"#utility.yul\":7481:7847   */\n      swap2\n      swap1\n      pop\n      jump\t// out\n        /* \"#utility.yul\":7853:8272   */\n    tag_41:\n        /* \"#utility.yul\":8019:8023   */\n      0x00\n        /* \"#utility.yul\":8057:8059   */\n      0x20\n        /* \"#utility.yul\":8046:8055   */\n      dup3\n        /* \"#utility.yul\":8042:8060   */\n      add\n        /* \"#utility.yul\":8034:8060   */\n      swap1\n      pop\n        /* \"#utility.yul\":8106:8115   */\n      dup2\n        /* \"#utility.yul\":8100:8104   */\n      dup2\n        /* \"#utility.yul\":8096:8116   */\n      sub\n        /* \"#utility.yul\":8092:8093   */\n      0x00\n        /* \"#utility.yul\":8081:8090   */\n      dup4\n        /* \"#utility.yul\":8077:8094   */\n      add\n        /* \"#utility.yul\":8070:8117   */\n      mstore\n        /* \"#utility.yul\":8134:8265   */\n      tag_352\n        /* \"#utility.yul\":8260:8264   */\n      dup2\n        /* \"#utility.yul\":8134:8265   */\n      tag_250\n      jump\t// in\n    tag_352:\n        /* \"#utility.yul\":8126:8265   */\n      swap1\n      pop\n        /* \"#utility.yul\":7853:8272   */\n      swap2\n      swap1\n      pop\n      jump\t// out\n        /* \"#utility.yul\":8278:8458   */\n    tag_45:\n        /* \"#utility.yul\":8326:8403   */\n      0x4e487b7100000000000000000000000000000000000000000000000000000000\n        /* \"#utility.yul\":8323:8324   */\n      0x00\n        /* \"#utility.yul\":8316:8404   */\n      mstore\n        /* \"#utility.yul\":8423:8427   */\n      0x21\n        /* \"#utility.yul\":8420:8421   */\n      0x04\n        /* \"#utility.yul\":8413:8428   */\n      mstore\n        /* \"#utility.yul\":8447:8451   */\n      0x24\n        /* \"#utility.yul\":8444:8445   */\n      0x00\n        /* \"#utility.yul\":8437:8452   */\n      revert\n        /* \"#utility.yul\":8464:8628   */\n    tag_251:\n        /* \"#utility.yul\":8604:8620   */\n      0x496e76616c69642043686f696365000000000000000000000000000000000000\n        /* \"#utility.yul\":8600:8601   */\n      0x00\n        /* \"#utility.yul\":8592:8598   */\n      dup3\n        /* \"#utility.yul\":8588:8602   */\n      add\n        /* \"#utility.yul\":8581:8621   */\n      mstore\n        /* \"#utility.yul\":8464:8628   */\n      pop\n      jump\t// out\n        /* \"#utility.yul\":8634:9000   */\n    tag_252:\n        /* \"#utility.yul\":8776:8779   */\n      0x00\n        /* \"#utility.yul\":8797:8864   */\n      tag_356\n        /* \"#utility.yul\":8861:8863   */\n      0x0e\n        /* \"#utility.yul\":8856:8859   */\n      dup4\n        /* \"#utility.yul\":8797:8864   */\n      tag_229\n      jump\t// in\n    tag_356:\n        /* \"#utility.yul\":8790:8864   */\n      swap2\n      pop\n        /* \"#utility.yul\":8873:8966   */\n      tag_357\n        /* \"#utility.yul\":8962:8965   */\n      dup3\n        /* \"#utility.yul\":8873:8966   */\n      tag_251\n      jump\t// in\n    tag_357:\n        /* \"#utility.yul\":8991:8993   */\n      0x20\n        /* \"#utility.yul\":8986:8989   */\n      dup3\n        /* \"#utility.yul\":8982:8994   */\n      add\n        /* \"#utility.yul\":8975:8994   */\n      swap1\n      pop\n        /* \"#utility.yul\":8634:9000   */\n      swap2\n      swap1\n      pop\n      jump\t// out\n        /* \"#utility.yul\":9006:9425   */\n    tag_50:\n        /* \"#utility.yul\":9172:9176   */\n      0x00\n        /* \"#utility.yul\":9210:9212   */\n      0x20\n        /* \"#utility.yul\":9199:9208   */\n      dup3\n        /* \"#utility.yul\":9195:9213   */\n      add\n        /* \"#utility.yul\":9187:9213   */\n      swap1\n      pop\n        /* \"#utility.yul\":9259:9268   */\n      dup2\n        /* \"#utility.yul\":9253:9257   */\n      dup2\n        /* \"#utility.yul\":9249:9269   */\n      sub\n        /* \"#utility.yul\":9245:9246   */\n      0x00\n        /* \"#utility.yul\":9234:9243   */\n      dup4\n        /* \"#utility.yul\":9230:9247   */\n      add\n        /* \"#utility.yul\":9223:9270   */\n      mstore\n        /* \"#utility.yul\":9287:9418   */\n      tag_359\n        /* \"#utility.yul\":9413:9417   */\n      dup2\n        /* \"#utility.yul\":9287:9418   */\n      tag_252\n      jump\t// in\n    tag_359:\n        /* \"#utility.yul\":9279:9418   */\n      swap1\n      pop\n        /* \"#utility.yul\":9006:9425   */\n      swap2\n      swap1\n      pop\n      jump\t// out\n        /* \"#utility.yul\":9431:9607   */\n    tag_253:\n        /* \"#utility.yul\":9571:9599   */\n      0x576169742074686520616e6f7468657220706c617965722e2e2e000000000000\n        /* \"#utility.yul\":9567:9568   */\n      0x00\n        /* \"#utility.yul\":9559:9565   */\n      dup3\n        /* \"#utility.yul\":9555:9569   */\n      add\n        /* \"#utility.yul\":9548:9600   */\n      mstore\n        /* \"#utility.yul\":9431:9607   */\n      pop\n      jump\t// out\n        /* \"#utility.yul\":9613:9979   */\n    tag_254:\n        /* \"#utility.yul\":9755:9758   */\n      0x00\n        /* \"#utility.yul\":9776:9843   */\n      tag_362\n        /* \"#utility.yul\":9840:9842   */\n      0x1a\n        /* \"#utility.yul\":9835:9838   */\n      dup4\n        /* \"#utility.yul\":9776:9843   */\n      tag_229\n      jump\t// in\n    tag_362:\n        /* \"#utility.yul\":9769:9843   */\n      swap2\n      pop\n        /* \"#utility.yul\":9852:9945   */\n      tag_363\n        /* \"#utility.yul\":9941:9944   */\n      dup3\n        /* \"#utility.yul\":9852:9945   */\n      tag_253\n      jump\t// in\n    tag_363:\n        /* \"#utility.yul\":9970:9972   */\n      0x20\n        /* \"#utility.yul\":9965:9968   */\n      dup3\n        /* \"#utility.yul\":9961:9973   */\n      add\n        /* \"#utility.yul\":9954:9973   */\n      swap1\n      pop\n        /* \"#utility.yul\":9613:9979   */\n      swap2\n      swap1\n      pop\n      jump\t// out\n        /* \"#utility.yul\":9985:10404   */\n    tag_53:\n        /* \"#utility.yul\":10151:10155   */\n      0x00\n        /* \"#utility.yul\":10189:10191   */\n      0x20\n        /* \"#utility.yul\":10178:10187   */\n      dup3\n        /* \"#utility.yul\":10174:10192   */\n      add\n        /* \"#utility.yul\":10166:10192   */\n      swap1\n      pop\n        /* \"#utility.yul\":10238:10247   */\n      dup2\n        /* \"#utility.yul\":10232:10236   */\n      dup2\n        /* \"#utility.yul\":10228:10248   */\n      sub\n        /* \"#utility.yul\":10224:10225   */\n      0x00\n        /* \"#utility.yul\":10213:10222   */\n      dup4\n        /* \"#utility.yul\":10209:10226   */\n      add\n        /* \"#utility.yul\":10202:10249   */\n      mstore\n        /* \"#utility.yul\":10266:10397   */\n      tag_365\n        /* \"#utility.yul\":10392:10396   */\n      dup2\n        /* \"#utility.yul\":10266:10397   */\n      tag_254\n      jump\t// in\n    tag_365:\n        /* \"#utility.yul\":10258:10397   */\n      swap1\n      pop\n        /* \"#utility.yul\":9985:10404   */\n      swap2\n      swap1\n      pop\n      jump\t// out\n        /* \"#utility.yul\":10410:10571   */\n    tag_255:\n        /* \"#utility.yul\":10550:10563   */\n      0x496e76616c696420626974000000000000000000000000000000000000000000\n        /* \"#utility.yul\":10546:10547   */\n      0x00\n        /* \"#utility.yul\":10538:10544   */\n      dup3\n        /* \"#utility.yul\":10534:10548   */\n      add\n        /* \"#utility.yul\":10527:10564   */\n      mstore\n        /* \"#utility.yul\":10410:10571   */\n      pop\n      jump\t// out\n        /* \"#utility.yul\":10577:10943   */\n    tag_256:\n        /* \"#utility.yul\":10719:10722   */\n      0x00\n        /* \"#utility.yul\":10740:10807   */\n      tag_368\n        /* \"#utility.yul\":10804:10806   */\n      0x0b\n        /* \"#utility.yul\":10799:10802   */\n      dup4\n        /* \"#utility.yul\":10740:10807   */\n      tag_229\n      jump\t// in\n    tag_368:\n        /* \"#utility.yul\":10733:10807   */\n      swap2\n      pop\n        /* \"#utility.yul\":10816:10909   */\n      tag_369\n        /* \"#utility.yul\":10905:10908   */\n      dup3\n        /* \"#utility.yul\":10816:10909   */\n      tag_255\n      jump\t// in\n    tag_369:\n        /* \"#utility.yul\":10934:10936   */\n      0x20\n        /* \"#utility.yul\":10929:10932   */\n      dup3\n        /* \"#utility.yul\":10925:10937   */\n      add\n        /* \"#utility.yul\":10918:10937   */\n      swap1\n      pop\n        /* \"#utility.yul\":10577:10943   */\n      swap2\n      swap1\n      pop\n      jump\t// out\n        /* \"#utility.yul\":10949:11368   */\n    tag_56:\n        /* \"#utility.yul\":11115:11119   */\n      0x00\n        /* \"#utility.yul\":11153:11155   */\n      0x20\n        /* \"#utility.yul\":11142:11151   */\n      dup3\n        /* \"#utility.yul\":11138:11156   */\n      add\n        /* \"#utility.yul\":11130:11156   */\n      swap1\n      pop\n        /* \"#utility.yul\":11202:11211   */\n      dup2\n        /* \"#utility.yul\":11196:11200   */\n      dup2\n        /* \"#utility.yul\":11192:11212   */\n      sub\n        /* \"#utility.yul\":11188:11189   */\n      0x00\n        /* \"#utility.yul\":11177:11186   */\n      dup4\n        /* \"#utility.yul\":11173:11190   */\n      add\n        /* \"#utility.yul\":11166:11213   */\n      mstore\n        /* \"#utility.yul\":11230:11361   */\n      tag_371\n        /* \"#utility.yul\":11356:11360   */\n      dup2\n        /* \"#utility.yul\":11230:11361   */\n      tag_256\n      jump\t// in\n    tag_371:\n        /* \"#utility.yul\":11222:11361   */\n      swap1\n      pop\n        /* \"#utility.yul\":10949:11368   */\n      swap2\n      swap1\n      pop\n      jump\t// out\n        /* \"#utility.yul\":11374:11554   */\n    tag_156:\n        /* \"#utility.yul\":11422:11499   */\n      0x4e487b7100000000000000000000000000000000000000000000000000000000\n        /* \"#utility.yul\":11419:11420   */\n      0x00\n        /* \"#utility.yul\":11412:11500   */\n      mstore\n        /* \"#utility.yul\":11519:11523   */\n      0x41\n        /* \"#utility.yul\":11516:11517   */\n      0x04\n        /* \"#utility.yul\":11509:11524   */\n      mstore\n        /* \"#utility.yul\":11543:11547   */\n      0x24\n        /* \"#utility.yul\":11540:11541   */\n      0x00\n        /* \"#utility.yul\":11533:11548   */\n      revert\n        /* \"#utility.yul\":11560:11740   */\n    tag_257:\n        /* \"#utility.yul\":11608:11685   */\n      0x4e487b7100000000000000000000000000000000000000000000000000000000\n        /* \"#utility.yul\":11605:11606   */\n      0x00\n        /* \"#utility.yul\":11598:11686   */\n      mstore\n        /* \"#utility.yul\":11705:11709   */\n      0x22\n        /* \"#utility.yul\":11702:11703   */\n      0x04\n        /* \"#utility.yul\":11695:11710   */\n      mstore\n        /* \"#utility.yul\":11729:11733   */\n      0x24\n        /* \"#utility.yul\":11726:11727   */\n      0x00\n        /* \"#utility.yul\":11719:11734   */\n      revert\n        /* \"#utility.yul\":11746:12066   */\n    tag_144:\n        /* \"#utility.yul\":11790:11796   */\n      0x00\n        /* \"#utility.yul\":11827:11828   */\n      0x02\n        /* \"#utility.yul\":11821:11825   */\n      dup3\n        /* \"#utility.yul\":11817:11829   */\n      div\n        /* \"#utility.yul\":11807:11829   */\n      swap1\n      pop\n        /* \"#utility.yul\":11874:11875   */\n      0x01\n        /* \"#utility.yul\":11868:11872   */\n      dup3\n        /* \"#utility.yul\":11864:11876   */\n      and\n        /* \"#utility.yul\":11895:11913   */\n      dup1\n        /* \"#utility.yul\":11885:11966   */\n      tag_375\n      jumpi\n        /* \"#utility.yul\":11951:11955   */\n      0x7f\n        /* \"#utility.yul\":11943:11949   */\n      dup3\n        /* \"#utility.yul\":11939:11956   */\n      and\n        /* \"#utility.yul\":11929:11956   */\n      swap2\n      pop\n        /* \"#utility.yul\":11885:11966   */\n    tag_375:\n        /* \"#utility.yul\":12013:12015   */\n      0x20\n        /* \"#utility.yul\":12005:12011   */\n      dup3\n        /* \"#utility.yul\":12002:12016   */\n      lt\n        /* \"#utility.yul\":11982:12000   */\n      dup2\n        /* \"#utility.yul\":11979:12017   */\n      sub\n        /* \"#utility.yul\":11976:12060   */\n      tag_376\n      jumpi\n        /* \"#utility.yul\":12032:12050   */\n      tag_377\n      tag_257\n      jump\t// in\n    tag_377:\n        /* \"#utility.yul\":11976:12060   */\n    tag_376:\n        /* \"#utility.yul\":11797:12066   */\n      pop\n        /* \"#utility.yul\":11746:12066   */\n      swap2\n      swap1\n      pop\n      jump\t// out\n        /* \"#utility.yul\":12072:12213   */\n    tag_258:\n        /* \"#utility.yul\":12121:12125   */\n      0x00\n        /* \"#utility.yul\":12144:12147   */\n      dup2\n        /* \"#utility.yul\":12136:12147   */\n      swap1\n      pop\n        /* \"#utility.yul\":12167:12170   */\n      dup2\n        /* \"#utility.yul\":12164:12165   */\n      0x00\n        /* \"#utility.yul\":12157:12171   */\n      mstore\n        /* \"#utility.yul\":12201:12205   */\n      0x20\n        /* \"#utility.yul\":12198:12199   */\n      0x00\n        /* \"#utility.yul\":12188:12206   */\n      keccak256\n        /* \"#utility.yul\":12180:12206   */\n      swap1\n      pop\n        /* \"#utility.yul\":12072:12213   */\n      swap2\n      swap1\n      pop\n      jump\t// out\n        /* \"#utility.yul\":12219:12312   */\n    tag_259:\n        /* \"#utility.yul\":12256:12262   */\n      0x00\n        /* \"#utility.yul\":12303:12305   */\n      0x20\n        /* \"#utility.yul\":12298:12300   */\n      0x1f\n        /* \"#utility.yul\":12291:12296   */\n      dup4\n        /* \"#utility.yul\":12287:12301   */\n      add\n        /* \"#utility.yul\":12283:12306   */\n      div\n        /* \"#utility.yul\":12273:12306   */\n      swap1\n      pop\n        /* \"#utility.yul\":12219:12312   */\n      swap2\n      swap1\n      pop\n      jump\t// out\n        /* \"#utility.yul\":12318:12425   */\n    tag_260:\n        /* \"#utility.yul\":12362:12370   */\n      0x00\n        /* \"#utility.yul\":12412:12417   */\n      dup3\n        /* \"#utility.yul\":12406:12410   */\n      dup3\n        /* \"#utility.yul\":12402:12418   */\n      shl\n        /* \"#utility.yul\":12381:12418   */\n      swap1\n      pop\n        /* \"#utility.yul\":12318:12425   */\n      swap3\n      swap2\n      pop\n      pop\n      jump\t// out\n        /* \"#utility.yul\":12431:12824   */\n    tag_261:\n        /* \"#utility.yul\":12500:12506   */\n      0x00\n        /* \"#utility.yul\":12550:12551   */\n      0x08\n        /* \"#utility.yul\":12538:12548   */\n      dup4\n        /* \"#utility.yul\":12534:12552   */\n      mul\n        /* \"#utility.yul\":12573:12670   */\n      tag_382\n        /* \"#utility.yul\":12603:12669   */\n      0xffffffffffffffffffffffffffffffffffffffffffffffffffffffffffffffff\n        /* \"#utility.yul\":12592:12601   */\n      dup3\n        /* \"#utility.yul\":12573:12670   */\n      tag_260\n      jump\t// in\n    tag_382:\n        /* \"#utility.yul\":12691:12730   */\n      tag_383\n        /* \"#utility.yul\":12721:12729   */\n      dup7\n        /* \"#utility.yul\":12710:12719   */\n      dup4\n        /* \"#utility.yul\":12691:12730   */\n      tag_260\n      jump\t// in\n    tag_383:\n        /* \"#utility.yul\":12679:12730   */\n      swap6\n      pop\n        /* \"#utility.yul\":12763:12767   */\n      dup1\n        /* \"#utility.yul\":12759:12768   */\n      not\n        /* \"#utility.yul\":12752:12757   */\n      dup5\n        /* \"#utility.yul\":12748:12769   */\n      and\n        /* \"#utility.yul\":12739:12769   */\n      swap4\n      pop\n        /* \"#utility.yul\":12812:12816   */\n      dup1\n        /* \"#utility.yul\":12802:12810   */\n      dup7\n        /* \"#utility.yul\":12798:12817   */\n      and\n        /* \"#utility.yul\":12791:12796   */\n      dup5\n        /* \"#utility.yul\":12788:12818   */\n      or\n        /* \"#utility.yul\":12778:12818   */\n      swap3\n      pop\n        /* \"#utility.yul\":12507:12824   */\n      pop\n      pop\n        /* \"#utility.yul\":12431:12824   */\n      swap4\n      swap3\n      pop\n      pop\n      pop\n      jump\t// out\n        /* \"#utility.yul\":12830:12890   */\n    tag_262:\n        /* \"#utility.yul\":12858:12861   */\n      0x00\n        /* \"#utility.yul\":12879:12884   */\n      dup2\n        /* \"#utility.yul\":12872:12884   */\n      swap1\n      pop\n        /* \"#utility.yul\":12830:12890   */\n      swap2\n      swap1\n      pop\n      jump\t// out\n        /* \"#utility.yul\":12896:13038   */\n    tag_263:\n        /* \"#utility.yul\":12946:12955   */\n      0x00\n        /* \"#utility.yul\":12979:13032   */\n      tag_386\n        /* \"#utility.yul\":12997:13031   */\n      tag_387\n        /* \"#utility.yul\":13006:13030   */\n      tag_388\n        /* \"#utility.yul\":13024:13029   */\n      dup5\n        /* \"#utility.yul\":13006:13030   */\n      tag_221\n      jump\t// in\n    tag_388:\n        /* \"#utility.yul\":12997:13031   */\n      tag_262\n      jump\t// in\n    tag_387:\n        /* \"#utility.yul\":12979:13032   */\n      tag_221\n      jump\t// in\n    tag_386:\n        /* \"#utility.yul\":12966:13032   */\n      swap1\n      pop\n        /* \"#utility.yul\":12896:13038   */\n      swap2\n      swap1\n      pop\n      jump\t// out\n        /* \"#utility.yul\":13044:13119   */\n    tag_264:\n        /* \"#utility.yul\":13087:13090   */\n      0x00\n        /* \"#utility.yul\":13108:13113   */\n      dup2\n        /* \"#utility.yul\":13101:13113   */\n      swap1\n      pop\n        /* \"#utility.yul\":13044:13119   */\n      swap2\n      swap1\n      pop\n      jump\t// out\n        /* \"#utility.yul\":13125:13394   */\n    tag_265:\n        /* \"#utility.yul\":13235:13274   */\n      tag_391\n        /* \"#utility.yul\":13266:13273   */\n      dup4\n        /* \"#utility.yul\":13235:13274   */\n      tag_263\n      jump\t// in\n    tag_391:\n        /* \"#utility.yul\":13296:13387   */\n      tag_392\n        /* \"#utility.yul\":13345:13386   */\n      tag_393\n        /* \"#utility.yul\":13369:13385   */\n      dup3\n        /* \"#utility.yul\":13345:13386   */\n      tag_264\n      jump\t// in\n    tag_393:\n        /* \"#utility.yul\":13337:13343   */\n      dup5\n        /* \"#utility.yul\":13330:13334   */\n      dup5\n        /* \"#utility.yul\":13324:13335   */\n      sload\n        /* \"#utility.yul\":13296:13387   */\n      tag_261\n      jump\t// in\n    tag_392:\n        /* \"#utility.yul\":13290:13294   */\n      dup3\n        /* \"#utility.yul\":13283:13388   */\n      sstore\n        /* \"#utility.yul\":13201:13394   */\n      pop\n        /* \"#utility.yul\":13125:13394   */\n      pop\n      pop\n      pop\n      jump\t// out\n        /* \"#utility.yul\":13400:13473   */\n    tag_266:\n        /* \"#utility.yul\":13445:13448   */\n      0x00\n        /* \"#utility.yul\":13400:13473   */\n      swap1\n      jump\t// out\n        /* \"#utility.yul\":13479:13668   */\n    tag_267:\n        /* \"#utility.yul\":13556:13588   */\n      tag_396\n      tag_266\n      jump\t// in\n    tag_396:\n        /* \"#utility.yul\":13597:13662   */\n      tag_397\n        /* \"#utility.yul\":13655:13661   */\n      dup2\n        /* \"#utility.yul\":13647:13653   */\n      dup5\n        /* \"#utility.yul\":13641:13645   */\n      dup5\n        /* \"#utility.yul\":13597:13662   */\n      tag_265\n      jump\t// in\n    tag_397:\n        /* \"#utility.yul\":13532:13668   */\n      pop\n        /* \"#utility.yul\":13479:13668   */\n      pop\n      pop\n      jump\t// out\n        /* \"#utility.yul\":13674:13860   */\n    tag_268:\n        /* \"#utility.yul\":13734:13854   */\n    tag_399:\n        /* \"#utility.yul\":13751:13754   */\n      dup2\n        /* \"#utility.yul\":13744:13749   */\n      dup2\n        /* \"#utility.yul\":13741:13755   */\n      lt\n        /* \"#utility.yul\":13734:13854   */\n      iszero\n      tag_401\n      jumpi\n        /* \"#utility.yul\":13805:13844   */\n      tag_402\n        /* \"#utility.yul\":13842:13843   */\n      0x00\n        /* \"#utility.yul\":13835:13840   */\n      dup3\n        /* \"#utility.yul\":13805:13844   */\n      tag_267\n      jump\t// in\n    tag_402:\n        /* \"#utility.yul\":13778:13779   */\n      0x01\n        /* \"#utility.yul\":13771:13776   */\n      dup2\n        /* \"#utility.yul\":13767:13780   */\n      add\n        /* \"#utility.yul\":13758:13780   */\n      swap1\n      pop\n        /* \"#utility.yul\":13734:13854   */\n      jump(tag_399)\n    tag_401:\n        /* \"#utility.yul\":13674:13860   */\n      pop\n      pop\n      jump\t// out\n        /* \"#utility.yul\":13866:14409   */\n    tag_269:\n        /* \"#utility.yul\":13967:13969   */\n      0x1f\n        /* \"#utility.yul\":13962:13965   */\n      dup3\n        /* \"#utility.yul\":13959:13970   */\n      gt\n        /* \"#utility.yul\":13956:14402   */\n      iszero\n      tag_404\n      jumpi\n        /* \"#utility.yul\":14001:14039   */\n      tag_405\n        /* \"#utility.yul\":14033:14038   */\n      dup2\n        /* \"#utility.yul\":14001:14039   */\n      tag_258\n      jump\t// in\n    tag_405:\n        /* \"#utility.yul\":14085:14114   */\n      tag_406\n        /* \"#utility.yul\":14103:14113   */\n      dup5\n        /* \"#utility.yul\":14085:14114   */\n      tag_259\n      jump\t// in\n    tag_406:\n        /* \"#utility.yul\":14075:14083   */\n      dup2\n        /* \"#utility.yul\":14071:14115   */\n      add\n        /* \"#utility.yul\":14268:14270   */\n      0x20\n        /* \"#utility.yul\":14256:14266   */\n      dup6\n        /* \"#utility.yul\":14253:14271   */\n      lt\n        /* \"#utility.yul\":14250:14299   */\n      iszero\n      tag_407\n      jumpi\n        /* \"#utility.yul\":14289:14297   */\n      dup2\n        /* \"#utility.yul\":14274:14297   */\n      swap1\n      pop\n        /* \"#utility.yul\":14250:14299   */\n    tag_407:\n        /* \"#utility.yul\":14312:14392   */\n      tag_408\n        /* \"#utility.yul\":14368:14390   */\n      tag_409\n        /* \"#utility.yul\":14386:14389   */\n      dup6\n        /* \"#utility.yul\":14368:14390   */\n      tag_259\n      jump\t// in\n    tag_409:\n        /* \"#utility.yul\":14358:14366   */\n      dup4\n        /* \"#utility.yul\":14354:14391   */\n      add\n        /* \"#utility.yul\":14341:14352   */\n      dup3\n        /* \"#utility.yul\":14312:14392   */\n      tag_268\n      jump\t// in\n    tag_408:\n        /* \"#utility.yul\":13971:14402   */\n      pop\n      pop\n        /* \"#utility.yul\":13956:14402   */\n    tag_404:\n        /* \"#utility.yul\":13866:14409   */\n      pop\n      pop\n      pop\n      jump\t// out\n        /* \"#utility.yul\":14415:14532   */\n    tag_270:\n        /* \"#utility.yul\":14469:14477   */\n      0x00\n        /* \"#utility.yul\":14519:14524   */\n      dup3\n        /* \"#utility.yul\":14513:14517   */\n      dup3\n        /* \"#utility.yul\":14509:14525   */\n      shr\n        /* \"#utility.yul\":14488:14525   */\n      swap1\n      pop\n        /* \"#utility.yul\":14415:14532   */\n      swap3\n      swap2\n      pop\n      pop\n      jump\t// out\n        /* \"#utility.yul\":14538:14707   */\n    tag_271:\n        /* \"#utility.yul\":14582:14588   */\n      0x00\n        /* \"#utility.yul\":14615:14666   */\n      tag_412\n        /* \"#utility.yul\":14663:14664   */\n      0x00\n        /* \"#utility.yul\":14659:14665   */\n      not\n        /* \"#utility.yul\":14651:14656   */\n      dup5\n        /* \"#utility.yul\":14648:14649   */\n      0x08\n        /* \"#utility.yul\":14644:14657   */\n      mul\n        /* \"#utility.yul\":14615:14666   */\n      tag_270\n      jump\t// in\n    tag_412:\n        /* \"#utility.yul\":14611:14667   */\n      not\n        /* \"#utility.yul\":14696:14700   */\n      dup1\n        /* \"#utility.yul\":14690:14694   */\n      dup4\n        /* \"#utility.yul\":14686:14701   */\n      and\n        /* \"#utility.yul\":14676:14701   */\n      swap2\n      pop\n        /* \"#utility.yul\":14589:14707   */\n      pop\n        /* \"#utility.yul\":14538:14707   */\n      swap3\n      swap2\n      pop\n      pop\n      jump\t// out\n        /* \"#utility.yul\":14712:15007   */\n    tag_272:\n        /* \"#utility.yul\":14788:14792   */\n      0x00\n        /* \"#utility.yul\":14934:14963   */\n      tag_414\n        /* \"#utility.yul\":14959:14962   */\n      dup4\n        /* \"#utility.yul\":14953:14957   */\n      dup4\n        /* \"#utility.yul\":14934:14963   */\n      tag_271\n      jump\t// in\n    tag_414:\n        /* \"#utility.yul\":14926:14963   */\n      swap2\n      pop\n        /* \"#utility.yul\":14996:14999   */\n      dup3\n        /* \"#utility.yul\":14993:14994   */\n      0x02\n        /* \"#utility.yul\":14989:15000   */\n      mul\n        /* \"#utility.yul\":14983:14987   */\n      dup3\n        /* \"#utility.yul\":14980:15001   */\n      or\n        /* \"#utility.yul\":14972:15001   */\n      swap1\n      pop\n        /* \"#utility.yul\":14712:15007   */\n      swap3\n      swap2\n      pop\n      pop\n      jump\t// out\n        /* \"#utility.yul\":15012:16407   */\n    tag_65:\n        /* \"#utility.yul\":15129:15166   */\n      tag_416\n        /* \"#utility.yul\":15162:15165   */\n      dup3\n        /* \"#utility.yul\":15129:15166   */\n      tag_228\n      jump\t// in\n    tag_416:\n        /* \"#utility.yul\":15231:15249   */\n      0xffffffffffffffff\n        /* \"#utility.yul\":15223:15229   */\n      dup2\n        /* \"#utility.yul\":15220:15250   */\n      gt\n        /* \"#utility.yul\":15217:15273   */\n      iszero\n      tag_417\n      jumpi\n        /* \"#utility.yul\":15253:15271   */\n      tag_418\n      tag_156\n      jump\t// in\n    tag_418:\n        /* \"#utility.yul\":15217:15273   */\n    tag_417:\n        /* \"#utility.yul\":15297:15335   */\n      tag_419\n        /* \"#utility.yul\":15329:15333   */\n      dup3\n        /* \"#utility.yul\":15323:15334   */\n      sload\n        /* \"#utility.yul\":15297:15335   */\n      tag_144\n      jump\t// in\n    tag_419:\n        /* \"#utility.yul\":15382:15449   */\n      tag_420\n        /* \"#utility.yul\":15442:15448   */\n      dup3\n        /* \"#utility.yul\":15434:15440   */\n      dup3\n        /* \"#utility.yul\":15428:15432   */\n      dup6\n        /* \"#utility.yul\":15382:15449   */\n      tag_269\n      jump\t// in\n    tag_420:\n        /* \"#utility.yul\":15476:15477   */\n      0x00\n        /* \"#utility.yul\":15500:15504   */\n      0x20\n        /* \"#utility.yul\":15487:15504   */\n      swap1\n      pop\n        /* \"#utility.yul\":15532:15534   */\n      0x1f\n        /* \"#utility.yul\":15524:15530   */\n      dup4\n        /* \"#utility.yul\":15521:15535   */\n      gt\n        /* \"#utility.yul\":15549:15550   */\n      0x01\n        /* \"#utility.yul\":15544:16162   */\n      dup2\n      eq\n      tag_422\n      jumpi\n        /* \"#utility.yul\":16206:16207   */\n      0x00\n        /* \"#utility.yul\":16223:16229   */\n      dup5\n        /* \"#utility.yul\":16220:16297   */\n      iszero\n      tag_423\n      jumpi\n        /* \"#utility.yul\":16272:16281   */\n      dup3\n        /* \"#utility.yul\":16267:16270   */\n      dup8\n        /* \"#utility.yul\":16263:16282   */\n      add\n        /* \"#utility.yul\":16257:16283   */\n      mload\n        /* \"#utility.yul\":16248:16283   */\n      swap1\n      pop\n        /* \"#utility.yul\":16220:16297   */\n    tag_423:\n        /* \"#utility.yul\":16323:16390   */\n      tag_424\n        /* \"#utility.yul\":16383:16389   */\n      dup6\n        /* \"#utility.yul\":16376:16381   */\n      dup3\n        /* \"#utility.yul\":16323:16390   */\n      tag_272\n      jump\t// in\n    tag_424:\n        /* \"#utility.yul\":16317:16321   */\n      dup7\n        /* \"#utility.yul\":16310:16391   */\n      sstore\n        /* \"#utility.yul\":16179:16401   */\n      pop\n        /* \"#utility.yul\":15514:16401   */\n      jump(tag_421)\n        /* \"#utility.yul\":15544:16162   */\n    tag_422:\n        /* \"#utility.yul\":15596:15600   */\n      0x1f\n        /* \"#utility.yul\":15592:15601   */\n      not\n        /* \"#utility.yul\":15584:15590   */\n      dup5\n        /* \"#utility.yul\":15580:15602   */\n      and\n        /* \"#utility.yul\":15630:15667   */\n      tag_425\n        /* \"#utility.yul\":15662:15666   */\n      dup7\n        /* \"#utility.yul\":15630:15667   */\n      tag_258\n      jump\t// in\n    tag_425:\n        /* \"#utility.yul\":15689:15690   */\n      0x00\n        /* \"#utility.yul\":15703:15911   */\n    tag_426:\n        /* \"#utility.yul\":15717:15724   */\n      dup3\n        /* \"#utility.yul\":15714:15715   */\n      dup2\n        /* \"#utility.yul\":15711:15725   */\n      lt\n        /* \"#utility.yul\":15703:15911   */\n      iszero\n      tag_428\n      jumpi\n        /* \"#utility.yul\":15796:15805   */\n      dup5\n        /* \"#utility.yul\":15791:15794   */\n      dup10\n        /* \"#utility.yul\":15787:15806   */\n      add\n        /* \"#utility.yul\":15781:15807   */\n      mload\n        /* \"#utility.yul\":15773:15779   */\n      dup3\n        /* \"#utility.yul\":15766:15808   */\n      sstore\n        /* \"#utility.yul\":15847:15848   */\n      0x01\n        /* \"#utility.yul\":15839:15845   */\n      dup3\n        /* \"#utility.yul\":15835:15849   */\n      add\n        /* \"#utility.yul\":15825:15849   */\n      swap2\n      pop\n        /* \"#utility.yul\":15894:15896   */\n      0x20\n        /* \"#utility.yul\":15883:15892   */\n      dup6\n        /* \"#utility.yul\":15879:15897   */\n      add\n        /* \"#utility.yul\":15866:15897   */\n      swap5\n      pop\n        /* \"#utility.yul\":15740:15744   */\n      0x20\n        /* \"#utility.yul\":15737:15738   */\n      dup2\n        /* \"#utility.yul\":15733:15745   */\n      add\n        /* \"#utility.yul\":15728:15745   */\n      swap1\n      pop\n        /* \"#utility.yul\":15703:15911   */\n      jump(tag_426)\n    tag_428:\n        /* \"#utility.yul\":15939:15945   */\n      dup7\n        /* \"#utility.yul\":15930:15937   */\n      dup4\n        /* \"#utility.yul\":15927:15946   */\n      lt\n        /* \"#utility.yul\":15924:16103   */\n      iszero\n      tag_429\n      jumpi\n        /* \"#utility.yul\":15997:16006   */\n      dup5\n        /* \"#utility.yul\":15992:15995   */\n      dup10\n        /* \"#utility.yul\":15988:16007   */\n      add\n        /* \"#utility.yul\":15982:16008   */\n      mload\n        /* \"#utility.yul\":16040:16088   */\n      tag_430\n        /* \"#utility.yul\":16082:16086   */\n      0x1f\n        /* \"#utility.yul\":16074:16080   */\n      dup10\n        /* \"#utility.yul\":16070:16087   */\n      and\n        /* \"#utility.yul\":16059:16068   */\n      dup3\n        /* \"#utility.yul\":16040:16088   */\n      tag_271\n      jump\t// in\n    tag_430:\n        /* \"#utility.yul\":16032:16038   */\n      dup4\n        /* \"#utility.yul\":16025:16089   */\n      sstore\n        /* \"#utility.yul\":15947:16103   */\n      pop\n        /* \"#utility.yul\":15924:16103   */\n    tag_429:\n        /* \"#utility.yul\":16149:16150   */\n      0x01\n        /* \"#utility.yul\":16145:16146   */\n      0x02\n        /* \"#utility.yul\":16137:16143   */\n      dup9\n        /* \"#utility.yul\":16133:16147   */\n      mul\n        /* \"#utility.yul\":16129:16151   */\n      add\n        /* \"#utility.yul\":16123:16127   */\n      dup9\n        /* \"#utility.yul\":16116:16152   */\n      sstore\n        /* \"#utility.yul\":15551:16162   */\n      pop\n      pop\n      pop\n        /* \"#utility.yul\":15514:16401   */\n    tag_421:\n      pop\n        /* \"#utility.yul\":15104:16407   */\n      pop\n      pop\n      pop\n        /* \"#utility.yul\":15012:16407   */\n      pop\n      pop\n      jump\t// out\n        /* \"#utility.yul\":16413:16593   */\n    tag_166:\n        /* \"#utility.yul\":16461:16538   */\n      0x4e487b7100000000000000000000000000000000000000000000000000000000\n        /* \"#utility.yul\":16458:16459   */\n      0x00\n        /* \"#utility.yul\":16451:16539   */\n      mstore\n        /* \"#utility.yul\":16558:16562   */\n      0x32\n        /* \"#utility.yul\":16555:16556   */\n      0x04\n        /* \"#utility.yul\":16548:16563   */\n      mstore\n        /* \"#utility.yul\":16582:16586   */\n      0x24\n        /* \"#utility.yul\":16579:16580   */\n      0x00\n        /* \"#utility.yul\":16572:16587   */\n      revert\n        /* \"#utility.yul\":16599:16779   */\n    tag_273:\n        /* \"#utility.yul\":16647:16724   */\n      0x4e487b7100000000000000000000000000000000000000000000000000000000\n        /* \"#utility.yul\":16644:16645   */\n      0x00\n        /* \"#utility.yul\":16637:16725   */\n      mstore\n        /* \"#utility.yul\":16744:16748   */\n      0x11\n        /* \"#utility.yul\":16741:16742   */\n      0x04\n        /* \"#utility.yul\":16734:16749   */\n      mstore\n        /* \"#utility.yul\":16768:16772   */\n      0x24\n        /* \"#utility.yul\":16765:16766   */\n      0x00\n        /* \"#utility.yul\":16758:16773   */\n      revert\n        /* \"#utility.yul\":16785:16979   */\n    tag_174:\n        /* \"#utility.yul\":16825:16829   */\n      0x00\n        /* \"#utility.yul\":16845:16865   */\n      tag_434\n        /* \"#utility.yul\":16863:16864   */\n      dup3\n        /* \"#utility.yul\":16845:16865   */\n      tag_221\n      jump\t// in\n    tag_434:\n        /* \"#utility.yul\":16840:16865   */\n      swap2\n      pop\n        /* \"#utility.yul\":16879:16899   */\n      tag_435\n        /* \"#utility.yul\":16897:16898   */\n      dup4\n        /* \"#utility.yul\":16879:16899   */\n      tag_221\n      jump\t// in\n    tag_435:\n        /* \"#utility.yul\":16874:16899   */\n      swap3\n      pop\n        /* \"#utility.yul\":16923:16924   */\n      dup3\n        /* \"#utility.yul\":16920:16921   */\n      dup3\n        /* \"#utility.yul\":16916:16925   */\n      sub\n        /* \"#utility.yul\":16908:16925   */\n      swap1\n      pop\n        /* \"#utility.yul\":16947:16948   */\n      dup2\n        /* \"#utility.yul\":16941:16945   */\n      dup2\n        /* \"#utility.yul\":16938:16949   */\n      gt\n        /* \"#utility.yul\":16935:16972   */\n      iszero\n      tag_436\n      jumpi\n        /* \"#utility.yul\":16952:16970   */\n      tag_437\n      tag_273\n      jump\t// in\n    tag_437:\n        /* \"#utility.yul\":16935:16972   */\n    tag_436:\n        /* \"#utility.yul\":16785:16979   */\n      swap3\n      swap2\n      pop\n      pop\n      jump\t// out\n        /* \"#utility.yul\":16985:17165   */\n    tag_274:\n        /* \"#utility.yul\":17033:17110   */\n      0x4e487b7100000000000000000000000000000000000000000000000000000000\n        /* \"#utility.yul\":17030:17031   */\n      0x00\n        /* \"#utility.yul\":17023:17111   */\n      mstore\n        /* \"#utility.yul\":17130:17134   */\n      0x12\n        /* \"#utility.yul\":17127:17128   */\n      0x04\n        /* \"#utility.yul\":17120:17135   */\n      mstore\n        /* \"#utility.yul\":17154:17158   */\n      0x24\n        /* \"#utility.yul\":17151:17152   */\n      0x00\n        /* \"#utility.yul\":17144:17159   */\n      revert\n        /* \"#utility.yul\":17171:17356   */\n    tag_195:\n        /* \"#utility.yul\":17211:17212   */\n      0x00\n        /* \"#utility.yul\":17228:17248   */\n      tag_440\n        /* \"#utility.yul\":17246:17247   */\n      dup3\n        /* \"#utility.yul\":17228:17248   */\n      tag_221\n      jump\t// in\n    tag_440:\n        /* \"#utility.yul\":17223:17248   */\n      swap2\n      pop\n        /* \"#utility.yul\":17262:17282   */\n      tag_441\n        /* \"#utility.yul\":17280:17281   */\n      dup4\n        /* \"#utility.yul\":17262:17282   */\n      tag_221\n      jump\t// in\n    tag_441:\n        /* \"#utility.yul\":17257:17282   */\n      swap3\n      pop\n        /* \"#utility.yul\":17301:17302   */\n      dup3\n        /* \"#utility.yul\":17291:17326   */\n      tag_442\n      jumpi\n        /* \"#utility.yul\":17306:17324   */\n      tag_443\n      tag_274\n      jump\t// in\n    tag_443:\n        /* \"#utility.yul\":17291:17326   */\n    tag_442:\n        /* \"#utility.yul\":17348:17349   */\n      dup3\n        /* \"#utility.yul\":17345:17346   */\n      dup3\n        /* \"#utility.yul\":17341:17350   */\n      div\n        /* \"#utility.yul\":17336:17350   */\n      swap1\n      pop\n        /* \"#utility.yul\":17171:17356   */\n      swap3\n      swap2\n      pop\n      pop\n      jump\t// out\n        /* \"#utility.yul\":17362:17772   */\n    tag_197:\n        /* \"#utility.yul\":17402:17409   */\n      0x00\n        /* \"#utility.yul\":17425:17445   */\n      tag_445\n        /* \"#utility.yul\":17443:17444   */\n      dup3\n        /* \"#utility.yul\":17425:17445   */\n      tag_221\n      jump\t// in\n    tag_445:\n        /* \"#utility.yul\":17420:17445   */\n      swap2\n      pop\n        /* \"#utility.yul\":17459:17479   */\n      tag_446\n        /* \"#utility.yul\":17477:17478   */\n      dup4\n        /* \"#utility.yul\":17459:17479   */\n      tag_221\n      jump\t// in\n    tag_446:\n        /* \"#utility.yul\":17454:17479   */\n      swap3\n      pop\n        /* \"#utility.yul\":17514:17515   */\n      dup3\n        /* \"#utility.yul\":17511:17512   */\n      dup3\n        /* \"#utility.yul\":17507:17516   */\n      mul\n        /* \"#utility.yul\":17536:17566   */\n      tag_447\n        /* \"#utility.yul\":17554:17565   */\n      dup2\n        /* \"#utility.yul\":17536:17566   */\n      tag_221\n      jump\t// in\n    tag_447:\n        /* \"#utility.yul\":17525:17566   */\n      swap2\n      pop\n        /* \"#utility.yul\":17715:17716   */\n      dup3\n        /* \"#utility.yul\":17706:17713   */\n      dup3\n        /* \"#utility.yul\":17702:17717   */\n      div\n        /* \"#utility.yul\":17699:17700   */\n      dup5\n        /* \"#utility.yul\":17696:17718   */\n      eq\n        /* \"#utility.yul\":17676:17677   */\n      dup4\n        /* \"#utility.yul\":17669:17678   */\n      iszero\n        /* \"#utility.yul\":17649:17732   */\n      or\n        /* \"#utility.yul\":17626:17765   */\n      tag_448\n      jumpi\n        /* \"#utility.yul\":17745:17763   */\n      tag_449\n      tag_273\n      jump\t// in\n    tag_449:\n        /* \"#utility.yul\":17626:17765   */\n    tag_448:\n        /* \"#utility.yul\":17410:17772   */\n      pop\n        /* \"#utility.yul\":17362:17772   */\n      swap3\n      swap2\n      pop\n      pop\n      jump\t// out\n        /* \"#utility.yul\":17778:17953   */\n    tag_219:\n        /* \"#utility.yul\":17816:17819   */\n      0x00\n        /* \"#utility.yul\":17839:17862   */\n      tag_451\n        /* \"#utility.yul\":17856:17861   */\n      dup3\n        /* \"#utility.yul\":17839:17862   */\n      tag_239\n      jump\t// in\n    tag_451:\n        /* \"#utility.yul\":17830:17862   */\n      swap2\n      pop\n        /* \"#utility.yul\":17884:17894   */\n      0xffffffff\n        /* \"#utility.yul\":17877:17882   */\n      dup3\n        /* \"#utility.yul\":17874:17895   */\n      sub\n        /* \"#utility.yul\":17871:17918   */\n      tag_452\n      jumpi\n        /* \"#utility.yul\":17898:17916   */\n      tag_453\n      tag_273\n      jump\t// in\n    tag_453:\n        /* \"#utility.yul\":17871:17918   */\n    tag_452:\n        /* \"#utility.yul\":17945:17946   */\n      0x01\n        /* \"#utility.yul\":17938:17943   */\n      dup3\n        /* \"#utility.yul\":17934:17947   */\n      add\n        /* \"#utility.yul\":17927:17947   */\n      swap1\n      pop\n        /* \"#utility.yul\":17778:17953   */\n      swap2\n      swap1\n      pop\n      jump\t// out\n    stop\n    data_e57918cec7be186f52eb94e89d54d42a827037ee60fee8f3804c78ab79e9854e 506c6179657220312063686f696365206869732f686572206f7074696f6e2e2057616974696e6720666f7220706c617965722032\n\n    auxdata: 0xa2646970667358221220bf2871afdf0b21dca99ee2cb3684f4c43d2ba183086b7ba0384c7af439a7df6064736f6c634300081a0033\n}\n",
				"bytecode": {
					"linkReferences": {},
					"object": "60a06040525f805f6101000a81548160ff0219169083600381111561002757610026610093565b5b021790555060405180602001604052805f8152506001908161004991906102fa565b505f600255348015610059575f80fd5b503373ffffffffffffffffffffffffffffffffffffffff1660808173ffffffffffffffffffffffffffffffffffffffff16815250506103c9565b7f4e487b71000000000000000000000000000000000000000000000000000000005f52602160045260245ffd5b5f81519050919050565b7f4e487b71000000000000000000000000000000000000000000000000000000005f52604160045260245ffd5b7f4e487b71000000000000000000000000000000000000000000000000000000005f52602260045260245ffd5b5f600282049050600182168061013b57607f821691505b60208210810361014e5761014d6100f7565b5b50919050565b5f819050815f5260205f209050919050565b5f6020601f8301049050919050565b5f82821b905092915050565b5f600883026101b07fffffffffffffffffffffffffffffffffffffffffffffffffffffffffffffffff82610175565b6101ba8683610175565b95508019841693508086168417925050509392505050565b5f819050919050565b5f819050919050565b5f6101fe6101f96101f4846101d2565b6101db565b6101d2565b9050919050565b5f819050919050565b610217836101e4565b61022b61022382610205565b848454610181565b825550505050565b5f90565b61023f610233565b61024a81848461020e565b505050565b5b8181101561026d576102625f82610237565b600181019050610250565b5050565b601f8211156102b25761028381610154565b61028c84610166565b8101602085101561029b578190505b6102af6102a785610166565b83018261024f565b50505b505050565b5f82821c905092915050565b5f6102d25f19846008026102b7565b1980831691505092915050565b5f6102ea83836102c3565b9150826002028217905092915050565b610303826100c0565b67ffffffffffffffff81111561031c5761031b6100ca565b5b6103268254610124565b610331828285610271565b5f60209050601f831160018114610362575f8415610350578287015190505b61035a85826102df565b8655506103c1565b601f19841661037086610154565b5f5b8281101561039757848901518255600182019150602085019450602081019050610372565b868310156103b457848901516103b0601f8916826102c3565b8355505b6001600288020188555050505b505050505050565b608051611a096103e85f395f81816101730152610dab0152611a095ff3fe608060405260043610610054575f3560e01c806312065fe01461005857806353a04b0514610082578063653721471461009e5780636d7b26d0146100c8578063dca9c798146100f2578063f71d96cb1461011c575b5f80fd5b348015610063575f80fd5b5061006c610159565b604051610079919061109f565b60405180910390f35b61009c600480360381019061009791906110df565b6101ee565b005b3480156100a9575f80fd5b506100b261091d565b6040516100bf919061117a565b60405180910390f35b3480156100d3575f80fd5b506100dc6109a9565b6040516100e9919061109f565b60405180910390f35b3480156100fd575f80fd5b506101066109af565b60405161011391906112cc565b60405180910390f35b348015610127575f80fd5b50610142600480360381019061013d9190611316565b610cd9565b60405161015092919061135f565b60405180910390f35b5f3373ffffffffffffffffffffffffffffffffffffffff167f000000000000000000000000000000000000000000000000000000000000000073ffffffffffffffffffffffffffffffffffffffff16146101e8576040517f08c379a00000000000000000000000000000000000000000000000000000000081526004016101df906113d0565b60405180910390fd5b47905090565b5f6003811115610201576102006113ee565b5b816003811115610214576102136113ee565b5b03610254576040517f08c379a000000000000000000000000000000000000000000000000000000000815260040161024b90611465565b60405180910390fd5b3373ffffffffffffffffffffffffffffffffffffffff165f60019054906101000a900473ffffffffffffffffffffffffffffffffffffffff1673ffffffffffffffffffffffffffffffffffffffff16036102e3576040517f08c379a00000000000000000000000000000000000000000000000000000000081526004016102da906114cd565b60405180910390fd5b662386f26fc1000034101561032d576040517f08c379a000000000000000000000000000000000000000000000000000000000815260040161032490611535565b60405180910390fd5b5f60038111156103405761033f6113ee565b5b5f8054906101000a900460ff16600381111561035f5761035e6113ee565b5b036103f957335f60016101000a81548173ffffffffffffffffffffffffffffffffffffffff021916908373ffffffffffffffffffffffffffffffffffffffff160217905550805f806101000a81548160ff021916908360038111156103c7576103c66113ee565b5b02179055506040518060600160405280603481526020016119a060349139600190816103f3919061177a565b5061091a565b6001600381111561040d5761040c6113ee565b5b5f8054906101000a900460ff16600381111561042c5761042b6113ee565b5b14801561045c5750600380811115610447576104466113ee565b5b81600381111561045a576104596113ee565b5b145b156104c6576104c16040518060400160405280600c81526020017f506c61796572203120574f4e00000000000000000000000000000000000000008152505f60019054906101000a900473ffffffffffffffffffffffffffffffffffffffff16610d32565b610919565b600260038111156104da576104d96113ee565b5b5f8054906101000a900460ff1660038111156104f9576104f86113ee565b5b14801561052a575060016003811115610515576105146113ee565b5b816003811115610528576105276113ee565b5b145b156105945761058f6040518060400160405280600c81526020017f506c61796572203120574f4e00000000000000000000000000000000000000008152505f60019054906101000a900473ffffffffffffffffffffffffffffffffffffffff16610d32565b610918565b6003808111156105a7576105a66113ee565b5b5f8054906101000a900460ff1660038111156105c6576105c56113ee565b5b1480156105f75750600260038111156105e2576105e16113ee565b5b8160038111156105f5576105f46113ee565b5b145b156106615761065c6040518060400160405280600c81526020017f506c61796572203120574f4e00000000000000000000000000000000000000008152505f60019054906101000a900473ffffffffffffffffffffffffffffffffffffffff16610d32565b610917565b600380811115610674576106736113ee565b5b5f8054906101000a900460ff166003811115610693576106926113ee565b5b1480156106c45750600160038111156106af576106ae6113ee565b5b8160038111156106c2576106c16113ee565b5b145b1561070d576107086040518060400160405280600c81526020017f506c61796572203220574f4e000000000000000000000000000000000000000081525033610d32565b610916565b60016003811115610721576107206113ee565b5b5f8054906101000a900460ff1660038111156107405761073f6113ee565b5b14801561077157506002600381111561075c5761075b6113ee565b5b81600381111561076f5761076e6113ee565b5b145b156107ba576107b56040518060400160405280600c81526020017f506c61796572203220574f4e000000000000000000000000000000000000000081525033610d32565b610915565b600260038111156107ce576107cd6113ee565b5b5f8054906101000a900460ff1660038111156107ed576107ec6113ee565b5b14801561081d5750600380811115610808576108076113ee565b5b81600381111561081b5761081a6113ee565b5b145b15610866576108616040518060400160405280600c81526020017f506c61796572203220574f4e000000000000000000000000000000000000000081525033610d32565b610914565b6040518060400160405280601881526020017f447261772067616d652c207072697a6520646f75626c65640000000000000000815250600190816108aa919061177a565b505f8060016101000a81548173ffffffffffffffffffffffffffffffffffffffff021916908373ffffffffffffffffffffffffffffffffffffffff1602179055505f805f6101000a81548160ff0219169083600381111561090e5761090d6113ee565b5b02179055505b5b5b5b5b5b5b50565b6001805461092a906115ad565b80601f0160208091040260200160405190810160405280929190818152602001828054610956906115ad565b80156109a15780601f10610978576101008083540402835291602001916109a1565b820191905f5260205f20905b81548152906001019060200180831161098457829003601f168201915b505050505081565b60025481565b606060026003805490501015610a90576003805480602002602001604051908101604052809291908181526020015f905b82821015610a85578382905f5260205f20016040518060400160405290815f82015f9054906101000a900473ffffffffffffffffffffffffffffffffffffffff1673ffffffffffffffffffffffffffffffffffffffff1673ffffffffffffffffffffffffffffffffffffffff1681526020015f820160149054906101000a900463ffffffff1663ffffffff1663ffffffff1681525050815260200190600101906109e0565b505050509050610cd6565b5f60038054905067ffffffffffffffff811115610ab057610aaf611553565b5b604051908082528060200260200182016040528015610ae957816020015b610ad6611053565b815260200190600190039081610ace5790505b5090505f5b600380549050811015610bc65760038181548110610b0f57610b0e611849565b5b905f5260205f20016040518060400160405290815f82015f9054906101000a900473ffffffffffffffffffffffffffffffffffffffff1673ffffffffffffffffffffffffffffffffffffffff1673ffffffffffffffffffffffffffffffffffffffff1681526020015f820160149054906101000a900463ffffffff1663ffffffff1663ffffffff1681525050828281518110610bae57610bad611849565b5b60200260200101819052508080600101915050610aee565b505f5b60018251610bd791906118a3565b811015610cd0575f600190505b8251811015610cc257828181518110610c0057610bff611849565b5b60200260200101516020015163ffffffff16838381518110610c2557610c24611849565b5b60200260200101516020015163ffffffff161015610cb5575f838381518110610c5157610c50611849565b5b60200260200101519050838281518110610c6e57610c6d611849565b5b6020026020010151848481518110610c8957610c88611849565b5b602002602001018190525080848381518110610ca857610ca7611849565b5b6020026020010181905250505b8080600101915050610be4565b508080600101915050610bc9565b50809150505b90565b60038181548110610ce8575f80fd5b905f5260205f20015f91509050805f015f9054906101000a900473ffffffffffffffffffffffffffffffffffffffff1690805f0160149054906101000a900463ffffffff16905082565b5f3090508173ffffffffffffffffffffffffffffffffffffffff166108fc605a60648473ffffffffffffffffffffffffffffffffffffffff1631610d769190611903565b610d809190611933565b90811502906040515f60405180830381858888f19350505050158015610da8573d5f803e3d5ffd5b507f000000000000000000000000000000000000000000000000000000000000000073ffffffffffffffffffffffffffffffffffffffff166108fc8273ffffffffffffffffffffffffffffffffffffffff163190811502906040515f60405180830381858888f19350505050158015610e23573d5f803e3d5ffd5b50610e2d82610eaa565b8260019081610e3c919061177a565b505f8060016101000a81548173ffffffffffffffffffffffffffffffffffffffff021916908373ffffffffffffffffffffffffffffffffffffffff1602179055505f805f6101000a81548160ff02191690836003811115610ea057610e9f6113ee565b5b0217905550505050565b5f600380549050811015610f8c578173ffffffffffffffffffffffffffffffffffffffff1660038281548110610ee357610ee2611849565b5b905f5260205f20015f015f9054906101000a900473ffffffffffffffffffffffffffffffffffffffff1673ffffffffffffffffffffffffffffffffffffffff1603610f865760038181548110610f3c57610f3b611849565b5b905f5260205f20015f01601481819054906101000a900463ffffffff1680929190610f6690611974565b91906101000a81548163ffffffff021916908363ffffffff160217905550505b50611050565b50600360405180604001604052808373ffffffffffffffffffffffffffffffffffffffff168152602001600163ffffffff16815250908060018154018082558091505060019003905f5260205f20015f909190919091505f820151815f015f6101000a81548173ffffffffffffffffffffffffffffffffffffffff021916908373ffffffffffffffffffffffffffffffffffffffff1602179055506020820151815f0160146101000a81548163ffffffff021916908363ffffffff16021790555050505b50565b60405180604001604052805f73ffffffffffffffffffffffffffffffffffffffff1681526020015f63ffffffff1681525090565b5f819050919050565b61109981611087565b82525050565b5f6020820190506110b25f830184611090565b92915050565b5f80fd5b600481106110c8575f80fd5b50565b5f813590506110d9816110bc565b92915050565b5f602082840312156110f4576110f36110b8565b5b5f611101848285016110cb565b91505092915050565b5f81519050919050565b5f82825260208201905092915050565b8281835e5f83830152505050565b5f601f19601f8301169050919050565b5f61114c8261110a565b6111568185611114565b9350611166818560208601611124565b61116f81611132565b840191505092915050565b5f6020820190508181035f8301526111928184611142565b905092915050565b5f81519050919050565b5f82825260208201905092915050565b5f819050602082019050919050565b5f73ffffffffffffffffffffffffffffffffffffffff82169050919050565b5f6111ec826111c3565b9050919050565b6111fc816111e2565b82525050565b5f63ffffffff82169050919050565b61121a81611202565b82525050565b604082015f8201516112345f8501826111f3565b5060208201516112476020850182611211565b50505050565b5f6112588383611220565b60408301905092915050565b5f602082019050919050565b5f61127a8261119a565b61128481856111a4565b935061128f836111b4565b805f5b838110156112bf5781516112a6888261124d565b97506112b183611264565b925050600181019050611292565b5085935050505092915050565b5f6020820190508181035f8301526112e48184611270565b905092915050565b6112f581611087565b81146112ff575f80fd5b50565b5f81359050611310816112ec565b92915050565b5f6020828403121561132b5761132a6110b8565b5b5f61133884828501611302565b91505092915050565b61134a816111e2565b82525050565b61135981611202565b82525050565b5f6040820190506113725f830185611341565b61137f6020830184611350565b9392505050565b7f596f7520646f6e742068617665207065726d697373696f6e00000000000000005f82015250565b5f6113ba601883611114565b91506113c582611386565b602082019050919050565b5f6020820190508181035f8301526113e7816113ae565b9050919050565b7f4e487b71000000000000000000000000000000000000000000000000000000005f52602160045260245ffd5b7f496e76616c69642043686f6963650000000000000000000000000000000000005f82015250565b5f61144f600e83611114565b915061145a8261141b565b602082019050919050565b5f6020820190508181035f83015261147c81611443565b9050919050565b7f576169742074686520616e6f7468657220706c617965722e2e2e0000000000005f82015250565b5f6114b7601a83611114565b91506114c282611483565b602082019050919050565b5f6020820190508181035f8301526114e4816114ab565b9050919050565b7f496e76616c6964206269740000000000000000000000000000000000000000005f82015250565b5f61151f600b83611114565b915061152a826114eb565b602082019050919050565b5f6020820190508181035f83015261154c81611513565b9050919050565b7f4e487b71000000000000000000000000000000000000000000000000000000005f52604160045260245ffd5b7f4e487b71000000000000000000000000000000000000000000000000000000005f52602260045260245ffd5b5f60028204905060018216806115c457607f821691505b6020821081036115d7576115d6611580565b5b50919050565b5f819050815f5260205f209050919050565b5f6020601f8301049050919050565b5f82821b905092915050565b5f600883026116397fffffffffffffffffffffffffffffffffffffffffffffffffffffffffffffffff826115fe565b61164386836115fe565b95508019841693508086168417925050509392505050565b5f819050919050565b5f61167e61167961167484611087565b61165b565b611087565b9050919050565b5f819050919050565b61169783611664565b6116ab6116a382611685565b84845461160a565b825550505050565b5f90565b6116bf6116b3565b6116ca81848461168e565b505050565b5b818110156116ed576116e25f826116b7565b6001810190506116d0565b5050565b601f82111561173257611703816115dd565b61170c846115ef565b8101602085101561171b578190505b61172f611727856115ef565b8301826116cf565b50505b505050565b5f82821c905092915050565b5f6117525f1984600802611737565b1980831691505092915050565b5f61176a8383611743565b9150826002028217905092915050565b6117838261110a565b67ffffffffffffffff81111561179c5761179b611553565b5b6117a682546115ad565b6117b18282856116f1565b5f60209050601f8311600181146117e2575f84156117d0578287015190505b6117da858261175f565b865550611841565b601f1984166117f0866115dd565b5f5b82811015611817578489015182556001820191506020850194506020810190506117f2565b868310156118345784890151611830601f891682611743565b8355505b6001600288020188555050505b505050505050565b7f4e487b71000000000000000000000000000000000000000000000000000000005f52603260045260245ffd5b7f4e487b71000000000000000000000000000000000000000000000000000000005f52601160045260245ffd5b5f6118ad82611087565b91506118b883611087565b92508282039050818111156118d0576118cf611876565b5b92915050565b7f4e487b71000000000000000000000000000000000000000000000000000000005f52601260045260245ffd5b5f61190d82611087565b915061191883611087565b925082611928576119276118d6565b5b828204905092915050565b5f61193d82611087565b915061194883611087565b925082820261195681611087565b9150828204841483151761196d5761196c611876565b5b5092915050565b5f61197e82611202565b915063ffffffff820361199457611993611876565b5b60018201905091905056fe506c6179657220312063686f696365206869732f686572206f7074696f6e2e2057616974696e6720666f7220706c617965722032a2646970667358221220bf2871afdf0b21dca99ee2cb3684f4c43d2ba183086b7ba0384c7af439a7df6064736f6c634300081a0033",
					"opcodes": "PUSH1 0xA0 PUSH1 0x40 MSTORE PUSH0 DUP1 PUSH0 PUSH2 0x100 EXP DUP2 SLOAD DUP2 PUSH1 0xFF MUL NOT AND SWAP1 DUP4 PUSH1 0x3 DUP2 GT ISZERO PUSH2 0x27 JUMPI PUSH2 0x26 PUSH2 0x93 JUMP JUMPDEST JUMPDEST MUL OR SWAP1 SSTORE POP PUSH1 0x40 MLOAD DUP1 PUSH1 0x20 ADD PUSH1 0x40 MSTORE DUP1 PUSH0 DUP2 MSTORE POP PUSH1 0x1 SWAP1 DUP2 PUSH2 0x49 SWAP2 SWAP1 PUSH2 0x2FA JUMP JUMPDEST POP PUSH0 PUSH1 0x2 SSTORE CALLVALUE DUP1 ISZERO PUSH2 0x59 JUMPI PUSH0 DUP1 REVERT JUMPDEST POP CALLER PUSH20 0xFFFFFFFFFFFFFFFFFFFFFFFFFFFFFFFFFFFFFFFF AND PUSH1 0x80 DUP2 PUSH20 0xFFFFFFFFFFFFFFFFFFFFFFFFFFFFFFFFFFFFFFFF AND DUP2 MSTORE POP POP PUSH2 0x3C9 JUMP JUMPDEST PUSH32 0x4E487B7100000000000000000000000000000000000000000000000000000000 PUSH0 MSTORE PUSH1 0x21 PUSH1 0x4 MSTORE PUSH1 0x24 PUSH0 REVERT JUMPDEST PUSH0 DUP2 MLOAD SWAP1 POP SWAP2 SWAP1 POP JUMP JUMPDEST PUSH32 0x4E487B7100000000000000000000000000000000000000000000000000000000 PUSH0 MSTORE PUSH1 0x41 PUSH1 0x4 MSTORE PUSH1 0x24 PUSH0 REVERT JUMPDEST PUSH32 0x4E487B7100000000000000000000000000000000000000000000000000000000 PUSH0 MSTORE PUSH1 0x22 PUSH1 0x4 MSTORE PUSH1 0x24 PUSH0 REVERT JUMPDEST PUSH0 PUSH1 0x2 DUP3 DIV SWAP1 POP PUSH1 0x1 DUP3 AND DUP1 PUSH2 0x13B JUMPI PUSH1 0x7F DUP3 AND SWAP2 POP JUMPDEST PUSH1 0x20 DUP3 LT DUP2 SUB PUSH2 0x14E JUMPI PUSH2 0x14D PUSH2 0xF7 JUMP JUMPDEST JUMPDEST POP SWAP2 SWAP1 POP JUMP JUMPDEST PUSH0 DUP2 SWAP1 POP DUP2 PUSH0 MSTORE PUSH1 0x20 PUSH0 KECCAK256 SWAP1 POP SWAP2 SWAP1 POP JUMP JUMPDEST PUSH0 PUSH1 0x20 PUSH1 0x1F DUP4 ADD DIV SWAP1 POP SWAP2 SWAP1 POP JUMP JUMPDEST PUSH0 DUP3 DUP3 SHL SWAP1 POP SWAP3 SWAP2 POP POP JUMP JUMPDEST PUSH0 PUSH1 0x8 DUP4 MUL PUSH2 0x1B0 PUSH32 0xFFFFFFFFFFFFFFFFFFFFFFFFFFFFFFFFFFFFFFFFFFFFFFFFFFFFFFFFFFFFFFFF DUP3 PUSH2 0x175 JUMP JUMPDEST PUSH2 0x1BA DUP7 DUP4 PUSH2 0x175 JUMP JUMPDEST SWAP6 POP DUP1 NOT DUP5 AND SWAP4 POP DUP1 DUP7 AND DUP5 OR SWAP3 POP POP POP SWAP4 SWAP3 POP POP POP JUMP JUMPDEST PUSH0 DUP2 SWAP1 POP SWAP2 SWAP1 POP JUMP JUMPDEST PUSH0 DUP2 SWAP1 POP SWAP2 SWAP1 POP JUMP JUMPDEST PUSH0 PUSH2 0x1FE PUSH2 0x1F9 PUSH2 0x1F4 DUP5 PUSH2 0x1D2 JUMP JUMPDEST PUSH2 0x1DB JUMP JUMPDEST PUSH2 0x1D2 JUMP JUMPDEST SWAP1 POP SWAP2 SWAP1 POP JUMP JUMPDEST PUSH0 DUP2 SWAP1 POP SWAP2 SWAP1 POP JUMP JUMPDEST PUSH2 0x217 DUP4 PUSH2 0x1E4 JUMP JUMPDEST PUSH2 0x22B PUSH2 0x223 DUP3 PUSH2 0x205 JUMP JUMPDEST DUP5 DUP5 SLOAD PUSH2 0x181 JUMP JUMPDEST DUP3 SSTORE POP POP POP POP JUMP JUMPDEST PUSH0 SWAP1 JUMP JUMPDEST PUSH2 0x23F PUSH2 0x233 JUMP JUMPDEST PUSH2 0x24A DUP2 DUP5 DUP5 PUSH2 0x20E JUMP JUMPDEST POP POP POP JUMP JUMPDEST JUMPDEST DUP2 DUP2 LT ISZERO PUSH2 0x26D JUMPI PUSH2 0x262 PUSH0 DUP3 PUSH2 0x237 JUMP JUMPDEST PUSH1 0x1 DUP2 ADD SWAP1 POP PUSH2 0x250 JUMP JUMPDEST POP POP JUMP JUMPDEST PUSH1 0x1F DUP3 GT ISZERO PUSH2 0x2B2 JUMPI PUSH2 0x283 DUP2 PUSH2 0x154 JUMP JUMPDEST PUSH2 0x28C DUP5 PUSH2 0x166 JUMP JUMPDEST DUP2 ADD PUSH1 0x20 DUP6 LT ISZERO PUSH2 0x29B JUMPI DUP2 SWAP1 POP JUMPDEST PUSH2 0x2AF PUSH2 0x2A7 DUP6 PUSH2 0x166 JUMP JUMPDEST DUP4 ADD DUP3 PUSH2 0x24F JUMP JUMPDEST POP POP JUMPDEST POP POP POP JUMP JUMPDEST PUSH0 DUP3 DUP3 SHR SWAP1 POP SWAP3 SWAP2 POP POP JUMP JUMPDEST PUSH0 PUSH2 0x2D2 PUSH0 NOT DUP5 PUSH1 0x8 MUL PUSH2 0x2B7 JUMP JUMPDEST NOT DUP1 DUP4 AND SWAP2 POP POP SWAP3 SWAP2 POP POP JUMP JUMPDEST PUSH0 PUSH2 0x2EA DUP4 DUP4 PUSH2 0x2C3 JUMP JUMPDEST SWAP2 POP DUP3 PUSH1 0x2 MUL DUP3 OR SWAP1 POP SWAP3 SWAP2 POP POP JUMP JUMPDEST PUSH2 0x303 DUP3 PUSH2 0xC0 JUMP JUMPDEST PUSH8 0xFFFFFFFFFFFFFFFF DUP2 GT ISZERO PUSH2 0x31C JUMPI PUSH2 0x31B PUSH2 0xCA JUMP JUMPDEST JUMPDEST PUSH2 0x326 DUP3 SLOAD PUSH2 0x124 JUMP JUMPDEST PUSH2 0x331 DUP3 DUP3 DUP6 PUSH2 0x271 JUMP JUMPDEST PUSH0 PUSH1 0x20 SWAP1 POP PUSH1 0x1F DUP4 GT PUSH1 0x1 DUP2 EQ PUSH2 0x362 JUMPI PUSH0 DUP5 ISZERO PUSH2 0x350 JUMPI DUP3 DUP8 ADD MLOAD SWAP1 POP JUMPDEST PUSH2 0x35A DUP6 DUP3 PUSH2 0x2DF JUMP JUMPDEST DUP7 SSTORE POP PUSH2 0x3C1 JUMP JUMPDEST PUSH1 0x1F NOT DUP5 AND PUSH2 0x370 DUP7 PUSH2 0x154 JUMP JUMPDEST PUSH0 JUMPDEST DUP3 DUP2 LT ISZERO PUSH2 0x397 JUMPI DUP5 DUP10 ADD MLOAD DUP3 SSTORE PUSH1 0x1 DUP3 ADD SWAP2 POP PUSH1 0x20 DUP6 ADD SWAP5 POP PUSH1 0x20 DUP2 ADD SWAP1 POP PUSH2 0x372 JUMP JUMPDEST DUP7 DUP4 LT ISZERO PUSH2 0x3B4 JUMPI DUP5 DUP10 ADD MLOAD PUSH2 0x3B0 PUSH1 0x1F DUP10 AND DUP3 PUSH2 0x2C3 JUMP JUMPDEST DUP4 SSTORE POP JUMPDEST PUSH1 0x1 PUSH1 0x2 DUP9 MUL ADD DUP9 SSTORE POP POP POP JUMPDEST POP POP POP POP POP POP JUMP JUMPDEST PUSH1 0x80 MLOAD PUSH2 0x1A09 PUSH2 0x3E8 PUSH0 CODECOPY PUSH0 DUP2 DUP2 PUSH2 0x173 ADD MSTORE PUSH2 0xDAB ADD MSTORE PUSH2 0x1A09 PUSH0 RETURN INVALID PUSH1 0x80 PUSH1 0x40 MSTORE PUSH1 0x4 CALLDATASIZE LT PUSH2 0x54 JUMPI PUSH0 CALLDATALOAD PUSH1 0xE0 SHR DUP1 PUSH4 0x12065FE0 EQ PUSH2 0x58 JUMPI DUP1 PUSH4 0x53A04B05 EQ PUSH2 0x82 JUMPI DUP1 PUSH4 0x65372147 EQ PUSH2 0x9E JUMPI DUP1 PUSH4 0x6D7B26D0 EQ PUSH2 0xC8 JUMPI DUP1 PUSH4 0xDCA9C798 EQ PUSH2 0xF2 JUMPI DUP1 PUSH4 0xF71D96CB EQ PUSH2 0x11C JUMPI JUMPDEST PUSH0 DUP1 REVERT JUMPDEST CALLVALUE DUP1 ISZERO PUSH2 0x63 JUMPI PUSH0 DUP1 REVERT JUMPDEST POP PUSH2 0x6C PUSH2 0x159 JUMP JUMPDEST PUSH1 0x40 MLOAD PUSH2 0x79 SWAP2 SWAP1 PUSH2 0x109F JUMP JUMPDEST PUSH1 0x40 MLOAD DUP1 SWAP2 SUB SWAP1 RETURN JUMPDEST PUSH2 0x9C PUSH1 0x4 DUP1 CALLDATASIZE SUB DUP2 ADD SWAP1 PUSH2 0x97 SWAP2 SWAP1 PUSH2 0x10DF JUMP JUMPDEST PUSH2 0x1EE JUMP JUMPDEST STOP JUMPDEST CALLVALUE DUP1 ISZERO PUSH2 0xA9 JUMPI PUSH0 DUP1 REVERT JUMPDEST POP PUSH2 0xB2 PUSH2 0x91D JUMP JUMPDEST PUSH1 0x40 MLOAD PUSH2 0xBF SWAP2 SWAP1 PUSH2 0x117A JUMP JUMPDEST PUSH1 0x40 MLOAD DUP1 SWAP2 SUB SWAP1 RETURN JUMPDEST CALLVALUE DUP1 ISZERO PUSH2 0xD3 JUMPI PUSH0 DUP1 REVERT JUMPDEST POP PUSH2 0xDC PUSH2 0x9A9 JUMP JUMPDEST PUSH1 0x40 MLOAD PUSH2 0xE9 SWAP2 SWAP1 PUSH2 0x109F JUMP JUMPDEST PUSH1 0x40 MLOAD DUP1 SWAP2 SUB SWAP1 RETURN JUMPDEST CALLVALUE DUP1 ISZERO PUSH2 0xFD JUMPI PUSH0 DUP1 REVERT JUMPDEST POP PUSH2 0x106 PUSH2 0x9AF JUMP JUMPDEST PUSH1 0x40 MLOAD PUSH2 0x113 SWAP2 SWAP1 PUSH2 0x12CC JUMP JUMPDEST PUSH1 0x40 MLOAD DUP1 SWAP2 SUB SWAP1 RETURN JUMPDEST CALLVALUE DUP1 ISZERO PUSH2 0x127 JUMPI PUSH0 DUP1 REVERT JUMPDEST POP PUSH2 0x142 PUSH1 0x4 DUP1 CALLDATASIZE SUB DUP2 ADD SWAP1 PUSH2 0x13D SWAP2 SWAP1 PUSH2 0x1316 JUMP JUMPDEST PUSH2 0xCD9 JUMP JUMPDEST PUSH1 0x40 MLOAD PUSH2 0x150 SWAP3 SWAP2 SWAP1 PUSH2 0x135F JUMP JUMPDEST PUSH1 0x40 MLOAD DUP1 SWAP2 SUB SWAP1 RETURN JUMPDEST PUSH0 CALLER PUSH20 0xFFFFFFFFFFFFFFFFFFFFFFFFFFFFFFFFFFFFFFFF AND PUSH32 0x0 PUSH20 0xFFFFFFFFFFFFFFFFFFFFFFFFFFFFFFFFFFFFFFFF AND EQ PUSH2 0x1E8 JUMPI PUSH1 0x40 MLOAD PUSH32 0x8C379A000000000000000000000000000000000000000000000000000000000 DUP2 MSTORE PUSH1 0x4 ADD PUSH2 0x1DF SWAP1 PUSH2 0x13D0 JUMP JUMPDEST PUSH1 0x40 MLOAD DUP1 SWAP2 SUB SWAP1 REVERT JUMPDEST SELFBALANCE SWAP1 POP SWAP1 JUMP JUMPDEST PUSH0 PUSH1 0x3 DUP2 GT ISZERO PUSH2 0x201 JUMPI PUSH2 0x200 PUSH2 0x13EE JUMP JUMPDEST JUMPDEST DUP2 PUSH1 0x3 DUP2 GT ISZERO PUSH2 0x214 JUMPI PUSH2 0x213 PUSH2 0x13EE JUMP JUMPDEST JUMPDEST SUB PUSH2 0x254 JUMPI PUSH1 0x40 MLOAD PUSH32 0x8C379A000000000000000000000000000000000000000000000000000000000 DUP2 MSTORE PUSH1 0x4 ADD PUSH2 0x24B SWAP1 PUSH2 0x1465 JUMP JUMPDEST PUSH1 0x40 MLOAD DUP1 SWAP2 SUB SWAP1 REVERT JUMPDEST CALLER PUSH20 0xFFFFFFFFFFFFFFFFFFFFFFFFFFFFFFFFFFFFFFFF AND PUSH0 PUSH1 0x1 SWAP1 SLOAD SWAP1 PUSH2 0x100 EXP SWAP1 DIV PUSH20 0xFFFFFFFFFFFFFFFFFFFFFFFFFFFFFFFFFFFFFFFF AND PUSH20 0xFFFFFFFFFFFFFFFFFFFFFFFFFFFFFFFFFFFFFFFF AND SUB PUSH2 0x2E3 JUMPI PUSH1 0x40 MLOAD PUSH32 0x8C379A000000000000000000000000000000000000000000000000000000000 DUP2 MSTORE PUSH1 0x4 ADD PUSH2 0x2DA SWAP1 PUSH2 0x14CD JUMP JUMPDEST PUSH1 0x40 MLOAD DUP1 SWAP2 SUB SWAP1 REVERT JUMPDEST PUSH7 0x2386F26FC10000 CALLVALUE LT ISZERO PUSH2 0x32D JUMPI PUSH1 0x40 MLOAD PUSH32 0x8C379A000000000000000000000000000000000000000000000000000000000 DUP2 MSTORE PUSH1 0x4 ADD PUSH2 0x324 SWAP1 PUSH2 0x1535 JUMP JUMPDEST PUSH1 0x40 MLOAD DUP1 SWAP2 SUB SWAP1 REVERT JUMPDEST PUSH0 PUSH1 0x3 DUP2 GT ISZERO PUSH2 0x340 JUMPI PUSH2 0x33F PUSH2 0x13EE JUMP JUMPDEST JUMPDEST PUSH0 DUP1 SLOAD SWAP1 PUSH2 0x100 EXP SWAP1 DIV PUSH1 0xFF AND PUSH1 0x3 DUP2 GT ISZERO PUSH2 0x35F JUMPI PUSH2 0x35E PUSH2 0x13EE JUMP JUMPDEST JUMPDEST SUB PUSH2 0x3F9 JUMPI CALLER PUSH0 PUSH1 0x1 PUSH2 0x100 EXP DUP2 SLOAD DUP2 PUSH20 0xFFFFFFFFFFFFFFFFFFFFFFFFFFFFFFFFFFFFFFFF MUL NOT AND SWAP1 DUP4 PUSH20 0xFFFFFFFFFFFFFFFFFFFFFFFFFFFFFFFFFFFFFFFF AND MUL OR SWAP1 SSTORE POP DUP1 PUSH0 DUP1 PUSH2 0x100 EXP DUP2 SLOAD DUP2 PUSH1 0xFF MUL NOT AND SWAP1 DUP4 PUSH1 0x3 DUP2 GT ISZERO PUSH2 0x3C7 JUMPI PUSH2 0x3C6 PUSH2 0x13EE JUMP JUMPDEST JUMPDEST MUL OR SWAP1 SSTORE POP PUSH1 0x40 MLOAD DUP1 PUSH1 0x60 ADD PUSH1 0x40 MSTORE DUP1 PUSH1 0x34 DUP2 MSTORE PUSH1 0x20 ADD PUSH2 0x19A0 PUSH1 0x34 SWAP2 CODECOPY PUSH1 0x1 SWAP1 DUP2 PUSH2 0x3F3 SWAP2 SWAP1 PUSH2 0x177A JUMP JUMPDEST POP PUSH2 0x91A JUMP JUMPDEST PUSH1 0x1 PUSH1 0x3 DUP2 GT ISZERO PUSH2 0x40D JUMPI PUSH2 0x40C PUSH2 0x13EE JUMP JUMPDEST JUMPDEST PUSH0 DUP1 SLOAD SWAP1 PUSH2 0x100 EXP SWAP1 DIV PUSH1 0xFF AND PUSH1 0x3 DUP2 GT ISZERO PUSH2 0x42C JUMPI PUSH2 0x42B PUSH2 0x13EE JUMP JUMPDEST JUMPDEST EQ DUP1 ISZERO PUSH2 0x45C JUMPI POP PUSH1 0x3 DUP1 DUP2 GT ISZERO PUSH2 0x447 JUMPI PUSH2 0x446 PUSH2 0x13EE JUMP JUMPDEST JUMPDEST DUP2 PUSH1 0x3 DUP2 GT ISZERO PUSH2 0x45A JUMPI PUSH2 0x459 PUSH2 0x13EE JUMP JUMPDEST JUMPDEST EQ JUMPDEST ISZERO PUSH2 0x4C6 JUMPI PUSH2 0x4C1 PUSH1 0x40 MLOAD DUP1 PUSH1 0x40 ADD PUSH1 0x40 MSTORE DUP1 PUSH1 0xC DUP2 MSTORE PUSH1 0x20 ADD PUSH32 0x506C61796572203120574F4E0000000000000000000000000000000000000000 DUP2 MSTORE POP PUSH0 PUSH1 0x1 SWAP1 SLOAD SWAP1 PUSH2 0x100 EXP SWAP1 DIV PUSH20 0xFFFFFFFFFFFFFFFFFFFFFFFFFFFFFFFFFFFFFFFF AND PUSH2 0xD32 JUMP JUMPDEST PUSH2 0x919 JUMP JUMPDEST PUSH1 0x2 PUSH1 0x3 DUP2 GT ISZERO PUSH2 0x4DA JUMPI PUSH2 0x4D9 PUSH2 0x13EE JUMP JUMPDEST JUMPDEST PUSH0 DUP1 SLOAD SWAP1 PUSH2 0x100 EXP SWAP1 DIV PUSH1 0xFF AND PUSH1 0x3 DUP2 GT ISZERO PUSH2 0x4F9 JUMPI PUSH2 0x4F8 PUSH2 0x13EE JUMP JUMPDEST JUMPDEST EQ DUP1 ISZERO PUSH2 0x52A JUMPI POP PUSH1 0x1 PUSH1 0x3 DUP2 GT ISZERO PUSH2 0x515 JUMPI PUSH2 0x514 PUSH2 0x13EE JUMP JUMPDEST JUMPDEST DUP2 PUSH1 0x3 DUP2 GT ISZERO PUSH2 0x528 JUMPI PUSH2 0x527 PUSH2 0x13EE JUMP JUMPDEST JUMPDEST EQ JUMPDEST ISZERO PUSH2 0x594 JUMPI PUSH2 0x58F PUSH1 0x40 MLOAD DUP1 PUSH1 0x40 ADD PUSH1 0x40 MSTORE DUP1 PUSH1 0xC DUP2 MSTORE PUSH1 0x20 ADD PUSH32 0x506C61796572203120574F4E0000000000000000000000000000000000000000 DUP2 MSTORE POP PUSH0 PUSH1 0x1 SWAP1 SLOAD SWAP1 PUSH2 0x100 EXP SWAP1 DIV PUSH20 0xFFFFFFFFFFFFFFFFFFFFFFFFFFFFFFFFFFFFFFFF AND PUSH2 0xD32 JUMP JUMPDEST PUSH2 0x918 JUMP JUMPDEST PUSH1 0x3 DUP1 DUP2 GT ISZERO PUSH2 0x5A7 JUMPI PUSH2 0x5A6 PUSH2 0x13EE JUMP JUMPDEST JUMPDEST PUSH0 DUP1 SLOAD SWAP1 PUSH2 0x100 EXP SWAP1 DIV PUSH1 0xFF AND PUSH1 0x3 DUP2 GT ISZERO PUSH2 0x5C6 JUMPI PUSH2 0x5C5 PUSH2 0x13EE JUMP JUMPDEST JUMPDEST EQ DUP1 ISZERO PUSH2 0x5F7 JUMPI POP PUSH1 0x2 PUSH1 0x3 DUP2 GT ISZERO PUSH2 0x5E2 JUMPI PUSH2 0x5E1 PUSH2 0x13EE JUMP JUMPDEST JUMPDEST DUP2 PUSH1 0x3 DUP2 GT ISZERO PUSH2 0x5F5 JUMPI PUSH2 0x5F4 PUSH2 0x13EE JUMP JUMPDEST JUMPDEST EQ JUMPDEST ISZERO PUSH2 0x661 JUMPI PUSH2 0x65C PUSH1 0x40 MLOAD DUP1 PUSH1 0x40 ADD PUSH1 0x40 MSTORE DUP1 PUSH1 0xC DUP2 MSTORE PUSH1 0x20 ADD PUSH32 0x506C61796572203120574F4E0000000000000000000000000000000000000000 DUP2 MSTORE POP PUSH0 PUSH1 0x1 SWAP1 SLOAD SWAP1 PUSH2 0x100 EXP SWAP1 DIV PUSH20 0xFFFFFFFFFFFFFFFFFFFFFFFFFFFFFFFFFFFFFFFF AND PUSH2 0xD32 JUMP JUMPDEST PUSH2 0x917 JUMP JUMPDEST PUSH1 0x3 DUP1 DUP2 GT ISZERO PUSH2 0x674 JUMPI PUSH2 0x673 PUSH2 0x13EE JUMP JUMPDEST JUMPDEST PUSH0 DUP1 SLOAD SWAP1 PUSH2 0x100 EXP SWAP1 DIV PUSH1 0xFF AND PUSH1 0x3 DUP2 GT ISZERO PUSH2 0x693 JUMPI PUSH2 0x692 PUSH2 0x13EE JUMP JUMPDEST JUMPDEST EQ DUP1 ISZERO PUSH2 0x6C4 JUMPI POP PUSH1 0x1 PUSH1 0x3 DUP2 GT ISZERO PUSH2 0x6AF JUMPI PUSH2 0x6AE PUSH2 0x13EE JUMP JUMPDEST JUMPDEST DUP2 PUSH1 0x3 DUP2 GT ISZERO PUSH2 0x6C2 JUMPI PUSH2 0x6C1 PUSH2 0x13EE JUMP JUMPDEST JUMPDEST EQ JUMPDEST ISZERO PUSH2 0x70D JUMPI PUSH2 0x708 PUSH1 0x40 MLOAD DUP1 PUSH1 0x40 ADD PUSH1 0x40 MSTORE DUP1 PUSH1 0xC DUP2 MSTORE PUSH1 0x20 ADD PUSH32 0x506C61796572203220574F4E0000000000000000000000000000000000000000 DUP2 MSTORE POP CALLER PUSH2 0xD32 JUMP JUMPDEST PUSH2 0x916 JUMP JUMPDEST PUSH1 0x1 PUSH1 0x3 DUP2 GT ISZERO PUSH2 0x721 JUMPI PUSH2 0x720 PUSH2 0x13EE JUMP JUMPDEST JUMPDEST PUSH0 DUP1 SLOAD SWAP1 PUSH2 0x100 EXP SWAP1 DIV PUSH1 0xFF AND PUSH1 0x3 DUP2 GT ISZERO PUSH2 0x740 JUMPI PUSH2 0x73F PUSH2 0x13EE JUMP JUMPDEST JUMPDEST EQ DUP1 ISZERO PUSH2 0x771 JUMPI POP PUSH1 0x2 PUSH1 0x3 DUP2 GT ISZERO PUSH2 0x75C JUMPI PUSH2 0x75B PUSH2 0x13EE JUMP JUMPDEST JUMPDEST DUP2 PUSH1 0x3 DUP2 GT ISZERO PUSH2 0x76F JUMPI PUSH2 0x76E PUSH2 0x13EE JUMP JUMPDEST JUMPDEST EQ JUMPDEST ISZERO PUSH2 0x7BA JUMPI PUSH2 0x7B5 PUSH1 0x40 MLOAD DUP1 PUSH1 0x40 ADD PUSH1 0x40 MSTORE DUP1 PUSH1 0xC DUP2 MSTORE PUSH1 0x20 ADD PUSH32 0x506C61796572203220574F4E0000000000000000000000000000000000000000 DUP2 MSTORE POP CALLER PUSH2 0xD32 JUMP JUMPDEST PUSH2 0x915 JUMP JUMPDEST PUSH1 0x2 PUSH1 0x3 DUP2 GT ISZERO PUSH2 0x7CE JUMPI PUSH2 0x7CD PUSH2 0x13EE JUMP JUMPDEST JUMPDEST PUSH0 DUP1 SLOAD SWAP1 PUSH2 0x100 EXP SWAP1 DIV PUSH1 0xFF AND PUSH1 0x3 DUP2 GT ISZERO PUSH2 0x7ED JUMPI PUSH2 0x7EC PUSH2 0x13EE JUMP JUMPDEST JUMPDEST EQ DUP1 ISZERO PUSH2 0x81D JUMPI POP PUSH1 0x3 DUP1 DUP2 GT ISZERO PUSH2 0x808 JUMPI PUSH2 0x807 PUSH2 0x13EE JUMP JUMPDEST JUMPDEST DUP2 PUSH1 0x3 DUP2 GT ISZERO PUSH2 0x81B JUMPI PUSH2 0x81A PUSH2 0x13EE JUMP JUMPDEST JUMPDEST EQ JUMPDEST ISZERO PUSH2 0x866 JUMPI PUSH2 0x861 PUSH1 0x40 MLOAD DUP1 PUSH1 0x40 ADD PUSH1 0x40 MSTORE DUP1 PUSH1 0xC DUP2 MSTORE PUSH1 0x20 ADD PUSH32 0x506C61796572203220574F4E0000000000000000000000000000000000000000 DUP2 MSTORE POP CALLER PUSH2 0xD32 JUMP JUMPDEST PUSH2 0x914 JUMP JUMPDEST PUSH1 0x40 MLOAD DUP1 PUSH1 0x40 ADD PUSH1 0x40 MSTORE DUP1 PUSH1 0x18 DUP2 MSTORE PUSH1 0x20 ADD PUSH32 0x447261772067616D652C207072697A6520646F75626C65640000000000000000 DUP2 MSTORE POP PUSH1 0x1 SWAP1 DUP2 PUSH2 0x8AA SWAP2 SWAP1 PUSH2 0x177A JUMP JUMPDEST POP PUSH0 DUP1 PUSH1 0x1 PUSH2 0x100 EXP DUP2 SLOAD DUP2 PUSH20 0xFFFFFFFFFFFFFFFFFFFFFFFFFFFFFFFFFFFFFFFF MUL NOT AND SWAP1 DUP4 PUSH20 0xFFFFFFFFFFFFFFFFFFFFFFFFFFFFFFFFFFFFFFFF AND MUL OR SWAP1 SSTORE POP PUSH0 DUP1 PUSH0 PUSH2 0x100 EXP DUP2 SLOAD DUP2 PUSH1 0xFF MUL NOT AND SWAP1 DUP4 PUSH1 0x3 DUP2 GT ISZERO PUSH2 0x90E JUMPI PUSH2 0x90D PUSH2 0x13EE JUMP JUMPDEST JUMPDEST MUL OR SWAP1 SSTORE POP JUMPDEST JUMPDEST JUMPDEST JUMPDEST JUMPDEST JUMPDEST JUMPDEST POP JUMP JUMPDEST PUSH1 0x1 DUP1 SLOAD PUSH2 0x92A SWAP1 PUSH2 0x15AD JUMP JUMPDEST DUP1 PUSH1 0x1F ADD PUSH1 0x20 DUP1 SWAP2 DIV MUL PUSH1 0x20 ADD PUSH1 0x40 MLOAD SWAP1 DUP2 ADD PUSH1 0x40 MSTORE DUP1 SWAP3 SWAP2 SWAP1 DUP2 DUP2 MSTORE PUSH1 0x20 ADD DUP3 DUP1 SLOAD PUSH2 0x956 SWAP1 PUSH2 0x15AD JUMP JUMPDEST DUP1 ISZERO PUSH2 0x9A1 JUMPI DUP1 PUSH1 0x1F LT PUSH2 0x978 JUMPI PUSH2 0x100 DUP1 DUP4 SLOAD DIV MUL DUP4 MSTORE SWAP2 PUSH1 0x20 ADD SWAP2 PUSH2 0x9A1 JUMP JUMPDEST DUP3 ADD SWAP2 SWAP1 PUSH0 MSTORE PUSH1 0x20 PUSH0 KECCAK256 SWAP1 JUMPDEST DUP2 SLOAD DUP2 MSTORE SWAP1 PUSH1 0x1 ADD SWAP1 PUSH1 0x20 ADD DUP1 DUP4 GT PUSH2 0x984 JUMPI DUP3 SWAP1 SUB PUSH1 0x1F AND DUP3 ADD SWAP2 JUMPDEST POP POP POP POP POP DUP2 JUMP JUMPDEST PUSH1 0x2 SLOAD DUP2 JUMP JUMPDEST PUSH1 0x60 PUSH1 0x2 PUSH1 0x3 DUP1 SLOAD SWAP1 POP LT ISZERO PUSH2 0xA90 JUMPI PUSH1 0x3 DUP1 SLOAD DUP1 PUSH1 0x20 MUL PUSH1 0x20 ADD PUSH1 0x40 MLOAD SWAP1 DUP2 ADD PUSH1 0x40 MSTORE DUP1 SWAP3 SWAP2 SWAP1 DUP2 DUP2 MSTORE PUSH1 0x20 ADD PUSH0 SWAP1 JUMPDEST DUP3 DUP3 LT ISZERO PUSH2 0xA85 JUMPI DUP4 DUP3 SWAP1 PUSH0 MSTORE PUSH1 0x20 PUSH0 KECCAK256 ADD PUSH1 0x40 MLOAD DUP1 PUSH1 0x40 ADD PUSH1 0x40 MSTORE SWAP1 DUP2 PUSH0 DUP3 ADD PUSH0 SWAP1 SLOAD SWAP1 PUSH2 0x100 EXP SWAP1 DIV PUSH20 0xFFFFFFFFFFFFFFFFFFFFFFFFFFFFFFFFFFFFFFFF AND PUSH20 0xFFFFFFFFFFFFFFFFFFFFFFFFFFFFFFFFFFFFFFFF AND PUSH20 0xFFFFFFFFFFFFFFFFFFFFFFFFFFFFFFFFFFFFFFFF AND DUP2 MSTORE PUSH1 0x20 ADD PUSH0 DUP3 ADD PUSH1 0x14 SWAP1 SLOAD SWAP1 PUSH2 0x100 EXP SWAP1 DIV PUSH4 0xFFFFFFFF AND PUSH4 0xFFFFFFFF AND PUSH4 0xFFFFFFFF AND DUP2 MSTORE POP POP DUP2 MSTORE PUSH1 0x20 ADD SWAP1 PUSH1 0x1 ADD SWAP1 PUSH2 0x9E0 JUMP JUMPDEST POP POP POP POP SWAP1 POP PUSH2 0xCD6 JUMP JUMPDEST PUSH0 PUSH1 0x3 DUP1 SLOAD SWAP1 POP PUSH8 0xFFFFFFFFFFFFFFFF DUP2 GT ISZERO PUSH2 0xAB0 JUMPI PUSH2 0xAAF PUSH2 0x1553 JUMP JUMPDEST JUMPDEST PUSH1 0x40 MLOAD SWAP1 DUP1 DUP3 MSTORE DUP1 PUSH1 0x20 MUL PUSH1 0x20 ADD DUP3 ADD PUSH1 0x40 MSTORE DUP1 ISZERO PUSH2 0xAE9 JUMPI DUP2 PUSH1 0x20 ADD JUMPDEST PUSH2 0xAD6 PUSH2 0x1053 JUMP JUMPDEST DUP2 MSTORE PUSH1 0x20 ADD SWAP1 PUSH1 0x1 SWAP1 SUB SWAP1 DUP2 PUSH2 0xACE JUMPI SWAP1 POP JUMPDEST POP SWAP1 POP PUSH0 JUMPDEST PUSH1 0x3 DUP1 SLOAD SWAP1 POP DUP2 LT ISZERO PUSH2 0xBC6 JUMPI PUSH1 0x3 DUP2 DUP2 SLOAD DUP2 LT PUSH2 0xB0F JUMPI PUSH2 0xB0E PUSH2 0x1849 JUMP JUMPDEST JUMPDEST SWAP1 PUSH0 MSTORE PUSH1 0x20 PUSH0 KECCAK256 ADD PUSH1 0x40 MLOAD DUP1 PUSH1 0x40 ADD PUSH1 0x40 MSTORE SWAP1 DUP2 PUSH0 DUP3 ADD PUSH0 SWAP1 SLOAD SWAP1 PUSH2 0x100 EXP SWAP1 DIV PUSH20 0xFFFFFFFFFFFFFFFFFFFFFFFFFFFFFFFFFFFFFFFF AND PUSH20 0xFFFFFFFFFFFFFFFFFFFFFFFFFFFFFFFFFFFFFFFF AND PUSH20 0xFFFFFFFFFFFFFFFFFFFFFFFFFFFFFFFFFFFFFFFF AND DUP2 MSTORE PUSH1 0x20 ADD PUSH0 DUP3 ADD PUSH1 0x14 SWAP1 SLOAD SWAP1 PUSH2 0x100 EXP SWAP1 DIV PUSH4 0xFFFFFFFF AND PUSH4 0xFFFFFFFF AND PUSH4 0xFFFFFFFF AND DUP2 MSTORE POP POP DUP3 DUP3 DUP2 MLOAD DUP2 LT PUSH2 0xBAE JUMPI PUSH2 0xBAD PUSH2 0x1849 JUMP JUMPDEST JUMPDEST PUSH1 0x20 MUL PUSH1 0x20 ADD ADD DUP2 SWAP1 MSTORE POP DUP1 DUP1 PUSH1 0x1 ADD SWAP2 POP POP PUSH2 0xAEE JUMP JUMPDEST POP PUSH0 JUMPDEST PUSH1 0x1 DUP3 MLOAD PUSH2 0xBD7 SWAP2 SWAP1 PUSH2 0x18A3 JUMP JUMPDEST DUP2 LT ISZERO PUSH2 0xCD0 JUMPI PUSH0 PUSH1 0x1 SWAP1 POP JUMPDEST DUP3 MLOAD DUP2 LT ISZERO PUSH2 0xCC2 JUMPI DUP3 DUP2 DUP2 MLOAD DUP2 LT PUSH2 0xC00 JUMPI PUSH2 0xBFF PUSH2 0x1849 JUMP JUMPDEST JUMPDEST PUSH1 0x20 MUL PUSH1 0x20 ADD ADD MLOAD PUSH1 0x20 ADD MLOAD PUSH4 0xFFFFFFFF AND DUP4 DUP4 DUP2 MLOAD DUP2 LT PUSH2 0xC25 JUMPI PUSH2 0xC24 PUSH2 0x1849 JUMP JUMPDEST JUMPDEST PUSH1 0x20 MUL PUSH1 0x20 ADD ADD MLOAD PUSH1 0x20 ADD MLOAD PUSH4 0xFFFFFFFF AND LT ISZERO PUSH2 0xCB5 JUMPI PUSH0 DUP4 DUP4 DUP2 MLOAD DUP2 LT PUSH2 0xC51 JUMPI PUSH2 0xC50 PUSH2 0x1849 JUMP JUMPDEST JUMPDEST PUSH1 0x20 MUL PUSH1 0x20 ADD ADD MLOAD SWAP1 POP DUP4 DUP3 DUP2 MLOAD DUP2 LT PUSH2 0xC6E JUMPI PUSH2 0xC6D PUSH2 0x1849 JUMP JUMPDEST JUMPDEST PUSH1 0x20 MUL PUSH1 0x20 ADD ADD MLOAD DUP5 DUP5 DUP2 MLOAD DUP2 LT PUSH2 0xC89 JUMPI PUSH2 0xC88 PUSH2 0x1849 JUMP JUMPDEST JUMPDEST PUSH1 0x20 MUL PUSH1 0x20 ADD ADD DUP2 SWAP1 MSTORE POP DUP1 DUP5 DUP4 DUP2 MLOAD DUP2 LT PUSH2 0xCA8 JUMPI PUSH2 0xCA7 PUSH2 0x1849 JUMP JUMPDEST JUMPDEST PUSH1 0x20 MUL PUSH1 0x20 ADD ADD DUP2 SWAP1 MSTORE POP POP JUMPDEST DUP1 DUP1 PUSH1 0x1 ADD SWAP2 POP POP PUSH2 0xBE4 JUMP JUMPDEST POP DUP1 DUP1 PUSH1 0x1 ADD SWAP2 POP POP PUSH2 0xBC9 JUMP JUMPDEST POP DUP1 SWAP2 POP POP JUMPDEST SWAP1 JUMP JUMPDEST PUSH1 0x3 DUP2 DUP2 SLOAD DUP2 LT PUSH2 0xCE8 JUMPI PUSH0 DUP1 REVERT JUMPDEST SWAP1 PUSH0 MSTORE PUSH1 0x20 PUSH0 KECCAK256 ADD PUSH0 SWAP2 POP SWAP1 POP DUP1 PUSH0 ADD PUSH0 SWAP1 SLOAD SWAP1 PUSH2 0x100 EXP SWAP1 DIV PUSH20 0xFFFFFFFFFFFFFFFFFFFFFFFFFFFFFFFFFFFFFFFF AND SWAP1 DUP1 PUSH0 ADD PUSH1 0x14 SWAP1 SLOAD SWAP1 PUSH2 0x100 EXP SWAP1 DIV PUSH4 0xFFFFFFFF AND SWAP1 POP DUP3 JUMP JUMPDEST PUSH0 ADDRESS SWAP1 POP DUP2 PUSH20 0xFFFFFFFFFFFFFFFFFFFFFFFFFFFFFFFFFFFFFFFF AND PUSH2 0x8FC PUSH1 0x5A PUSH1 0x64 DUP5 PUSH20 0xFFFFFFFFFFFFFFFFFFFFFFFFFFFFFFFFFFFFFFFF AND BALANCE PUSH2 0xD76 SWAP2 SWAP1 PUSH2 0x1903 JUMP JUMPDEST PUSH2 0xD80 SWAP2 SWAP1 PUSH2 0x1933 JUMP JUMPDEST SWAP1 DUP2 ISZERO MUL SWAP1 PUSH1 0x40 MLOAD PUSH0 PUSH1 0x40 MLOAD DUP1 DUP4 SUB DUP2 DUP6 DUP9 DUP9 CALL SWAP4 POP POP POP POP ISZERO DUP1 ISZERO PUSH2 0xDA8 JUMPI RETURNDATASIZE PUSH0 DUP1 RETURNDATACOPY RETURNDATASIZE PUSH0 REVERT JUMPDEST POP PUSH32 0x0 PUSH20 0xFFFFFFFFFFFFFFFFFFFFFFFFFFFFFFFFFFFFFFFF AND PUSH2 0x8FC DUP3 PUSH20 0xFFFFFFFFFFFFFFFFFFFFFFFFFFFFFFFFFFFFFFFF AND BALANCE SWAP1 DUP2 ISZERO MUL SWAP1 PUSH1 0x40 MLOAD PUSH0 PUSH1 0x40 MLOAD DUP1 DUP4 SUB DUP2 DUP6 DUP9 DUP9 CALL SWAP4 POP POP POP POP ISZERO DUP1 ISZERO PUSH2 0xE23 JUMPI RETURNDATASIZE PUSH0 DUP1 RETURNDATACOPY RETURNDATASIZE PUSH0 REVERT JUMPDEST POP PUSH2 0xE2D DUP3 PUSH2 0xEAA JUMP JUMPDEST DUP3 PUSH1 0x1 SWAP1 DUP2 PUSH2 0xE3C SWAP2 SWAP1 PUSH2 0x177A JUMP JUMPDEST POP PUSH0 DUP1 PUSH1 0x1 PUSH2 0x100 EXP DUP2 SLOAD DUP2 PUSH20 0xFFFFFFFFFFFFFFFFFFFFFFFFFFFFFFFFFFFFFFFF MUL NOT AND SWAP1 DUP4 PUSH20 0xFFFFFFFFFFFFFFFFFFFFFFFFFFFFFFFFFFFFFFFF AND MUL OR SWAP1 SSTORE POP PUSH0 DUP1 PUSH0 PUSH2 0x100 EXP DUP2 SLOAD DUP2 PUSH1 0xFF MUL NOT AND SWAP1 DUP4 PUSH1 0x3 DUP2 GT ISZERO PUSH2 0xEA0 JUMPI PUSH2 0xE9F PUSH2 0x13EE JUMP JUMPDEST JUMPDEST MUL OR SWAP1 SSTORE POP POP POP POP JUMP JUMPDEST PUSH0 PUSH1 0x3 DUP1 SLOAD SWAP1 POP DUP2 LT ISZERO PUSH2 0xF8C JUMPI DUP2 PUSH20 0xFFFFFFFFFFFFFFFFFFFFFFFFFFFFFFFFFFFFFFFF AND PUSH1 0x3 DUP3 DUP2 SLOAD DUP2 LT PUSH2 0xEE3 JUMPI PUSH2 0xEE2 PUSH2 0x1849 JUMP JUMPDEST JUMPDEST SWAP1 PUSH0 MSTORE PUSH1 0x20 PUSH0 KECCAK256 ADD PUSH0 ADD PUSH0 SWAP1 SLOAD SWAP1 PUSH2 0x100 EXP SWAP1 DIV PUSH20 0xFFFFFFFFFFFFFFFFFFFFFFFFFFFFFFFFFFFFFFFF AND PUSH20 0xFFFFFFFFFFFFFFFFFFFFFFFFFFFFFFFFFFFFFFFF AND SUB PUSH2 0xF86 JUMPI PUSH1 0x3 DUP2 DUP2 SLOAD DUP2 LT PUSH2 0xF3C JUMPI PUSH2 0xF3B PUSH2 0x1849 JUMP JUMPDEST JUMPDEST SWAP1 PUSH0 MSTORE PUSH1 0x20 PUSH0 KECCAK256 ADD PUSH0 ADD PUSH1 0x14 DUP2 DUP2 SWAP1 SLOAD SWAP1 PUSH2 0x100 EXP SWAP1 DIV PUSH4 0xFFFFFFFF AND DUP1 SWAP3 SWAP2 SWAP1 PUSH2 0xF66 SWAP1 PUSH2 0x1974 JUMP JUMPDEST SWAP2 SWAP1 PUSH2 0x100 EXP DUP2 SLOAD DUP2 PUSH4 0xFFFFFFFF MUL NOT AND SWAP1 DUP4 PUSH4 0xFFFFFFFF AND MUL OR SWAP1 SSTORE POP POP JUMPDEST POP PUSH2 0x1050 JUMP JUMPDEST POP PUSH1 0x3 PUSH1 0x40 MLOAD DUP1 PUSH1 0x40 ADD PUSH1 0x40 MSTORE DUP1 DUP4 PUSH20 0xFFFFFFFFFFFFFFFFFFFFFFFFFFFFFFFFFFFFFFFF AND DUP2 MSTORE PUSH1 0x20 ADD PUSH1 0x1 PUSH4 0xFFFFFFFF AND DUP2 MSTORE POP SWAP1 DUP1 PUSH1 0x1 DUP2 SLOAD ADD DUP1 DUP3 SSTORE DUP1 SWAP2 POP POP PUSH1 0x1 SWAP1 SUB SWAP1 PUSH0 MSTORE PUSH1 0x20 PUSH0 KECCAK256 ADD PUSH0 SWAP1 SWAP2 SWAP1 SWAP2 SWAP1 SWAP2 POP PUSH0 DUP3 ADD MLOAD DUP2 PUSH0 ADD PUSH0 PUSH2 0x100 EXP DUP2 SLOAD DUP2 PUSH20 0xFFFFFFFFFFFFFFFFFFFFFFFFFFFFFFFFFFFFFFFF MUL NOT AND SWAP1 DUP4 PUSH20 0xFFFFFFFFFFFFFFFFFFFFFFFFFFFFFFFFFFFFFFFF AND MUL OR SWAP1 SSTORE POP PUSH1 0x20 DUP3 ADD MLOAD DUP2 PUSH0 ADD PUSH1 0x14 PUSH2 0x100 EXP DUP2 SLOAD DUP2 PUSH4 0xFFFFFFFF MUL NOT AND SWAP1 DUP4 PUSH4 0xFFFFFFFF AND MUL OR SWAP1 SSTORE POP POP POP JUMPDEST POP JUMP JUMPDEST PUSH1 0x40 MLOAD DUP1 PUSH1 0x40 ADD PUSH1 0x40 MSTORE DUP1 PUSH0 PUSH20 0xFFFFFFFFFFFFFFFFFFFFFFFFFFFFFFFFFFFFFFFF AND DUP2 MSTORE PUSH1 0x20 ADD PUSH0 PUSH4 0xFFFFFFFF AND DUP2 MSTORE POP SWAP1 JUMP JUMPDEST PUSH0 DUP2 SWAP1 POP SWAP2 SWAP1 POP JUMP JUMPDEST PUSH2 0x1099 DUP2 PUSH2 0x1087 JUMP JUMPDEST DUP3 MSTORE POP POP JUMP JUMPDEST PUSH0 PUSH1 0x20 DUP3 ADD SWAP1 POP PUSH2 0x10B2 PUSH0 DUP4 ADD DUP5 PUSH2 0x1090 JUMP JUMPDEST SWAP3 SWAP2 POP POP JUMP JUMPDEST PUSH0 DUP1 REVERT JUMPDEST PUSH1 0x4 DUP2 LT PUSH2 0x10C8 JUMPI PUSH0 DUP1 REVERT JUMPDEST POP JUMP JUMPDEST PUSH0 DUP2 CALLDATALOAD SWAP1 POP PUSH2 0x10D9 DUP2 PUSH2 0x10BC JUMP JUMPDEST SWAP3 SWAP2 POP POP JUMP JUMPDEST PUSH0 PUSH1 0x20 DUP3 DUP5 SUB SLT ISZERO PUSH2 0x10F4 JUMPI PUSH2 0x10F3 PUSH2 0x10B8 JUMP JUMPDEST JUMPDEST PUSH0 PUSH2 0x1101 DUP5 DUP3 DUP6 ADD PUSH2 0x10CB JUMP JUMPDEST SWAP2 POP POP SWAP3 SWAP2 POP POP JUMP JUMPDEST PUSH0 DUP2 MLOAD SWAP1 POP SWAP2 SWAP1 POP JUMP JUMPDEST PUSH0 DUP3 DUP3 MSTORE PUSH1 0x20 DUP3 ADD SWAP1 POP SWAP3 SWAP2 POP POP JUMP JUMPDEST DUP3 DUP2 DUP4 MCOPY PUSH0 DUP4 DUP4 ADD MSTORE POP POP POP JUMP JUMPDEST PUSH0 PUSH1 0x1F NOT PUSH1 0x1F DUP4 ADD AND SWAP1 POP SWAP2 SWAP1 POP JUMP JUMPDEST PUSH0 PUSH2 0x114C DUP3 PUSH2 0x110A JUMP JUMPDEST PUSH2 0x1156 DUP2 DUP6 PUSH2 0x1114 JUMP JUMPDEST SWAP4 POP PUSH2 0x1166 DUP2 DUP6 PUSH1 0x20 DUP7 ADD PUSH2 0x1124 JUMP JUMPDEST PUSH2 0x116F DUP2 PUSH2 0x1132 JUMP JUMPDEST DUP5 ADD SWAP2 POP POP SWAP3 SWAP2 POP POP JUMP JUMPDEST PUSH0 PUSH1 0x20 DUP3 ADD SWAP1 POP DUP2 DUP2 SUB PUSH0 DUP4 ADD MSTORE PUSH2 0x1192 DUP2 DUP5 PUSH2 0x1142 JUMP JUMPDEST SWAP1 POP SWAP3 SWAP2 POP POP JUMP JUMPDEST PUSH0 DUP2 MLOAD SWAP1 POP SWAP2 SWAP1 POP JUMP JUMPDEST PUSH0 DUP3 DUP3 MSTORE PUSH1 0x20 DUP3 ADD SWAP1 POP SWAP3 SWAP2 POP POP JUMP JUMPDEST PUSH0 DUP2 SWAP1 POP PUSH1 0x20 DUP3 ADD SWAP1 POP SWAP2 SWAP1 POP JUMP JUMPDEST PUSH0 PUSH20 0xFFFFFFFFFFFFFFFFFFFFFFFFFFFFFFFFFFFFFFFF DUP3 AND SWAP1 POP SWAP2 SWAP1 POP JUMP JUMPDEST PUSH0 PUSH2 0x11EC DUP3 PUSH2 0x11C3 JUMP JUMPDEST SWAP1 POP SWAP2 SWAP1 POP JUMP JUMPDEST PUSH2 0x11FC DUP2 PUSH2 0x11E2 JUMP JUMPDEST DUP3 MSTORE POP POP JUMP JUMPDEST PUSH0 PUSH4 0xFFFFFFFF DUP3 AND SWAP1 POP SWAP2 SWAP1 POP JUMP JUMPDEST PUSH2 0x121A DUP2 PUSH2 0x1202 JUMP JUMPDEST DUP3 MSTORE POP POP JUMP JUMPDEST PUSH1 0x40 DUP3 ADD PUSH0 DUP3 ADD MLOAD PUSH2 0x1234 PUSH0 DUP6 ADD DUP3 PUSH2 0x11F3 JUMP JUMPDEST POP PUSH1 0x20 DUP3 ADD MLOAD PUSH2 0x1247 PUSH1 0x20 DUP6 ADD DUP3 PUSH2 0x1211 JUMP JUMPDEST POP POP POP POP JUMP JUMPDEST PUSH0 PUSH2 0x1258 DUP4 DUP4 PUSH2 0x1220 JUMP JUMPDEST PUSH1 0x40 DUP4 ADD SWAP1 POP SWAP3 SWAP2 POP POP JUMP JUMPDEST PUSH0 PUSH1 0x20 DUP3 ADD SWAP1 POP SWAP2 SWAP1 POP JUMP JUMPDEST PUSH0 PUSH2 0x127A DUP3 PUSH2 0x119A JUMP JUMPDEST PUSH2 0x1284 DUP2 DUP6 PUSH2 0x11A4 JUMP JUMPDEST SWAP4 POP PUSH2 0x128F DUP4 PUSH2 0x11B4 JUMP JUMPDEST DUP1 PUSH0 JUMPDEST DUP4 DUP2 LT ISZERO PUSH2 0x12BF JUMPI DUP2 MLOAD PUSH2 0x12A6 DUP9 DUP3 PUSH2 0x124D JUMP JUMPDEST SWAP8 POP PUSH2 0x12B1 DUP4 PUSH2 0x1264 JUMP JUMPDEST SWAP3 POP POP PUSH1 0x1 DUP2 ADD SWAP1 POP PUSH2 0x1292 JUMP JUMPDEST POP DUP6 SWAP4 POP POP POP POP SWAP3 SWAP2 POP POP JUMP JUMPDEST PUSH0 PUSH1 0x20 DUP3 ADD SWAP1 POP DUP2 DUP2 SUB PUSH0 DUP4 ADD MSTORE PUSH2 0x12E4 DUP2 DUP5 PUSH2 0x1270 JUMP JUMPDEST SWAP1 POP SWAP3 SWAP2 POP POP JUMP JUMPDEST PUSH2 0x12F5 DUP2 PUSH2 0x1087 JUMP JUMPDEST DUP2 EQ PUSH2 0x12FF JUMPI PUSH0 DUP1 REVERT JUMPDEST POP JUMP JUMPDEST PUSH0 DUP2 CALLDATALOAD SWAP1 POP PUSH2 0x1310 DUP2 PUSH2 0x12EC JUMP JUMPDEST SWAP3 SWAP2 POP POP JUMP JUMPDEST PUSH0 PUSH1 0x20 DUP3 DUP5 SUB SLT ISZERO PUSH2 0x132B JUMPI PUSH2 0x132A PUSH2 0x10B8 JUMP JUMPDEST JUMPDEST PUSH0 PUSH2 0x1338 DUP5 DUP3 DUP6 ADD PUSH2 0x1302 JUMP JUMPDEST SWAP2 POP POP SWAP3 SWAP2 POP POP JUMP JUMPDEST PUSH2 0x134A DUP2 PUSH2 0x11E2 JUMP JUMPDEST DUP3 MSTORE POP POP JUMP JUMPDEST PUSH2 0x1359 DUP2 PUSH2 0x1202 JUMP JUMPDEST DUP3 MSTORE POP POP JUMP JUMPDEST PUSH0 PUSH1 0x40 DUP3 ADD SWAP1 POP PUSH2 0x1372 PUSH0 DUP4 ADD DUP6 PUSH2 0x1341 JUMP JUMPDEST PUSH2 0x137F PUSH1 0x20 DUP4 ADD DUP5 PUSH2 0x1350 JUMP JUMPDEST SWAP4 SWAP3 POP POP POP JUMP JUMPDEST PUSH32 0x596F7520646F6E742068617665207065726D697373696F6E0000000000000000 PUSH0 DUP3 ADD MSTORE POP JUMP JUMPDEST PUSH0 PUSH2 0x13BA PUSH1 0x18 DUP4 PUSH2 0x1114 JUMP JUMPDEST SWAP2 POP PUSH2 0x13C5 DUP3 PUSH2 0x1386 JUMP JUMPDEST PUSH1 0x20 DUP3 ADD SWAP1 POP SWAP2 SWAP1 POP JUMP JUMPDEST PUSH0 PUSH1 0x20 DUP3 ADD SWAP1 POP DUP2 DUP2 SUB PUSH0 DUP4 ADD MSTORE PUSH2 0x13E7 DUP2 PUSH2 0x13AE JUMP JUMPDEST SWAP1 POP SWAP2 SWAP1 POP JUMP JUMPDEST PUSH32 0x4E487B7100000000000000000000000000000000000000000000000000000000 PUSH0 MSTORE PUSH1 0x21 PUSH1 0x4 MSTORE PUSH1 0x24 PUSH0 REVERT JUMPDEST PUSH32 0x496E76616C69642043686F696365000000000000000000000000000000000000 PUSH0 DUP3 ADD MSTORE POP JUMP JUMPDEST PUSH0 PUSH2 0x144F PUSH1 0xE DUP4 PUSH2 0x1114 JUMP JUMPDEST SWAP2 POP PUSH2 0x145A DUP3 PUSH2 0x141B JUMP JUMPDEST PUSH1 0x20 DUP3 ADD SWAP1 POP SWAP2 SWAP1 POP JUMP JUMPDEST PUSH0 PUSH1 0x20 DUP3 ADD SWAP1 POP DUP2 DUP2 SUB PUSH0 DUP4 ADD MSTORE PUSH2 0x147C DUP2 PUSH2 0x1443 JUMP JUMPDEST SWAP1 POP SWAP2 SWAP1 POP JUMP JUMPDEST PUSH32 0x576169742074686520616E6F7468657220706C617965722E2E2E000000000000 PUSH0 DUP3 ADD MSTORE POP JUMP JUMPDEST PUSH0 PUSH2 0x14B7 PUSH1 0x1A DUP4 PUSH2 0x1114 JUMP JUMPDEST SWAP2 POP PUSH2 0x14C2 DUP3 PUSH2 0x1483 JUMP JUMPDEST PUSH1 0x20 DUP3 ADD SWAP1 POP SWAP2 SWAP1 POP JUMP JUMPDEST PUSH0 PUSH1 0x20 DUP3 ADD SWAP1 POP DUP2 DUP2 SUB PUSH0 DUP4 ADD MSTORE PUSH2 0x14E4 DUP2 PUSH2 0x14AB JUMP JUMPDEST SWAP1 POP SWAP2 SWAP1 POP JUMP JUMPDEST PUSH32 0x496E76616C696420626974000000000000000000000000000000000000000000 PUSH0 DUP3 ADD MSTORE POP JUMP JUMPDEST PUSH0 PUSH2 0x151F PUSH1 0xB DUP4 PUSH2 0x1114 JUMP JUMPDEST SWAP2 POP PUSH2 0x152A DUP3 PUSH2 0x14EB JUMP JUMPDEST PUSH1 0x20 DUP3 ADD SWAP1 POP SWAP2 SWAP1 POP JUMP JUMPDEST PUSH0 PUSH1 0x20 DUP3 ADD SWAP1 POP DUP2 DUP2 SUB PUSH0 DUP4 ADD MSTORE PUSH2 0x154C DUP2 PUSH2 0x1513 JUMP JUMPDEST SWAP1 POP SWAP2 SWAP1 POP JUMP JUMPDEST PUSH32 0x4E487B7100000000000000000000000000000000000000000000000000000000 PUSH0 MSTORE PUSH1 0x41 PUSH1 0x4 MSTORE PUSH1 0x24 PUSH0 REVERT JUMPDEST PUSH32 0x4E487B7100000000000000000000000000000000000000000000000000000000 PUSH0 MSTORE PUSH1 0x22 PUSH1 0x4 MSTORE PUSH1 0x24 PUSH0 REVERT JUMPDEST PUSH0 PUSH1 0x2 DUP3 DIV SWAP1 POP PUSH1 0x1 DUP3 AND DUP1 PUSH2 0x15C4 JUMPI PUSH1 0x7F DUP3 AND SWAP2 POP JUMPDEST PUSH1 0x20 DUP3 LT DUP2 SUB PUSH2 0x15D7 JUMPI PUSH2 0x15D6 PUSH2 0x1580 JUMP JUMPDEST JUMPDEST POP SWAP2 SWAP1 POP JUMP JUMPDEST PUSH0 DUP2 SWAP1 POP DUP2 PUSH0 MSTORE PUSH1 0x20 PUSH0 KECCAK256 SWAP1 POP SWAP2 SWAP1 POP JUMP JUMPDEST PUSH0 PUSH1 0x20 PUSH1 0x1F DUP4 ADD DIV SWAP1 POP SWAP2 SWAP1 POP JUMP JUMPDEST PUSH0 DUP3 DUP3 SHL SWAP1 POP SWAP3 SWAP2 POP POP JUMP JUMPDEST PUSH0 PUSH1 0x8 DUP4 MUL PUSH2 0x1639 PUSH32 0xFFFFFFFFFFFFFFFFFFFFFFFFFFFFFFFFFFFFFFFFFFFFFFFFFFFFFFFFFFFFFFFF DUP3 PUSH2 0x15FE JUMP JUMPDEST PUSH2 0x1643 DUP7 DUP4 PUSH2 0x15FE JUMP JUMPDEST SWAP6 POP DUP1 NOT DUP5 AND SWAP4 POP DUP1 DUP7 AND DUP5 OR SWAP3 POP POP POP SWAP4 SWAP3 POP POP POP JUMP JUMPDEST PUSH0 DUP2 SWAP1 POP SWAP2 SWAP1 POP JUMP JUMPDEST PUSH0 PUSH2 0x167E PUSH2 0x1679 PUSH2 0x1674 DUP5 PUSH2 0x1087 JUMP JUMPDEST PUSH2 0x165B JUMP JUMPDEST PUSH2 0x1087 JUMP JUMPDEST SWAP1 POP SWAP2 SWAP1 POP JUMP JUMPDEST PUSH0 DUP2 SWAP1 POP SWAP2 SWAP1 POP JUMP JUMPDEST PUSH2 0x1697 DUP4 PUSH2 0x1664 JUMP JUMPDEST PUSH2 0x16AB PUSH2 0x16A3 DUP3 PUSH2 0x1685 JUMP JUMPDEST DUP5 DUP5 SLOAD PUSH2 0x160A JUMP JUMPDEST DUP3 SSTORE POP POP POP POP JUMP JUMPDEST PUSH0 SWAP1 JUMP JUMPDEST PUSH2 0x16BF PUSH2 0x16B3 JUMP JUMPDEST PUSH2 0x16CA DUP2 DUP5 DUP5 PUSH2 0x168E JUMP JUMPDEST POP POP POP JUMP JUMPDEST JUMPDEST DUP2 DUP2 LT ISZERO PUSH2 0x16ED JUMPI PUSH2 0x16E2 PUSH0 DUP3 PUSH2 0x16B7 JUMP JUMPDEST PUSH1 0x1 DUP2 ADD SWAP1 POP PUSH2 0x16D0 JUMP JUMPDEST POP POP JUMP JUMPDEST PUSH1 0x1F DUP3 GT ISZERO PUSH2 0x1732 JUMPI PUSH2 0x1703 DUP2 PUSH2 0x15DD JUMP JUMPDEST PUSH2 0x170C DUP5 PUSH2 0x15EF JUMP JUMPDEST DUP2 ADD PUSH1 0x20 DUP6 LT ISZERO PUSH2 0x171B JUMPI DUP2 SWAP1 POP JUMPDEST PUSH2 0x172F PUSH2 0x1727 DUP6 PUSH2 0x15EF JUMP JUMPDEST DUP4 ADD DUP3 PUSH2 0x16CF JUMP JUMPDEST POP POP JUMPDEST POP POP POP JUMP JUMPDEST PUSH0 DUP3 DUP3 SHR SWAP1 POP SWAP3 SWAP2 POP POP JUMP JUMPDEST PUSH0 PUSH2 0x1752 PUSH0 NOT DUP5 PUSH1 0x8 MUL PUSH2 0x1737 JUMP JUMPDEST NOT DUP1 DUP4 AND SWAP2 POP POP SWAP3 SWAP2 POP POP JUMP JUMPDEST PUSH0 PUSH2 0x176A DUP4 DUP4 PUSH2 0x1743 JUMP JUMPDEST SWAP2 POP DUP3 PUSH1 0x2 MUL DUP3 OR SWAP1 POP SWAP3 SWAP2 POP POP JUMP JUMPDEST PUSH2 0x1783 DUP3 PUSH2 0x110A JUMP JUMPDEST PUSH8 0xFFFFFFFFFFFFFFFF DUP2 GT ISZERO PUSH2 0x179C JUMPI PUSH2 0x179B PUSH2 0x1553 JUMP JUMPDEST JUMPDEST PUSH2 0x17A6 DUP3 SLOAD PUSH2 0x15AD JUMP JUMPDEST PUSH2 0x17B1 DUP3 DUP3 DUP6 PUSH2 0x16F1 JUMP JUMPDEST PUSH0 PUSH1 0x20 SWAP1 POP PUSH1 0x1F DUP4 GT PUSH1 0x1 DUP2 EQ PUSH2 0x17E2 JUMPI PUSH0 DUP5 ISZERO PUSH2 0x17D0 JUMPI DUP3 DUP8 ADD MLOAD SWAP1 POP JUMPDEST PUSH2 0x17DA DUP6 DUP3 PUSH2 0x175F JUMP JUMPDEST DUP7 SSTORE POP PUSH2 0x1841 JUMP JUMPDEST PUSH1 0x1F NOT DUP5 AND PUSH2 0x17F0 DUP7 PUSH2 0x15DD JUMP JUMPDEST PUSH0 JUMPDEST DUP3 DUP2 LT ISZERO PUSH2 0x1817 JUMPI DUP5 DUP10 ADD MLOAD DUP3 SSTORE PUSH1 0x1 DUP3 ADD SWAP2 POP PUSH1 0x20 DUP6 ADD SWAP5 POP PUSH1 0x20 DUP2 ADD SWAP1 POP PUSH2 0x17F2 JUMP JUMPDEST DUP7 DUP4 LT ISZERO PUSH2 0x1834 JUMPI DUP5 DUP10 ADD MLOAD PUSH2 0x1830 PUSH1 0x1F DUP10 AND DUP3 PUSH2 0x1743 JUMP JUMPDEST DUP4 SSTORE POP JUMPDEST PUSH1 0x1 PUSH1 0x2 DUP9 MUL ADD DUP9 SSTORE POP POP POP JUMPDEST POP POP POP POP POP POP JUMP JUMPDEST PUSH32 0x4E487B7100000000000000000000000000000000000000000000000000000000 PUSH0 MSTORE PUSH1 0x32 PUSH1 0x4 MSTORE PUSH1 0x24 PUSH0 REVERT JUMPDEST PUSH32 0x4E487B7100000000000000000000000000000000000000000000000000000000 PUSH0 MSTORE PUSH1 0x11 PUSH1 0x4 MSTORE PUSH1 0x24 PUSH0 REVERT JUMPDEST PUSH0 PUSH2 0x18AD DUP3 PUSH2 0x1087 JUMP JUMPDEST SWAP2 POP PUSH2 0x18B8 DUP4 PUSH2 0x1087 JUMP JUMPDEST SWAP3 POP DUP3 DUP3 SUB SWAP1 POP DUP2 DUP2 GT ISZERO PUSH2 0x18D0 JUMPI PUSH2 0x18CF PUSH2 0x1876 JUMP JUMPDEST JUMPDEST SWAP3 SWAP2 POP POP JUMP JUMPDEST PUSH32 0x4E487B7100000000000000000000000000000000000000000000000000000000 PUSH0 MSTORE PUSH1 0x12 PUSH1 0x4 MSTORE PUSH1 0x24 PUSH0 REVERT JUMPDEST PUSH0 PUSH2 0x190D DUP3 PUSH2 0x1087 JUMP JUMPDEST SWAP2 POP PUSH2 0x1918 DUP4 PUSH2 0x1087 JUMP JUMPDEST SWAP3 POP DUP3 PUSH2 0x1928 JUMPI PUSH2 0x1927 PUSH2 0x18D6 JUMP JUMPDEST JUMPDEST DUP3 DUP3 DIV SWAP1 POP SWAP3 SWAP2 POP POP JUMP JUMPDEST PUSH0 PUSH2 0x193D DUP3 PUSH2 0x1087 JUMP JUMPDEST SWAP2 POP PUSH2 0x1948 DUP4 PUSH2 0x1087 JUMP JUMPDEST SWAP3 POP DUP3 DUP3 MUL PUSH2 0x1956 DUP2 PUSH2 0x1087 JUMP JUMPDEST SWAP2 POP DUP3 DUP3 DIV DUP5 EQ DUP4 ISZERO OR PUSH2 0x196D JUMPI PUSH2 0x196C PUSH2 0x1876 JUMP JUMPDEST JUMPDEST POP SWAP3 SWAP2 POP POP JUMP JUMPDEST PUSH0 PUSH2 0x197E DUP3 PUSH2 0x1202 JUMP JUMPDEST SWAP2 POP PUSH4 0xFFFFFFFF DUP3 SUB PUSH2 0x1994 JUMPI PUSH2 0x1993 PUSH2 0x1876 JUMP JUMPDEST JUMPDEST PUSH1 0x1 DUP3 ADD SWAP1 POP SWAP2 SWAP1 POP JUMP INVALID POP PUSH13 0x6179657220312063686F696365 KECCAK256 PUSH9 0x69732F686572206F70 PUSH21 0x696F6E2E2057616974696E6720666F7220706C6179 PUSH6 0x722032A26469 PUSH17 0x667358221220BF2871AFDF0B21DCA99EE2 0xCB CALLDATASIZE DUP5 DELEGATECALL 0xC4 RETURNDATASIZE 0x2B LOG1 DUP4 ADDMOD PUSH12 0x7BA0384C7AF439A7DF606473 PUSH16 0x6C634300081A00330000000000000000 "
				},
				"gasEstimates": {
					"creation": {
						"codeDepositCost": "1333000",
						"executionCost": "infinite",
						"totalCost": "infinite"
					},
					"external": {
						"getBalance()": "infinite",
						"getLeaderBorder()": "infinite",
						"play(uint8)": "infinite",
						"players(uint256)": "7357",
						"qtdVitorias()": "2469",
						"result()": "infinite"
					},
					"internal": {
						"finishiGame(string memory,address)": "infinite",
						"updateWinner(address)": "infinite"
					}
				},
				"methodIdentifiers": {
					"getBalance()": "12065fe0",
					"getLeaderBorder()": "dca9c798",
					"play(uint8)": "53a04b05",
					"players(uint256)": "f71d96cb",
					"qtdVitorias()": "6d7b26d0",
					"result()": "65372147"
				}
			},
			"storageLayout": {
				"storage": [
					{
						"astId": 11,
						"contract": "solidity/JokenPo2.sol:JoKenPo2",
						"label": "choice1",
						"offset": 0,
						"slot": "0",
						"type": "t_enum(Options)6"
					},
					{
						"astId": 13,
						"contract": "solidity/JokenPo2.sol:JoKenPo2",
						"label": "player1",
						"offset": 1,
						"slot": "0",
						"type": "t_address"
					},
					{
						"astId": 16,
						"contract": "solidity/JokenPo2.sol:JoKenPo2",
						"label": "result",
						"offset": 0,
						"slot": "1",
						"type": "t_string_storage"
					},
					{
						"astId": 19,
						"contract": "solidity/JokenPo2.sol:JoKenPo2",
						"label": "qtdVitorias",
						"offset": 0,
						"slot": "2",
						"type": "t_uint256"
					},
					{
						"astId": 30,
						"contract": "solidity/JokenPo2.sol:JoKenPo2",
						"label": "players",
						"offset": 0,
						"slot": "3",
						"type": "t_array(t_struct(Player)26_storage)dyn_storage"
					}
				],
				"types": {
					"t_address": {
						"encoding": "inplace",
						"label": "address",
						"numberOfBytes": "20"
					},
					"t_array(t_struct(Player)26_storage)dyn_storage": {
						"base": "t_struct(Player)26_storage",
						"encoding": "dynamic_array",
						"label": "struct JoKenPo2.Player[]",
						"numberOfBytes": "32"
					},
					"t_enum(Options)6": {
						"encoding": "inplace",
						"label": "enum JoKenPo2.Options",
						"numberOfBytes": "1"
					},
					"t_string_storage": {
						"encoding": "bytes",
						"label": "string",
						"numberOfBytes": "32"
					},
					"t_struct(Player)26_storage": {
						"encoding": "inplace",
						"label": "struct JoKenPo2.Player",
						"members": [
							{
								"astId": 23,
								"contract": "solidity/JokenPo2.sol:JoKenPo2",
								"label": "wallet",
								"offset": 0,
								"slot": "0",
								"type": "t_address"
							},
							{
								"astId": 25,
								"contract": "solidity/JokenPo2.sol:JoKenPo2",
								"label": "wins",
								"offset": 20,
								"slot": "0",
								"type": "t_uint32"
							}
						],
						"numberOfBytes": "32"
					},
					"t_uint256": {
						"encoding": "inplace",
						"label": "uint256",
						"numberOfBytes": "32"
					},
					"t_uint32": {
						"encoding": "inplace",
						"label": "uint32",
						"numberOfBytes": "4"
					}
				}
			},
			"userdoc": {
				"kind": "user",
				"methods": {},
				"version": 1
			}
		}
	}
}