{
	"solidity/JoKenPo.sol": {
		"JoKenPo": {
			"abi": [
				{
					"inputs": [],
					"name": "choicePlayer1",
					"outputs": [
						{
							"internalType": "string",
							"name": "",
							"type": "string"
						}
					],
					"stateMutability": "view",
					"type": "function"
				},
				{
					"inputs": [
						{
							"internalType": "string",
							"name": "newChoice",
							"type": "string"
						}
					],
					"name": "choose",
					"outputs": [],
					"stateMutability": "nonpayable",
					"type": "function"
				},
				{
					"inputs": [],
					"name": "getRandomChoice",
					"outputs": [
						{
							"internalType": "string",
							"name": "",
							"type": "string"
						}
					],
					"stateMutability": "view",
					"type": "function"
				},
				{
					"inputs": [],
					"name": "play",
					"outputs": [
						{
							"internalType": "string",
							"name": "",
							"type": "string"
						}
					],
					"stateMutability": "view",
					"type": "function"
				}
			],
			"devdoc": {
				"kind": "dev",
				"methods": {},
				"version": 1
			},
			"evm": {
				"assembly": "    /* \"solidity/JoKenPo.sol\":65:1649  contract JoKenPo {... */\n  mstore(0x40, 0x80)\n    /* \"solidity/JoKenPo.sol\":164:182  string status = \"\" */\n  mload(0x40)\n  dup1\n  0x20\n  add\n  0x40\n  mstore\n  dup1\n  0x00\n  dup2\n  mstore\n  pop\n  0x01\n  swap1\n  dup2\n  tag_1\n  swap2\n  swap1\n  tag_2\n  jump\t// in\ntag_1:\n  pop\n    /* \"solidity/JoKenPo.sol\":65:1649  contract JoKenPo {... */\n  callvalue\n  dup1\n  iszero\n  tag_3\n  jumpi\n  0x00\n  dup1\n  revert\ntag_3:\n  pop\n  jump(tag_4)\n    /* \"#utility.yul\":7:106   */\ntag_5:\n    /* \"#utility.yul\":59:65   */\n  0x00\n    /* \"#utility.yul\":93:98   */\n  dup2\n    /* \"#utility.yul\":87:99   */\n  mload\n    /* \"#utility.yul\":77:99   */\n  swap1\n  pop\n    /* \"#utility.yul\":7:106   */\n  swap2\n  swap1\n  pop\n  jump\t// out\n    /* \"#utility.yul\":112:292   */\ntag_6:\n    /* \"#utility.yul\":160:237   */\n  0x4e487b7100000000000000000000000000000000000000000000000000000000\n    /* \"#utility.yul\":157:158   */\n  0x00\n    /* \"#utility.yul\":150:238   */\n  mstore\n    /* \"#utility.yul\":257:261   */\n  0x41\n    /* \"#utility.yul\":254:255   */\n  0x04\n    /* \"#utility.yul\":247:262   */\n  mstore\n    /* \"#utility.yul\":281:285   */\n  0x24\n    /* \"#utility.yul\":278:279   */\n  0x00\n    /* \"#utility.yul\":271:286   */\n  revert\n    /* \"#utility.yul\":298:478   */\ntag_7:\n    /* \"#utility.yul\":346:423   */\n  0x4e487b7100000000000000000000000000000000000000000000000000000000\n    /* \"#utility.yul\":343:344   */\n  0x00\n    /* \"#utility.yul\":336:424   */\n  mstore\n    /* \"#utility.yul\":443:447   */\n  0x22\n    /* \"#utility.yul\":440:441   */\n  0x04\n    /* \"#utility.yul\":433:448   */\n  mstore\n    /* \"#utility.yul\":467:471   */\n  0x24\n    /* \"#utility.yul\":464:465   */\n  0x00\n    /* \"#utility.yul\":457:472   */\n  revert\n    /* \"#utility.yul\":484:804   */\ntag_8:\n    /* \"#utility.yul\":528:534   */\n  0x00\n    /* \"#utility.yul\":565:566   */\n  0x02\n    /* \"#utility.yul\":559:563   */\n  dup3\n    /* \"#utility.yul\":555:567   */\n  div\n    /* \"#utility.yul\":545:567   */\n  swap1\n  pop\n    /* \"#utility.yul\":612:613   */\n  0x01\n    /* \"#utility.yul\":606:610   */\n  dup3\n    /* \"#utility.yul\":602:614   */\n  and\n    /* \"#utility.yul\":633:651   */\n  dup1\n    /* \"#utility.yul\":623:704   */\n  tag_30\n  jumpi\n    /* \"#utility.yul\":689:693   */\n  0x7f\n    /* \"#utility.yul\":681:687   */\n  dup3\n    /* \"#utility.yul\":677:694   */\n  and\n    /* \"#utility.yul\":667:694   */\n  swap2\n  pop\n    /* \"#utility.yul\":623:704   */\ntag_30:\n    /* \"#utility.yul\":751:753   */\n  0x20\n    /* \"#utility.yul\":743:749   */\n  dup3\n    /* \"#utility.yul\":740:754   */\n  lt\n    /* \"#utility.yul\":720:738   */\n  dup2\n    /* \"#utility.yul\":717:755   */\n  sub\n    /* \"#utility.yul\":714:798   */\n  tag_31\n  jumpi\n    /* \"#utility.yul\":770:788   */\n  tag_32\n  tag_7\n  jump\t// in\ntag_32:\n    /* \"#utility.yul\":714:798   */\ntag_31:\n    /* \"#utility.yul\":535:804   */\n  pop\n    /* \"#utility.yul\":484:804   */\n  swap2\n  swap1\n  pop\n  jump\t// out\n    /* \"#utility.yul\":810:951   */\ntag_9:\n    /* \"#utility.yul\":859:863   */\n  0x00\n    /* \"#utility.yul\":882:885   */\n  dup2\n    /* \"#utility.yul\":874:885   */\n  swap1\n  pop\n    /* \"#utility.yul\":905:908   */\n  dup2\n    /* \"#utility.yul\":902:903   */\n  0x00\n    /* \"#utility.yul\":895:909   */\n  mstore\n    /* \"#utility.yul\":939:943   */\n  0x20\n    /* \"#utility.yul\":936:937   */\n  0x00\n    /* \"#utility.yul\":926:944   */\n  keccak256\n    /* \"#utility.yul\":918:944   */\n  swap1\n  pop\n    /* \"#utility.yul\":810:951   */\n  swap2\n  swap1\n  pop\n  jump\t// out\n    /* \"#utility.yul\":957:1050   */\ntag_10:\n    /* \"#utility.yul\":994:1000   */\n  0x00\n    /* \"#utility.yul\":1041:1043   */\n  0x20\n    /* \"#utility.yul\":1036:1038   */\n  0x1f\n    /* \"#utility.yul\":1029:1034   */\n  dup4\n    /* \"#utility.yul\":1025:1039   */\n  add\n    /* \"#utility.yul\":1021:1044   */\n  div\n    /* \"#utility.yul\":1011:1044   */\n  swap1\n  pop\n    /* \"#utility.yul\":957:1050   */\n  swap2\n  swap1\n  pop\n  jump\t// out\n    /* \"#utility.yul\":1056:1163   */\ntag_11:\n    /* \"#utility.yul\":1100:1108   */\n  0x00\n    /* \"#utility.yul\":1150:1155   */\n  dup3\n    /* \"#utility.yul\":1144:1148   */\n  dup3\n    /* \"#utility.yul\":1140:1156   */\n  shl\n    /* \"#utility.yul\":1119:1156   */\n  swap1\n  pop\n    /* \"#utility.yul\":1056:1163   */\n  swap3\n  swap2\n  pop\n  pop\n  jump\t// out\n    /* \"#utility.yul\":1169:1562   */\ntag_12:\n    /* \"#utility.yul\":1238:1244   */\n  0x00\n    /* \"#utility.yul\":1288:1289   */\n  0x08\n    /* \"#utility.yul\":1276:1286   */\n  dup4\n    /* \"#utility.yul\":1272:1290   */\n  mul\n    /* \"#utility.yul\":1311:1408   */\n  tag_37\n    /* \"#utility.yul\":1341:1407   */\n  0xffffffffffffffffffffffffffffffffffffffffffffffffffffffffffffffff\n    /* \"#utility.yul\":1330:1339   */\n  dup3\n    /* \"#utility.yul\":1311:1408   */\n  tag_11\n  jump\t// in\ntag_37:\n    /* \"#utility.yul\":1429:1468   */\n  tag_38\n    /* \"#utility.yul\":1459:1467   */\n  dup7\n    /* \"#utility.yul\":1448:1457   */\n  dup4\n    /* \"#utility.yul\":1429:1468   */\n  tag_11\n  jump\t// in\ntag_38:\n    /* \"#utility.yul\":1417:1468   */\n  swap6\n  pop\n    /* \"#utility.yul\":1501:1505   */\n  dup1\n    /* \"#utility.yul\":1497:1506   */\n  not\n    /* \"#utility.yul\":1490:1495   */\n  dup5\n    /* \"#utility.yul\":1486:1507   */\n  and\n    /* \"#utility.yul\":1477:1507   */\n  swap4\n  pop\n    /* \"#utility.yul\":1550:1554   */\n  dup1\n    /* \"#utility.yul\":1540:1548   */\n  dup7\n    /* \"#utility.yul\":1536:1555   */\n  and\n    /* \"#utility.yul\":1529:1534   */\n  dup5\n    /* \"#utility.yul\":1526:1556   */\n  or\n    /* \"#utility.yul\":1516:1556   */\n  swap3\n  pop\n    /* \"#utility.yul\":1245:1562   */\n  pop\n  pop\n    /* \"#utility.yul\":1169:1562   */\n  swap4\n  swap3\n  pop\n  pop\n  pop\n  jump\t// out\n    /* \"#utility.yul\":1568:1645   */\ntag_13:\n    /* \"#utility.yul\":1605:1612   */\n  0x00\n    /* \"#utility.yul\":1634:1639   */\n  dup2\n    /* \"#utility.yul\":1623:1639   */\n  swap1\n  pop\n    /* \"#utility.yul\":1568:1645   */\n  swap2\n  swap1\n  pop\n  jump\t// out\n    /* \"#utility.yul\":1651:1711   */\ntag_14:\n    /* \"#utility.yul\":1679:1682   */\n  0x00\n    /* \"#utility.yul\":1700:1705   */\n  dup2\n    /* \"#utility.yul\":1693:1705   */\n  swap1\n  pop\n    /* \"#utility.yul\":1651:1711   */\n  swap2\n  swap1\n  pop\n  jump\t// out\n    /* \"#utility.yul\":1717:1859   */\ntag_15:\n    /* \"#utility.yul\":1767:1776   */\n  0x00\n    /* \"#utility.yul\":1800:1853   */\n  tag_42\n    /* \"#utility.yul\":1818:1852   */\n  tag_43\n    /* \"#utility.yul\":1827:1851   */\n  tag_44\n    /* \"#utility.yul\":1845:1850   */\n  dup5\n    /* \"#utility.yul\":1827:1851   */\n  tag_13\n  jump\t// in\ntag_44:\n    /* \"#utility.yul\":1818:1852   */\n  tag_14\n  jump\t// in\ntag_43:\n    /* \"#utility.yul\":1800:1853   */\n  tag_13\n  jump\t// in\ntag_42:\n    /* \"#utility.yul\":1787:1853   */\n  swap1\n  pop\n    /* \"#utility.yul\":1717:1859   */\n  swap2\n  swap1\n  pop\n  jump\t// out\n    /* \"#utility.yul\":1865:1940   */\ntag_16:\n    /* \"#utility.yul\":1908:1911   */\n  0x00\n    /* \"#utility.yul\":1929:1934   */\n  dup2\n    /* \"#utility.yul\":1922:1934   */\n  swap1\n  pop\n    /* \"#utility.yul\":1865:1940   */\n  swap2\n  swap1\n  pop\n  jump\t// out\n    /* \"#utility.yul\":1946:2215   */\ntag_17:\n    /* \"#utility.yul\":2056:2095   */\n  tag_47\n    /* \"#utility.yul\":2087:2094   */\n  dup4\n    /* \"#utility.yul\":2056:2095   */\n  tag_15\n  jump\t// in\ntag_47:\n    /* \"#utility.yul\":2117:2208   */\n  tag_48\n    /* \"#utility.yul\":2166:2207   */\n  tag_49\n    /* \"#utility.yul\":2190:2206   */\n  dup3\n    /* \"#utility.yul\":2166:2207   */\n  tag_16\n  jump\t// in\ntag_49:\n    /* \"#utility.yul\":2158:2164   */\n  dup5\n    /* \"#utility.yul\":2151:2155   */\n  dup5\n    /* \"#utility.yul\":2145:2156   */\n  sload\n    /* \"#utility.yul\":2117:2208   */\n  tag_12\n  jump\t// in\ntag_48:\n    /* \"#utility.yul\":2111:2115   */\n  dup3\n    /* \"#utility.yul\":2104:2209   */\n  sstore\n    /* \"#utility.yul\":2022:2215   */\n  pop\n    /* \"#utility.yul\":1946:2215   */\n  pop\n  pop\n  pop\n  jump\t// out\n    /* \"#utility.yul\":2221:2294   */\ntag_18:\n    /* \"#utility.yul\":2266:2269   */\n  0x00\n    /* \"#utility.yul\":2221:2294   */\n  swap1\n  jump\t// out\n    /* \"#utility.yul\":2300:2489   */\ntag_19:\n    /* \"#utility.yul\":2377:2409   */\n  tag_52\n  tag_18\n  jump\t// in\ntag_52:\n    /* \"#utility.yul\":2418:2483   */\n  tag_53\n    /* \"#utility.yul\":2476:2482   */\n  dup2\n    /* \"#utility.yul\":2468:2474   */\n  dup5\n    /* \"#utility.yul\":2462:2466   */\n  dup5\n    /* \"#utility.yul\":2418:2483   */\n  tag_17\n  jump\t// in\ntag_53:\n    /* \"#utility.yul\":2353:2489   */\n  pop\n    /* \"#utility.yul\":2300:2489   */\n  pop\n  pop\n  jump\t// out\n    /* \"#utility.yul\":2495:2681   */\ntag_20:\n    /* \"#utility.yul\":2555:2675   */\ntag_55:\n    /* \"#utility.yul\":2572:2575   */\n  dup2\n    /* \"#utility.yul\":2565:2570   */\n  dup2\n    /* \"#utility.yul\":2562:2576   */\n  lt\n    /* \"#utility.yul\":2555:2675   */\n  iszero\n  tag_57\n  jumpi\n    /* \"#utility.yul\":2626:2665   */\n  tag_58\n    /* \"#utility.yul\":2663:2664   */\n  0x00\n    /* \"#utility.yul\":2656:2661   */\n  dup3\n    /* \"#utility.yul\":2626:2665   */\n  tag_19\n  jump\t// in\ntag_58:\n    /* \"#utility.yul\":2599:2600   */\n  0x01\n    /* \"#utility.yul\":2592:2597   */\n  dup2\n    /* \"#utility.yul\":2588:2601   */\n  add\n    /* \"#utility.yul\":2579:2601   */\n  swap1\n  pop\n    /* \"#utility.yul\":2555:2675   */\n  jump(tag_55)\ntag_57:\n    /* \"#utility.yul\":2495:2681   */\n  pop\n  pop\n  jump\t// out\n    /* \"#utility.yul\":2687:3230   */\ntag_21:\n    /* \"#utility.yul\":2788:2790   */\n  0x1f\n    /* \"#utility.yul\":2783:2786   */\n  dup3\n    /* \"#utility.yul\":2780:2791   */\n  gt\n    /* \"#utility.yul\":2777:3223   */\n  iszero\n  tag_60\n  jumpi\n    /* \"#utility.yul\":2822:2860   */\n  tag_61\n    /* \"#utility.yul\":2854:2859   */\n  dup2\n    /* \"#utility.yul\":2822:2860   */\n  tag_9\n  jump\t// in\ntag_61:\n    /* \"#utility.yul\":2906:2935   */\n  tag_62\n    /* \"#utility.yul\":2924:2934   */\n  dup5\n    /* \"#utility.yul\":2906:2935   */\n  tag_10\n  jump\t// in\ntag_62:\n    /* \"#utility.yul\":2896:2904   */\n  dup2\n    /* \"#utility.yul\":2892:2936   */\n  add\n    /* \"#utility.yul\":3089:3091   */\n  0x20\n    /* \"#utility.yul\":3077:3087   */\n  dup6\n    /* \"#utility.yul\":3074:3092   */\n  lt\n    /* \"#utility.yul\":3071:3120   */\n  iszero\n  tag_63\n  jumpi\n    /* \"#utility.yul\":3110:3118   */\n  dup2\n    /* \"#utility.yul\":3095:3118   */\n  swap1\n  pop\n    /* \"#utility.yul\":3071:3120   */\ntag_63:\n    /* \"#utility.yul\":3133:3213   */\n  tag_64\n    /* \"#utility.yul\":3189:3211   */\n  tag_65\n    /* \"#utility.yul\":3207:3210   */\n  dup6\n    /* \"#utility.yul\":3189:3211   */\n  tag_10\n  jump\t// in\ntag_65:\n    /* \"#utility.yul\":3179:3187   */\n  dup4\n    /* \"#utility.yul\":3175:3212   */\n  add\n    /* \"#utility.yul\":3162:3173   */\n  dup3\n    /* \"#utility.yul\":3133:3213   */\n  tag_20\n  jump\t// in\ntag_64:\n    /* \"#utility.yul\":2792:3223   */\n  pop\n  pop\n    /* \"#utility.yul\":2777:3223   */\ntag_60:\n    /* \"#utility.yul\":2687:3230   */\n  pop\n  pop\n  pop\n  jump\t// out\n    /* \"#utility.yul\":3236:3353   */\ntag_22:\n    /* \"#utility.yul\":3290:3298   */\n  0x00\n    /* \"#utility.yul\":3340:3345   */\n  dup3\n    /* \"#utility.yul\":3334:3338   */\n  dup3\n    /* \"#utility.yul\":3330:3346   */\n  shr\n    /* \"#utility.yul\":3309:3346   */\n  swap1\n  pop\n    /* \"#utility.yul\":3236:3353   */\n  swap3\n  swap2\n  pop\n  pop\n  jump\t// out\n    /* \"#utility.yul\":3359:3528   */\ntag_23:\n    /* \"#utility.yul\":3403:3409   */\n  0x00\n    /* \"#utility.yul\":3436:3487   */\n  tag_68\n    /* \"#utility.yul\":3484:3485   */\n  0x00\n    /* \"#utility.yul\":3480:3486   */\n  not\n    /* \"#utility.yul\":3472:3477   */\n  dup5\n    /* \"#utility.yul\":3469:3470   */\n  0x08\n    /* \"#utility.yul\":3465:3478   */\n  mul\n    /* \"#utility.yul\":3436:3487   */\n  tag_22\n  jump\t// in\ntag_68:\n    /* \"#utility.yul\":3432:3488   */\n  not\n    /* \"#utility.yul\":3517:3521   */\n  dup1\n    /* \"#utility.yul\":3511:3515   */\n  dup4\n    /* \"#utility.yul\":3507:3522   */\n  and\n    /* \"#utility.yul\":3497:3522   */\n  swap2\n  pop\n    /* \"#utility.yul\":3410:3528   */\n  pop\n    /* \"#utility.yul\":3359:3528   */\n  swap3\n  swap2\n  pop\n  pop\n  jump\t// out\n    /* \"#utility.yul\":3533:3828   */\ntag_24:\n    /* \"#utility.yul\":3609:3613   */\n  0x00\n    /* \"#utility.yul\":3755:3784   */\n  tag_70\n    /* \"#utility.yul\":3780:3783   */\n  dup4\n    /* \"#utility.yul\":3774:3778   */\n  dup4\n    /* \"#utility.yul\":3755:3784   */\n  tag_23\n  jump\t// in\ntag_70:\n    /* \"#utility.yul\":3747:3784   */\n  swap2\n  pop\n    /* \"#utility.yul\":3817:3820   */\n  dup3\n    /* \"#utility.yul\":3814:3815   */\n  0x02\n    /* \"#utility.yul\":3810:3821   */\n  mul\n    /* \"#utility.yul\":3804:3808   */\n  dup3\n    /* \"#utility.yul\":3801:3822   */\n  or\n    /* \"#utility.yul\":3793:3822   */\n  swap1\n  pop\n    /* \"#utility.yul\":3533:3828   */\n  swap3\n  swap2\n  pop\n  pop\n  jump\t// out\n    /* \"#utility.yul\":3833:5228   */\ntag_2:\n    /* \"#utility.yul\":3950:3987   */\n  tag_72\n    /* \"#utility.yul\":3983:3986   */\n  dup3\n    /* \"#utility.yul\":3950:3987   */\n  tag_5\n  jump\t// in\ntag_72:\n    /* \"#utility.yul\":4052:4070   */\n  0xffffffffffffffff\n    /* \"#utility.yul\":4044:4050   */\n  dup2\n    /* \"#utility.yul\":4041:4071   */\n  gt\n    /* \"#utility.yul\":4038:4094   */\n  iszero\n  tag_73\n  jumpi\n    /* \"#utility.yul\":4074:4092   */\n  tag_74\n  tag_6\n  jump\t// in\ntag_74:\n    /* \"#utility.yul\":4038:4094   */\ntag_73:\n    /* \"#utility.yul\":4118:4156   */\n  tag_75\n    /* \"#utility.yul\":4150:4154   */\n  dup3\n    /* \"#utility.yul\":4144:4155   */\n  sload\n    /* \"#utility.yul\":4118:4156   */\n  tag_8\n  jump\t// in\ntag_75:\n    /* \"#utility.yul\":4203:4270   */\n  tag_76\n    /* \"#utility.yul\":4263:4269   */\n  dup3\n    /* \"#utility.yul\":4255:4261   */\n  dup3\n    /* \"#utility.yul\":4249:4253   */\n  dup6\n    /* \"#utility.yul\":4203:4270   */\n  tag_21\n  jump\t// in\ntag_76:\n    /* \"#utility.yul\":4297:4298   */\n  0x00\n    /* \"#utility.yul\":4321:4325   */\n  0x20\n    /* \"#utility.yul\":4308:4325   */\n  swap1\n  pop\n    /* \"#utility.yul\":4353:4355   */\n  0x1f\n    /* \"#utility.yul\":4345:4351   */\n  dup4\n    /* \"#utility.yul\":4342:4356   */\n  gt\n    /* \"#utility.yul\":4370:4371   */\n  0x01\n    /* \"#utility.yul\":4365:4983   */\n  dup2\n  eq\n  tag_78\n  jumpi\n    /* \"#utility.yul\":5027:5028   */\n  0x00\n    /* \"#utility.yul\":5044:5050   */\n  dup5\n    /* \"#utility.yul\":5041:5118   */\n  iszero\n  tag_79\n  jumpi\n    /* \"#utility.yul\":5093:5102   */\n  dup3\n    /* \"#utility.yul\":5088:5091   */\n  dup8\n    /* \"#utility.yul\":5084:5103   */\n  add\n    /* \"#utility.yul\":5078:5104   */\n  mload\n    /* \"#utility.yul\":5069:5104   */\n  swap1\n  pop\n    /* \"#utility.yul\":5041:5118   */\ntag_79:\n    /* \"#utility.yul\":5144:5211   */\n  tag_80\n    /* \"#utility.yul\":5204:5210   */\n  dup6\n    /* \"#utility.yul\":5197:5202   */\n  dup3\n    /* \"#utility.yul\":5144:5211   */\n  tag_24\n  jump\t// in\ntag_80:\n    /* \"#utility.yul\":5138:5142   */\n  dup7\n    /* \"#utility.yul\":5131:5212   */\n  sstore\n    /* \"#utility.yul\":5000:5222   */\n  pop\n    /* \"#utility.yul\":4335:5222   */\n  jump(tag_77)\n    /* \"#utility.yul\":4365:4983   */\ntag_78:\n    /* \"#utility.yul\":4417:4421   */\n  0x1f\n    /* \"#utility.yul\":4413:4422   */\n  not\n    /* \"#utility.yul\":4405:4411   */\n  dup5\n    /* \"#utility.yul\":4401:4423   */\n  and\n    /* \"#utility.yul\":4451:4488   */\n  tag_81\n    /* \"#utility.yul\":4483:4487   */\n  dup7\n    /* \"#utility.yul\":4451:4488   */\n  tag_9\n  jump\t// in\ntag_81:\n    /* \"#utility.yul\":4510:4511   */\n  0x00\n    /* \"#utility.yul\":4524:4732   */\ntag_82:\n    /* \"#utility.yul\":4538:4545   */\n  dup3\n    /* \"#utility.yul\":4535:4536   */\n  dup2\n    /* \"#utility.yul\":4532:4546   */\n  lt\n    /* \"#utility.yul\":4524:4732   */\n  iszero\n  tag_84\n  jumpi\n    /* \"#utility.yul\":4617:4626   */\n  dup5\n    /* \"#utility.yul\":4612:4615   */\n  dup10\n    /* \"#utility.yul\":4608:4627   */\n  add\n    /* \"#utility.yul\":4602:4628   */\n  mload\n    /* \"#utility.yul\":4594:4600   */\n  dup3\n    /* \"#utility.yul\":4587:4629   */\n  sstore\n    /* \"#utility.yul\":4668:4669   */\n  0x01\n    /* \"#utility.yul\":4660:4666   */\n  dup3\n    /* \"#utility.yul\":4656:4670   */\n  add\n    /* \"#utility.yul\":4646:4670   */\n  swap2\n  pop\n    /* \"#utility.yul\":4715:4717   */\n  0x20\n    /* \"#utility.yul\":4704:4713   */\n  dup6\n    /* \"#utility.yul\":4700:4718   */\n  add\n    /* \"#utility.yul\":4687:4718   */\n  swap5\n  pop\n    /* \"#utility.yul\":4561:4565   */\n  0x20\n    /* \"#utility.yul\":4558:4559   */\n  dup2\n    /* \"#utility.yul\":4554:4566   */\n  add\n    /* \"#utility.yul\":4549:4566   */\n  swap1\n  pop\n    /* \"#utility.yul\":4524:4732   */\n  jump(tag_82)\ntag_84:\n    /* \"#utility.yul\":4760:4766   */\n  dup7\n    /* \"#utility.yul\":4751:4758   */\n  dup4\n    /* \"#utility.yul\":4748:4767   */\n  lt\n    /* \"#utility.yul\":4745:4924   */\n  iszero\n  tag_85\n  jumpi\n    /* \"#utility.yul\":4818:4827   */\n  dup5\n    /* \"#utility.yul\":4813:4816   */\n  dup10\n    /* \"#utility.yul\":4809:4828   */\n  add\n    /* \"#utility.yul\":4803:4829   */\n  mload\n    /* \"#utility.yul\":4861:4909   */\n  tag_86\n    /* \"#utility.yul\":4903:4907   */\n  0x1f\n    /* \"#utility.yul\":4895:4901   */\n  dup10\n    /* \"#utility.yul\":4891:4908   */\n  and\n    /* \"#utility.yul\":4880:4889   */\n  dup3\n    /* \"#utility.yul\":4861:4909   */\n  tag_23\n  jump\t// in\ntag_86:\n    /* \"#utility.yul\":4853:4859   */\n  dup4\n    /* \"#utility.yul\":4846:4910   */\n  sstore\n    /* \"#utility.yul\":4768:4924   */\n  pop\n    /* \"#utility.yul\":4745:4924   */\ntag_85:\n    /* \"#utility.yul\":4970:4971   */\n  0x01\n    /* \"#utility.yul\":4966:4967   */\n  0x02\n    /* \"#utility.yul\":4958:4964   */\n  dup9\n    /* \"#utility.yul\":4954:4968   */\n  mul\n    /* \"#utility.yul\":4950:4972   */\n  add\n    /* \"#utility.yul\":4944:4948   */\n  dup9\n    /* \"#utility.yul\":4937:4973   */\n  sstore\n    /* \"#utility.yul\":4372:4983   */\n  pop\n  pop\n  pop\n    /* \"#utility.yul\":4335:5222   */\ntag_77:\n  pop\n    /* \"#utility.yul\":3925:5228   */\n  pop\n  pop\n  pop\n    /* \"#utility.yul\":3833:5228   */\n  pop\n  pop\n  jump\t// out\n    /* \"solidity/JoKenPo.sol\":65:1649  contract JoKenPo {... */\ntag_4:\n  dataSize(sub_0)\n  dup1\n  dataOffset(sub_0)\n  0x00\n  codecopy\n  0x00\n  return\nstop\n\nsub_0: assembly {\n        /* \"solidity/JoKenPo.sol\":65:1649  contract JoKenPo {... */\n      mstore(0x40, 0x80)\n      callvalue\n      dup1\n      iszero\n      tag_1\n      jumpi\n      0x00\n      dup1\n      revert\n    tag_1:\n      pop\n      jumpi(tag_2, lt(calldatasize, 0x04))\n      shr(0xe0, calldataload(0x00))\n      dup1\n      0x39476787\n      eq\n      tag_3\n      jumpi\n      dup1\n      0x82b54173\n      eq\n      tag_4\n      jumpi\n      dup1\n      0x93e84cd9\n      eq\n      tag_5\n      jumpi\n      dup1\n      0x98c8d81f\n      eq\n      tag_6\n      jumpi\n    tag_2:\n      0x00\n      dup1\n      revert\n        /* \"solidity/JoKenPo.sol\":720:1148  function getRandomChoice() public view returns(string memory) {... */\n    tag_3:\n      tag_7\n      tag_8\n      jump\t// in\n    tag_7:\n      mload(0x40)\n      tag_9\n      swap2\n      swap1\n      tag_10\n      jump\t// in\n    tag_9:\n      mload(0x40)\n      dup1\n      swap2\n      sub\n      swap1\n      return\n        /* \"solidity/JoKenPo.sol\":130:157  string public choicePlayer1 */\n    tag_4:\n      tag_11\n      tag_12\n      jump\t// in\n    tag_11:\n      mload(0x40)\n      tag_13\n      swap2\n      swap1\n      tag_10\n      jump\t// in\n    tag_13:\n      mload(0x40)\n      dup1\n      swap2\n      sub\n      swap1\n      return\n        /* \"solidity/JoKenPo.sol\":1156:1646  function play() view public returns(string memory)  {... */\n    tag_5:\n      tag_14\n      tag_15\n      jump\t// in\n    tag_14:\n      mload(0x40)\n      tag_16\n      swap2\n      swap1\n      tag_10\n      jump\t// in\n    tag_16:\n      mload(0x40)\n      dup1\n      swap2\n      sub\n      swap1\n      return\n        /* \"solidity/JoKenPo.sol\":469:712  function choose(string memory newChoice) public {... */\n    tag_6:\n      tag_17\n      0x04\n      dup1\n      calldatasize\n      sub\n      dup2\n      add\n      swap1\n      tag_18\n      swap2\n      swap1\n      tag_19\n      jump\t// in\n    tag_18:\n      tag_20\n      jump\t// in\n    tag_17:\n      stop\n        /* \"solidity/JoKenPo.sol\":720:1148  function getRandomChoice() public view returns(string memory) {... */\n    tag_8:\n        /* \"solidity/JoKenPo.sol\":767:780  string memory */\n      0x60\n        /* \"solidity/JoKenPo.sol\":793:812  uint256 randomValue */\n      0x00\n        /* \"solidity/JoKenPo.sol\":850:866  block.difficulty */\n      prevrandao\n        /* \"solidity/JoKenPo.sol\":868:883  block.timestamp */\n      timestamp\n        /* \"solidity/JoKenPo.sol\":885:897  block.number */\n      number\n        /* \"solidity/JoKenPo.sol\":833:898  abi.encodePacked(block.difficulty, block.timestamp, block.number) */\n      add(0x20, mload(0x40))\n      tag_22\n      swap4\n      swap3\n      swap2\n      swap1\n      tag_23\n      jump\t// in\n    tag_22:\n      mload(0x40)\n      0x20\n      dup2\n      dup4\n      sub\n      sub\n      dup2\n      mstore\n      swap1\n      0x40\n      mstore\n        /* \"solidity/JoKenPo.sol\":823:899  keccak256(abi.encodePacked(block.difficulty, block.timestamp, block.number)) */\n      dup1\n      mload\n      swap1\n      0x20\n      add\n      keccak256\n        /* \"solidity/JoKenPo.sol\":815:900  uint256(keccak256(abi.encodePacked(block.difficulty, block.timestamp, block.number))) */\n      0x00\n      shr\n        /* \"solidity/JoKenPo.sol\":793:900  uint256 randomValue = uint256(keccak256(abi.encodePacked(block.difficulty, block.timestamp, block.number))) */\n      swap1\n      pop\n        /* \"solidity/JoKenPo.sol\":913:932  uint256 choiceIndex */\n      0x00\n        /* \"solidity/JoKenPo.sol\":949:950  3 */\n      0x03\n        /* \"solidity/JoKenPo.sol\":935:946  randomValue */\n      dup3\n        /* \"solidity/JoKenPo.sol\":935:950  randomValue % 3 */\n      tag_24\n      swap2\n      swap1\n      tag_25\n      jump\t// in\n    tag_24:\n        /* \"solidity/JoKenPo.sol\":913:950  uint256 choiceIndex = randomValue % 3 */\n      swap1\n      pop\n        /* \"solidity/JoKenPo.sol\":981:982  0 */\n      0x00\n        /* \"solidity/JoKenPo.sol\":966:977  choiceIndex */\n      dup2\n        /* \"solidity/JoKenPo.sol\":966:982  choiceIndex == 0 */\n      sub\n        /* \"solidity/JoKenPo.sol\":963:1141  if(choiceIndex == 0) {... */\n      tag_26\n      jumpi\n        /* \"solidity/JoKenPo.sol\":999:1012  return \"rock\" */\n      mload(0x40)\n      dup1\n      0x40\n      add\n      0x40\n      mstore\n      dup1\n      0x04\n      dup2\n      mstore\n      0x20\n      add\n      0x726f636b00000000000000000000000000000000000000000000000000000000\n      dup2\n      mstore\n      pop\n      swap3\n      pop\n      pop\n      pop\n      jump(tag_21)\n        /* \"solidity/JoKenPo.sol\":963:1141  if(choiceIndex == 0) {... */\n    tag_26:\n        /* \"solidity/JoKenPo.sol\":1048:1049  1 */\n      0x01\n        /* \"solidity/JoKenPo.sol\":1033:1044  choiceIndex */\n      dup2\n        /* \"solidity/JoKenPo.sol\":1033:1049  choiceIndex == 1 */\n      sub\n        /* \"solidity/JoKenPo.sol\":1030:1141  if(choiceIndex == 1) {... */\n      tag_28\n      jumpi\n        /* \"solidity/JoKenPo.sol\":1066:1080  return \"paper\" */\n      mload(0x40)\n      dup1\n      0x40\n      add\n      0x40\n      mstore\n      dup1\n      0x05\n      dup2\n      mstore\n      0x20\n      add\n      0x7061706572000000000000000000000000000000000000000000000000000000\n      dup2\n      mstore\n      pop\n      swap3\n      pop\n      pop\n      pop\n      jump(tag_21)\n        /* \"solidity/JoKenPo.sol\":1030:1141  if(choiceIndex == 1) {... */\n    tag_28:\n        /* \"solidity/JoKenPo.sol\":1113:1129  return \"scissor\" */\n      mload(0x40)\n      dup1\n      0x40\n      add\n      0x40\n      mstore\n      dup1\n      0x07\n      dup2\n      mstore\n      0x20\n      add\n      0x73636973736f7200000000000000000000000000000000000000000000000000\n      dup2\n      mstore\n      pop\n      swap3\n      pop\n      pop\n      pop\n        /* \"solidity/JoKenPo.sol\":720:1148  function getRandomChoice() public view returns(string memory) {... */\n    tag_21:\n      swap1\n      jump\t// out\n        /* \"solidity/JoKenPo.sol\":130:157  string public choicePlayer1 */\n    tag_12:\n      0x00\n      dup1\n      sload\n      tag_30\n      swap1\n      tag_31\n      jump\t// in\n    tag_30:\n      dup1\n      0x1f\n      add\n      0x20\n      dup1\n      swap2\n      div\n      mul\n      0x20\n      add\n      mload(0x40)\n      swap1\n      dup2\n      add\n      0x40\n      mstore\n      dup1\n      swap3\n      swap2\n      swap1\n      dup2\n      dup2\n      mstore\n      0x20\n      add\n      dup3\n      dup1\n      sload\n      tag_32\n      swap1\n      tag_31\n      jump\t// in\n    tag_32:\n      dup1\n      iszero\n      tag_33\n      jumpi\n      dup1\n      0x1f\n      lt\n      tag_34\n      jumpi\n      0x0100\n      dup1\n      dup4\n      sload\n      div\n      mul\n      dup4\n      mstore\n      swap2\n      0x20\n      add\n      swap2\n      jump(tag_33)\n    tag_34:\n      dup3\n      add\n      swap2\n      swap1\n      0x00\n      mstore\n      keccak256(0x00, 0x20)\n      swap1\n    tag_35:\n      dup2\n      sload\n      dup2\n      mstore\n      swap1\n      0x01\n      add\n      swap1\n      0x20\n      add\n      dup1\n      dup4\n      gt\n      tag_35\n      jumpi\n      dup3\n      swap1\n      sub\n      0x1f\n      and\n      dup3\n      add\n      swap2\n    tag_33:\n      pop\n      pop\n      pop\n      pop\n      pop\n      dup2\n      jump\t// out\n        /* \"solidity/JoKenPo.sol\":1156:1646  function play() view public returns(string memory)  {... */\n    tag_15:\n        /* \"solidity/JoKenPo.sol\":1192:1205  string memory */\n      0x60\n        /* \"solidity/JoKenPo.sol\":1222:1252  compare(choicePlayer1, \"rock\") */\n      tag_37\n        /* \"solidity/JoKenPo.sol\":1230:1243  choicePlayer1 */\n      0x00\n        /* \"solidity/JoKenPo.sol\":1222:1252  compare(choicePlayer1, \"rock\") */\n      dup1\n      sload\n      tag_38\n      swap1\n      tag_31\n      jump\t// in\n    tag_38:\n      dup1\n      0x1f\n      add\n      0x20\n      dup1\n      swap2\n      div\n      mul\n      0x20\n      add\n      mload(0x40)\n      swap1\n      dup2\n      add\n      0x40\n      mstore\n      dup1\n      swap3\n      swap2\n      swap1\n      dup2\n      dup2\n      mstore\n      0x20\n      add\n      dup3\n      dup1\n      sload\n      tag_39\n      swap1\n      tag_31\n      jump\t// in\n    tag_39:\n      dup1\n      iszero\n      tag_40\n      jumpi\n      dup1\n      0x1f\n      lt\n      tag_41\n      jumpi\n      0x0100\n      dup1\n      dup4\n      sload\n      div\n      mul\n      dup4\n      mstore\n      swap2\n      0x20\n      add\n      swap2\n      jump(tag_40)\n    tag_41:\n      dup3\n      add\n      swap2\n      swap1\n      0x00\n      mstore\n      keccak256(0x00, 0x20)\n      swap1\n    tag_42:\n      dup2\n      sload\n      dup2\n      mstore\n      swap1\n      0x01\n      add\n      swap1\n      0x20\n      add\n      dup1\n      dup4\n      gt\n      tag_42\n      jumpi\n      dup3\n      swap1\n      sub\n      0x1f\n      and\n      dup3\n      add\n      swap2\n    tag_40:\n      pop\n      pop\n      pop\n      pop\n      pop\n      mload(0x40)\n      dup1\n      0x40\n      add\n      0x40\n      mstore\n      dup1\n      0x04\n      dup2\n      mstore\n      0x20\n      add\n      0x726f636b00000000000000000000000000000000000000000000000000000000\n      dup2\n      mstore\n      pop\n        /* \"solidity/JoKenPo.sol\":1222:1229  compare */\n      tag_43\n        /* \"solidity/JoKenPo.sol\":1222:1252  compare(choicePlayer1, \"rock\") */\n      jump\t// in\n    tag_37:\n        /* \"solidity/JoKenPo.sol\":1222:1291  compare(choicePlayer1, \"rock\") && compare(getRandomChoice(), \"paper\") */\n      dup1\n      iszero\n      tag_44\n      jumpi\n      pop\n        /* \"solidity/JoKenPo.sol\":1256:1291  compare(getRandomChoice(), \"paper\") */\n      tag_45\n        /* \"solidity/JoKenPo.sol\":1264:1281  getRandomChoice() */\n      tag_46\n        /* \"solidity/JoKenPo.sol\":1264:1279  getRandomChoice */\n      tag_8\n        /* \"solidity/JoKenPo.sol\":1264:1281  getRandomChoice() */\n      jump\t// in\n    tag_46:\n        /* \"solidity/JoKenPo.sol\":1256:1291  compare(getRandomChoice(), \"paper\") */\n      mload(0x40)\n      dup1\n      0x40\n      add\n      0x40\n      mstore\n      dup1\n      0x05\n      dup2\n      mstore\n      0x20\n      add\n      0x7061706572000000000000000000000000000000000000000000000000000000\n      dup2\n      mstore\n      pop\n        /* \"solidity/JoKenPo.sol\":1256:1263  compare */\n      tag_43\n        /* \"solidity/JoKenPo.sol\":1256:1291  compare(getRandomChoice(), \"paper\") */\n      jump\t// in\n    tag_45:\n        /* \"solidity/JoKenPo.sol\":1222:1291  compare(choicePlayer1, \"rock\") && compare(getRandomChoice(), \"paper\") */\n    tag_44:\n        /* \"solidity/JoKenPo.sol\":1219:1639  if(compare(choicePlayer1, \"rock\") && compare(getRandomChoice(), \"paper\")) {... */\n      iszero\n      tag_47\n      jumpi\n        /* \"solidity/JoKenPo.sol\":1308:1324  return \"CPU WIN\" */\n      mload(0x40)\n      dup1\n      0x40\n      add\n      0x40\n      mstore\n      dup1\n      0x07\n      dup2\n      mstore\n      0x20\n      add\n      0x4350552057494e00000000000000000000000000000000000000000000000000\n      dup2\n      mstore\n      pop\n      swap1\n      pop\n      jump(tag_36)\n        /* \"solidity/JoKenPo.sol\":1219:1639  if(compare(choicePlayer1, \"rock\") && compare(getRandomChoice(), \"paper\")) {... */\n    tag_47:\n        /* \"solidity/JoKenPo.sol\":1345:1376  compare(choicePlayer1, \"paper\") */\n      tag_49\n        /* \"solidity/JoKenPo.sol\":1353:1366  choicePlayer1 */\n      0x00\n        /* \"solidity/JoKenPo.sol\":1345:1376  compare(choicePlayer1, \"paper\") */\n      dup1\n      sload\n      tag_50\n      swap1\n      tag_31\n      jump\t// in\n    tag_50:\n      dup1\n      0x1f\n      add\n      0x20\n      dup1\n      swap2\n      div\n      mul\n      0x20\n      add\n      mload(0x40)\n      swap1\n      dup2\n      add\n      0x40\n      mstore\n      dup1\n      swap3\n      swap2\n      swap1\n      dup2\n      dup2\n      mstore\n      0x20\n      add\n      dup3\n      dup1\n      sload\n      tag_51\n      swap1\n      tag_31\n      jump\t// in\n    tag_51:\n      dup1\n      iszero\n      tag_52\n      jumpi\n      dup1\n      0x1f\n      lt\n      tag_53\n      jumpi\n      0x0100\n      dup1\n      dup4\n      sload\n      div\n      mul\n      dup4\n      mstore\n      swap2\n      0x20\n      add\n      swap2\n      jump(tag_52)\n    tag_53:\n      dup3\n      add\n      swap2\n      swap1\n      0x00\n      mstore\n      keccak256(0x00, 0x20)\n      swap1\n    tag_54:\n      dup2\n      sload\n      dup2\n      mstore\n      swap1\n      0x01\n      add\n      swap1\n      0x20\n      add\n      dup1\n      dup4\n      gt\n      tag_54\n      jumpi\n      dup3\n      swap1\n      sub\n      0x1f\n      and\n      dup3\n      add\n      swap2\n    tag_52:\n      pop\n      pop\n      pop\n      pop\n      pop\n      mload(0x40)\n      dup1\n      0x40\n      add\n      0x40\n      mstore\n      dup1\n      0x05\n      dup2\n      mstore\n      0x20\n      add\n      0x7061706572000000000000000000000000000000000000000000000000000000\n      dup2\n      mstore\n      pop\n        /* \"solidity/JoKenPo.sol\":1345:1352  compare */\n      tag_43\n        /* \"solidity/JoKenPo.sol\":1345:1376  compare(choicePlayer1, \"paper\") */\n      jump\t// in\n    tag_49:\n        /* \"solidity/JoKenPo.sol\":1345:1417  compare(choicePlayer1, \"paper\") && compare(getRandomChoice(), \"scissor\") */\n      dup1\n      iszero\n      tag_55\n      jumpi\n      pop\n        /* \"solidity/JoKenPo.sol\":1380:1417  compare(getRandomChoice(), \"scissor\") */\n      tag_56\n        /* \"solidity/JoKenPo.sol\":1388:1405  getRandomChoice() */\n      tag_57\n        /* \"solidity/JoKenPo.sol\":1388:1403  getRandomChoice */\n      tag_8\n        /* \"solidity/JoKenPo.sol\":1388:1405  getRandomChoice() */\n      jump\t// in\n    tag_57:\n        /* \"solidity/JoKenPo.sol\":1380:1417  compare(getRandomChoice(), \"scissor\") */\n      mload(0x40)\n      dup1\n      0x40\n      add\n      0x40\n      mstore\n      dup1\n      0x07\n      dup2\n      mstore\n      0x20\n      add\n      0x73636973736f7200000000000000000000000000000000000000000000000000\n      dup2\n      mstore\n      pop\n        /* \"solidity/JoKenPo.sol\":1380:1387  compare */\n      tag_43\n        /* \"solidity/JoKenPo.sol\":1380:1417  compare(getRandomChoice(), \"scissor\") */\n      jump\t// in\n    tag_56:\n        /* \"solidity/JoKenPo.sol\":1345:1417  compare(choicePlayer1, \"paper\") && compare(getRandomChoice(), \"scissor\") */\n    tag_55:\n        /* \"solidity/JoKenPo.sol\":1342:1639  if(compare(choicePlayer1, \"paper\") && compare(getRandomChoice(), \"scissor\")) {... */\n      iszero\n      tag_58\n      jumpi\n        /* \"solidity/JoKenPo.sol\":1434:1450  return \"CPU WIN\" */\n      mload(0x40)\n      dup1\n      0x40\n      add\n      0x40\n      mstore\n      dup1\n      0x07\n      dup2\n      mstore\n      0x20\n      add\n      0x4350552057494e00000000000000000000000000000000000000000000000000\n      dup2\n      mstore\n      pop\n      swap1\n      pop\n      jump(tag_36)\n        /* \"solidity/JoKenPo.sol\":1342:1639  if(compare(choicePlayer1, \"paper\") && compare(getRandomChoice(), \"scissor\")) {... */\n    tag_58:\n        /* \"solidity/JoKenPo.sol\":1471:1504  compare(choicePlayer1, \"scissor\") */\n      tag_60\n        /* \"solidity/JoKenPo.sol\":1479:1492  choicePlayer1 */\n      0x00\n        /* \"solidity/JoKenPo.sol\":1471:1504  compare(choicePlayer1, \"scissor\") */\n      dup1\n      sload\n      tag_61\n      swap1\n      tag_31\n      jump\t// in\n    tag_61:\n      dup1\n      0x1f\n      add\n      0x20\n      dup1\n      swap2\n      div\n      mul\n      0x20\n      add\n      mload(0x40)\n      swap1\n      dup2\n      add\n      0x40\n      mstore\n      dup1\n      swap3\n      swap2\n      swap1\n      dup2\n      dup2\n      mstore\n      0x20\n      add\n      dup3\n      dup1\n      sload\n      tag_62\n      swap1\n      tag_31\n      jump\t// in\n    tag_62:\n      dup1\n      iszero\n      tag_63\n      jumpi\n      dup1\n      0x1f\n      lt\n      tag_64\n      jumpi\n      0x0100\n      dup1\n      dup4\n      sload\n      div\n      mul\n      dup4\n      mstore\n      swap2\n      0x20\n      add\n      swap2\n      jump(tag_63)\n    tag_64:\n      dup3\n      add\n      swap2\n      swap1\n      0x00\n      mstore\n      keccak256(0x00, 0x20)\n      swap1\n    tag_65:\n      dup2\n      sload\n      dup2\n      mstore\n      swap1\n      0x01\n      add\n      swap1\n      0x20\n      add\n      dup1\n      dup4\n      gt\n      tag_65\n      jumpi\n      dup3\n      swap1\n      sub\n      0x1f\n      and\n      dup3\n      add\n      swap2\n    tag_63:\n      pop\n      pop\n      pop\n      pop\n      pop\n      mload(0x40)\n      dup1\n      0x40\n      add\n      0x40\n      mstore\n      dup1\n      0x07\n      dup2\n      mstore\n      0x20\n      add\n      0x73636973736f7200000000000000000000000000000000000000000000000000\n      dup2\n      mstore\n      pop\n        /* \"solidity/JoKenPo.sol\":1471:1478  compare */\n      tag_43\n        /* \"solidity/JoKenPo.sol\":1471:1504  compare(choicePlayer1, \"scissor\") */\n      jump\t// in\n    tag_60:\n        /* \"solidity/JoKenPo.sol\":1471:1542  compare(choicePlayer1, \"scissor\") && compare(getRandomChoice(), \"rock\") */\n      dup1\n      iszero\n      tag_66\n      jumpi\n      pop\n        /* \"solidity/JoKenPo.sol\":1508:1542  compare(getRandomChoice(), \"rock\") */\n      tag_67\n        /* \"solidity/JoKenPo.sol\":1516:1533  getRandomChoice() */\n      tag_68\n        /* \"solidity/JoKenPo.sol\":1516:1531  getRandomChoice */\n      tag_8\n        /* \"solidity/JoKenPo.sol\":1516:1533  getRandomChoice() */\n      jump\t// in\n    tag_68:\n        /* \"solidity/JoKenPo.sol\":1508:1542  compare(getRandomChoice(), \"rock\") */\n      mload(0x40)\n      dup1\n      0x40\n      add\n      0x40\n      mstore\n      dup1\n      0x04\n      dup2\n      mstore\n      0x20\n      add\n      0x726f636b00000000000000000000000000000000000000000000000000000000\n      dup2\n      mstore\n      pop\n        /* \"solidity/JoKenPo.sol\":1508:1515  compare */\n      tag_43\n        /* \"solidity/JoKenPo.sol\":1508:1542  compare(getRandomChoice(), \"rock\") */\n      jump\t// in\n    tag_67:\n        /* \"solidity/JoKenPo.sol\":1471:1542  compare(choicePlayer1, \"scissor\") && compare(getRandomChoice(), \"rock\") */\n    tag_66:\n        /* \"solidity/JoKenPo.sol\":1468:1639  if(compare(choicePlayer1, \"scissor\") && compare(getRandomChoice(), \"rock\")) {... */\n      iszero\n      tag_69\n      jumpi\n        /* \"solidity/JoKenPo.sol\":1559:1575  return \"CPU WIN\" */\n      mload(0x40)\n      dup1\n      0x40\n      add\n      0x40\n      mstore\n      dup1\n      0x07\n      dup2\n      mstore\n      0x20\n      add\n      0x4350552057494e00000000000000000000000000000000000000000000000000\n      dup2\n      mstore\n      pop\n      swap1\n      pop\n      jump(tag_36)\n        /* \"solidity/JoKenPo.sol\":1468:1639  if(compare(choicePlayer1, \"scissor\") && compare(getRandomChoice(), \"rock\")) {... */\n    tag_69:\n        /* \"solidity/JoKenPo.sol\":1608:1627  return \"Player WIN\" */\n      mload(0x40)\n      dup1\n      0x40\n      add\n      0x40\n      mstore\n      dup1\n      0x0a\n      dup2\n      mstore\n      0x20\n      add\n      0x506c617965722057494e00000000000000000000000000000000000000000000\n      dup2\n      mstore\n      pop\n      swap1\n      pop\n        /* \"solidity/JoKenPo.sol\":1156:1646  function play() view public returns(string memory)  {... */\n    tag_36:\n      swap1\n      jump\t// out\n        /* \"solidity/JoKenPo.sol\":469:712  function choose(string memory newChoice) public {... */\n    tag_20:\n        /* \"solidity/JoKenPo.sol\":536:562  compare(newChoice, \"rock\") */\n      tag_72\n        /* \"solidity/JoKenPo.sol\":544:553  newChoice */\n      dup2\n        /* \"solidity/JoKenPo.sol\":536:562  compare(newChoice, \"rock\") */\n      mload(0x40)\n      dup1\n      0x40\n      add\n      0x40\n      mstore\n      dup1\n      0x04\n      dup2\n      mstore\n      0x20\n      add\n      0x726f636b00000000000000000000000000000000000000000000000000000000\n      dup2\n      mstore\n      pop\n        /* \"solidity/JoKenPo.sol\":536:543  compare */\n      tag_43\n        /* \"solidity/JoKenPo.sol\":536:562  compare(newChoice, \"rock\") */\n      jump\t// in\n    tag_72:\n        /* \"solidity/JoKenPo.sol\":536:593  compare(newChoice, \"rock\") || compare(newChoice, \"paper\") */\n      dup1\n      tag_73\n      jumpi\n      pop\n        /* \"solidity/JoKenPo.sol\":566:593  compare(newChoice, \"paper\") */\n      tag_74\n        /* \"solidity/JoKenPo.sol\":574:583  newChoice */\n      dup2\n        /* \"solidity/JoKenPo.sol\":566:593  compare(newChoice, \"paper\") */\n      mload(0x40)\n      dup1\n      0x40\n      add\n      0x40\n      mstore\n      dup1\n      0x05\n      dup2\n      mstore\n      0x20\n      add\n      0x7061706572000000000000000000000000000000000000000000000000000000\n      dup2\n      mstore\n      pop\n        /* \"solidity/JoKenPo.sol\":566:573  compare */\n      tag_43\n        /* \"solidity/JoKenPo.sol\":566:593  compare(newChoice, \"paper\") */\n      jump\t// in\n    tag_74:\n        /* \"solidity/JoKenPo.sol\":536:593  compare(newChoice, \"rock\") || compare(newChoice, \"paper\") */\n    tag_73:\n        /* \"solidity/JoKenPo.sol\":536:626  compare(newChoice, \"rock\") || compare(newChoice, \"paper\") || compare(newChoice, \"scissor\") */\n      dup1\n      tag_75\n      jumpi\n      pop\n        /* \"solidity/JoKenPo.sol\":597:626  compare(newChoice, \"scissor\") */\n      tag_76\n        /* \"solidity/JoKenPo.sol\":605:614  newChoice */\n      dup2\n        /* \"solidity/JoKenPo.sol\":597:626  compare(newChoice, \"scissor\") */\n      mload(0x40)\n      dup1\n      0x40\n      add\n      0x40\n      mstore\n      dup1\n      0x07\n      dup2\n      mstore\n      0x20\n      add\n      0x73636973736f7200000000000000000000000000000000000000000000000000\n      dup2\n      mstore\n      pop\n        /* \"solidity/JoKenPo.sol\":597:604  compare */\n      tag_43\n        /* \"solidity/JoKenPo.sol\":597:626  compare(newChoice, \"scissor\") */\n      jump\t// in\n    tag_76:\n        /* \"solidity/JoKenPo.sol\":536:626  compare(newChoice, \"rock\") || compare(newChoice, \"paper\") || compare(newChoice, \"scissor\") */\n    tag_75:\n        /* \"solidity/JoKenPo.sol\":528:668  require(compare(newChoice, \"rock\") || compare(newChoice, \"paper\") || compare(newChoice, \"scissor\"), \"You must choose rock, paper or scisor\") */\n      tag_77\n      jumpi\n      mload(0x40)\n      0x08c379a000000000000000000000000000000000000000000000000000000000\n      dup2\n      mstore\n      0x04\n      add\n      tag_78\n      swap1\n      tag_79\n      jump\t// in\n    tag_78:\n      mload(0x40)\n      dup1\n      swap2\n      sub\n      swap1\n      revert\n    tag_77:\n        /* \"solidity/JoKenPo.sol\":695:704  newChoice */\n      dup1\n        /* \"solidity/JoKenPo.sol\":679:692  choicePlayer1 */\n      0x00\n        /* \"solidity/JoKenPo.sol\":679:704  choicePlayer1 = newChoice */\n      swap1\n      dup2\n      tag_80\n      swap2\n      swap1\n      tag_81\n      jump\t// in\n    tag_80:\n      pop\n        /* \"solidity/JoKenPo.sol\":469:712  function choose(string memory newChoice) public {... */\n      pop\n      jump\t// out\n        /* \"solidity/JoKenPo.sol\":195:461  function compare(string memory str1, string memory str2) private pure returns (bool){... */\n    tag_43:\n        /* \"solidity/JoKenPo.sol\":274:278  bool */\n      0x00\n        /* \"solidity/JoKenPo.sol\":294:311  bytes memory arrA */\n      dup1\n        /* \"solidity/JoKenPo.sol\":320:324  str1 */\n      dup4\n        /* \"solidity/JoKenPo.sol\":294:325  bytes memory arrA = bytes(str1) */\n      swap1\n      pop\n        /* \"solidity/JoKenPo.sol\":340:357  bytes memory arrB */\n      0x00\n        /* \"solidity/JoKenPo.sol\":366:370  str2 */\n      dup4\n        /* \"solidity/JoKenPo.sol\":340:371  bytes memory arrB = bytes(str2) */\n      swap1\n      pop\n        /* \"solidity/JoKenPo.sol\":404:408  arrB */\n      dup1\n        /* \"solidity/JoKenPo.sol\":404:415  arrB.length */\n      mload\n        /* \"solidity/JoKenPo.sol\":389:393  arrA */\n      dup3\n        /* \"solidity/JoKenPo.sol\":389:400  arrA.length */\n      mload\n        /* \"solidity/JoKenPo.sol\":389:415  arrA.length == arrB.length */\n      eq\n        /* \"solidity/JoKenPo.sol\":389:453  arrA.length == arrB.length && keccak256(arrA) == keccak256(arrB) */\n      dup1\n      iszero\n      tag_83\n      jumpi\n      pop\n        /* \"solidity/JoKenPo.sol\":448:452  arrB */\n      dup1\n        /* \"solidity/JoKenPo.sol\":438:453  keccak256(arrB) */\n      dup1\n      mload\n      swap1\n      0x20\n      add\n      keccak256\n        /* \"solidity/JoKenPo.sol\":429:433  arrA */\n      dup3\n        /* \"solidity/JoKenPo.sol\":419:434  keccak256(arrA) */\n      dup1\n      mload\n      swap1\n      0x20\n      add\n      keccak256\n        /* \"solidity/JoKenPo.sol\":419:453  keccak256(arrA) == keccak256(arrB) */\n      eq\n        /* \"solidity/JoKenPo.sol\":389:453  arrA.length == arrB.length && keccak256(arrA) == keccak256(arrB) */\n    tag_83:\n        /* \"solidity/JoKenPo.sol\":382:453  return arrA.length == arrB.length && keccak256(arrA) == keccak256(arrB) */\n      swap3\n      pop\n      pop\n      pop\n        /* \"solidity/JoKenPo.sol\":195:461  function compare(string memory str1, string memory str2) private pure returns (bool){... */\n      swap3\n      swap2\n      pop\n      pop\n      jump\t// out\n        /* \"#utility.yul\":7:106   */\n    tag_84:\n        /* \"#utility.yul\":59:65   */\n      0x00\n        /* \"#utility.yul\":93:98   */\n      dup2\n        /* \"#utility.yul\":87:99   */\n      mload\n        /* \"#utility.yul\":77:99   */\n      swap1\n      pop\n        /* \"#utility.yul\":7:106   */\n      swap2\n      swap1\n      pop\n      jump\t// out\n        /* \"#utility.yul\":112:281   */\n    tag_85:\n        /* \"#utility.yul\":196:207   */\n      0x00\n        /* \"#utility.yul\":230:236   */\n      dup3\n        /* \"#utility.yul\":225:228   */\n      dup3\n        /* \"#utility.yul\":218:237   */\n      mstore\n        /* \"#utility.yul\":270:274   */\n      0x20\n        /* \"#utility.yul\":265:268   */\n      dup3\n        /* \"#utility.yul\":261:275   */\n      add\n        /* \"#utility.yul\":246:275   */\n      swap1\n      pop\n        /* \"#utility.yul\":112:281   */\n      swap3\n      swap2\n      pop\n      pop\n      jump\t// out\n        /* \"#utility.yul\":287:426   */\n    tag_86:\n        /* \"#utility.yul\":376:382   */\n      dup3\n        /* \"#utility.yul\":371:374   */\n      dup2\n        /* \"#utility.yul\":366:369   */\n      dup4\n        /* \"#utility.yul\":360:383   */\n      mcopy\n        /* \"#utility.yul\":417:418   */\n      0x00\n        /* \"#utility.yul\":408:414   */\n      dup4\n        /* \"#utility.yul\":403:406   */\n      dup4\n        /* \"#utility.yul\":399:415   */\n      add\n        /* \"#utility.yul\":392:419   */\n      mstore\n        /* \"#utility.yul\":287:426   */\n      pop\n      pop\n      pop\n      jump\t// out\n        /* \"#utility.yul\":432:534   */\n    tag_87:\n        /* \"#utility.yul\":473:479   */\n      0x00\n        /* \"#utility.yul\":524:526   */\n      0x1f\n        /* \"#utility.yul\":520:527   */\n      not\n        /* \"#utility.yul\":515:517   */\n      0x1f\n        /* \"#utility.yul\":508:513   */\n      dup4\n        /* \"#utility.yul\":504:518   */\n      add\n        /* \"#utility.yul\":500:528   */\n      and\n        /* \"#utility.yul\":490:528   */\n      swap1\n      pop\n        /* \"#utility.yul\":432:534   */\n      swap2\n      swap1\n      pop\n      jump\t// out\n        /* \"#utility.yul\":540:917   */\n    tag_88:\n        /* \"#utility.yul\":628:631   */\n      0x00\n        /* \"#utility.yul\":656:695   */\n      tag_129\n        /* \"#utility.yul\":689:694   */\n      dup3\n        /* \"#utility.yul\":656:695   */\n      tag_84\n      jump\t// in\n    tag_129:\n        /* \"#utility.yul\":711:782   */\n      tag_130\n        /* \"#utility.yul\":775:781   */\n      dup2\n        /* \"#utility.yul\":770:773   */\n      dup6\n        /* \"#utility.yul\":711:782   */\n      tag_85\n      jump\t// in\n    tag_130:\n        /* \"#utility.yul\":704:782   */\n      swap4\n      pop\n        /* \"#utility.yul\":791:856   */\n      tag_131\n        /* \"#utility.yul\":849:855   */\n      dup2\n        /* \"#utility.yul\":844:847   */\n      dup6\n        /* \"#utility.yul\":837:841   */\n      0x20\n        /* \"#utility.yul\":830:835   */\n      dup7\n        /* \"#utility.yul\":826:842   */\n      add\n        /* \"#utility.yul\":791:856   */\n      tag_86\n      jump\t// in\n    tag_131:\n        /* \"#utility.yul\":881:910   */\n      tag_132\n        /* \"#utility.yul\":903:909   */\n      dup2\n        /* \"#utility.yul\":881:910   */\n      tag_87\n      jump\t// in\n    tag_132:\n        /* \"#utility.yul\":876:879   */\n      dup5\n        /* \"#utility.yul\":872:911   */\n      add\n        /* \"#utility.yul\":865:911   */\n      swap2\n      pop\n        /* \"#utility.yul\":632:917   */\n      pop\n        /* \"#utility.yul\":540:917   */\n      swap3\n      swap2\n      pop\n      pop\n      jump\t// out\n        /* \"#utility.yul\":923:1236   */\n    tag_10:\n        /* \"#utility.yul\":1036:1040   */\n      0x00\n        /* \"#utility.yul\":1074:1076   */\n      0x20\n        /* \"#utility.yul\":1063:1072   */\n      dup3\n        /* \"#utility.yul\":1059:1077   */\n      add\n        /* \"#utility.yul\":1051:1077   */\n      swap1\n      pop\n        /* \"#utility.yul\":1123:1132   */\n      dup2\n        /* \"#utility.yul\":1117:1121   */\n      dup2\n        /* \"#utility.yul\":1113:1133   */\n      sub\n        /* \"#utility.yul\":1109:1110   */\n      0x00\n        /* \"#utility.yul\":1098:1107   */\n      dup4\n        /* \"#utility.yul\":1094:1111   */\n      add\n        /* \"#utility.yul\":1087:1134   */\n      mstore\n        /* \"#utility.yul\":1151:1229   */\n      tag_134\n        /* \"#utility.yul\":1224:1228   */\n      dup2\n        /* \"#utility.yul\":1215:1221   */\n      dup5\n        /* \"#utility.yul\":1151:1229   */\n      tag_88\n      jump\t// in\n    tag_134:\n        /* \"#utility.yul\":1143:1229   */\n      swap1\n      pop\n        /* \"#utility.yul\":923:1236   */\n      swap3\n      swap2\n      pop\n      pop\n      jump\t// out\n        /* \"#utility.yul\":1242:1317   */\n    tag_89:\n        /* \"#utility.yul\":1275:1281   */\n      0x00\n        /* \"#utility.yul\":1308:1310   */\n      0x40\n        /* \"#utility.yul\":1302:1311   */\n      mload\n        /* \"#utility.yul\":1292:1311   */\n      swap1\n      pop\n        /* \"#utility.yul\":1242:1317   */\n      swap1\n      jump\t// out\n        /* \"#utility.yul\":1323:1440   */\n    tag_90:\n        /* \"#utility.yul\":1432:1433   */\n      0x00\n        /* \"#utility.yul\":1429:1430   */\n      dup1\n        /* \"#utility.yul\":1422:1434   */\n      revert\n        /* \"#utility.yul\":1446:1563   */\n    tag_91:\n        /* \"#utility.yul\":1555:1556   */\n      0x00\n        /* \"#utility.yul\":1552:1553   */\n      dup1\n        /* \"#utility.yul\":1545:1557   */\n      revert\n        /* \"#utility.yul\":1569:1686   */\n    tag_92:\n        /* \"#utility.yul\":1678:1679   */\n      0x00\n        /* \"#utility.yul\":1675:1676   */\n      dup1\n        /* \"#utility.yul\":1668:1680   */\n      revert\n        /* \"#utility.yul\":1692:1809   */\n    tag_93:\n        /* \"#utility.yul\":1801:1802   */\n      0x00\n        /* \"#utility.yul\":1798:1799   */\n      dup1\n        /* \"#utility.yul\":1791:1803   */\n      revert\n        /* \"#utility.yul\":1815:1995   */\n    tag_94:\n        /* \"#utility.yul\":1863:1940   */\n      0x4e487b7100000000000000000000000000000000000000000000000000000000\n        /* \"#utility.yul\":1860:1861   */\n      0x00\n        /* \"#utility.yul\":1853:1941   */\n      mstore\n        /* \"#utility.yul\":1960:1964   */\n      0x41\n        /* \"#utility.yul\":1957:1958   */\n      0x04\n        /* \"#utility.yul\":1950:1965   */\n      mstore\n        /* \"#utility.yul\":1984:1988   */\n      0x24\n        /* \"#utility.yul\":1981:1982   */\n      0x00\n        /* \"#utility.yul\":1974:1989   */\n      revert\n        /* \"#utility.yul\":2001:2282   */\n    tag_95:\n        /* \"#utility.yul\":2084:2111   */\n      tag_142\n        /* \"#utility.yul\":2106:2110   */\n      dup3\n        /* \"#utility.yul\":2084:2111   */\n      tag_87\n      jump\t// in\n    tag_142:\n        /* \"#utility.yul\":2076:2082   */\n      dup2\n        /* \"#utility.yul\":2072:2112   */\n      add\n        /* \"#utility.yul\":2214:2220   */\n      dup2\n        /* \"#utility.yul\":2202:2212   */\n      dup2\n        /* \"#utility.yul\":2199:2221   */\n      lt\n        /* \"#utility.yul\":2178:2196   */\n      0xffffffffffffffff\n        /* \"#utility.yul\":2166:2176   */\n      dup3\n        /* \"#utility.yul\":2163:2197   */\n      gt\n        /* \"#utility.yul\":2160:2222   */\n      or\n        /* \"#utility.yul\":2157:2245   */\n      iszero\n      tag_143\n      jumpi\n        /* \"#utility.yul\":2225:2243   */\n      tag_144\n      tag_94\n      jump\t// in\n    tag_144:\n        /* \"#utility.yul\":2157:2245   */\n    tag_143:\n        /* \"#utility.yul\":2265:2275   */\n      dup1\n        /* \"#utility.yul\":2261:2263   */\n      0x40\n        /* \"#utility.yul\":2254:2276   */\n      mstore\n        /* \"#utility.yul\":2044:2282   */\n      pop\n        /* \"#utility.yul\":2001:2282   */\n      pop\n      pop\n      jump\t// out\n        /* \"#utility.yul\":2288:2417   */\n    tag_96:\n        /* \"#utility.yul\":2322:2328   */\n      0x00\n        /* \"#utility.yul\":2349:2369   */\n      tag_146\n      tag_89\n      jump\t// in\n    tag_146:\n        /* \"#utility.yul\":2339:2369   */\n      swap1\n      pop\n        /* \"#utility.yul\":2378:2411   */\n      tag_147\n        /* \"#utility.yul\":2406:2410   */\n      dup3\n        /* \"#utility.yul\":2398:2404   */\n      dup3\n        /* \"#utility.yul\":2378:2411   */\n      tag_95\n      jump\t// in\n    tag_147:\n        /* \"#utility.yul\":2288:2417   */\n      swap2\n      swap1\n      pop\n      jump\t// out\n        /* \"#utility.yul\":2423:2731   */\n    tag_97:\n        /* \"#utility.yul\":2485:2489   */\n      0x00\n        /* \"#utility.yul\":2575:2593   */\n      0xffffffffffffffff\n        /* \"#utility.yul\":2567:2573   */\n      dup3\n        /* \"#utility.yul\":2564:2594   */\n      gt\n        /* \"#utility.yul\":2561:2617   */\n      iszero\n      tag_149\n      jumpi\n        /* \"#utility.yul\":2597:2615   */\n      tag_150\n      tag_94\n      jump\t// in\n    tag_150:\n        /* \"#utility.yul\":2561:2617   */\n    tag_149:\n        /* \"#utility.yul\":2635:2664   */\n      tag_151\n        /* \"#utility.yul\":2657:2663   */\n      dup3\n        /* \"#utility.yul\":2635:2664   */\n      tag_87\n      jump\t// in\n    tag_151:\n        /* \"#utility.yul\":2627:2664   */\n      swap1\n      pop\n        /* \"#utility.yul\":2719:2723   */\n      0x20\n        /* \"#utility.yul\":2713:2717   */\n      dup2\n        /* \"#utility.yul\":2709:2724   */\n      add\n        /* \"#utility.yul\":2701:2724   */\n      swap1\n      pop\n        /* \"#utility.yul\":2423:2731   */\n      swap2\n      swap1\n      pop\n      jump\t// out\n        /* \"#utility.yul\":2737:2885   */\n    tag_98:\n        /* \"#utility.yul\":2835:2841   */\n      dup3\n        /* \"#utility.yul\":2830:2833   */\n      dup2\n        /* \"#utility.yul\":2825:2828   */\n      dup4\n        /* \"#utility.yul\":2812:2842   */\n      calldatacopy\n        /* \"#utility.yul\":2876:2877   */\n      0x00\n        /* \"#utility.yul\":2867:2873   */\n      dup4\n        /* \"#utility.yul\":2862:2865   */\n      dup4\n        /* \"#utility.yul\":2858:2874   */\n      add\n        /* \"#utility.yul\":2851:2878   */\n      mstore\n        /* \"#utility.yul\":2737:2885   */\n      pop\n      pop\n      pop\n      jump\t// out\n        /* \"#utility.yul\":2891:3316   */\n    tag_99:\n        /* \"#utility.yul\":2969:2974   */\n      0x00\n        /* \"#utility.yul\":2994:3060   */\n      tag_154\n        /* \"#utility.yul\":3010:3059   */\n      tag_155\n        /* \"#utility.yul\":3052:3058   */\n      dup5\n        /* \"#utility.yul\":3010:3059   */\n      tag_97\n      jump\t// in\n    tag_155:\n        /* \"#utility.yul\":2994:3060   */\n      tag_96\n      jump\t// in\n    tag_154:\n        /* \"#utility.yul\":2985:3060   */\n      swap1\n      pop\n        /* \"#utility.yul\":3083:3089   */\n      dup3\n        /* \"#utility.yul\":3076:3081   */\n      dup2\n        /* \"#utility.yul\":3069:3090   */\n      mstore\n        /* \"#utility.yul\":3121:3125   */\n      0x20\n        /* \"#utility.yul\":3114:3119   */\n      dup2\n        /* \"#utility.yul\":3110:3126   */\n      add\n        /* \"#utility.yul\":3159:3162   */\n      dup5\n        /* \"#utility.yul\":3150:3156   */\n      dup5\n        /* \"#utility.yul\":3145:3148   */\n      dup5\n        /* \"#utility.yul\":3141:3157   */\n      add\n        /* \"#utility.yul\":3138:3163   */\n      gt\n        /* \"#utility.yul\":3135:3247   */\n      iszero\n      tag_156\n      jumpi\n        /* \"#utility.yul\":3166:3245   */\n      tag_157\n      tag_93\n      jump\t// in\n    tag_157:\n        /* \"#utility.yul\":3135:3247   */\n    tag_156:\n        /* \"#utility.yul\":3256:3310   */\n      tag_158\n        /* \"#utility.yul\":3303:3309   */\n      dup5\n        /* \"#utility.yul\":3298:3301   */\n      dup3\n        /* \"#utility.yul\":3293:3296   */\n      dup6\n        /* \"#utility.yul\":3256:3310   */\n      tag_98\n      jump\t// in\n    tag_158:\n        /* \"#utility.yul\":2975:3316   */\n      pop\n        /* \"#utility.yul\":2891:3316   */\n      swap4\n      swap3\n      pop\n      pop\n      pop\n      jump\t// out\n        /* \"#utility.yul\":3336:3676   */\n    tag_100:\n        /* \"#utility.yul\":3392:3397   */\n      0x00\n        /* \"#utility.yul\":3441:3444   */\n      dup3\n        /* \"#utility.yul\":3434:3438   */\n      0x1f\n        /* \"#utility.yul\":3426:3432   */\n      dup4\n        /* \"#utility.yul\":3422:3439   */\n      add\n        /* \"#utility.yul\":3418:3445   */\n      slt\n        /* \"#utility.yul\":3408:3530   */\n      tag_160\n      jumpi\n        /* \"#utility.yul\":3449:3528   */\n      tag_161\n      tag_92\n      jump\t// in\n    tag_161:\n        /* \"#utility.yul\":3408:3530   */\n    tag_160:\n        /* \"#utility.yul\":3566:3572   */\n      dup2\n        /* \"#utility.yul\":3553:3573   */\n      calldataload\n        /* \"#utility.yul\":3591:3670   */\n      tag_162\n        /* \"#utility.yul\":3666:3669   */\n      dup5\n        /* \"#utility.yul\":3658:3664   */\n      dup3\n        /* \"#utility.yul\":3651:3655   */\n      0x20\n        /* \"#utility.yul\":3643:3649   */\n      dup7\n        /* \"#utility.yul\":3639:3656   */\n      add\n        /* \"#utility.yul\":3591:3670   */\n      tag_99\n      jump\t// in\n    tag_162:\n        /* \"#utility.yul\":3582:3670   */\n      swap2\n      pop\n        /* \"#utility.yul\":3398:3676   */\n      pop\n        /* \"#utility.yul\":3336:3676   */\n      swap3\n      swap2\n      pop\n      pop\n      jump\t// out\n        /* \"#utility.yul\":3682:4191   */\n    tag_19:\n        /* \"#utility.yul\":3751:3757   */\n      0x00\n        /* \"#utility.yul\":3800:3802   */\n      0x20\n        /* \"#utility.yul\":3788:3797   */\n      dup3\n        /* \"#utility.yul\":3779:3786   */\n      dup5\n        /* \"#utility.yul\":3775:3798   */\n      sub\n        /* \"#utility.yul\":3771:3803   */\n      slt\n        /* \"#utility.yul\":3768:3887   */\n      iszero\n      tag_164\n      jumpi\n        /* \"#utility.yul\":3806:3885   */\n      tag_165\n      tag_90\n      jump\t// in\n    tag_165:\n        /* \"#utility.yul\":3768:3887   */\n    tag_164:\n        /* \"#utility.yul\":3954:3955   */\n      0x00\n        /* \"#utility.yul\":3943:3952   */\n      dup3\n        /* \"#utility.yul\":3939:3956   */\n      add\n        /* \"#utility.yul\":3926:3957   */\n      calldataload\n        /* \"#utility.yul\":3984:4002   */\n      0xffffffffffffffff\n        /* \"#utility.yul\":3976:3982   */\n      dup2\n        /* \"#utility.yul\":3973:4003   */\n      gt\n        /* \"#utility.yul\":3970:4087   */\n      iszero\n      tag_166\n      jumpi\n        /* \"#utility.yul\":4006:4085   */\n      tag_167\n      tag_91\n      jump\t// in\n    tag_167:\n        /* \"#utility.yul\":3970:4087   */\n    tag_166:\n        /* \"#utility.yul\":4111:4174   */\n      tag_168\n        /* \"#utility.yul\":4166:4173   */\n      dup5\n        /* \"#utility.yul\":4157:4163   */\n      dup3\n        /* \"#utility.yul\":4146:4155   */\n      dup6\n        /* \"#utility.yul\":4142:4164   */\n      add\n        /* \"#utility.yul\":4111:4174   */\n      tag_100\n      jump\t// in\n    tag_168:\n        /* \"#utility.yul\":4101:4174   */\n      swap2\n      pop\n        /* \"#utility.yul\":3897:4184   */\n      pop\n        /* \"#utility.yul\":3682:4191   */\n      swap3\n      swap2\n      pop\n      pop\n      jump\t// out\n        /* \"#utility.yul\":4197:4274   */\n    tag_101:\n        /* \"#utility.yul\":4234:4241   */\n      0x00\n        /* \"#utility.yul\":4263:4268   */\n      dup2\n        /* \"#utility.yul\":4252:4268   */\n      swap1\n      pop\n        /* \"#utility.yul\":4197:4274   */\n      swap2\n      swap1\n      pop\n      jump\t// out\n        /* \"#utility.yul\":4280:4359   */\n    tag_102:\n        /* \"#utility.yul\":4319:4326   */\n      0x00\n        /* \"#utility.yul\":4348:4353   */\n      dup2\n        /* \"#utility.yul\":4337:4353   */\n      swap1\n      pop\n        /* \"#utility.yul\":4280:4359   */\n      swap2\n      swap1\n      pop\n      jump\t// out\n        /* \"#utility.yul\":4365:4522   */\n    tag_103:\n        /* \"#utility.yul\":4470:4515   */\n      tag_172\n        /* \"#utility.yul\":4490:4514   */\n      tag_173\n        /* \"#utility.yul\":4508:4513   */\n      dup3\n        /* \"#utility.yul\":4490:4514   */\n      tag_101\n      jump\t// in\n    tag_173:\n        /* \"#utility.yul\":4470:4515   */\n      tag_102\n      jump\t// in\n    tag_172:\n        /* \"#utility.yul\":4465:4468   */\n      dup3\n        /* \"#utility.yul\":4458:4516   */\n      mstore\n        /* \"#utility.yul\":4365:4522   */\n      pop\n      pop\n      jump\t// out\n        /* \"#utility.yul\":4528:5066   */\n    tag_23:\n        /* \"#utility.yul\":4696:4699   */\n      0x00\n        /* \"#utility.yul\":4711:4786   */\n      tag_175\n        /* \"#utility.yul\":4782:4785   */\n      dup3\n        /* \"#utility.yul\":4773:4779   */\n      dup7\n        /* \"#utility.yul\":4711:4786   */\n      tag_103\n      jump\t// in\n    tag_175:\n        /* \"#utility.yul\":4811:4813   */\n      0x20\n        /* \"#utility.yul\":4806:4809   */\n      dup3\n        /* \"#utility.yul\":4802:4814   */\n      add\n        /* \"#utility.yul\":4795:4814   */\n      swap2\n      pop\n        /* \"#utility.yul\":4824:4899   */\n      tag_176\n        /* \"#utility.yul\":4895:4898   */\n      dup3\n        /* \"#utility.yul\":4886:4892   */\n      dup6\n        /* \"#utility.yul\":4824:4899   */\n      tag_103\n      jump\t// in\n    tag_176:\n        /* \"#utility.yul\":4924:4926   */\n      0x20\n        /* \"#utility.yul\":4919:4922   */\n      dup3\n        /* \"#utility.yul\":4915:4927   */\n      add\n        /* \"#utility.yul\":4908:4927   */\n      swap2\n      pop\n        /* \"#utility.yul\":4937:5012   */\n      tag_177\n        /* \"#utility.yul\":5008:5011   */\n      dup3\n        /* \"#utility.yul\":4999:5005   */\n      dup5\n        /* \"#utility.yul\":4937:5012   */\n      tag_103\n      jump\t// in\n    tag_177:\n        /* \"#utility.yul\":5037:5039   */\n      0x20\n        /* \"#utility.yul\":5032:5035   */\n      dup3\n        /* \"#utility.yul\":5028:5040   */\n      add\n        /* \"#utility.yul\":5021:5040   */\n      swap2\n      pop\n        /* \"#utility.yul\":5057:5060   */\n      dup2\n        /* \"#utility.yul\":5050:5060   */\n      swap1\n      pop\n        /* \"#utility.yul\":4528:5066   */\n      swap5\n      swap4\n      pop\n      pop\n      pop\n      pop\n      jump\t// out\n        /* \"#utility.yul\":5072:5252   */\n    tag_104:\n        /* \"#utility.yul\":5120:5197   */\n      0x4e487b7100000000000000000000000000000000000000000000000000000000\n        /* \"#utility.yul\":5117:5118   */\n      0x00\n        /* \"#utility.yul\":5110:5198   */\n      mstore\n        /* \"#utility.yul\":5217:5221   */\n      0x12\n        /* \"#utility.yul\":5214:5215   */\n      0x04\n        /* \"#utility.yul\":5207:5222   */\n      mstore\n        /* \"#utility.yul\":5241:5245   */\n      0x24\n        /* \"#utility.yul\":5238:5239   */\n      0x00\n        /* \"#utility.yul\":5231:5246   */\n      revert\n        /* \"#utility.yul\":5258:5434   */\n    tag_25:\n        /* \"#utility.yul\":5290:5291   */\n      0x00\n        /* \"#utility.yul\":5307:5327   */\n      tag_180\n        /* \"#utility.yul\":5325:5326   */\n      dup3\n        /* \"#utility.yul\":5307:5327   */\n      tag_101\n      jump\t// in\n    tag_180:\n        /* \"#utility.yul\":5302:5327   */\n      swap2\n      pop\n        /* \"#utility.yul\":5341:5361   */\n      tag_181\n        /* \"#utility.yul\":5359:5360   */\n      dup4\n        /* \"#utility.yul\":5341:5361   */\n      tag_101\n      jump\t// in\n    tag_181:\n        /* \"#utility.yul\":5336:5361   */\n      swap3\n      pop\n        /* \"#utility.yul\":5380:5381   */\n      dup3\n        /* \"#utility.yul\":5370:5405   */\n      tag_182\n      jumpi\n        /* \"#utility.yul\":5385:5403   */\n      tag_183\n      tag_104\n      jump\t// in\n    tag_183:\n        /* \"#utility.yul\":5370:5405   */\n    tag_182:\n        /* \"#utility.yul\":5426:5427   */\n      dup3\n        /* \"#utility.yul\":5423:5424   */\n      dup3\n        /* \"#utility.yul\":5419:5428   */\n      mod\n        /* \"#utility.yul\":5414:5428   */\n      swap1\n      pop\n        /* \"#utility.yul\":5258:5434   */\n      swap3\n      swap2\n      pop\n      pop\n      jump\t// out\n        /* \"#utility.yul\":5440:5620   */\n    tag_105:\n        /* \"#utility.yul\":5488:5565   */\n      0x4e487b7100000000000000000000000000000000000000000000000000000000\n        /* \"#utility.yul\":5485:5486   */\n      0x00\n        /* \"#utility.yul\":5478:5566   */\n      mstore\n        /* \"#utility.yul\":5585:5589   */\n      0x22\n        /* \"#utility.yul\":5582:5583   */\n      0x04\n        /* \"#utility.yul\":5575:5590   */\n      mstore\n        /* \"#utility.yul\":5609:5613   */\n      0x24\n        /* \"#utility.yul\":5606:5607   */\n      0x00\n        /* \"#utility.yul\":5599:5614   */\n      revert\n        /* \"#utility.yul\":5626:5946   */\n    tag_31:\n        /* \"#utility.yul\":5670:5676   */\n      0x00\n        /* \"#utility.yul\":5707:5708   */\n      0x02\n        /* \"#utility.yul\":5701:5705   */\n      dup3\n        /* \"#utility.yul\":5697:5709   */\n      div\n        /* \"#utility.yul\":5687:5709   */\n      swap1\n      pop\n        /* \"#utility.yul\":5754:5755   */\n      0x01\n        /* \"#utility.yul\":5748:5752   */\n      dup3\n        /* \"#utility.yul\":5744:5756   */\n      and\n        /* \"#utility.yul\":5775:5793   */\n      dup1\n        /* \"#utility.yul\":5765:5846   */\n      tag_186\n      jumpi\n        /* \"#utility.yul\":5831:5835   */\n      0x7f\n        /* \"#utility.yul\":5823:5829   */\n      dup3\n        /* \"#utility.yul\":5819:5836   */\n      and\n        /* \"#utility.yul\":5809:5836   */\n      swap2\n      pop\n        /* \"#utility.yul\":5765:5846   */\n    tag_186:\n        /* \"#utility.yul\":5893:5895   */\n      0x20\n        /* \"#utility.yul\":5885:5891   */\n      dup3\n        /* \"#utility.yul\":5882:5896   */\n      lt\n        /* \"#utility.yul\":5862:5880   */\n      dup2\n        /* \"#utility.yul\":5859:5897   */\n      sub\n        /* \"#utility.yul\":5856:5940   */\n      tag_187\n      jumpi\n        /* \"#utility.yul\":5912:5930   */\n      tag_188\n      tag_105\n      jump\t// in\n    tag_188:\n        /* \"#utility.yul\":5856:5940   */\n    tag_187:\n        /* \"#utility.yul\":5677:5946   */\n      pop\n        /* \"#utility.yul\":5626:5946   */\n      swap2\n      swap1\n      pop\n      jump\t// out\n        /* \"#utility.yul\":5952:6176   */\n    tag_106:\n        /* \"#utility.yul\":6092:6126   */\n      0x596f75206d7573742063686f6f736520726f636b2c207061706572206f722073\n        /* \"#utility.yul\":6088:6089   */\n      0x00\n        /* \"#utility.yul\":6080:6086   */\n      dup3\n        /* \"#utility.yul\":6076:6090   */\n      add\n        /* \"#utility.yul\":6069:6127   */\n      mstore\n        /* \"#utility.yul\":6161:6168   */\n      0x6369736f72000000000000000000000000000000000000000000000000000000\n        /* \"#utility.yul\":6156:6158   */\n      0x20\n        /* \"#utility.yul\":6148:6154   */\n      dup3\n        /* \"#utility.yul\":6144:6159   */\n      add\n        /* \"#utility.yul\":6137:6169   */\n      mstore\n        /* \"#utility.yul\":5952:6176   */\n      pop\n      jump\t// out\n        /* \"#utility.yul\":6182:6548   */\n    tag_107:\n        /* \"#utility.yul\":6324:6327   */\n      0x00\n        /* \"#utility.yul\":6345:6412   */\n      tag_191\n        /* \"#utility.yul\":6409:6411   */\n      0x25\n        /* \"#utility.yul\":6404:6407   */\n      dup4\n        /* \"#utility.yul\":6345:6412   */\n      tag_85\n      jump\t// in\n    tag_191:\n        /* \"#utility.yul\":6338:6412   */\n      swap2\n      pop\n        /* \"#utility.yul\":6421:6514   */\n      tag_192\n        /* \"#utility.yul\":6510:6513   */\n      dup3\n        /* \"#utility.yul\":6421:6514   */\n      tag_106\n      jump\t// in\n    tag_192:\n        /* \"#utility.yul\":6539:6541   */\n      0x40\n        /* \"#utility.yul\":6534:6537   */\n      dup3\n        /* \"#utility.yul\":6530:6542   */\n      add\n        /* \"#utility.yul\":6523:6542   */\n      swap1\n      pop\n        /* \"#utility.yul\":6182:6548   */\n      swap2\n      swap1\n      pop\n      jump\t// out\n        /* \"#utility.yul\":6554:6973   */\n    tag_79:\n        /* \"#utility.yul\":6720:6724   */\n      0x00\n        /* \"#utility.yul\":6758:6760   */\n      0x20\n        /* \"#utility.yul\":6747:6756   */\n      dup3\n        /* \"#utility.yul\":6743:6761   */\n      add\n        /* \"#utility.yul\":6735:6761   */\n      swap1\n      pop\n        /* \"#utility.yul\":6807:6816   */\n      dup2\n        /* \"#utility.yul\":6801:6805   */\n      dup2\n        /* \"#utility.yul\":6797:6817   */\n      sub\n        /* \"#utility.yul\":6793:6794   */\n      0x00\n        /* \"#utility.yul\":6782:6791   */\n      dup4\n        /* \"#utility.yul\":6778:6795   */\n      add\n        /* \"#utility.yul\":6771:6818   */\n      mstore\n        /* \"#utility.yul\":6835:6966   */\n      tag_194\n        /* \"#utility.yul\":6961:6965   */\n      dup2\n        /* \"#utility.yul\":6835:6966   */\n      tag_107\n      jump\t// in\n    tag_194:\n        /* \"#utility.yul\":6827:6966   */\n      swap1\n      pop\n        /* \"#utility.yul\":6554:6973   */\n      swap2\n      swap1\n      pop\n      jump\t// out\n        /* \"#utility.yul\":6979:7120   */\n    tag_108:\n        /* \"#utility.yul\":7028:7032   */\n      0x00\n        /* \"#utility.yul\":7051:7054   */\n      dup2\n        /* \"#utility.yul\":7043:7054   */\n      swap1\n      pop\n        /* \"#utility.yul\":7074:7077   */\n      dup2\n        /* \"#utility.yul\":7071:7072   */\n      0x00\n        /* \"#utility.yul\":7064:7078   */\n      mstore\n        /* \"#utility.yul\":7108:7112   */\n      0x20\n        /* \"#utility.yul\":7105:7106   */\n      0x00\n        /* \"#utility.yul\":7095:7113   */\n      keccak256\n        /* \"#utility.yul\":7087:7113   */\n      swap1\n      pop\n        /* \"#utility.yul\":6979:7120   */\n      swap2\n      swap1\n      pop\n      jump\t// out\n        /* \"#utility.yul\":7126:7219   */\n    tag_109:\n        /* \"#utility.yul\":7163:7169   */\n      0x00\n        /* \"#utility.yul\":7210:7212   */\n      0x20\n        /* \"#utility.yul\":7205:7207   */\n      0x1f\n        /* \"#utility.yul\":7198:7203   */\n      dup4\n        /* \"#utility.yul\":7194:7208   */\n      add\n        /* \"#utility.yul\":7190:7213   */\n      div\n        /* \"#utility.yul\":7180:7213   */\n      swap1\n      pop\n        /* \"#utility.yul\":7126:7219   */\n      swap2\n      swap1\n      pop\n      jump\t// out\n        /* \"#utility.yul\":7225:7332   */\n    tag_110:\n        /* \"#utility.yul\":7269:7277   */\n      0x00\n        /* \"#utility.yul\":7319:7324   */\n      dup3\n        /* \"#utility.yul\":7313:7317   */\n      dup3\n        /* \"#utility.yul\":7309:7325   */\n      shl\n        /* \"#utility.yul\":7288:7325   */\n      swap1\n      pop\n        /* \"#utility.yul\":7225:7332   */\n      swap3\n      swap2\n      pop\n      pop\n      jump\t// out\n        /* \"#utility.yul\":7338:7731   */\n    tag_111:\n        /* \"#utility.yul\":7407:7413   */\n      0x00\n        /* \"#utility.yul\":7457:7458   */\n      0x08\n        /* \"#utility.yul\":7445:7455   */\n      dup4\n        /* \"#utility.yul\":7441:7459   */\n      mul\n        /* \"#utility.yul\":7480:7577   */\n      tag_199\n        /* \"#utility.yul\":7510:7576   */\n      0xffffffffffffffffffffffffffffffffffffffffffffffffffffffffffffffff\n        /* \"#utility.yul\":7499:7508   */\n      dup3\n        /* \"#utility.yul\":7480:7577   */\n      tag_110\n      jump\t// in\n    tag_199:\n        /* \"#utility.yul\":7598:7637   */\n      tag_200\n        /* \"#utility.yul\":7628:7636   */\n      dup7\n        /* \"#utility.yul\":7617:7626   */\n      dup4\n        /* \"#utility.yul\":7598:7637   */\n      tag_110\n      jump\t// in\n    tag_200:\n        /* \"#utility.yul\":7586:7637   */\n      swap6\n      pop\n        /* \"#utility.yul\":7670:7674   */\n      dup1\n        /* \"#utility.yul\":7666:7675   */\n      not\n        /* \"#utility.yul\":7659:7664   */\n      dup5\n        /* \"#utility.yul\":7655:7676   */\n      and\n        /* \"#utility.yul\":7646:7676   */\n      swap4\n      pop\n        /* \"#utility.yul\":7719:7723   */\n      dup1\n        /* \"#utility.yul\":7709:7717   */\n      dup7\n        /* \"#utility.yul\":7705:7724   */\n      and\n        /* \"#utility.yul\":7698:7703   */\n      dup5\n        /* \"#utility.yul\":7695:7725   */\n      or\n        /* \"#utility.yul\":7685:7725   */\n      swap3\n      pop\n        /* \"#utility.yul\":7414:7731   */\n      pop\n      pop\n        /* \"#utility.yul\":7338:7731   */\n      swap4\n      swap3\n      pop\n      pop\n      pop\n      jump\t// out\n        /* \"#utility.yul\":7737:7797   */\n    tag_112:\n        /* \"#utility.yul\":7765:7768   */\n      0x00\n        /* \"#utility.yul\":7786:7791   */\n      dup2\n        /* \"#utility.yul\":7779:7791   */\n      swap1\n      pop\n        /* \"#utility.yul\":7737:7797   */\n      swap2\n      swap1\n      pop\n      jump\t// out\n        /* \"#utility.yul\":7803:7945   */\n    tag_113:\n        /* \"#utility.yul\":7853:7862   */\n      0x00\n        /* \"#utility.yul\":7886:7939   */\n      tag_203\n        /* \"#utility.yul\":7904:7938   */\n      tag_204\n        /* \"#utility.yul\":7913:7937   */\n      tag_205\n        /* \"#utility.yul\":7931:7936   */\n      dup5\n        /* \"#utility.yul\":7913:7937   */\n      tag_101\n      jump\t// in\n    tag_205:\n        /* \"#utility.yul\":7904:7938   */\n      tag_112\n      jump\t// in\n    tag_204:\n        /* \"#utility.yul\":7886:7939   */\n      tag_101\n      jump\t// in\n    tag_203:\n        /* \"#utility.yul\":7873:7939   */\n      swap1\n      pop\n        /* \"#utility.yul\":7803:7945   */\n      swap2\n      swap1\n      pop\n      jump\t// out\n        /* \"#utility.yul\":7951:8026   */\n    tag_114:\n        /* \"#utility.yul\":7994:7997   */\n      0x00\n        /* \"#utility.yul\":8015:8020   */\n      dup2\n        /* \"#utility.yul\":8008:8020   */\n      swap1\n      pop\n        /* \"#utility.yul\":7951:8026   */\n      swap2\n      swap1\n      pop\n      jump\t// out\n        /* \"#utility.yul\":8032:8301   */\n    tag_115:\n        /* \"#utility.yul\":8142:8181   */\n      tag_208\n        /* \"#utility.yul\":8173:8180   */\n      dup4\n        /* \"#utility.yul\":8142:8181   */\n      tag_113\n      jump\t// in\n    tag_208:\n        /* \"#utility.yul\":8203:8294   */\n      tag_209\n        /* \"#utility.yul\":8252:8293   */\n      tag_210\n        /* \"#utility.yul\":8276:8292   */\n      dup3\n        /* \"#utility.yul\":8252:8293   */\n      tag_114\n      jump\t// in\n    tag_210:\n        /* \"#utility.yul\":8244:8250   */\n      dup5\n        /* \"#utility.yul\":8237:8241   */\n      dup5\n        /* \"#utility.yul\":8231:8242   */\n      sload\n        /* \"#utility.yul\":8203:8294   */\n      tag_111\n      jump\t// in\n    tag_209:\n        /* \"#utility.yul\":8197:8201   */\n      dup3\n        /* \"#utility.yul\":8190:8295   */\n      sstore\n        /* \"#utility.yul\":8108:8301   */\n      pop\n        /* \"#utility.yul\":8032:8301   */\n      pop\n      pop\n      pop\n      jump\t// out\n        /* \"#utility.yul\":8307:8380   */\n    tag_116:\n        /* \"#utility.yul\":8352:8355   */\n      0x00\n        /* \"#utility.yul\":8307:8380   */\n      swap1\n      jump\t// out\n        /* \"#utility.yul\":8386:8575   */\n    tag_117:\n        /* \"#utility.yul\":8463:8495   */\n      tag_213\n      tag_116\n      jump\t// in\n    tag_213:\n        /* \"#utility.yul\":8504:8569   */\n      tag_214\n        /* \"#utility.yul\":8562:8568   */\n      dup2\n        /* \"#utility.yul\":8554:8560   */\n      dup5\n        /* \"#utility.yul\":8548:8552   */\n      dup5\n        /* \"#utility.yul\":8504:8569   */\n      tag_115\n      jump\t// in\n    tag_214:\n        /* \"#utility.yul\":8439:8575   */\n      pop\n        /* \"#utility.yul\":8386:8575   */\n      pop\n      pop\n      jump\t// out\n        /* \"#utility.yul\":8581:8767   */\n    tag_118:\n        /* \"#utility.yul\":8641:8761   */\n    tag_216:\n        /* \"#utility.yul\":8658:8661   */\n      dup2\n        /* \"#utility.yul\":8651:8656   */\n      dup2\n        /* \"#utility.yul\":8648:8662   */\n      lt\n        /* \"#utility.yul\":8641:8761   */\n      iszero\n      tag_218\n      jumpi\n        /* \"#utility.yul\":8712:8751   */\n      tag_219\n        /* \"#utility.yul\":8749:8750   */\n      0x00\n        /* \"#utility.yul\":8742:8747   */\n      dup3\n        /* \"#utility.yul\":8712:8751   */\n      tag_117\n      jump\t// in\n    tag_219:\n        /* \"#utility.yul\":8685:8686   */\n      0x01\n        /* \"#utility.yul\":8678:8683   */\n      dup2\n        /* \"#utility.yul\":8674:8687   */\n      add\n        /* \"#utility.yul\":8665:8687   */\n      swap1\n      pop\n        /* \"#utility.yul\":8641:8761   */\n      jump(tag_216)\n    tag_218:\n        /* \"#utility.yul\":8581:8767   */\n      pop\n      pop\n      jump\t// out\n        /* \"#utility.yul\":8773:9316   */\n    tag_119:\n        /* \"#utility.yul\":8874:8876   */\n      0x1f\n        /* \"#utility.yul\":8869:8872   */\n      dup3\n        /* \"#utility.yul\":8866:8877   */\n      gt\n        /* \"#utility.yul\":8863:9309   */\n      iszero\n      tag_221\n      jumpi\n        /* \"#utility.yul\":8908:8946   */\n      tag_222\n        /* \"#utility.yul\":8940:8945   */\n      dup2\n        /* \"#utility.yul\":8908:8946   */\n      tag_108\n      jump\t// in\n    tag_222:\n        /* \"#utility.yul\":8992:9021   */\n      tag_223\n        /* \"#utility.yul\":9010:9020   */\n      dup5\n        /* \"#utility.yul\":8992:9021   */\n      tag_109\n      jump\t// in\n    tag_223:\n        /* \"#utility.yul\":8982:8990   */\n      dup2\n        /* \"#utility.yul\":8978:9022   */\n      add\n        /* \"#utility.yul\":9175:9177   */\n      0x20\n        /* \"#utility.yul\":9163:9173   */\n      dup6\n        /* \"#utility.yul\":9160:9178   */\n      lt\n        /* \"#utility.yul\":9157:9206   */\n      iszero\n      tag_224\n      jumpi\n        /* \"#utility.yul\":9196:9204   */\n      dup2\n        /* \"#utility.yul\":9181:9204   */\n      swap1\n      pop\n        /* \"#utility.yul\":9157:9206   */\n    tag_224:\n        /* \"#utility.yul\":9219:9299   */\n      tag_225\n        /* \"#utility.yul\":9275:9297   */\n      tag_226\n        /* \"#utility.yul\":9293:9296   */\n      dup6\n        /* \"#utility.yul\":9275:9297   */\n      tag_109\n      jump\t// in\n    tag_226:\n        /* \"#utility.yul\":9265:9273   */\n      dup4\n        /* \"#utility.yul\":9261:9298   */\n      add\n        /* \"#utility.yul\":9248:9259   */\n      dup3\n        /* \"#utility.yul\":9219:9299   */\n      tag_118\n      jump\t// in\n    tag_225:\n        /* \"#utility.yul\":8878:9309   */\n      pop\n      pop\n        /* \"#utility.yul\":8863:9309   */\n    tag_221:\n        /* \"#utility.yul\":8773:9316   */\n      pop\n      pop\n      pop\n      jump\t// out\n        /* \"#utility.yul\":9322:9439   */\n    tag_120:\n        /* \"#utility.yul\":9376:9384   */\n      0x00\n        /* \"#utility.yul\":9426:9431   */\n      dup3\n        /* \"#utility.yul\":9420:9424   */\n      dup3\n        /* \"#utility.yul\":9416:9432   */\n      shr\n        /* \"#utility.yul\":9395:9432   */\n      swap1\n      pop\n        /* \"#utility.yul\":9322:9439   */\n      swap3\n      swap2\n      pop\n      pop\n      jump\t// out\n        /* \"#utility.yul\":9445:9614   */\n    tag_121:\n        /* \"#utility.yul\":9489:9495   */\n      0x00\n        /* \"#utility.yul\":9522:9573   */\n      tag_229\n        /* \"#utility.yul\":9570:9571   */\n      0x00\n        /* \"#utility.yul\":9566:9572   */\n      not\n        /* \"#utility.yul\":9558:9563   */\n      dup5\n        /* \"#utility.yul\":9555:9556   */\n      0x08\n        /* \"#utility.yul\":9551:9564   */\n      mul\n        /* \"#utility.yul\":9522:9573   */\n      tag_120\n      jump\t// in\n    tag_229:\n        /* \"#utility.yul\":9518:9574   */\n      not\n        /* \"#utility.yul\":9603:9607   */\n      dup1\n        /* \"#utility.yul\":9597:9601   */\n      dup4\n        /* \"#utility.yul\":9593:9608   */\n      and\n        /* \"#utility.yul\":9583:9608   */\n      swap2\n      pop\n        /* \"#utility.yul\":9496:9614   */\n      pop\n        /* \"#utility.yul\":9445:9614   */\n      swap3\n      swap2\n      pop\n      pop\n      jump\t// out\n        /* \"#utility.yul\":9619:9914   */\n    tag_122:\n        /* \"#utility.yul\":9695:9699   */\n      0x00\n        /* \"#utility.yul\":9841:9870   */\n      tag_231\n        /* \"#utility.yul\":9866:9869   */\n      dup4\n        /* \"#utility.yul\":9860:9864   */\n      dup4\n        /* \"#utility.yul\":9841:9870   */\n      tag_121\n      jump\t// in\n    tag_231:\n        /* \"#utility.yul\":9833:9870   */\n      swap2\n      pop\n        /* \"#utility.yul\":9903:9906   */\n      dup3\n        /* \"#utility.yul\":9900:9901   */\n      0x02\n        /* \"#utility.yul\":9896:9907   */\n      mul\n        /* \"#utility.yul\":9890:9894   */\n      dup3\n        /* \"#utility.yul\":9887:9908   */\n      or\n        /* \"#utility.yul\":9879:9908   */\n      swap1\n      pop\n        /* \"#utility.yul\":9619:9914   */\n      swap3\n      swap2\n      pop\n      pop\n      jump\t// out\n        /* \"#utility.yul\":9919:11314   */\n    tag_81:\n        /* \"#utility.yul\":10036:10073   */\n      tag_233\n        /* \"#utility.yul\":10069:10072   */\n      dup3\n        /* \"#utility.yul\":10036:10073   */\n      tag_84\n      jump\t// in\n    tag_233:\n        /* \"#utility.yul\":10138:10156   */\n      0xffffffffffffffff\n        /* \"#utility.yul\":10130:10136   */\n      dup2\n        /* \"#utility.yul\":10127:10157   */\n      gt\n        /* \"#utility.yul\":10124:10180   */\n      iszero\n      tag_234\n      jumpi\n        /* \"#utility.yul\":10160:10178   */\n      tag_235\n      tag_94\n      jump\t// in\n    tag_235:\n        /* \"#utility.yul\":10124:10180   */\n    tag_234:\n        /* \"#utility.yul\":10204:10242   */\n      tag_236\n        /* \"#utility.yul\":10236:10240   */\n      dup3\n        /* \"#utility.yul\":10230:10241   */\n      sload\n        /* \"#utility.yul\":10204:10242   */\n      tag_31\n      jump\t// in\n    tag_236:\n        /* \"#utility.yul\":10289:10356   */\n      tag_237\n        /* \"#utility.yul\":10349:10355   */\n      dup3\n        /* \"#utility.yul\":10341:10347   */\n      dup3\n        /* \"#utility.yul\":10335:10339   */\n      dup6\n        /* \"#utility.yul\":10289:10356   */\n      tag_119\n      jump\t// in\n    tag_237:\n        /* \"#utility.yul\":10383:10384   */\n      0x00\n        /* \"#utility.yul\":10407:10411   */\n      0x20\n        /* \"#utility.yul\":10394:10411   */\n      swap1\n      pop\n        /* \"#utility.yul\":10439:10441   */\n      0x1f\n        /* \"#utility.yul\":10431:10437   */\n      dup4\n        /* \"#utility.yul\":10428:10442   */\n      gt\n        /* \"#utility.yul\":10456:10457   */\n      0x01\n        /* \"#utility.yul\":10451:11069   */\n      dup2\n      eq\n      tag_239\n      jumpi\n        /* \"#utility.yul\":11113:11114   */\n      0x00\n        /* \"#utility.yul\":11130:11136   */\n      dup5\n        /* \"#utility.yul\":11127:11204   */\n      iszero\n      tag_240\n      jumpi\n        /* \"#utility.yul\":11179:11188   */\n      dup3\n        /* \"#utility.yul\":11174:11177   */\n      dup8\n        /* \"#utility.yul\":11170:11189   */\n      add\n        /* \"#utility.yul\":11164:11190   */\n      mload\n        /* \"#utility.yul\":11155:11190   */\n      swap1\n      pop\n        /* \"#utility.yul\":11127:11204   */\n    tag_240:\n        /* \"#utility.yul\":11230:11297   */\n      tag_241\n        /* \"#utility.yul\":11290:11296   */\n      dup6\n        /* \"#utility.yul\":11283:11288   */\n      dup3\n        /* \"#utility.yul\":11230:11297   */\n      tag_122\n      jump\t// in\n    tag_241:\n        /* \"#utility.yul\":11224:11228   */\n      dup7\n        /* \"#utility.yul\":11217:11298   */\n      sstore\n        /* \"#utility.yul\":11086:11308   */\n      pop\n        /* \"#utility.yul\":10421:11308   */\n      jump(tag_238)\n        /* \"#utility.yul\":10451:11069   */\n    tag_239:\n        /* \"#utility.yul\":10503:10507   */\n      0x1f\n        /* \"#utility.yul\":10499:10508   */\n      not\n        /* \"#utility.yul\":10491:10497   */\n      dup5\n        /* \"#utility.yul\":10487:10509   */\n      and\n        /* \"#utility.yul\":10537:10574   */\n      tag_242\n        /* \"#utility.yul\":10569:10573   */\n      dup7\n        /* \"#utility.yul\":10537:10574   */\n      tag_108\n      jump\t// in\n    tag_242:\n        /* \"#utility.yul\":10596:10597   */\n      0x00\n        /* \"#utility.yul\":10610:10818   */\n    tag_243:\n        /* \"#utility.yul\":10624:10631   */\n      dup3\n        /* \"#utility.yul\":10621:10622   */\n      dup2\n        /* \"#utility.yul\":10618:10632   */\n      lt\n        /* \"#utility.yul\":10610:10818   */\n      iszero\n      tag_245\n      jumpi\n        /* \"#utility.yul\":10703:10712   */\n      dup5\n        /* \"#utility.yul\":10698:10701   */\n      dup10\n        /* \"#utility.yul\":10694:10713   */\n      add\n        /* \"#utility.yul\":10688:10714   */\n      mload\n        /* \"#utility.yul\":10680:10686   */\n      dup3\n        /* \"#utility.yul\":10673:10715   */\n      sstore\n        /* \"#utility.yul\":10754:10755   */\n      0x01\n        /* \"#utility.yul\":10746:10752   */\n      dup3\n        /* \"#utility.yul\":10742:10756   */\n      add\n        /* \"#utility.yul\":10732:10756   */\n      swap2\n      pop\n        /* \"#utility.yul\":10801:10803   */\n      0x20\n        /* \"#utility.yul\":10790:10799   */\n      dup6\n        /* \"#utility.yul\":10786:10804   */\n      add\n        /* \"#utility.yul\":10773:10804   */\n      swap5\n      pop\n        /* \"#utility.yul\":10647:10651   */\n      0x20\n        /* \"#utility.yul\":10644:10645   */\n      dup2\n        /* \"#utility.yul\":10640:10652   */\n      add\n        /* \"#utility.yul\":10635:10652   */\n      swap1\n      pop\n        /* \"#utility.yul\":10610:10818   */\n      jump(tag_243)\n    tag_245:\n        /* \"#utility.yul\":10846:10852   */\n      dup7\n        /* \"#utility.yul\":10837:10844   */\n      dup4\n        /* \"#utility.yul\":10834:10853   */\n      lt\n        /* \"#utility.yul\":10831:11010   */\n      iszero\n      tag_246\n      jumpi\n        /* \"#utility.yul\":10904:10913   */\n      dup5\n        /* \"#utility.yul\":10899:10902   */\n      dup10\n        /* \"#utility.yul\":10895:10914   */\n      add\n        /* \"#utility.yul\":10889:10915   */\n      mload\n        /* \"#utility.yul\":10947:10995   */\n      tag_247\n        /* \"#utility.yul\":10989:10993   */\n      0x1f\n        /* \"#utility.yul\":10981:10987   */\n      dup10\n        /* \"#utility.yul\":10977:10994   */\n      and\n        /* \"#utility.yul\":10966:10975   */\n      dup3\n        /* \"#utility.yul\":10947:10995   */\n      tag_121\n      jump\t// in\n    tag_247:\n        /* \"#utility.yul\":10939:10945   */\n      dup4\n        /* \"#utility.yul\":10932:10996   */\n      sstore\n        /* \"#utility.yul\":10854:11010   */\n      pop\n        /* \"#utility.yul\":10831:11010   */\n    tag_246:\n        /* \"#utility.yul\":11056:11057   */\n      0x01\n        /* \"#utility.yul\":11052:11053   */\n      0x02\n        /* \"#utility.yul\":11044:11050   */\n      dup9\n        /* \"#utility.yul\":11040:11054   */\n      mul\n        /* \"#utility.yul\":11036:11058   */\n      add\n        /* \"#utility.yul\":11030:11034   */\n      dup9\n        /* \"#utility.yul\":11023:11059   */\n      sstore\n        /* \"#utility.yul\":10458:11069   */\n      pop\n      pop\n      pop\n        /* \"#utility.yul\":10421:11308   */\n    tag_238:\n      pop\n        /* \"#utility.yul\":10011:11314   */\n      pop\n      pop\n      pop\n        /* \"#utility.yul\":9919:11314   */\n      pop\n      pop\n      jump\t// out\n\n    auxdata: 0xa2646970667358221220aed7d09912ec1da9b0c30b907cdc662394f336baa128171918477d5a98a24bc464736f6c634300081a0033\n}\n",
				"bytecode": {
					"linkReferences": {},
					"object": "608060405260405180602001604052805f81525060019081610021919061026d565b5034801561002d575f80fd5b5061033c565b5f81519050919050565b7f4e487b71000000000000000000000000000000000000000000000000000000005f52604160045260245ffd5b7f4e487b71000000000000000000000000000000000000000000000000000000005f52602260045260245ffd5b5f60028204905060018216806100ae57607f821691505b6020821081036100c1576100c061006a565b5b50919050565b5f819050815f5260205f209050919050565b5f6020601f8301049050919050565b5f82821b905092915050565b5f600883026101237fffffffffffffffffffffffffffffffffffffffffffffffffffffffffffffffff826100e8565b61012d86836100e8565b95508019841693508086168417925050509392505050565b5f819050919050565b5f819050919050565b5f61017161016c61016784610145565b61014e565b610145565b9050919050565b5f819050919050565b61018a83610157565b61019e61019682610178565b8484546100f4565b825550505050565b5f90565b6101b26101a6565b6101bd818484610181565b505050565b5b818110156101e0576101d55f826101aa565b6001810190506101c3565b5050565b601f821115610225576101f6816100c7565b6101ff846100d9565b8101602085101561020e578190505b61022261021a856100d9565b8301826101c2565b50505b505050565b5f82821c905092915050565b5f6102455f198460080261022a565b1980831691505092915050565b5f61025d8383610236565b9150826002028217905092915050565b61027682610033565b67ffffffffffffffff81111561028f5761028e61003d565b5b6102998254610097565b6102a48282856101e4565b5f60209050601f8311600181146102d5575f84156102c3578287015190505b6102cd8582610252565b865550610334565b601f1984166102e3866100c7565b5f5b8281101561030a578489015182556001820191506020850194506020810190506102e5565b868310156103275784890151610323601f891682610236565b8355505b6001600288020188555050505b505050505050565b610e4c806103495f395ff3fe608060405234801561000f575f80fd5b506004361061004a575f3560e01c8063394767871461004e57806382b541731461006c57806393e84cd91461008a57806398c8d81f146100a8575b5f80fd5b6100566100c4565b6040516100639190610859565b60405180910390f35b6100746101d1565b6040516100819190610859565b60405180910390f35b61009261025c565b60405161009f9190610859565b60405180910390f35b6100c260048036038101906100bd91906109b6565b61069c565b005b60605f4442436040516020016100dc93929190610a26565b604051602081830303815290604052805190602001205f1c90505f6003826101049190610a8f565b90505f810361014c576040518060400160405280600481526020017f726f636b00000000000000000000000000000000000000000000000000000000815250925050506101ce565b60018103610193576040518060400160405280600581526020017f7061706572000000000000000000000000000000000000000000000000000000815250925050506101ce565b6040518060400160405280600781526020017f73636973736f7200000000000000000000000000000000000000000000000000815250925050505b90565b5f80546101dd90610aec565b80601f016020809104026020016040519081016040528092919081815260200182805461020990610aec565b80156102545780601f1061022b57610100808354040283529160200191610254565b820191905f5260205f20905b81548152906001019060200180831161023757829003601f168201915b505050505081565b60606103245f805461026d90610aec565b80601f016020809104026020016040519081016040528092919081815260200182805461029990610aec565b80156102e45780601f106102bb576101008083540402835291602001916102e4565b820191905f5260205f20905b8154815290600101906020018083116102c757829003601f168201915b50505050506040518060400160405280600481526020017f726f636b000000000000000000000000000000000000000000000000000000008152506107b8565b801561037257506103716103366100c4565b6040518060400160405280600581526020017f70617065720000000000000000000000000000000000000000000000000000008152506107b8565b5b156103b4576040518060400160405280600781526020017f4350552057494e000000000000000000000000000000000000000000000000008152509050610699565b61047a5f80546103c390610aec565b80601f01602080910402602001604051908101604052809291908181526020018280546103ef90610aec565b801561043a5780601f106104115761010080835404028352916020019161043a565b820191905f5260205f20905b81548152906001019060200180831161041d57829003601f168201915b50505050506040518060400160405280600581526020017f70617065720000000000000000000000000000000000000000000000000000008152506107b8565b80156104c857506104c761048c6100c4565b6040518060400160405280600781526020017f73636973736f72000000000000000000000000000000000000000000000000008152506107b8565b5b1561050a576040518060400160405280600781526020017f4350552057494e000000000000000000000000000000000000000000000000008152509050610699565b6105d05f805461051990610aec565b80601f016020809104026020016040519081016040528092919081815260200182805461054590610aec565b80156105905780601f1061056757610100808354040283529160200191610590565b820191905f5260205f20905b81548152906001019060200180831161057357829003601f168201915b50505050506040518060400160405280600781526020017f73636973736f72000000000000000000000000000000000000000000000000008152506107b8565b801561061e575061061d6105e26100c4565b6040518060400160405280600481526020017f726f636b000000000000000000000000000000000000000000000000000000008152506107b8565b5b15610660576040518060400160405280600781526020017f4350552057494e000000000000000000000000000000000000000000000000008152509050610699565b6040518060400160405280600a81526020017f506c617965722057494e0000000000000000000000000000000000000000000081525090505b90565b6106db816040518060400160405280600481526020017f726f636b000000000000000000000000000000000000000000000000000000008152506107b8565b806107215750610720816040518060400160405280600581526020017f70617065720000000000000000000000000000000000000000000000000000008152506107b8565b5b806107675750610766816040518060400160405280600781526020017f73636973736f72000000000000000000000000000000000000000000000000008152506107b8565b5b6107a6576040517f08c379a000000000000000000000000000000000000000000000000000000000815260040161079d90610b8c565b60405180910390fd5b805f90816107b49190610d47565b5050565b5f808390505f839050805182511480156107df575080805190602001208280519060200120145b9250505092915050565b5f81519050919050565b5f82825260208201905092915050565b8281835e5f83830152505050565b5f601f19601f8301169050919050565b5f61082b826107e9565b61083581856107f3565b9350610845818560208601610803565b61084e81610811565b840191505092915050565b5f6020820190508181035f8301526108718184610821565b905092915050565b5f604051905090565b5f80fd5b5f80fd5b5f80fd5b5f80fd5b7f4e487b71000000000000000000000000000000000000000000000000000000005f52604160045260245ffd5b6108c882610811565b810181811067ffffffffffffffff821117156108e7576108e6610892565b5b80604052505050565b5f6108f9610879565b905061090582826108bf565b919050565b5f67ffffffffffffffff82111561092457610923610892565b5b61092d82610811565b9050602081019050919050565b828183375f83830152505050565b5f61095a6109558461090a565b6108f0565b9050828152602081018484840111156109765761097561088e565b5b61098184828561093a565b509392505050565b5f82601f83011261099d5761099c61088a565b5b81356109ad848260208601610948565b91505092915050565b5f602082840312156109cb576109ca610882565b5b5f82013567ffffffffffffffff8111156109e8576109e7610886565b5b6109f484828501610989565b91505092915050565b5f819050919050565b5f819050919050565b610a20610a1b826109fd565b610a06565b82525050565b5f610a318286610a0f565b602082019150610a418285610a0f565b602082019150610a518284610a0f565b602082019150819050949350505050565b7f4e487b71000000000000000000000000000000000000000000000000000000005f52601260045260245ffd5b5f610a99826109fd565b9150610aa4836109fd565b925082610ab457610ab3610a62565b5b828206905092915050565b7f4e487b71000000000000000000000000000000000000000000000000000000005f52602260045260245ffd5b5f6002820490506001821680610b0357607f821691505b602082108103610b1657610b15610abf565b5b50919050565b7f596f75206d7573742063686f6f736520726f636b2c207061706572206f7220735f8201527f6369736f72000000000000000000000000000000000000000000000000000000602082015250565b5f610b766025836107f3565b9150610b8182610b1c565b604082019050919050565b5f6020820190508181035f830152610ba381610b6a565b9050919050565b5f819050815f5260205f209050919050565b5f6020601f8301049050919050565b5f82821b905092915050565b5f60088302610c067fffffffffffffffffffffffffffffffffffffffffffffffffffffffffffffffff82610bcb565b610c108683610bcb565b95508019841693508086168417925050509392505050565b5f819050919050565b5f610c4b610c46610c41846109fd565b610c28565b6109fd565b9050919050565b5f819050919050565b610c6483610c31565b610c78610c7082610c52565b848454610bd7565b825550505050565b5f90565b610c8c610c80565b610c97818484610c5b565b505050565b5b81811015610cba57610caf5f82610c84565b600181019050610c9d565b5050565b601f821115610cff57610cd081610baa565b610cd984610bbc565b81016020851015610ce8578190505b610cfc610cf485610bbc565b830182610c9c565b50505b505050565b5f82821c905092915050565b5f610d1f5f1984600802610d04565b1980831691505092915050565b5f610d378383610d10565b9150826002028217905092915050565b610d50826107e9565b67ffffffffffffffff811115610d6957610d68610892565b5b610d738254610aec565b610d7e828285610cbe565b5f60209050601f831160018114610daf575f8415610d9d578287015190505b610da78582610d2c565b865550610e0e565b601f198416610dbd86610baa565b5f5b82811015610de457848901518255600182019150602085019450602081019050610dbf565b86831015610e015784890151610dfd601f891682610d10565b8355505b6001600288020188555050505b50505050505056fea2646970667358221220aed7d09912ec1da9b0c30b907cdc662394f336baa128171918477d5a98a24bc464736f6c634300081a0033",
					"opcodes": "PUSH1 0x80 PUSH1 0x40 MSTORE PUSH1 0x40 MLOAD DUP1 PUSH1 0x20 ADD PUSH1 0x40 MSTORE DUP1 PUSH0 DUP2 MSTORE POP PUSH1 0x1 SWAP1 DUP2 PUSH2 0x21 SWAP2 SWAP1 PUSH2 0x26D JUMP JUMPDEST POP CALLVALUE DUP1 ISZERO PUSH2 0x2D JUMPI PUSH0 DUP1 REVERT JUMPDEST POP PUSH2 0x33C JUMP JUMPDEST PUSH0 DUP2 MLOAD SWAP1 POP SWAP2 SWAP1 POP JUMP JUMPDEST PUSH32 0x4E487B7100000000000000000000000000000000000000000000000000000000 PUSH0 MSTORE PUSH1 0x41 PUSH1 0x4 MSTORE PUSH1 0x24 PUSH0 REVERT JUMPDEST PUSH32 0x4E487B7100000000000000000000000000000000000000000000000000000000 PUSH0 MSTORE PUSH1 0x22 PUSH1 0x4 MSTORE PUSH1 0x24 PUSH0 REVERT JUMPDEST PUSH0 PUSH1 0x2 DUP3 DIV SWAP1 POP PUSH1 0x1 DUP3 AND DUP1 PUSH2 0xAE JUMPI PUSH1 0x7F DUP3 AND SWAP2 POP JUMPDEST PUSH1 0x20 DUP3 LT DUP2 SUB PUSH2 0xC1 JUMPI PUSH2 0xC0 PUSH2 0x6A JUMP JUMPDEST JUMPDEST POP SWAP2 SWAP1 POP JUMP JUMPDEST PUSH0 DUP2 SWAP1 POP DUP2 PUSH0 MSTORE PUSH1 0x20 PUSH0 KECCAK256 SWAP1 POP SWAP2 SWAP1 POP JUMP JUMPDEST PUSH0 PUSH1 0x20 PUSH1 0x1F DUP4 ADD DIV SWAP1 POP SWAP2 SWAP1 POP JUMP JUMPDEST PUSH0 DUP3 DUP3 SHL SWAP1 POP SWAP3 SWAP2 POP POP JUMP JUMPDEST PUSH0 PUSH1 0x8 DUP4 MUL PUSH2 0x123 PUSH32 0xFFFFFFFFFFFFFFFFFFFFFFFFFFFFFFFFFFFFFFFFFFFFFFFFFFFFFFFFFFFFFFFF DUP3 PUSH2 0xE8 JUMP JUMPDEST PUSH2 0x12D DUP7 DUP4 PUSH2 0xE8 JUMP JUMPDEST SWAP6 POP DUP1 NOT DUP5 AND SWAP4 POP DUP1 DUP7 AND DUP5 OR SWAP3 POP POP POP SWAP4 SWAP3 POP POP POP JUMP JUMPDEST PUSH0 DUP2 SWAP1 POP SWAP2 SWAP1 POP JUMP JUMPDEST PUSH0 DUP2 SWAP1 POP SWAP2 SWAP1 POP JUMP JUMPDEST PUSH0 PUSH2 0x171 PUSH2 0x16C PUSH2 0x167 DUP5 PUSH2 0x145 JUMP JUMPDEST PUSH2 0x14E JUMP JUMPDEST PUSH2 0x145 JUMP JUMPDEST SWAP1 POP SWAP2 SWAP1 POP JUMP JUMPDEST PUSH0 DUP2 SWAP1 POP SWAP2 SWAP1 POP JUMP JUMPDEST PUSH2 0x18A DUP4 PUSH2 0x157 JUMP JUMPDEST PUSH2 0x19E PUSH2 0x196 DUP3 PUSH2 0x178 JUMP JUMPDEST DUP5 DUP5 SLOAD PUSH2 0xF4 JUMP JUMPDEST DUP3 SSTORE POP POP POP POP JUMP JUMPDEST PUSH0 SWAP1 JUMP JUMPDEST PUSH2 0x1B2 PUSH2 0x1A6 JUMP JUMPDEST PUSH2 0x1BD DUP2 DUP5 DUP5 PUSH2 0x181 JUMP JUMPDEST POP POP POP JUMP JUMPDEST JUMPDEST DUP2 DUP2 LT ISZERO PUSH2 0x1E0 JUMPI PUSH2 0x1D5 PUSH0 DUP3 PUSH2 0x1AA JUMP JUMPDEST PUSH1 0x1 DUP2 ADD SWAP1 POP PUSH2 0x1C3 JUMP JUMPDEST POP POP JUMP JUMPDEST PUSH1 0x1F DUP3 GT ISZERO PUSH2 0x225 JUMPI PUSH2 0x1F6 DUP2 PUSH2 0xC7 JUMP JUMPDEST PUSH2 0x1FF DUP5 PUSH2 0xD9 JUMP JUMPDEST DUP2 ADD PUSH1 0x20 DUP6 LT ISZERO PUSH2 0x20E JUMPI DUP2 SWAP1 POP JUMPDEST PUSH2 0x222 PUSH2 0x21A DUP6 PUSH2 0xD9 JUMP JUMPDEST DUP4 ADD DUP3 PUSH2 0x1C2 JUMP JUMPDEST POP POP JUMPDEST POP POP POP JUMP JUMPDEST PUSH0 DUP3 DUP3 SHR SWAP1 POP SWAP3 SWAP2 POP POP JUMP JUMPDEST PUSH0 PUSH2 0x245 PUSH0 NOT DUP5 PUSH1 0x8 MUL PUSH2 0x22A JUMP JUMPDEST NOT DUP1 DUP4 AND SWAP2 POP POP SWAP3 SWAP2 POP POP JUMP JUMPDEST PUSH0 PUSH2 0x25D DUP4 DUP4 PUSH2 0x236 JUMP JUMPDEST SWAP2 POP DUP3 PUSH1 0x2 MUL DUP3 OR SWAP1 POP SWAP3 SWAP2 POP POP JUMP JUMPDEST PUSH2 0x276 DUP3 PUSH2 0x33 JUMP JUMPDEST PUSH8 0xFFFFFFFFFFFFFFFF DUP2 GT ISZERO PUSH2 0x28F JUMPI PUSH2 0x28E PUSH2 0x3D JUMP JUMPDEST JUMPDEST PUSH2 0x299 DUP3 SLOAD PUSH2 0x97 JUMP JUMPDEST PUSH2 0x2A4 DUP3 DUP3 DUP6 PUSH2 0x1E4 JUMP JUMPDEST PUSH0 PUSH1 0x20 SWAP1 POP PUSH1 0x1F DUP4 GT PUSH1 0x1 DUP2 EQ PUSH2 0x2D5 JUMPI PUSH0 DUP5 ISZERO PUSH2 0x2C3 JUMPI DUP3 DUP8 ADD MLOAD SWAP1 POP JUMPDEST PUSH2 0x2CD DUP6 DUP3 PUSH2 0x252 JUMP JUMPDEST DUP7 SSTORE POP PUSH2 0x334 JUMP JUMPDEST PUSH1 0x1F NOT DUP5 AND PUSH2 0x2E3 DUP7 PUSH2 0xC7 JUMP JUMPDEST PUSH0 JUMPDEST DUP3 DUP2 LT ISZERO PUSH2 0x30A JUMPI DUP5 DUP10 ADD MLOAD DUP3 SSTORE PUSH1 0x1 DUP3 ADD SWAP2 POP PUSH1 0x20 DUP6 ADD SWAP5 POP PUSH1 0x20 DUP2 ADD SWAP1 POP PUSH2 0x2E5 JUMP JUMPDEST DUP7 DUP4 LT ISZERO PUSH2 0x327 JUMPI DUP5 DUP10 ADD MLOAD PUSH2 0x323 PUSH1 0x1F DUP10 AND DUP3 PUSH2 0x236 JUMP JUMPDEST DUP4 SSTORE POP JUMPDEST PUSH1 0x1 PUSH1 0x2 DUP9 MUL ADD DUP9 SSTORE POP POP POP JUMPDEST POP POP POP POP POP POP JUMP JUMPDEST PUSH2 0xE4C DUP1 PUSH2 0x349 PUSH0 CODECOPY PUSH0 RETURN INVALID PUSH1 0x80 PUSH1 0x40 MSTORE CALLVALUE DUP1 ISZERO PUSH2 0xF JUMPI PUSH0 DUP1 REVERT JUMPDEST POP PUSH1 0x4 CALLDATASIZE LT PUSH2 0x4A JUMPI PUSH0 CALLDATALOAD PUSH1 0xE0 SHR DUP1 PUSH4 0x39476787 EQ PUSH2 0x4E JUMPI DUP1 PUSH4 0x82B54173 EQ PUSH2 0x6C JUMPI DUP1 PUSH4 0x93E84CD9 EQ PUSH2 0x8A JUMPI DUP1 PUSH4 0x98C8D81F EQ PUSH2 0xA8 JUMPI JUMPDEST PUSH0 DUP1 REVERT JUMPDEST PUSH2 0x56 PUSH2 0xC4 JUMP JUMPDEST PUSH1 0x40 MLOAD PUSH2 0x63 SWAP2 SWAP1 PUSH2 0x859 JUMP JUMPDEST PUSH1 0x40 MLOAD DUP1 SWAP2 SUB SWAP1 RETURN JUMPDEST PUSH2 0x74 PUSH2 0x1D1 JUMP JUMPDEST PUSH1 0x40 MLOAD PUSH2 0x81 SWAP2 SWAP1 PUSH2 0x859 JUMP JUMPDEST PUSH1 0x40 MLOAD DUP1 SWAP2 SUB SWAP1 RETURN JUMPDEST PUSH2 0x92 PUSH2 0x25C JUMP JUMPDEST PUSH1 0x40 MLOAD PUSH2 0x9F SWAP2 SWAP1 PUSH2 0x859 JUMP JUMPDEST PUSH1 0x40 MLOAD DUP1 SWAP2 SUB SWAP1 RETURN JUMPDEST PUSH2 0xC2 PUSH1 0x4 DUP1 CALLDATASIZE SUB DUP2 ADD SWAP1 PUSH2 0xBD SWAP2 SWAP1 PUSH2 0x9B6 JUMP JUMPDEST PUSH2 0x69C JUMP JUMPDEST STOP JUMPDEST PUSH1 0x60 PUSH0 PREVRANDAO TIMESTAMP NUMBER PUSH1 0x40 MLOAD PUSH1 0x20 ADD PUSH2 0xDC SWAP4 SWAP3 SWAP2 SWAP1 PUSH2 0xA26 JUMP JUMPDEST PUSH1 0x40 MLOAD PUSH1 0x20 DUP2 DUP4 SUB SUB DUP2 MSTORE SWAP1 PUSH1 0x40 MSTORE DUP1 MLOAD SWAP1 PUSH1 0x20 ADD KECCAK256 PUSH0 SHR SWAP1 POP PUSH0 PUSH1 0x3 DUP3 PUSH2 0x104 SWAP2 SWAP1 PUSH2 0xA8F JUMP JUMPDEST SWAP1 POP PUSH0 DUP2 SUB PUSH2 0x14C JUMPI PUSH1 0x40 MLOAD DUP1 PUSH1 0x40 ADD PUSH1 0x40 MSTORE DUP1 PUSH1 0x4 DUP2 MSTORE PUSH1 0x20 ADD PUSH32 0x726F636B00000000000000000000000000000000000000000000000000000000 DUP2 MSTORE POP SWAP3 POP POP POP PUSH2 0x1CE JUMP JUMPDEST PUSH1 0x1 DUP2 SUB PUSH2 0x193 JUMPI PUSH1 0x40 MLOAD DUP1 PUSH1 0x40 ADD PUSH1 0x40 MSTORE DUP1 PUSH1 0x5 DUP2 MSTORE PUSH1 0x20 ADD PUSH32 0x7061706572000000000000000000000000000000000000000000000000000000 DUP2 MSTORE POP SWAP3 POP POP POP PUSH2 0x1CE JUMP JUMPDEST PUSH1 0x40 MLOAD DUP1 PUSH1 0x40 ADD PUSH1 0x40 MSTORE DUP1 PUSH1 0x7 DUP2 MSTORE PUSH1 0x20 ADD PUSH32 0x73636973736F7200000000000000000000000000000000000000000000000000 DUP2 MSTORE POP SWAP3 POP POP POP JUMPDEST SWAP1 JUMP JUMPDEST PUSH0 DUP1 SLOAD PUSH2 0x1DD SWAP1 PUSH2 0xAEC JUMP JUMPDEST DUP1 PUSH1 0x1F ADD PUSH1 0x20 DUP1 SWAP2 DIV MUL PUSH1 0x20 ADD PUSH1 0x40 MLOAD SWAP1 DUP2 ADD PUSH1 0x40 MSTORE DUP1 SWAP3 SWAP2 SWAP1 DUP2 DUP2 MSTORE PUSH1 0x20 ADD DUP3 DUP1 SLOAD PUSH2 0x209 SWAP1 PUSH2 0xAEC JUMP JUMPDEST DUP1 ISZERO PUSH2 0x254 JUMPI DUP1 PUSH1 0x1F LT PUSH2 0x22B JUMPI PUSH2 0x100 DUP1 DUP4 SLOAD DIV MUL DUP4 MSTORE SWAP2 PUSH1 0x20 ADD SWAP2 PUSH2 0x254 JUMP JUMPDEST DUP3 ADD SWAP2 SWAP1 PUSH0 MSTORE PUSH1 0x20 PUSH0 KECCAK256 SWAP1 JUMPDEST DUP2 SLOAD DUP2 MSTORE SWAP1 PUSH1 0x1 ADD SWAP1 PUSH1 0x20 ADD DUP1 DUP4 GT PUSH2 0x237 JUMPI DUP3 SWAP1 SUB PUSH1 0x1F AND DUP3 ADD SWAP2 JUMPDEST POP POP POP POP POP DUP2 JUMP JUMPDEST PUSH1 0x60 PUSH2 0x324 PUSH0 DUP1 SLOAD PUSH2 0x26D SWAP1 PUSH2 0xAEC JUMP JUMPDEST DUP1 PUSH1 0x1F ADD PUSH1 0x20 DUP1 SWAP2 DIV MUL PUSH1 0x20 ADD PUSH1 0x40 MLOAD SWAP1 DUP2 ADD PUSH1 0x40 MSTORE DUP1 SWAP3 SWAP2 SWAP1 DUP2 DUP2 MSTORE PUSH1 0x20 ADD DUP3 DUP1 SLOAD PUSH2 0x299 SWAP1 PUSH2 0xAEC JUMP JUMPDEST DUP1 ISZERO PUSH2 0x2E4 JUMPI DUP1 PUSH1 0x1F LT PUSH2 0x2BB JUMPI PUSH2 0x100 DUP1 DUP4 SLOAD DIV MUL DUP4 MSTORE SWAP2 PUSH1 0x20 ADD SWAP2 PUSH2 0x2E4 JUMP JUMPDEST DUP3 ADD SWAP2 SWAP1 PUSH0 MSTORE PUSH1 0x20 PUSH0 KECCAK256 SWAP1 JUMPDEST DUP2 SLOAD DUP2 MSTORE SWAP1 PUSH1 0x1 ADD SWAP1 PUSH1 0x20 ADD DUP1 DUP4 GT PUSH2 0x2C7 JUMPI DUP3 SWAP1 SUB PUSH1 0x1F AND DUP3 ADD SWAP2 JUMPDEST POP POP POP POP POP PUSH1 0x40 MLOAD DUP1 PUSH1 0x40 ADD PUSH1 0x40 MSTORE DUP1 PUSH1 0x4 DUP2 MSTORE PUSH1 0x20 ADD PUSH32 0x726F636B00000000000000000000000000000000000000000000000000000000 DUP2 MSTORE POP PUSH2 0x7B8 JUMP JUMPDEST DUP1 ISZERO PUSH2 0x372 JUMPI POP PUSH2 0x371 PUSH2 0x336 PUSH2 0xC4 JUMP JUMPDEST PUSH1 0x40 MLOAD DUP1 PUSH1 0x40 ADD PUSH1 0x40 MSTORE DUP1 PUSH1 0x5 DUP2 MSTORE PUSH1 0x20 ADD PUSH32 0x7061706572000000000000000000000000000000000000000000000000000000 DUP2 MSTORE POP PUSH2 0x7B8 JUMP JUMPDEST JUMPDEST ISZERO PUSH2 0x3B4 JUMPI PUSH1 0x40 MLOAD DUP1 PUSH1 0x40 ADD PUSH1 0x40 MSTORE DUP1 PUSH1 0x7 DUP2 MSTORE PUSH1 0x20 ADD PUSH32 0x4350552057494E00000000000000000000000000000000000000000000000000 DUP2 MSTORE POP SWAP1 POP PUSH2 0x699 JUMP JUMPDEST PUSH2 0x47A PUSH0 DUP1 SLOAD PUSH2 0x3C3 SWAP1 PUSH2 0xAEC JUMP JUMPDEST DUP1 PUSH1 0x1F ADD PUSH1 0x20 DUP1 SWAP2 DIV MUL PUSH1 0x20 ADD PUSH1 0x40 MLOAD SWAP1 DUP2 ADD PUSH1 0x40 MSTORE DUP1 SWAP3 SWAP2 SWAP1 DUP2 DUP2 MSTORE PUSH1 0x20 ADD DUP3 DUP1 SLOAD PUSH2 0x3EF SWAP1 PUSH2 0xAEC JUMP JUMPDEST DUP1 ISZERO PUSH2 0x43A JUMPI DUP1 PUSH1 0x1F LT PUSH2 0x411 JUMPI PUSH2 0x100 DUP1 DUP4 SLOAD DIV MUL DUP4 MSTORE SWAP2 PUSH1 0x20 ADD SWAP2 PUSH2 0x43A JUMP JUMPDEST DUP3 ADD SWAP2 SWAP1 PUSH0 MSTORE PUSH1 0x20 PUSH0 KECCAK256 SWAP1 JUMPDEST DUP2 SLOAD DUP2 MSTORE SWAP1 PUSH1 0x1 ADD SWAP1 PUSH1 0x20 ADD DUP1 DUP4 GT PUSH2 0x41D JUMPI DUP3 SWAP1 SUB PUSH1 0x1F AND DUP3 ADD SWAP2 JUMPDEST POP POP POP POP POP PUSH1 0x40 MLOAD DUP1 PUSH1 0x40 ADD PUSH1 0x40 MSTORE DUP1 PUSH1 0x5 DUP2 MSTORE PUSH1 0x20 ADD PUSH32 0x7061706572000000000000000000000000000000000000000000000000000000 DUP2 MSTORE POP PUSH2 0x7B8 JUMP JUMPDEST DUP1 ISZERO PUSH2 0x4C8 JUMPI POP PUSH2 0x4C7 PUSH2 0x48C PUSH2 0xC4 JUMP JUMPDEST PUSH1 0x40 MLOAD DUP1 PUSH1 0x40 ADD PUSH1 0x40 MSTORE DUP1 PUSH1 0x7 DUP2 MSTORE PUSH1 0x20 ADD PUSH32 0x73636973736F7200000000000000000000000000000000000000000000000000 DUP2 MSTORE POP PUSH2 0x7B8 JUMP JUMPDEST JUMPDEST ISZERO PUSH2 0x50A JUMPI PUSH1 0x40 MLOAD DUP1 PUSH1 0x40 ADD PUSH1 0x40 MSTORE DUP1 PUSH1 0x7 DUP2 MSTORE PUSH1 0x20 ADD PUSH32 0x4350552057494E00000000000000000000000000000000000000000000000000 DUP2 MSTORE POP SWAP1 POP PUSH2 0x699 JUMP JUMPDEST PUSH2 0x5D0 PUSH0 DUP1 SLOAD PUSH2 0x519 SWAP1 PUSH2 0xAEC JUMP JUMPDEST DUP1 PUSH1 0x1F ADD PUSH1 0x20 DUP1 SWAP2 DIV MUL PUSH1 0x20 ADD PUSH1 0x40 MLOAD SWAP1 DUP2 ADD PUSH1 0x40 MSTORE DUP1 SWAP3 SWAP2 SWAP1 DUP2 DUP2 MSTORE PUSH1 0x20 ADD DUP3 DUP1 SLOAD PUSH2 0x545 SWAP1 PUSH2 0xAEC JUMP JUMPDEST DUP1 ISZERO PUSH2 0x590 JUMPI DUP1 PUSH1 0x1F LT PUSH2 0x567 JUMPI PUSH2 0x100 DUP1 DUP4 SLOAD DIV MUL DUP4 MSTORE SWAP2 PUSH1 0x20 ADD SWAP2 PUSH2 0x590 JUMP JUMPDEST DUP3 ADD SWAP2 SWAP1 PUSH0 MSTORE PUSH1 0x20 PUSH0 KECCAK256 SWAP1 JUMPDEST DUP2 SLOAD DUP2 MSTORE SWAP1 PUSH1 0x1 ADD SWAP1 PUSH1 0x20 ADD DUP1 DUP4 GT PUSH2 0x573 JUMPI DUP3 SWAP1 SUB PUSH1 0x1F AND DUP3 ADD SWAP2 JUMPDEST POP POP POP POP POP PUSH1 0x40 MLOAD DUP1 PUSH1 0x40 ADD PUSH1 0x40 MSTORE DUP1 PUSH1 0x7 DUP2 MSTORE PUSH1 0x20 ADD PUSH32 0x73636973736F7200000000000000000000000000000000000000000000000000 DUP2 MSTORE POP PUSH2 0x7B8 JUMP JUMPDEST DUP1 ISZERO PUSH2 0x61E JUMPI POP PUSH2 0x61D PUSH2 0x5E2 PUSH2 0xC4 JUMP JUMPDEST PUSH1 0x40 MLOAD DUP1 PUSH1 0x40 ADD PUSH1 0x40 MSTORE DUP1 PUSH1 0x4 DUP2 MSTORE PUSH1 0x20 ADD PUSH32 0x726F636B00000000000000000000000000000000000000000000000000000000 DUP2 MSTORE POP PUSH2 0x7B8 JUMP JUMPDEST JUMPDEST ISZERO PUSH2 0x660 JUMPI PUSH1 0x40 MLOAD DUP1 PUSH1 0x40 ADD PUSH1 0x40 MSTORE DUP1 PUSH1 0x7 DUP2 MSTORE PUSH1 0x20 ADD PUSH32 0x4350552057494E00000000000000000000000000000000000000000000000000 DUP2 MSTORE POP SWAP1 POP PUSH2 0x699 JUMP JUMPDEST PUSH1 0x40 MLOAD DUP1 PUSH1 0x40 ADD PUSH1 0x40 MSTORE DUP1 PUSH1 0xA DUP2 MSTORE PUSH1 0x20 ADD PUSH32 0x506C617965722057494E00000000000000000000000000000000000000000000 DUP2 MSTORE POP SWAP1 POP JUMPDEST SWAP1 JUMP JUMPDEST PUSH2 0x6DB DUP2 PUSH1 0x40 MLOAD DUP1 PUSH1 0x40 ADD PUSH1 0x40 MSTORE DUP1 PUSH1 0x4 DUP2 MSTORE PUSH1 0x20 ADD PUSH32 0x726F636B00000000000000000000000000000000000000000000000000000000 DUP2 MSTORE POP PUSH2 0x7B8 JUMP JUMPDEST DUP1 PUSH2 0x721 JUMPI POP PUSH2 0x720 DUP2 PUSH1 0x40 MLOAD DUP1 PUSH1 0x40 ADD PUSH1 0x40 MSTORE DUP1 PUSH1 0x5 DUP2 MSTORE PUSH1 0x20 ADD PUSH32 0x7061706572000000000000000000000000000000000000000000000000000000 DUP2 MSTORE POP PUSH2 0x7B8 JUMP JUMPDEST JUMPDEST DUP1 PUSH2 0x767 JUMPI POP PUSH2 0x766 DUP2 PUSH1 0x40 MLOAD DUP1 PUSH1 0x40 ADD PUSH1 0x40 MSTORE DUP1 PUSH1 0x7 DUP2 MSTORE PUSH1 0x20 ADD PUSH32 0x73636973736F7200000000000000000000000000000000000000000000000000 DUP2 MSTORE POP PUSH2 0x7B8 JUMP JUMPDEST JUMPDEST PUSH2 0x7A6 JUMPI PUSH1 0x40 MLOAD PUSH32 0x8C379A000000000000000000000000000000000000000000000000000000000 DUP2 MSTORE PUSH1 0x4 ADD PUSH2 0x79D SWAP1 PUSH2 0xB8C JUMP JUMPDEST PUSH1 0x40 MLOAD DUP1 SWAP2 SUB SWAP1 REVERT JUMPDEST DUP1 PUSH0 SWAP1 DUP2 PUSH2 0x7B4 SWAP2 SWAP1 PUSH2 0xD47 JUMP JUMPDEST POP POP JUMP JUMPDEST PUSH0 DUP1 DUP4 SWAP1 POP PUSH0 DUP4 SWAP1 POP DUP1 MLOAD DUP3 MLOAD EQ DUP1 ISZERO PUSH2 0x7DF JUMPI POP DUP1 DUP1 MLOAD SWAP1 PUSH1 0x20 ADD KECCAK256 DUP3 DUP1 MLOAD SWAP1 PUSH1 0x20 ADD KECCAK256 EQ JUMPDEST SWAP3 POP POP POP SWAP3 SWAP2 POP POP JUMP JUMPDEST PUSH0 DUP2 MLOAD SWAP1 POP SWAP2 SWAP1 POP JUMP JUMPDEST PUSH0 DUP3 DUP3 MSTORE PUSH1 0x20 DUP3 ADD SWAP1 POP SWAP3 SWAP2 POP POP JUMP JUMPDEST DUP3 DUP2 DUP4 MCOPY PUSH0 DUP4 DUP4 ADD MSTORE POP POP POP JUMP JUMPDEST PUSH0 PUSH1 0x1F NOT PUSH1 0x1F DUP4 ADD AND SWAP1 POP SWAP2 SWAP1 POP JUMP JUMPDEST PUSH0 PUSH2 0x82B DUP3 PUSH2 0x7E9 JUMP JUMPDEST PUSH2 0x835 DUP2 DUP6 PUSH2 0x7F3 JUMP JUMPDEST SWAP4 POP PUSH2 0x845 DUP2 DUP6 PUSH1 0x20 DUP7 ADD PUSH2 0x803 JUMP JUMPDEST PUSH2 0x84E DUP2 PUSH2 0x811 JUMP JUMPDEST DUP5 ADD SWAP2 POP POP SWAP3 SWAP2 POP POP JUMP JUMPDEST PUSH0 PUSH1 0x20 DUP3 ADD SWAP1 POP DUP2 DUP2 SUB PUSH0 DUP4 ADD MSTORE PUSH2 0x871 DUP2 DUP5 PUSH2 0x821 JUMP JUMPDEST SWAP1 POP SWAP3 SWAP2 POP POP JUMP JUMPDEST PUSH0 PUSH1 0x40 MLOAD SWAP1 POP SWAP1 JUMP JUMPDEST PUSH0 DUP1 REVERT JUMPDEST PUSH0 DUP1 REVERT JUMPDEST PUSH0 DUP1 REVERT JUMPDEST PUSH0 DUP1 REVERT JUMPDEST PUSH32 0x4E487B7100000000000000000000000000000000000000000000000000000000 PUSH0 MSTORE PUSH1 0x41 PUSH1 0x4 MSTORE PUSH1 0x24 PUSH0 REVERT JUMPDEST PUSH2 0x8C8 DUP3 PUSH2 0x811 JUMP JUMPDEST DUP2 ADD DUP2 DUP2 LT PUSH8 0xFFFFFFFFFFFFFFFF DUP3 GT OR ISZERO PUSH2 0x8E7 JUMPI PUSH2 0x8E6 PUSH2 0x892 JUMP JUMPDEST JUMPDEST DUP1 PUSH1 0x40 MSTORE POP POP POP JUMP JUMPDEST PUSH0 PUSH2 0x8F9 PUSH2 0x879 JUMP JUMPDEST SWAP1 POP PUSH2 0x905 DUP3 DUP3 PUSH2 0x8BF JUMP JUMPDEST SWAP2 SWAP1 POP JUMP JUMPDEST PUSH0 PUSH8 0xFFFFFFFFFFFFFFFF DUP3 GT ISZERO PUSH2 0x924 JUMPI PUSH2 0x923 PUSH2 0x892 JUMP JUMPDEST JUMPDEST PUSH2 0x92D DUP3 PUSH2 0x811 JUMP JUMPDEST SWAP1 POP PUSH1 0x20 DUP2 ADD SWAP1 POP SWAP2 SWAP1 POP JUMP JUMPDEST DUP3 DUP2 DUP4 CALLDATACOPY PUSH0 DUP4 DUP4 ADD MSTORE POP POP POP JUMP JUMPDEST PUSH0 PUSH2 0x95A PUSH2 0x955 DUP5 PUSH2 0x90A JUMP JUMPDEST PUSH2 0x8F0 JUMP JUMPDEST SWAP1 POP DUP3 DUP2 MSTORE PUSH1 0x20 DUP2 ADD DUP5 DUP5 DUP5 ADD GT ISZERO PUSH2 0x976 JUMPI PUSH2 0x975 PUSH2 0x88E JUMP JUMPDEST JUMPDEST PUSH2 0x981 DUP5 DUP3 DUP6 PUSH2 0x93A JUMP JUMPDEST POP SWAP4 SWAP3 POP POP POP JUMP JUMPDEST PUSH0 DUP3 PUSH1 0x1F DUP4 ADD SLT PUSH2 0x99D JUMPI PUSH2 0x99C PUSH2 0x88A JUMP JUMPDEST JUMPDEST DUP2 CALLDATALOAD PUSH2 0x9AD DUP5 DUP3 PUSH1 0x20 DUP7 ADD PUSH2 0x948 JUMP JUMPDEST SWAP2 POP POP SWAP3 SWAP2 POP POP JUMP JUMPDEST PUSH0 PUSH1 0x20 DUP3 DUP5 SUB SLT ISZERO PUSH2 0x9CB JUMPI PUSH2 0x9CA PUSH2 0x882 JUMP JUMPDEST JUMPDEST PUSH0 DUP3 ADD CALLDATALOAD PUSH8 0xFFFFFFFFFFFFFFFF DUP2 GT ISZERO PUSH2 0x9E8 JUMPI PUSH2 0x9E7 PUSH2 0x886 JUMP JUMPDEST JUMPDEST PUSH2 0x9F4 DUP5 DUP3 DUP6 ADD PUSH2 0x989 JUMP JUMPDEST SWAP2 POP POP SWAP3 SWAP2 POP POP JUMP JUMPDEST PUSH0 DUP2 SWAP1 POP SWAP2 SWAP1 POP JUMP JUMPDEST PUSH0 DUP2 SWAP1 POP SWAP2 SWAP1 POP JUMP JUMPDEST PUSH2 0xA20 PUSH2 0xA1B DUP3 PUSH2 0x9FD JUMP JUMPDEST PUSH2 0xA06 JUMP JUMPDEST DUP3 MSTORE POP POP JUMP JUMPDEST PUSH0 PUSH2 0xA31 DUP3 DUP7 PUSH2 0xA0F JUMP JUMPDEST PUSH1 0x20 DUP3 ADD SWAP2 POP PUSH2 0xA41 DUP3 DUP6 PUSH2 0xA0F JUMP JUMPDEST PUSH1 0x20 DUP3 ADD SWAP2 POP PUSH2 0xA51 DUP3 DUP5 PUSH2 0xA0F JUMP JUMPDEST PUSH1 0x20 DUP3 ADD SWAP2 POP DUP2 SWAP1 POP SWAP5 SWAP4 POP POP POP POP JUMP JUMPDEST PUSH32 0x4E487B7100000000000000000000000000000000000000000000000000000000 PUSH0 MSTORE PUSH1 0x12 PUSH1 0x4 MSTORE PUSH1 0x24 PUSH0 REVERT JUMPDEST PUSH0 PUSH2 0xA99 DUP3 PUSH2 0x9FD JUMP JUMPDEST SWAP2 POP PUSH2 0xAA4 DUP4 PUSH2 0x9FD JUMP JUMPDEST SWAP3 POP DUP3 PUSH2 0xAB4 JUMPI PUSH2 0xAB3 PUSH2 0xA62 JUMP JUMPDEST JUMPDEST DUP3 DUP3 MOD SWAP1 POP SWAP3 SWAP2 POP POP JUMP JUMPDEST PUSH32 0x4E487B7100000000000000000000000000000000000000000000000000000000 PUSH0 MSTORE PUSH1 0x22 PUSH1 0x4 MSTORE PUSH1 0x24 PUSH0 REVERT JUMPDEST PUSH0 PUSH1 0x2 DUP3 DIV SWAP1 POP PUSH1 0x1 DUP3 AND DUP1 PUSH2 0xB03 JUMPI PUSH1 0x7F DUP3 AND SWAP2 POP JUMPDEST PUSH1 0x20 DUP3 LT DUP2 SUB PUSH2 0xB16 JUMPI PUSH2 0xB15 PUSH2 0xABF JUMP JUMPDEST JUMPDEST POP SWAP2 SWAP1 POP JUMP JUMPDEST PUSH32 0x596F75206D7573742063686F6F736520726F636B2C207061706572206F722073 PUSH0 DUP3 ADD MSTORE PUSH32 0x6369736F72000000000000000000000000000000000000000000000000000000 PUSH1 0x20 DUP3 ADD MSTORE POP JUMP JUMPDEST PUSH0 PUSH2 0xB76 PUSH1 0x25 DUP4 PUSH2 0x7F3 JUMP JUMPDEST SWAP2 POP PUSH2 0xB81 DUP3 PUSH2 0xB1C JUMP JUMPDEST PUSH1 0x40 DUP3 ADD SWAP1 POP SWAP2 SWAP1 POP JUMP JUMPDEST PUSH0 PUSH1 0x20 DUP3 ADD SWAP1 POP DUP2 DUP2 SUB PUSH0 DUP4 ADD MSTORE PUSH2 0xBA3 DUP2 PUSH2 0xB6A JUMP JUMPDEST SWAP1 POP SWAP2 SWAP1 POP JUMP JUMPDEST PUSH0 DUP2 SWAP1 POP DUP2 PUSH0 MSTORE PUSH1 0x20 PUSH0 KECCAK256 SWAP1 POP SWAP2 SWAP1 POP JUMP JUMPDEST PUSH0 PUSH1 0x20 PUSH1 0x1F DUP4 ADD DIV SWAP1 POP SWAP2 SWAP1 POP JUMP JUMPDEST PUSH0 DUP3 DUP3 SHL SWAP1 POP SWAP3 SWAP2 POP POP JUMP JUMPDEST PUSH0 PUSH1 0x8 DUP4 MUL PUSH2 0xC06 PUSH32 0xFFFFFFFFFFFFFFFFFFFFFFFFFFFFFFFFFFFFFFFFFFFFFFFFFFFFFFFFFFFFFFFF DUP3 PUSH2 0xBCB JUMP JUMPDEST PUSH2 0xC10 DUP7 DUP4 PUSH2 0xBCB JUMP JUMPDEST SWAP6 POP DUP1 NOT DUP5 AND SWAP4 POP DUP1 DUP7 AND DUP5 OR SWAP3 POP POP POP SWAP4 SWAP3 POP POP POP JUMP JUMPDEST PUSH0 DUP2 SWAP1 POP SWAP2 SWAP1 POP JUMP JUMPDEST PUSH0 PUSH2 0xC4B PUSH2 0xC46 PUSH2 0xC41 DUP5 PUSH2 0x9FD JUMP JUMPDEST PUSH2 0xC28 JUMP JUMPDEST PUSH2 0x9FD JUMP JUMPDEST SWAP1 POP SWAP2 SWAP1 POP JUMP JUMPDEST PUSH0 DUP2 SWAP1 POP SWAP2 SWAP1 POP JUMP JUMPDEST PUSH2 0xC64 DUP4 PUSH2 0xC31 JUMP JUMPDEST PUSH2 0xC78 PUSH2 0xC70 DUP3 PUSH2 0xC52 JUMP JUMPDEST DUP5 DUP5 SLOAD PUSH2 0xBD7 JUMP JUMPDEST DUP3 SSTORE POP POP POP POP JUMP JUMPDEST PUSH0 SWAP1 JUMP JUMPDEST PUSH2 0xC8C PUSH2 0xC80 JUMP JUMPDEST PUSH2 0xC97 DUP2 DUP5 DUP5 PUSH2 0xC5B JUMP JUMPDEST POP POP POP JUMP JUMPDEST JUMPDEST DUP2 DUP2 LT ISZERO PUSH2 0xCBA JUMPI PUSH2 0xCAF PUSH0 DUP3 PUSH2 0xC84 JUMP JUMPDEST PUSH1 0x1 DUP2 ADD SWAP1 POP PUSH2 0xC9D JUMP JUMPDEST POP POP JUMP JUMPDEST PUSH1 0x1F DUP3 GT ISZERO PUSH2 0xCFF JUMPI PUSH2 0xCD0 DUP2 PUSH2 0xBAA JUMP JUMPDEST PUSH2 0xCD9 DUP5 PUSH2 0xBBC JUMP JUMPDEST DUP2 ADD PUSH1 0x20 DUP6 LT ISZERO PUSH2 0xCE8 JUMPI DUP2 SWAP1 POP JUMPDEST PUSH2 0xCFC PUSH2 0xCF4 DUP6 PUSH2 0xBBC JUMP JUMPDEST DUP4 ADD DUP3 PUSH2 0xC9C JUMP JUMPDEST POP POP JUMPDEST POP POP POP JUMP JUMPDEST PUSH0 DUP3 DUP3 SHR SWAP1 POP SWAP3 SWAP2 POP POP JUMP JUMPDEST PUSH0 PUSH2 0xD1F PUSH0 NOT DUP5 PUSH1 0x8 MUL PUSH2 0xD04 JUMP JUMPDEST NOT DUP1 DUP4 AND SWAP2 POP POP SWAP3 SWAP2 POP POP JUMP JUMPDEST PUSH0 PUSH2 0xD37 DUP4 DUP4 PUSH2 0xD10 JUMP JUMPDEST SWAP2 POP DUP3 PUSH1 0x2 MUL DUP3 OR SWAP1 POP SWAP3 SWAP2 POP POP JUMP JUMPDEST PUSH2 0xD50 DUP3 PUSH2 0x7E9 JUMP JUMPDEST PUSH8 0xFFFFFFFFFFFFFFFF DUP2 GT ISZERO PUSH2 0xD69 JUMPI PUSH2 0xD68 PUSH2 0x892 JUMP JUMPDEST JUMPDEST PUSH2 0xD73 DUP3 SLOAD PUSH2 0xAEC JUMP JUMPDEST PUSH2 0xD7E DUP3 DUP3 DUP6 PUSH2 0xCBE JUMP JUMPDEST PUSH0 PUSH1 0x20 SWAP1 POP PUSH1 0x1F DUP4 GT PUSH1 0x1 DUP2 EQ PUSH2 0xDAF JUMPI PUSH0 DUP5 ISZERO PUSH2 0xD9D JUMPI DUP3 DUP8 ADD MLOAD SWAP1 POP JUMPDEST PUSH2 0xDA7 DUP6 DUP3 PUSH2 0xD2C JUMP JUMPDEST DUP7 SSTORE POP PUSH2 0xE0E JUMP JUMPDEST PUSH1 0x1F NOT DUP5 AND PUSH2 0xDBD DUP7 PUSH2 0xBAA JUMP JUMPDEST PUSH0 JUMPDEST DUP3 DUP2 LT ISZERO PUSH2 0xDE4 JUMPI DUP5 DUP10 ADD MLOAD DUP3 SSTORE PUSH1 0x1 DUP3 ADD SWAP2 POP PUSH1 0x20 DUP6 ADD SWAP5 POP PUSH1 0x20 DUP2 ADD SWAP1 POP PUSH2 0xDBF JUMP JUMPDEST DUP7 DUP4 LT ISZERO PUSH2 0xE01 JUMPI DUP5 DUP10 ADD MLOAD PUSH2 0xDFD PUSH1 0x1F DUP10 AND DUP3 PUSH2 0xD10 JUMP JUMPDEST DUP4 SSTORE POP JUMPDEST PUSH1 0x1 PUSH1 0x2 DUP9 MUL ADD DUP9 SSTORE POP POP POP JUMPDEST POP POP POP POP POP POP JUMP INVALID LOG2 PUSH5 0x6970667358 0x22 SLT KECCAK256 0xAE 0xD7 0xD0 SWAP10 SLT 0xEC SAR 0xA9 0xB0 0xC3 SIGNEXTEND SWAP1 PUSH29 0xDC662394F336BAA128171918477D5A98A24BC464736F6C634300081A00 CALLER "
				},
				"gasEstimates": {
					"creation": {
						"codeDepositCost": "732000",
						"executionCost": "infinite",
						"totalCost": "infinite"
					},
					"external": {
						"choicePlayer1()": "infinite",
						"choose(string)": "infinite",
						"getRandomChoice()": "infinite",
						"play()": "infinite"
					},
					"internal": {
						"compare(string memory,string memory)": "infinite"
					}
				},
				"methodIdentifiers": {
					"choicePlayer1()": "82b54173",
					"choose(string)": "98c8d81f",
					"getRandomChoice()": "39476787",
					"play()": "93e84cd9"
				}
			},
			"storageLayout": {
				"storage": [
					{
						"astId": 3,
						"contract": "solidity/JoKenPo.sol:JoKenPo",
						"label": "choicePlayer1",
						"offset": 0,
						"slot": "0",
						"type": "t_string_storage"
					},
					{
						"astId": 6,
						"contract": "solidity/JoKenPo.sol:JoKenPo",
						"label": "status",
						"offset": 0,
						"slot": "1",
						"type": "t_string_storage"
					}
				],
				"types": {
					"t_string_storage": {
						"encoding": "bytes",
						"label": "string",
						"numberOfBytes": "32"
					}
				}
			},
			"userdoc": {
				"kind": "user",
				"methods": {},
				"version": 1
			}
		}
	}
}