{
	"data": {
		"bytecode": {
			"linkReferences": {},
			"object": "608060405260405180602001604052805f8152505f908161002091906102a5565b505f600160146101000a81548160ff021916908360ff16021790555060405180602001604052805f8152506002908161005991906102a5565b50348015610065575f80fd5b50610374565b5f81519050919050565b7f4e487b71000000000000000000000000000000000000000000000000000000005f52604160045260245ffd5b7f4e487b71000000000000000000000000000000000000000000000000000000005f52602260045260245ffd5b5f60028204905060018216806100e657607f821691505b6020821081036100f9576100f86100a2565b5b50919050565b5f819050815f5260205f209050919050565b5f6020601f8301049050919050565b5f82821b905092915050565b5f6008830261015b7fffffffffffffffffffffffffffffffffffffffffffffffffffffffffffffffff82610120565b6101658683610120565b95508019841693508086168417925050509392505050565b5f819050919050565b5f819050919050565b5f6101a96101a461019f8461017d565b610186565b61017d565b9050919050565b5f819050919050565b6101c28361018f565b6101d66101ce826101b0565b84845461012c565b825550505050565b5f90565b6101ea6101de565b6101f58184846101b9565b505050565b5b818110156102185761020d5f826101e2565b6001810190506101fb565b5050565b601f82111561025d5761022e816100ff565b61023784610111565b81016020851015610246578190505b61025a61025285610111565b8301826101fa565b50505b505050565b5f82821c905092915050565b5f61027d5f1984600802610262565b1980831691505092915050565b5f610295838361026e565b9150826002028217905092915050565b6102ae8261006b565b67ffffffffffffffff8111156102c7576102c6610075565b5b6102d182546100cf565b6102dc82828561021c565b5f60209050601f83116001811461030d575f84156102fb578287015190505b610305858261028a565b86555061036c565b601f19841661031b866100ff565b5f5b828110156103425784890151825560018201915060208501945060208101905061031d565b8683101561035f578489015161035b601f89168261026e565b8355505b6001600288020188555050505b505050505050565b611b41806103815f395ff3fe608060405234801561000f575f80fd5b5060043610610055575f3560e01c8063200d2ed21461005957806353a04b051461007757806382b541731461009357806398c8d81f146100b1578063d30895e4146100cd575b5f80fd5b6100616100eb565b60405161006e9190610f13565b60405180910390f35b610091600480360381019061008c9190610f7a565b610177565b005b61009b6106c6565b6040516100a89190610f13565b60405180910390f35b6100cb60048036038101906100c691906110d1565b610751565b005b6100d56109c7565b6040516100e29190611157565b60405180910390f35b600280546100f89061119d565b80601f01602080910402602001604051908101604052809291908181526020018280546101249061119d565b801561016f5780601f106101465761010080835404028352916020019161016f565b820191905f5260205f20905b81548152906001019060200180831161015257829003601f168201915b505050505081565b6102165f80546101869061119d565b80601f01602080910402602001604051908101604052809291908181526020018280546101b29061119d565b80156101fd5780601f106101d4576101008083540402835291602001916101fd565b820191905f5260205f20905b8154815290600101906020018083116101e057829003601f168201915b505050505060405180602001604052805f8152506109ec565b15610256576040517f08c379a000000000000000000000000000000000000000000000000000000000815260040161024d9061123d565b60405180910390fd5b5f8160ff161161029b576040517f08c379a0000000000000000000000000000000000000000000000000000000008152600401610292906112cb565b60405180910390fd5b60015f9054906101000a900473ffffffffffffffffffffffffffffffffffffffff1673ffffffffffffffffffffffffffffffffffffffff163373ffffffffffffffffffffffffffffffffffffffff16036103375780600160146101000a81548160ff021916908360ff1602179055506040518060600160405280602a8152602001611ae2602a913960029081610331919061148f565b506106c3565b5f600160149054906101000a900460ff1660ff161161038b576040517f08c379a0000000000000000000000000000000000000000000000000000000008152600401610382906115a8565b60405180910390fd5b5f806002600160149054906101000a900460ff16846103aa91906115f3565b6103b49190611654565b60ff161490505f806103d7600160149054906101000a900460ff1660ff16610a1d565b6103e38560ff16610a1d565b6040516020016103f5939291906117b0565b60405160208183030381529060405290508180156104d557506104d45f805461041d9061119d565b80601f01602080910402602001604051908101604052809291908181526020018280546104499061119d565b80156104945780601f1061046b57610100808354040283529160200191610494565b820191905f5260205f20905b81548152906001019060200180831161047757829003601f168201915b50505050506040518060400160405280600481526020017f4556454e000000000000000000000000000000000000000000000000000000008152506109ec565b5b1561050e57806040516020016104eb9190611833565b60405160208183030381529060405260029081610508919061148f565b50610648565b811580156105de57506105dd5f80546105269061119d565b80601f01602080910402602001604051908101604052809291908181526020018280546105529061119d565b801561059d5780601f106105745761010080835404028352916020019161059d565b820191905f5260205f20905b81548152906001019060200180831161058057829003601f168201915b50505050506040518060400160405280600381526020017f4f444400000000000000000000000000000000000000000000000000000000008152506109ec565b5b1561061757806040516020016105f49190611833565b60405160208183030381529060405260029081610611919061148f565b50610647565b80604051602001610628919061187e565b60405160208183030381529060405260029081610645919061148f565b505b5b60405180602001604052805f8152505f9081610664919061148f565b505f600160146101000a81548160ff021916908360ff1602179055505f60015f6101000a81548173ffffffffffffffffffffffffffffffffffffffff021916908373ffffffffffffffffffffffffffffffffffffffff16021790555050505b50565b5f80546106d29061119d565b80601f01602080910402602001604051908101604052809291908181526020018280546106fe9061119d565b80156107495780601f1061072057610100808354040283529160200191610749565b820191905f5260205f20905b81548152906001019060200180831161072c57829003601f168201915b505050505081565b610790816040518060400160405280600481526020017f4556454e000000000000000000000000000000000000000000000000000000008152506109ec565b806107d657506107d5816040518060400160405280600381526020017f4f444400000000000000000000000000000000000000000000000000000000008152506109ec565b5b610815576040517f08c379a000000000000000000000000000000000000000000000000000000000815260040161080c906118ed565b60405180910390fd5b5f806040516020016108279190611931565b60405160208183030381529060405290506108d75f80546108479061119d565b80601f01602080910402602001604051908101604052809291908181526020018280546108739061119d565b80156108be5780601f10610895576101008083540402835291602001916108be565b820191905f5260205f20905b8154815290600101906020018083116108a157829003601f168201915b505050505060405180602001604052805f8152506109ec565b8190610919576040517f08c379a00000000000000000000000000000000000000000000000000000000081526004016109109190610f13565b60405180910390fd5b50815f9081610928919061148f565b503360015f6101000a81548173ffffffffffffffffffffffffffffffffffffffff021916908373ffffffffffffffffffffffffffffffffffffffff16021790555061099360015f9054906101000a900473ffffffffffffffffffffffffffffffffffffffff16610ae7565b5f6040516020016109a59291906119a2565b604051602081830303815290604052600290816109c2919061148f565b505050565b60015f9054906101000a900473ffffffffffffffffffffffffffffffffffffffff1681565b5f808390505f83905080518251148015610a13575080805190602001208280519060200120145b9250505092915050565b60605f6001610a2b84610b14565b0190505f8167ffffffffffffffff811115610a4957610a48610fad565b5b6040519080825280601f01601f191660200182016040528015610a7b5781602001600182028036833780820191505090505b5090505f82602001820190505b600115610adc578080600190039150507f3031323334353637383961626364656600000000000000000000000000000000600a86061a8153600a8581610ad157610ad0611627565b5b0494505f8503610a88575b819350505050919050565b6060610b0d8273ffffffffffffffffffffffffffffffffffffffff16601460ff16610c65565b9050919050565b5f805f90507a184f03e93ff9f4daa797ed6e38ed64bf6a1f0100000000000000008310610b70577a184f03e93ff9f4daa797ed6e38ed64bf6a1f0100000000000000008381610b6657610b65611627565b5b0492506040810190505b6d04ee2d6d415b85acef81000000008310610bad576d04ee2d6d415b85acef81000000008381610ba357610ba2611627565b5b0492506020810190505b662386f26fc100008310610bdc57662386f26fc100008381610bd257610bd1611627565b5b0492506010810190505b6305f5e1008310610c05576305f5e1008381610bfb57610bfa611627565b5b0492506008810190505b6127108310610c2a576127108381610c2057610c1f611627565b5b0492506004810190505b60648310610c4d5760648381610c4357610c42611627565b5b0492506002810190505b600a8310610c5c576001810190505b80915050919050565b60605f8390505f6002846002610c7b91906119e3565b610c859190611a24565b67ffffffffffffffff811115610c9e57610c9d610fad565b5b6040519080825280601f01601f191660200182016040528015610cd05781602001600182028036833780820191505090505b5090507f3000000000000000000000000000000000000000000000000000000000000000815f81518110610d0757610d06611a57565b5b60200101907effffffffffffffffffffffffffffffffffffffffffffffffffffffffffffff191690815f1a9053507f780000000000000000000000000000000000000000000000000000000000000081600181518110610d6a57610d69611a57565b5b60200101907effffffffffffffffffffffffffffffffffffffffffffffffffffffffffffff191690815f1a9053505f6001856002610da891906119e3565b610db29190611a24565b90505b6001811115610e51577f3031323334353637383961626364656600000000000000000000000000000000600f841660108110610df457610df3611a57565b5b1a60f81b828281518110610e0b57610e0a611a57565b5b60200101907effffffffffffffffffffffffffffffffffffffffffffffffffffffffffffff191690815f1a905350600483901c925080610e4a90611a84565b9050610db5565b505f8214610e985784846040517fe22e27eb000000000000000000000000000000000000000000000000000000008152600401610e8f929190611aba565b60405180910390fd5b809250505092915050565b5f81519050919050565b5f82825260208201905092915050565b8281835e5f83830152505050565b5f601f19601f8301169050919050565b5f610ee582610ea3565b610eef8185610ead565b9350610eff818560208601610ebd565b610f0881610ecb565b840191505092915050565b5f6020820190508181035f830152610f2b8184610edb565b905092915050565b5f604051905090565b5f80fd5b5f80fd5b5f60ff82169050919050565b610f5981610f44565b8114610f63575f80fd5b50565b5f81359050610f7481610f50565b92915050565b5f60208284031215610f8f57610f8e610f3c565b5b5f610f9c84828501610f66565b91505092915050565b5f80fd5b5f80fd5b7f4e487b71000000000000000000000000000000000000000000000000000000005f52604160045260245ffd5b610fe382610ecb565b810181811067ffffffffffffffff8211171561100257611001610fad565b5b80604052505050565b5f611014610f33565b90506110208282610fda565b919050565b5f67ffffffffffffffff82111561103f5761103e610fad565b5b61104882610ecb565b9050602081019050919050565b828183375f83830152505050565b5f61107561107084611025565b61100b565b90508281526020810184848401111561109157611090610fa9565b5b61109c848285611055565b509392505050565b5f82601f8301126110b8576110b7610fa5565b5b81356110c8848260208601611063565b91505092915050565b5f602082840312156110e6576110e5610f3c565b5b5f82013567ffffffffffffffff81111561110357611102610f40565b5b61110f848285016110a4565b91505092915050565b5f73ffffffffffffffffffffffffffffffffffffffff82169050919050565b5f61114182611118565b9050919050565b61115181611137565b82525050565b5f60208201905061116a5f830184611148565b92915050565b7f4e487b71000000000000000000000000000000000000000000000000000000005f52602260045260245ffd5b5f60028204905060018216806111b457607f821691505b6020821081036111c7576111c6611170565b5b50919050565b7f46697273742c2063686f6f736520796f7572206f7074696f6e20284556454e205f8201527f6f72204f44442900000000000000000000000000000000000000000000000000602082015250565b5f611227602783610ead565b9150611232826111cd565b604082019050919050565b5f6020820190508181035f8301526112548161121b565b9050919050565b7f546865206e756d626572206d7573742062652067726561746572207468616e205f8201527f302e000000000000000000000000000000000000000000000000000000000000602082015250565b5f6112b5602283610ead565b91506112c08261125b565b604082019050919050565b5f6020820190508181035f8301526112e2816112a9565b9050919050565b5f819050815f5260205f209050919050565b5f6020601f8301049050919050565b5f82821b905092915050565b5f600883026113457fffffffffffffffffffffffffffffffffffffffffffffffffffffffffffffffff8261130a565b61134f868361130a565b95508019841693508086168417925050509392505050565b5f819050919050565b5f819050919050565b5f61139361138e61138984611367565b611370565b611367565b9050919050565b5f819050919050565b6113ac83611379565b6113c06113b88261139a565b848454611316565b825550505050565b5f90565b6113d46113c8565b6113df8184846113a3565b505050565b5b81811015611402576113f75f826113cc565b6001810190506113e5565b5050565b601f82111561144757611418816112e9565b611421846112fb565b81016020851015611430578190505b61144461143c856112fb565b8301826113e4565b50505b505050565b5f82821c905092915050565b5f6114675f198460080261144c565b1980831691505092915050565b5f61147f8383611458565b9150826002028217905092915050565b61149882610ea3565b67ffffffffffffffff8111156114b1576114b0610fad565b5b6114bb825461119d565b6114c6828285611406565b5f60209050601f8311600181146114f7575f84156114e5578287015190505b6114ef8582611474565b865550611556565b601f198416611505866112e9565b5f5b8281101561152c57848901518255600182019150602085019450602081019050611507565b868310156115495784890151611545601f891682611458565b8355505b6001600288020188555050505b505050505050565b7f506c617965722031206e6565647320746f20706c61792066697273742e0000005f82015250565b5f611592601d83610ead565b915061159d8261155e565b602082019050919050565b5f6020820190508181035f8301526115bf81611586565b9050919050565b7f4e487b71000000000000000000000000000000000000000000000000000000005f52601160045260245ffd5b5f6115fd82610f44565b915061160883610f44565b9250828201905060ff811115611621576116206115c6565b5b92915050565b7f4e487b71000000000000000000000000000000000000000000000000000000005f52601260045260245ffd5b5f61165e82610f44565b915061166983610f44565b92508261167957611678611627565b5b828206905092915050565b7f506c617965722063686f6f736520000000000000000000000000000000000000815250565b5f81905092915050565b5f81546116c08161119d565b6116ca81866116aa565b9450600182165f81146116e457600181146116f95761172b565b60ff198316865281151582028601935061172b565b611702856112e9565b5f5b8381101561172357815481890152600182019150602081019050611704565b838801955050505b50505092915050565b7f20616e6420706c61797320000000000000000000000000000000000000000000815250565b5f61176482610ea3565b61176e81856116aa565b935061177e818560208601610ebd565b80840191505092915050565b7f2e20506c61796572203220706c61797320000000000000000000000000000000815250565b5f6117ba82611684565b600e820191506117ca82866116b4565b91506117d582611734565b600b820191506117e5828561175a565b91506117f08261178a565b601182019150611800828461175a565b9150819050949350505050565b7f2e20506c61796572203120776f6e2e0000000000000000000000000000000000815250565b5f61183e828461175a565b91506118498261180d565b600f8201915081905092915050565b7f2e20506c61796572203220776f6e2e0000000000000000000000000000000000815250565b5f611889828461175a565b915061189482611858565b600f8201915081905092915050565b7f43686f6f7365204556454e206f72204f444400000000000000000000000000005f82015250565b5f6118d7601283610ead565b91506118e2826118a3565b602082019050919050565b5f6020820190508181035f830152611904816118cb565b9050919050565b7f506c61796572203120616c72656164792063686f6f7365200000000000000000815250565b5f61193b8261190b565b60188201915061194b82846116b4565b915081905092915050565b7f506c617965722031206973200000000000000000000000000000000000000000815250565b7f20616e642063686f6f7365200000000000000000000000000000000000000000815250565b5f6119ac82611956565b600c820191506119bc828561175a565b91506119c78261197c565b600c820191506119d782846116b4565b91508190509392505050565b5f6119ed82611367565b91506119f883611367565b9250828202611a0681611367565b91508282048414831517611a1d57611a1c6115c6565b5b5092915050565b5f611a2e82611367565b9150611a3983611367565b9250828201905080821115611a5157611a506115c6565b5b92915050565b7f4e487b71000000000000000000000000000000000000000000000000000000005f52603260045260245ffd5b5f611a8e82611367565b91505f8203611aa057611a9f6115c6565b5b600182039050919050565b611ab481611367565b82525050565b5f604082019050611acd5f830185611aab565b611ada6020830184611aab565b939250505056fe506c61796572203120616c726561647920706c617965642e2057616974696e6720706c6179657220322ea2646970667358221220df9cbf9a2f7cca2b949e031dd3b7d05c2ac99dacf99fec0f2a8479005ea7940064736f6c634300081a0033",
			"opcodes": "PUSH1 0x80 PUSH1 0x40 MSTORE PUSH1 0x40 MLOAD DUP1 PUSH1 0x20 ADD PUSH1 0x40 MSTORE DUP1 PUSH0 DUP2 MSTORE POP PUSH0 SWAP1 DUP2 PUSH2 0x20 SWAP2 SWAP1 PUSH2 0x2A5 JUMP JUMPDEST POP PUSH0 PUSH1 0x1 PUSH1 0x14 PUSH2 0x100 EXP DUP2 SLOAD DUP2 PUSH1 0xFF MUL NOT AND SWAP1 DUP4 PUSH1 0xFF AND MUL OR SWAP1 SSTORE POP PUSH1 0x40 MLOAD DUP1 PUSH1 0x20 ADD PUSH1 0x40 MSTORE DUP1 PUSH0 DUP2 MSTORE POP PUSH1 0x2 SWAP1 DUP2 PUSH2 0x59 SWAP2 SWAP1 PUSH2 0x2A5 JUMP JUMPDEST POP CALLVALUE DUP1 ISZERO PUSH2 0x65 JUMPI PUSH0 DUP1 REVERT JUMPDEST POP PUSH2 0x374 JUMP JUMPDEST PUSH0 DUP2 MLOAD SWAP1 POP SWAP2 SWAP1 POP JUMP JUMPDEST PUSH32 0x4E487B7100000000000000000000000000000000000000000000000000000000 PUSH0 MSTORE PUSH1 0x41 PUSH1 0x4 MSTORE PUSH1 0x24 PUSH0 REVERT JUMPDEST PUSH32 0x4E487B7100000000000000000000000000000000000000000000000000000000 PUSH0 MSTORE PUSH1 0x22 PUSH1 0x4 MSTORE PUSH1 0x24 PUSH0 REVERT JUMPDEST PUSH0 PUSH1 0x2 DUP3 DIV SWAP1 POP PUSH1 0x1 DUP3 AND DUP1 PUSH2 0xE6 JUMPI PUSH1 0x7F DUP3 AND SWAP2 POP JUMPDEST PUSH1 0x20 DUP3 LT DUP2 SUB PUSH2 0xF9 JUMPI PUSH2 0xF8 PUSH2 0xA2 JUMP JUMPDEST JUMPDEST POP SWAP2 SWAP1 POP JUMP JUMPDEST PUSH0 DUP2 SWAP1 POP DUP2 PUSH0 MSTORE PUSH1 0x20 PUSH0 KECCAK256 SWAP1 POP SWAP2 SWAP1 POP JUMP JUMPDEST PUSH0 PUSH1 0x20 PUSH1 0x1F DUP4 ADD DIV SWAP1 POP SWAP2 SWAP1 POP JUMP JUMPDEST PUSH0 DUP3 DUP3 SHL SWAP1 POP SWAP3 SWAP2 POP POP JUMP JUMPDEST PUSH0 PUSH1 0x8 DUP4 MUL PUSH2 0x15B PUSH32 0xFFFFFFFFFFFFFFFFFFFFFFFFFFFFFFFFFFFFFFFFFFFFFFFFFFFFFFFFFFFFFFFF DUP3 PUSH2 0x120 JUMP JUMPDEST PUSH2 0x165 DUP7 DUP4 PUSH2 0x120 JUMP JUMPDEST SWAP6 POP DUP1 NOT DUP5 AND SWAP4 POP DUP1 DUP7 AND DUP5 OR SWAP3 POP POP POP SWAP4 SWAP3 POP POP POP JUMP JUMPDEST PUSH0 DUP2 SWAP1 POP SWAP2 SWAP1 POP JUMP JUMPDEST PUSH0 DUP2 SWAP1 POP SWAP2 SWAP1 POP JUMP JUMPDEST PUSH0 PUSH2 0x1A9 PUSH2 0x1A4 PUSH2 0x19F DUP5 PUSH2 0x17D JUMP JUMPDEST PUSH2 0x186 JUMP JUMPDEST PUSH2 0x17D JUMP JUMPDEST SWAP1 POP SWAP2 SWAP1 POP JUMP JUMPDEST PUSH0 DUP2 SWAP1 POP SWAP2 SWAP1 POP JUMP JUMPDEST PUSH2 0x1C2 DUP4 PUSH2 0x18F JUMP JUMPDEST PUSH2 0x1D6 PUSH2 0x1CE DUP3 PUSH2 0x1B0 JUMP JUMPDEST DUP5 DUP5 SLOAD PUSH2 0x12C JUMP JUMPDEST DUP3 SSTORE POP POP POP POP JUMP JUMPDEST PUSH0 SWAP1 JUMP JUMPDEST PUSH2 0x1EA PUSH2 0x1DE JUMP JUMPDEST PUSH2 0x1F5 DUP2 DUP5 DUP5 PUSH2 0x1B9 JUMP JUMPDEST POP POP POP JUMP JUMPDEST JUMPDEST DUP2 DUP2 LT ISZERO PUSH2 0x218 JUMPI PUSH2 0x20D PUSH0 DUP3 PUSH2 0x1E2 JUMP JUMPDEST PUSH1 0x1 DUP2 ADD SWAP1 POP PUSH2 0x1FB JUMP JUMPDEST POP POP JUMP JUMPDEST PUSH1 0x1F DUP3 GT ISZERO PUSH2 0x25D JUMPI PUSH2 0x22E DUP2 PUSH2 0xFF JUMP JUMPDEST PUSH2 0x237 DUP5 PUSH2 0x111 JUMP JUMPDEST DUP2 ADD PUSH1 0x20 DUP6 LT ISZERO PUSH2 0x246 JUMPI DUP2 SWAP1 POP JUMPDEST PUSH2 0x25A PUSH2 0x252 DUP6 PUSH2 0x111 JUMP JUMPDEST DUP4 ADD DUP3 PUSH2 0x1FA JUMP JUMPDEST POP POP JUMPDEST POP POP POP JUMP JUMPDEST PUSH0 DUP3 DUP3 SHR SWAP1 POP SWAP3 SWAP2 POP POP JUMP JUMPDEST PUSH0 PUSH2 0x27D PUSH0 NOT DUP5 PUSH1 0x8 MUL PUSH2 0x262 JUMP JUMPDEST NOT DUP1 DUP4 AND SWAP2 POP POP SWAP3 SWAP2 POP POP JUMP JUMPDEST PUSH0 PUSH2 0x295 DUP4 DUP4 PUSH2 0x26E JUMP JUMPDEST SWAP2 POP DUP3 PUSH1 0x2 MUL DUP3 OR SWAP1 POP SWAP3 SWAP2 POP POP JUMP JUMPDEST PUSH2 0x2AE DUP3 PUSH2 0x6B JUMP JUMPDEST PUSH8 0xFFFFFFFFFFFFFFFF DUP2 GT ISZERO PUSH2 0x2C7 JUMPI PUSH2 0x2C6 PUSH2 0x75 JUMP JUMPDEST JUMPDEST PUSH2 0x2D1 DUP3 SLOAD PUSH2 0xCF JUMP JUMPDEST PUSH2 0x2DC DUP3 DUP3 DUP6 PUSH2 0x21C JUMP JUMPDEST PUSH0 PUSH1 0x20 SWAP1 POP PUSH1 0x1F DUP4 GT PUSH1 0x1 DUP2 EQ PUSH2 0x30D JUMPI PUSH0 DUP5 ISZERO PUSH2 0x2FB JUMPI DUP3 DUP8 ADD MLOAD SWAP1 POP JUMPDEST PUSH2 0x305 DUP6 DUP3 PUSH2 0x28A JUMP JUMPDEST DUP7 SSTORE POP PUSH2 0x36C JUMP JUMPDEST PUSH1 0x1F NOT DUP5 AND PUSH2 0x31B DUP7 PUSH2 0xFF JUMP JUMPDEST PUSH0 JUMPDEST DUP3 DUP2 LT ISZERO PUSH2 0x342 JUMPI DUP5 DUP10 ADD MLOAD DUP3 SSTORE PUSH1 0x1 DUP3 ADD SWAP2 POP PUSH1 0x20 DUP6 ADD SWAP5 POP PUSH1 0x20 DUP2 ADD SWAP1 POP PUSH2 0x31D JUMP JUMPDEST DUP7 DUP4 LT ISZERO PUSH2 0x35F JUMPI DUP5 DUP10 ADD MLOAD PUSH2 0x35B PUSH1 0x1F DUP10 AND DUP3 PUSH2 0x26E JUMP JUMPDEST DUP4 SSTORE POP JUMPDEST PUSH1 0x1 PUSH1 0x2 DUP9 MUL ADD DUP9 SSTORE POP POP POP JUMPDEST POP POP POP POP POP POP JUMP JUMPDEST PUSH2 0x1B41 DUP1 PUSH2 0x381 PUSH0 CODECOPY PUSH0 RETURN INVALID PUSH1 0x80 PUSH1 0x40 MSTORE CALLVALUE DUP1 ISZERO PUSH2 0xF JUMPI PUSH0 DUP1 REVERT JUMPDEST POP PUSH1 0x4 CALLDATASIZE LT PUSH2 0x55 JUMPI PUSH0 CALLDATALOAD PUSH1 0xE0 SHR DUP1 PUSH4 0x200D2ED2 EQ PUSH2 0x59 JUMPI DUP1 PUSH4 0x53A04B05 EQ PUSH2 0x77 JUMPI DUP1 PUSH4 0x82B54173 EQ PUSH2 0x93 JUMPI DUP1 PUSH4 0x98C8D81F EQ PUSH2 0xB1 JUMPI DUP1 PUSH4 0xD30895E4 EQ PUSH2 0xCD JUMPI JUMPDEST PUSH0 DUP1 REVERT JUMPDEST PUSH2 0x61 PUSH2 0xEB JUMP JUMPDEST PUSH1 0x40 MLOAD PUSH2 0x6E SWAP2 SWAP1 PUSH2 0xF13 JUMP JUMPDEST PUSH1 0x40 MLOAD DUP1 SWAP2 SUB SWAP1 RETURN JUMPDEST PUSH2 0x91 PUSH1 0x4 DUP1 CALLDATASIZE SUB DUP2 ADD SWAP1 PUSH2 0x8C SWAP2 SWAP1 PUSH2 0xF7A JUMP JUMPDEST PUSH2 0x177 JUMP JUMPDEST STOP JUMPDEST PUSH2 0x9B PUSH2 0x6C6 JUMP JUMPDEST PUSH1 0x40 MLOAD PUSH2 0xA8 SWAP2 SWAP1 PUSH2 0xF13 JUMP JUMPDEST PUSH1 0x40 MLOAD DUP1 SWAP2 SUB SWAP1 RETURN JUMPDEST PUSH2 0xCB PUSH1 0x4 DUP1 CALLDATASIZE SUB DUP2 ADD SWAP1 PUSH2 0xC6 SWAP2 SWAP1 PUSH2 0x10D1 JUMP JUMPDEST PUSH2 0x751 JUMP JUMPDEST STOP JUMPDEST PUSH2 0xD5 PUSH2 0x9C7 JUMP JUMPDEST PUSH1 0x40 MLOAD PUSH2 0xE2 SWAP2 SWAP1 PUSH2 0x1157 JUMP JUMPDEST PUSH1 0x40 MLOAD DUP1 SWAP2 SUB SWAP1 RETURN JUMPDEST PUSH1 0x2 DUP1 SLOAD PUSH2 0xF8 SWAP1 PUSH2 0x119D JUMP JUMPDEST DUP1 PUSH1 0x1F ADD PUSH1 0x20 DUP1 SWAP2 DIV MUL PUSH1 0x20 ADD PUSH1 0x40 MLOAD SWAP1 DUP2 ADD PUSH1 0x40 MSTORE DUP1 SWAP3 SWAP2 SWAP1 DUP2 DUP2 MSTORE PUSH1 0x20 ADD DUP3 DUP1 SLOAD PUSH2 0x124 SWAP1 PUSH2 0x119D JUMP JUMPDEST DUP1 ISZERO PUSH2 0x16F JUMPI DUP1 PUSH1 0x1F LT PUSH2 0x146 JUMPI PUSH2 0x100 DUP1 DUP4 SLOAD DIV MUL DUP4 MSTORE SWAP2 PUSH1 0x20 ADD SWAP2 PUSH2 0x16F JUMP JUMPDEST DUP3 ADD SWAP2 SWAP1 PUSH0 MSTORE PUSH1 0x20 PUSH0 KECCAK256 SWAP1 JUMPDEST DUP2 SLOAD DUP2 MSTORE SWAP1 PUSH1 0x1 ADD SWAP1 PUSH1 0x20 ADD DUP1 DUP4 GT PUSH2 0x152 JUMPI DUP3 SWAP1 SUB PUSH1 0x1F AND DUP3 ADD SWAP2 JUMPDEST POP POP POP POP POP DUP2 JUMP JUMPDEST PUSH2 0x216 PUSH0 DUP1 SLOAD PUSH2 0x186 SWAP1 PUSH2 0x119D JUMP JUMPDEST DUP1 PUSH1 0x1F ADD PUSH1 0x20 DUP1 SWAP2 DIV MUL PUSH1 0x20 ADD PUSH1 0x40 MLOAD SWAP1 DUP2 ADD PUSH1 0x40 MSTORE DUP1 SWAP3 SWAP2 SWAP1 DUP2 DUP2 MSTORE PUSH1 0x20 ADD DUP3 DUP1 SLOAD PUSH2 0x1B2 SWAP1 PUSH2 0x119D JUMP JUMPDEST DUP1 ISZERO PUSH2 0x1FD JUMPI DUP1 PUSH1 0x1F LT PUSH2 0x1D4 JUMPI PUSH2 0x100 DUP1 DUP4 SLOAD DIV MUL DUP4 MSTORE SWAP2 PUSH1 0x20 ADD SWAP2 PUSH2 0x1FD JUMP JUMPDEST DUP3 ADD SWAP2 SWAP1 PUSH0 MSTORE PUSH1 0x20 PUSH0 KECCAK256 SWAP1 JUMPDEST DUP2 SLOAD DUP2 MSTORE SWAP1 PUSH1 0x1 ADD SWAP1 PUSH1 0x20 ADD DUP1 DUP4 GT PUSH2 0x1E0 JUMPI DUP3 SWAP1 SUB PUSH1 0x1F AND DUP3 ADD SWAP2 JUMPDEST POP POP POP POP POP PUSH1 0x40 MLOAD DUP1 PUSH1 0x20 ADD PUSH1 0x40 MSTORE DUP1 PUSH0 DUP2 MSTORE POP PUSH2 0x9EC JUMP JUMPDEST ISZERO PUSH2 0x256 JUMPI PUSH1 0x40 MLOAD PUSH32 0x8C379A000000000000000000000000000000000000000000000000000000000 DUP2 MSTORE PUSH1 0x4 ADD PUSH2 0x24D SWAP1 PUSH2 0x123D JUMP JUMPDEST PUSH1 0x40 MLOAD DUP1 SWAP2 SUB SWAP1 REVERT JUMPDEST PUSH0 DUP2 PUSH1 0xFF AND GT PUSH2 0x29B JUMPI PUSH1 0x40 MLOAD PUSH32 0x8C379A000000000000000000000000000000000000000000000000000000000 DUP2 MSTORE PUSH1 0x4 ADD PUSH2 0x292 SWAP1 PUSH2 0x12CB JUMP JUMPDEST PUSH1 0x40 MLOAD DUP1 SWAP2 SUB SWAP1 REVERT JUMPDEST PUSH1 0x1 PUSH0 SWAP1 SLOAD SWAP1 PUSH2 0x100 EXP SWAP1 DIV PUSH20 0xFFFFFFFFFFFFFFFFFFFFFFFFFFFFFFFFFFFFFFFF AND PUSH20 0xFFFFFFFFFFFFFFFFFFFFFFFFFFFFFFFFFFFFFFFF AND CALLER PUSH20 0xFFFFFFFFFFFFFFFFFFFFFFFFFFFFFFFFFFFFFFFF AND SUB PUSH2 0x337 JUMPI DUP1 PUSH1 0x1 PUSH1 0x14 PUSH2 0x100 EXP DUP2 SLOAD DUP2 PUSH1 0xFF MUL NOT AND SWAP1 DUP4 PUSH1 0xFF AND MUL OR SWAP1 SSTORE POP PUSH1 0x40 MLOAD DUP1 PUSH1 0x60 ADD PUSH1 0x40 MSTORE DUP1 PUSH1 0x2A DUP2 MSTORE PUSH1 0x20 ADD PUSH2 0x1AE2 PUSH1 0x2A SWAP2 CODECOPY PUSH1 0x2 SWAP1 DUP2 PUSH2 0x331 SWAP2 SWAP1 PUSH2 0x148F JUMP JUMPDEST POP PUSH2 0x6C3 JUMP JUMPDEST PUSH0 PUSH1 0x1 PUSH1 0x14 SWAP1 SLOAD SWAP1 PUSH2 0x100 EXP SWAP1 DIV PUSH1 0xFF AND PUSH1 0xFF AND GT PUSH2 0x38B JUMPI PUSH1 0x40 MLOAD PUSH32 0x8C379A000000000000000000000000000000000000000000000000000000000 DUP2 MSTORE PUSH1 0x4 ADD PUSH2 0x382 SWAP1 PUSH2 0x15A8 JUMP JUMPDEST PUSH1 0x40 MLOAD DUP1 SWAP2 SUB SWAP1 REVERT JUMPDEST PUSH0 DUP1 PUSH1 0x2 PUSH1 0x1 PUSH1 0x14 SWAP1 SLOAD SWAP1 PUSH2 0x100 EXP SWAP1 DIV PUSH1 0xFF AND DUP5 PUSH2 0x3AA SWAP2 SWAP1 PUSH2 0x15F3 JUMP JUMPDEST PUSH2 0x3B4 SWAP2 SWAP1 PUSH2 0x1654 JUMP JUMPDEST PUSH1 0xFF AND EQ SWAP1 POP PUSH0 DUP1 PUSH2 0x3D7 PUSH1 0x1 PUSH1 0x14 SWAP1 SLOAD SWAP1 PUSH2 0x100 EXP SWAP1 DIV PUSH1 0xFF AND PUSH1 0xFF AND PUSH2 0xA1D JUMP JUMPDEST PUSH2 0x3E3 DUP6 PUSH1 0xFF AND PUSH2 0xA1D JUMP JUMPDEST PUSH1 0x40 MLOAD PUSH1 0x20 ADD PUSH2 0x3F5 SWAP4 SWAP3 SWAP2 SWAP1 PUSH2 0x17B0 JUMP JUMPDEST PUSH1 0x40 MLOAD PUSH1 0x20 DUP2 DUP4 SUB SUB DUP2 MSTORE SWAP1 PUSH1 0x40 MSTORE SWAP1 POP DUP2 DUP1 ISZERO PUSH2 0x4D5 JUMPI POP PUSH2 0x4D4 PUSH0 DUP1 SLOAD PUSH2 0x41D SWAP1 PUSH2 0x119D JUMP JUMPDEST DUP1 PUSH1 0x1F ADD PUSH1 0x20 DUP1 SWAP2 DIV MUL PUSH1 0x20 ADD PUSH1 0x40 MLOAD SWAP1 DUP2 ADD PUSH1 0x40 MSTORE DUP1 SWAP3 SWAP2 SWAP1 DUP2 DUP2 MSTORE PUSH1 0x20 ADD DUP3 DUP1 SLOAD PUSH2 0x449 SWAP1 PUSH2 0x119D JUMP JUMPDEST DUP1 ISZERO PUSH2 0x494 JUMPI DUP1 PUSH1 0x1F LT PUSH2 0x46B JUMPI PUSH2 0x100 DUP1 DUP4 SLOAD DIV MUL DUP4 MSTORE SWAP2 PUSH1 0x20 ADD SWAP2 PUSH2 0x494 JUMP JUMPDEST DUP3 ADD SWAP2 SWAP1 PUSH0 MSTORE PUSH1 0x20 PUSH0 KECCAK256 SWAP1 JUMPDEST DUP2 SLOAD DUP2 MSTORE SWAP1 PUSH1 0x1 ADD SWAP1 PUSH1 0x20 ADD DUP1 DUP4 GT PUSH2 0x477 JUMPI DUP3 SWAP1 SUB PUSH1 0x1F AND DUP3 ADD SWAP2 JUMPDEST POP POP POP POP POP PUSH1 0x40 MLOAD DUP1 PUSH1 0x40 ADD PUSH1 0x40 MSTORE DUP1 PUSH1 0x4 DUP2 MSTORE PUSH1 0x20 ADD PUSH32 0x4556454E00000000000000000000000000000000000000000000000000000000 DUP2 MSTORE POP PUSH2 0x9EC JUMP JUMPDEST JUMPDEST ISZERO PUSH2 0x50E JUMPI DUP1 PUSH1 0x40 MLOAD PUSH1 0x20 ADD PUSH2 0x4EB SWAP2 SWAP1 PUSH2 0x1833 JUMP JUMPDEST PUSH1 0x40 MLOAD PUSH1 0x20 DUP2 DUP4 SUB SUB DUP2 MSTORE SWAP1 PUSH1 0x40 MSTORE PUSH1 0x2 SWAP1 DUP2 PUSH2 0x508 SWAP2 SWAP1 PUSH2 0x148F JUMP JUMPDEST POP PUSH2 0x648 JUMP JUMPDEST DUP2 ISZERO DUP1 ISZERO PUSH2 0x5DE JUMPI POP PUSH2 0x5DD PUSH0 DUP1 SLOAD PUSH2 0x526 SWAP1 PUSH2 0x119D JUMP JUMPDEST DUP1 PUSH1 0x1F ADD PUSH1 0x20 DUP1 SWAP2 DIV MUL PUSH1 0x20 ADD PUSH1 0x40 MLOAD SWAP1 DUP2 ADD PUSH1 0x40 MSTORE DUP1 SWAP3 SWAP2 SWAP1 DUP2 DUP2 MSTORE PUSH1 0x20 ADD DUP3 DUP1 SLOAD PUSH2 0x552 SWAP1 PUSH2 0x119D JUMP JUMPDEST DUP1 ISZERO PUSH2 0x59D JUMPI DUP1 PUSH1 0x1F LT PUSH2 0x574 JUMPI PUSH2 0x100 DUP1 DUP4 SLOAD DIV MUL DUP4 MSTORE SWAP2 PUSH1 0x20 ADD SWAP2 PUSH2 0x59D JUMP JUMPDEST DUP3 ADD SWAP2 SWAP1 PUSH0 MSTORE PUSH1 0x20 PUSH0 KECCAK256 SWAP1 JUMPDEST DUP2 SLOAD DUP2 MSTORE SWAP1 PUSH1 0x1 ADD SWAP1 PUSH1 0x20 ADD DUP1 DUP4 GT PUSH2 0x580 JUMPI DUP3 SWAP1 SUB PUSH1 0x1F AND DUP3 ADD SWAP2 JUMPDEST POP POP POP POP POP PUSH1 0x40 MLOAD DUP1 PUSH1 0x40 ADD PUSH1 0x40 MSTORE DUP1 PUSH1 0x3 DUP2 MSTORE PUSH1 0x20 ADD PUSH32 0x4F44440000000000000000000000000000000000000000000000000000000000 DUP2 MSTORE POP PUSH2 0x9EC JUMP JUMPDEST JUMPDEST ISZERO PUSH2 0x617 JUMPI DUP1 PUSH1 0x40 MLOAD PUSH1 0x20 ADD PUSH2 0x5F4 SWAP2 SWAP1 PUSH2 0x1833 JUMP JUMPDEST PUSH1 0x40 MLOAD PUSH1 0x20 DUP2 DUP4 SUB SUB DUP2 MSTORE SWAP1 PUSH1 0x40 MSTORE PUSH1 0x2 SWAP1 DUP2 PUSH2 0x611 SWAP2 SWAP1 PUSH2 0x148F JUMP JUMPDEST POP PUSH2 0x647 JUMP JUMPDEST DUP1 PUSH1 0x40 MLOAD PUSH1 0x20 ADD PUSH2 0x628 SWAP2 SWAP1 PUSH2 0x187E JUMP JUMPDEST PUSH1 0x40 MLOAD PUSH1 0x20 DUP2 DUP4 SUB SUB DUP2 MSTORE SWAP1 PUSH1 0x40 MSTORE PUSH1 0x2 SWAP1 DUP2 PUSH2 0x645 SWAP2 SWAP1 PUSH2 0x148F JUMP JUMPDEST POP JUMPDEST JUMPDEST PUSH1 0x40 MLOAD DUP1 PUSH1 0x20 ADD PUSH1 0x40 MSTORE DUP1 PUSH0 DUP2 MSTORE POP PUSH0 SWAP1 DUP2 PUSH2 0x664 SWAP2 SWAP1 PUSH2 0x148F JUMP JUMPDEST POP PUSH0 PUSH1 0x1 PUSH1 0x14 PUSH2 0x100 EXP DUP2 SLOAD DUP2 PUSH1 0xFF MUL NOT AND SWAP1 DUP4 PUSH1 0xFF AND MUL OR SWAP1 SSTORE POP PUSH0 PUSH1 0x1 PUSH0 PUSH2 0x100 EXP DUP2 SLOAD DUP2 PUSH20 0xFFFFFFFFFFFFFFFFFFFFFFFFFFFFFFFFFFFFFFFF MUL NOT AND SWAP1 DUP4 PUSH20 0xFFFFFFFFFFFFFFFFFFFFFFFFFFFFFFFFFFFFFFFF AND MUL OR SWAP1 SSTORE POP POP POP JUMPDEST POP JUMP JUMPDEST PUSH0 DUP1 SLOAD PUSH2 0x6D2 SWAP1 PUSH2 0x119D JUMP JUMPDEST DUP1 PUSH1 0x1F ADD PUSH1 0x20 DUP1 SWAP2 DIV MUL PUSH1 0x20 ADD PUSH1 0x40 MLOAD SWAP1 DUP2 ADD PUSH1 0x40 MSTORE DUP1 SWAP3 SWAP2 SWAP1 DUP2 DUP2 MSTORE PUSH1 0x20 ADD DUP3 DUP1 SLOAD PUSH2 0x6FE SWAP1 PUSH2 0x119D JUMP JUMPDEST DUP1 ISZERO PUSH2 0x749 JUMPI DUP1 PUSH1 0x1F LT PUSH2 0x720 JUMPI PUSH2 0x100 DUP1 DUP4 SLOAD DIV MUL DUP4 MSTORE SWAP2 PUSH1 0x20 ADD SWAP2 PUSH2 0x749 JUMP JUMPDEST DUP3 ADD SWAP2 SWAP1 PUSH0 MSTORE PUSH1 0x20 PUSH0 KECCAK256 SWAP1 JUMPDEST DUP2 SLOAD DUP2 MSTORE SWAP1 PUSH1 0x1 ADD SWAP1 PUSH1 0x20 ADD DUP1 DUP4 GT PUSH2 0x72C JUMPI DUP3 SWAP1 SUB PUSH1 0x1F AND DUP3 ADD SWAP2 JUMPDEST POP POP POP POP POP DUP2 JUMP JUMPDEST PUSH2 0x790 DUP2 PUSH1 0x40 MLOAD DUP1 PUSH1 0x40 ADD PUSH1 0x40 MSTORE DUP1 PUSH1 0x4 DUP2 MSTORE PUSH1 0x20 ADD PUSH32 0x4556454E00000000000000000000000000000000000000000000000000000000 DUP2 MSTORE POP PUSH2 0x9EC JUMP JUMPDEST DUP1 PUSH2 0x7D6 JUMPI POP PUSH2 0x7D5 DUP2 PUSH1 0x40 MLOAD DUP1 PUSH1 0x40 ADD PUSH1 0x40 MSTORE DUP1 PUSH1 0x3 DUP2 MSTORE PUSH1 0x20 ADD PUSH32 0x4F44440000000000000000000000000000000000000000000000000000000000 DUP2 MSTORE POP PUSH2 0x9EC JUMP JUMPDEST JUMPDEST PUSH2 0x815 JUMPI PUSH1 0x40 MLOAD PUSH32 0x8C379A000000000000000000000000000000000000000000000000000000000 DUP2 MSTORE PUSH1 0x4 ADD PUSH2 0x80C SWAP1 PUSH2 0x18ED JUMP JUMPDEST PUSH1 0x40 MLOAD DUP1 SWAP2 SUB SWAP1 REVERT JUMPDEST PUSH0 DUP1 PUSH1 0x40 MLOAD PUSH1 0x20 ADD PUSH2 0x827 SWAP2 SWAP1 PUSH2 0x1931 JUMP JUMPDEST PUSH1 0x40 MLOAD PUSH1 0x20 DUP2 DUP4 SUB SUB DUP2 MSTORE SWAP1 PUSH1 0x40 MSTORE SWAP1 POP PUSH2 0x8D7 PUSH0 DUP1 SLOAD PUSH2 0x847 SWAP1 PUSH2 0x119D JUMP JUMPDEST DUP1 PUSH1 0x1F ADD PUSH1 0x20 DUP1 SWAP2 DIV MUL PUSH1 0x20 ADD PUSH1 0x40 MLOAD SWAP1 DUP2 ADD PUSH1 0x40 MSTORE DUP1 SWAP3 SWAP2 SWAP1 DUP2 DUP2 MSTORE PUSH1 0x20 ADD DUP3 DUP1 SLOAD PUSH2 0x873 SWAP1 PUSH2 0x119D JUMP JUMPDEST DUP1 ISZERO PUSH2 0x8BE JUMPI DUP1 PUSH1 0x1F LT PUSH2 0x895 JUMPI PUSH2 0x100 DUP1 DUP4 SLOAD DIV MUL DUP4 MSTORE SWAP2 PUSH1 0x20 ADD SWAP2 PUSH2 0x8BE JUMP JUMPDEST DUP3 ADD SWAP2 SWAP1 PUSH0 MSTORE PUSH1 0x20 PUSH0 KECCAK256 SWAP1 JUMPDEST DUP2 SLOAD DUP2 MSTORE SWAP1 PUSH1 0x1 ADD SWAP1 PUSH1 0x20 ADD DUP1 DUP4 GT PUSH2 0x8A1 JUMPI DUP3 SWAP1 SUB PUSH1 0x1F AND DUP3 ADD SWAP2 JUMPDEST POP POP POP POP POP PUSH1 0x40 MLOAD DUP1 PUSH1 0x20 ADD PUSH1 0x40 MSTORE DUP1 PUSH0 DUP2 MSTORE POP PUSH2 0x9EC JUMP JUMPDEST DUP2 SWAP1 PUSH2 0x919 JUMPI PUSH1 0x40 MLOAD PUSH32 0x8C379A000000000000000000000000000000000000000000000000000000000 DUP2 MSTORE PUSH1 0x4 ADD PUSH2 0x910 SWAP2 SWAP1 PUSH2 0xF13 JUMP JUMPDEST PUSH1 0x40 MLOAD DUP1 SWAP2 SUB SWAP1 REVERT JUMPDEST POP DUP2 PUSH0 SWAP1 DUP2 PUSH2 0x928 SWAP2 SWAP1 PUSH2 0x148F JUMP JUMPDEST POP CALLER PUSH1 0x1 PUSH0 PUSH2 0x100 EXP DUP2 SLOAD DUP2 PUSH20 0xFFFFFFFFFFFFFFFFFFFFFFFFFFFFFFFFFFFFFFFF MUL NOT AND SWAP1 DUP4 PUSH20 0xFFFFFFFFFFFFFFFFFFFFFFFFFFFFFFFFFFFFFFFF AND MUL OR SWAP1 SSTORE POP PUSH2 0x993 PUSH1 0x1 PUSH0 SWAP1 SLOAD SWAP1 PUSH2 0x100 EXP SWAP1 DIV PUSH20 0xFFFFFFFFFFFFFFFFFFFFFFFFFFFFFFFFFFFFFFFF AND PUSH2 0xAE7 JUMP JUMPDEST PUSH0 PUSH1 0x40 MLOAD PUSH1 0x20 ADD PUSH2 0x9A5 SWAP3 SWAP2 SWAP1 PUSH2 0x19A2 JUMP JUMPDEST PUSH1 0x40 MLOAD PUSH1 0x20 DUP2 DUP4 SUB SUB DUP2 MSTORE SWAP1 PUSH1 0x40 MSTORE PUSH1 0x2 SWAP1 DUP2 PUSH2 0x9C2 SWAP2 SWAP1 PUSH2 0x148F JUMP JUMPDEST POP POP POP JUMP JUMPDEST PUSH1 0x1 PUSH0 SWAP1 SLOAD SWAP1 PUSH2 0x100 EXP SWAP1 DIV PUSH20 0xFFFFFFFFFFFFFFFFFFFFFFFFFFFFFFFFFFFFFFFF AND DUP2 JUMP JUMPDEST PUSH0 DUP1 DUP4 SWAP1 POP PUSH0 DUP4 SWAP1 POP DUP1 MLOAD DUP3 MLOAD EQ DUP1 ISZERO PUSH2 0xA13 JUMPI POP DUP1 DUP1 MLOAD SWAP1 PUSH1 0x20 ADD KECCAK256 DUP3 DUP1 MLOAD SWAP1 PUSH1 0x20 ADD KECCAK256 EQ JUMPDEST SWAP3 POP POP POP SWAP3 SWAP2 POP POP JUMP JUMPDEST PUSH1 0x60 PUSH0 PUSH1 0x1 PUSH2 0xA2B DUP5 PUSH2 0xB14 JUMP JUMPDEST ADD SWAP1 POP PUSH0 DUP2 PUSH8 0xFFFFFFFFFFFFFFFF DUP2 GT ISZERO PUSH2 0xA49 JUMPI PUSH2 0xA48 PUSH2 0xFAD JUMP JUMPDEST JUMPDEST PUSH1 0x40 MLOAD SWAP1 DUP1 DUP3 MSTORE DUP1 PUSH1 0x1F ADD PUSH1 0x1F NOT AND PUSH1 0x20 ADD DUP3 ADD PUSH1 0x40 MSTORE DUP1 ISZERO PUSH2 0xA7B JUMPI DUP2 PUSH1 0x20 ADD PUSH1 0x1 DUP3 MUL DUP1 CALLDATASIZE DUP4 CALLDATACOPY DUP1 DUP3 ADD SWAP2 POP POP SWAP1 POP JUMPDEST POP SWAP1 POP PUSH0 DUP3 PUSH1 0x20 ADD DUP3 ADD SWAP1 POP JUMPDEST PUSH1 0x1 ISZERO PUSH2 0xADC JUMPI DUP1 DUP1 PUSH1 0x1 SWAP1 SUB SWAP2 POP POP PUSH32 0x3031323334353637383961626364656600000000000000000000000000000000 PUSH1 0xA DUP7 MOD BYTE DUP2 MSTORE8 PUSH1 0xA DUP6 DUP2 PUSH2 0xAD1 JUMPI PUSH2 0xAD0 PUSH2 0x1627 JUMP JUMPDEST JUMPDEST DIV SWAP5 POP PUSH0 DUP6 SUB PUSH2 0xA88 JUMPI JUMPDEST DUP2 SWAP4 POP POP POP POP SWAP2 SWAP1 POP JUMP JUMPDEST PUSH1 0x60 PUSH2 0xB0D DUP3 PUSH20 0xFFFFFFFFFFFFFFFFFFFFFFFFFFFFFFFFFFFFFFFF AND PUSH1 0x14 PUSH1 0xFF AND PUSH2 0xC65 JUMP JUMPDEST SWAP1 POP SWAP2 SWAP1 POP JUMP JUMPDEST PUSH0 DUP1 PUSH0 SWAP1 POP PUSH27 0x184F03E93FF9F4DAA797ED6E38ED64BF6A1F010000000000000000 DUP4 LT PUSH2 0xB70 JUMPI PUSH27 0x184F03E93FF9F4DAA797ED6E38ED64BF6A1F010000000000000000 DUP4 DUP2 PUSH2 0xB66 JUMPI PUSH2 0xB65 PUSH2 0x1627 JUMP JUMPDEST JUMPDEST DIV SWAP3 POP PUSH1 0x40 DUP2 ADD SWAP1 POP JUMPDEST PUSH14 0x4EE2D6D415B85ACEF8100000000 DUP4 LT PUSH2 0xBAD JUMPI PUSH14 0x4EE2D6D415B85ACEF8100000000 DUP4 DUP2 PUSH2 0xBA3 JUMPI PUSH2 0xBA2 PUSH2 0x1627 JUMP JUMPDEST JUMPDEST DIV SWAP3 POP PUSH1 0x20 DUP2 ADD SWAP1 POP JUMPDEST PUSH7 0x2386F26FC10000 DUP4 LT PUSH2 0xBDC JUMPI PUSH7 0x2386F26FC10000 DUP4 DUP2 PUSH2 0xBD2 JUMPI PUSH2 0xBD1 PUSH2 0x1627 JUMP JUMPDEST JUMPDEST DIV SWAP3 POP PUSH1 0x10 DUP2 ADD SWAP1 POP JUMPDEST PUSH4 0x5F5E100 DUP4 LT PUSH2 0xC05 JUMPI PUSH4 0x5F5E100 DUP4 DUP2 PUSH2 0xBFB JUMPI PUSH2 0xBFA PUSH2 0x1627 JUMP JUMPDEST JUMPDEST DIV SWAP3 POP PUSH1 0x8 DUP2 ADD SWAP1 POP JUMPDEST PUSH2 0x2710 DUP4 LT PUSH2 0xC2A JUMPI PUSH2 0x2710 DUP4 DUP2 PUSH2 0xC20 JUMPI PUSH2 0xC1F PUSH2 0x1627 JUMP JUMPDEST JUMPDEST DIV SWAP3 POP PUSH1 0x4 DUP2 ADD SWAP1 POP JUMPDEST PUSH1 0x64 DUP4 LT PUSH2 0xC4D JUMPI PUSH1 0x64 DUP4 DUP2 PUSH2 0xC43 JUMPI PUSH2 0xC42 PUSH2 0x1627 JUMP JUMPDEST JUMPDEST DIV SWAP3 POP PUSH1 0x2 DUP2 ADD SWAP1 POP JUMPDEST PUSH1 0xA DUP4 LT PUSH2 0xC5C JUMPI PUSH1 0x1 DUP2 ADD SWAP1 POP JUMPDEST DUP1 SWAP2 POP POP SWAP2 SWAP1 POP JUMP JUMPDEST PUSH1 0x60 PUSH0 DUP4 SWAP1 POP PUSH0 PUSH1 0x2 DUP5 PUSH1 0x2 PUSH2 0xC7B SWAP2 SWAP1 PUSH2 0x19E3 JUMP JUMPDEST PUSH2 0xC85 SWAP2 SWAP1 PUSH2 0x1A24 JUMP JUMPDEST PUSH8 0xFFFFFFFFFFFFFFFF DUP2 GT ISZERO PUSH2 0xC9E JUMPI PUSH2 0xC9D PUSH2 0xFAD JUMP JUMPDEST JUMPDEST PUSH1 0x40 MLOAD SWAP1 DUP1 DUP3 MSTORE DUP1 PUSH1 0x1F ADD PUSH1 0x1F NOT AND PUSH1 0x20 ADD DUP3 ADD PUSH1 0x40 MSTORE DUP1 ISZERO PUSH2 0xCD0 JUMPI DUP2 PUSH1 0x20 ADD PUSH1 0x1 DUP3 MUL DUP1 CALLDATASIZE DUP4 CALLDATACOPY DUP1 DUP3 ADD SWAP2 POP POP SWAP1 POP JUMPDEST POP SWAP1 POP PUSH32 0x3000000000000000000000000000000000000000000000000000000000000000 DUP2 PUSH0 DUP2 MLOAD DUP2 LT PUSH2 0xD07 JUMPI PUSH2 0xD06 PUSH2 0x1A57 JUMP JUMPDEST JUMPDEST PUSH1 0x20 ADD ADD SWAP1 PUSH31 0xFFFFFFFFFFFFFFFFFFFFFFFFFFFFFFFFFFFFFFFFFFFFFFFFFFFFFFFFFFFFFF NOT AND SWAP1 DUP2 PUSH0 BYTE SWAP1 MSTORE8 POP PUSH32 0x7800000000000000000000000000000000000000000000000000000000000000 DUP2 PUSH1 0x1 DUP2 MLOAD DUP2 LT PUSH2 0xD6A JUMPI PUSH2 0xD69 PUSH2 0x1A57 JUMP JUMPDEST JUMPDEST PUSH1 0x20 ADD ADD SWAP1 PUSH31 0xFFFFFFFFFFFFFFFFFFFFFFFFFFFFFFFFFFFFFFFFFFFFFFFFFFFFFFFFFFFFFF NOT AND SWAP1 DUP2 PUSH0 BYTE SWAP1 MSTORE8 POP PUSH0 PUSH1 0x1 DUP6 PUSH1 0x2 PUSH2 0xDA8 SWAP2 SWAP1 PUSH2 0x19E3 JUMP JUMPDEST PUSH2 0xDB2 SWAP2 SWAP1 PUSH2 0x1A24 JUMP JUMPDEST SWAP1 POP JUMPDEST PUSH1 0x1 DUP2 GT ISZERO PUSH2 0xE51 JUMPI PUSH32 0x3031323334353637383961626364656600000000000000000000000000000000 PUSH1 0xF DUP5 AND PUSH1 0x10 DUP2 LT PUSH2 0xDF4 JUMPI PUSH2 0xDF3 PUSH2 0x1A57 JUMP JUMPDEST JUMPDEST BYTE PUSH1 0xF8 SHL DUP3 DUP3 DUP2 MLOAD DUP2 LT PUSH2 0xE0B JUMPI PUSH2 0xE0A PUSH2 0x1A57 JUMP JUMPDEST JUMPDEST PUSH1 0x20 ADD ADD SWAP1 PUSH31 0xFFFFFFFFFFFFFFFFFFFFFFFFFFFFFFFFFFFFFFFFFFFFFFFFFFFFFFFFFFFFFF NOT AND SWAP1 DUP2 PUSH0 BYTE SWAP1 MSTORE8 POP PUSH1 0x4 DUP4 SWAP1 SHR SWAP3 POP DUP1 PUSH2 0xE4A SWAP1 PUSH2 0x1A84 JUMP JUMPDEST SWAP1 POP PUSH2 0xDB5 JUMP JUMPDEST POP PUSH0 DUP3 EQ PUSH2 0xE98 JUMPI DUP5 DUP5 PUSH1 0x40 MLOAD PUSH32 0xE22E27EB00000000000000000000000000000000000000000000000000000000 DUP2 MSTORE PUSH1 0x4 ADD PUSH2 0xE8F SWAP3 SWAP2 SWAP1 PUSH2 0x1ABA JUMP JUMPDEST PUSH1 0x40 MLOAD DUP1 SWAP2 SUB SWAP1 REVERT JUMPDEST DUP1 SWAP3 POP POP POP SWAP3 SWAP2 POP POP JUMP JUMPDEST PUSH0 DUP2 MLOAD SWAP1 POP SWAP2 SWAP1 POP JUMP JUMPDEST PUSH0 DUP3 DUP3 MSTORE PUSH1 0x20 DUP3 ADD SWAP1 POP SWAP3 SWAP2 POP POP JUMP JUMPDEST DUP3 DUP2 DUP4 MCOPY PUSH0 DUP4 DUP4 ADD MSTORE POP POP POP JUMP JUMPDEST PUSH0 PUSH1 0x1F NOT PUSH1 0x1F DUP4 ADD AND SWAP1 POP SWAP2 SWAP1 POP JUMP JUMPDEST PUSH0 PUSH2 0xEE5 DUP3 PUSH2 0xEA3 JUMP JUMPDEST PUSH2 0xEEF DUP2 DUP6 PUSH2 0xEAD JUMP JUMPDEST SWAP4 POP PUSH2 0xEFF DUP2 DUP6 PUSH1 0x20 DUP7 ADD PUSH2 0xEBD JUMP JUMPDEST PUSH2 0xF08 DUP2 PUSH2 0xECB JUMP JUMPDEST DUP5 ADD SWAP2 POP POP SWAP3 SWAP2 POP POP JUMP JUMPDEST PUSH0 PUSH1 0x20 DUP3 ADD SWAP1 POP DUP2 DUP2 SUB PUSH0 DUP4 ADD MSTORE PUSH2 0xF2B DUP2 DUP5 PUSH2 0xEDB JUMP JUMPDEST SWAP1 POP SWAP3 SWAP2 POP POP JUMP JUMPDEST PUSH0 PUSH1 0x40 MLOAD SWAP1 POP SWAP1 JUMP JUMPDEST PUSH0 DUP1 REVERT JUMPDEST PUSH0 DUP1 REVERT JUMPDEST PUSH0 PUSH1 0xFF DUP3 AND SWAP1 POP SWAP2 SWAP1 POP JUMP JUMPDEST PUSH2 0xF59 DUP2 PUSH2 0xF44 JUMP JUMPDEST DUP2 EQ PUSH2 0xF63 JUMPI PUSH0 DUP1 REVERT JUMPDEST POP JUMP JUMPDEST PUSH0 DUP2 CALLDATALOAD SWAP1 POP PUSH2 0xF74 DUP2 PUSH2 0xF50 JUMP JUMPDEST SWAP3 SWAP2 POP POP JUMP JUMPDEST PUSH0 PUSH1 0x20 DUP3 DUP5 SUB SLT ISZERO PUSH2 0xF8F JUMPI PUSH2 0xF8E PUSH2 0xF3C JUMP JUMPDEST JUMPDEST PUSH0 PUSH2 0xF9C DUP5 DUP3 DUP6 ADD PUSH2 0xF66 JUMP JUMPDEST SWAP2 POP POP SWAP3 SWAP2 POP POP JUMP JUMPDEST PUSH0 DUP1 REVERT JUMPDEST PUSH0 DUP1 REVERT JUMPDEST PUSH32 0x4E487B7100000000000000000000000000000000000000000000000000000000 PUSH0 MSTORE PUSH1 0x41 PUSH1 0x4 MSTORE PUSH1 0x24 PUSH0 REVERT JUMPDEST PUSH2 0xFE3 DUP3 PUSH2 0xECB JUMP JUMPDEST DUP2 ADD DUP2 DUP2 LT PUSH8 0xFFFFFFFFFFFFFFFF DUP3 GT OR ISZERO PUSH2 0x1002 JUMPI PUSH2 0x1001 PUSH2 0xFAD JUMP JUMPDEST JUMPDEST DUP1 PUSH1 0x40 MSTORE POP POP POP JUMP JUMPDEST PUSH0 PUSH2 0x1014 PUSH2 0xF33 JUMP JUMPDEST SWAP1 POP PUSH2 0x1020 DUP3 DUP3 PUSH2 0xFDA JUMP JUMPDEST SWAP2 SWAP1 POP JUMP JUMPDEST PUSH0 PUSH8 0xFFFFFFFFFFFFFFFF DUP3 GT ISZERO PUSH2 0x103F JUMPI PUSH2 0x103E PUSH2 0xFAD JUMP JUMPDEST JUMPDEST PUSH2 0x1048 DUP3 PUSH2 0xECB JUMP JUMPDEST SWAP1 POP PUSH1 0x20 DUP2 ADD SWAP1 POP SWAP2 SWAP1 POP JUMP JUMPDEST DUP3 DUP2 DUP4 CALLDATACOPY PUSH0 DUP4 DUP4 ADD MSTORE POP POP POP JUMP JUMPDEST PUSH0 PUSH2 0x1075 PUSH2 0x1070 DUP5 PUSH2 0x1025 JUMP JUMPDEST PUSH2 0x100B JUMP JUMPDEST SWAP1 POP DUP3 DUP2 MSTORE PUSH1 0x20 DUP2 ADD DUP5 DUP5 DUP5 ADD GT ISZERO PUSH2 0x1091 JUMPI PUSH2 0x1090 PUSH2 0xFA9 JUMP JUMPDEST JUMPDEST PUSH2 0x109C DUP5 DUP3 DUP6 PUSH2 0x1055 JUMP JUMPDEST POP SWAP4 SWAP3 POP POP POP JUMP JUMPDEST PUSH0 DUP3 PUSH1 0x1F DUP4 ADD SLT PUSH2 0x10B8 JUMPI PUSH2 0x10B7 PUSH2 0xFA5 JUMP JUMPDEST JUMPDEST DUP2 CALLDATALOAD PUSH2 0x10C8 DUP5 DUP3 PUSH1 0x20 DUP7 ADD PUSH2 0x1063 JUMP JUMPDEST SWAP2 POP POP SWAP3 SWAP2 POP POP JUMP JUMPDEST PUSH0 PUSH1 0x20 DUP3 DUP5 SUB SLT ISZERO PUSH2 0x10E6 JUMPI PUSH2 0x10E5 PUSH2 0xF3C JUMP JUMPDEST JUMPDEST PUSH0 DUP3 ADD CALLDATALOAD PUSH8 0xFFFFFFFFFFFFFFFF DUP2 GT ISZERO PUSH2 0x1103 JUMPI PUSH2 0x1102 PUSH2 0xF40 JUMP JUMPDEST JUMPDEST PUSH2 0x110F DUP5 DUP3 DUP6 ADD PUSH2 0x10A4 JUMP JUMPDEST SWAP2 POP POP SWAP3 SWAP2 POP POP JUMP JUMPDEST PUSH0 PUSH20 0xFFFFFFFFFFFFFFFFFFFFFFFFFFFFFFFFFFFFFFFF DUP3 AND SWAP1 POP SWAP2 SWAP1 POP JUMP JUMPDEST PUSH0 PUSH2 0x1141 DUP3 PUSH2 0x1118 JUMP JUMPDEST SWAP1 POP SWAP2 SWAP1 POP JUMP JUMPDEST PUSH2 0x1151 DUP2 PUSH2 0x1137 JUMP JUMPDEST DUP3 MSTORE POP POP JUMP JUMPDEST PUSH0 PUSH1 0x20 DUP3 ADD SWAP1 POP PUSH2 0x116A PUSH0 DUP4 ADD DUP5 PUSH2 0x1148 JUMP JUMPDEST SWAP3 SWAP2 POP POP JUMP JUMPDEST PUSH32 0x4E487B7100000000000000000000000000000000000000000000000000000000 PUSH0 MSTORE PUSH1 0x22 PUSH1 0x4 MSTORE PUSH1 0x24 PUSH0 REVERT JUMPDEST PUSH0 PUSH1 0x2 DUP3 DIV SWAP1 POP PUSH1 0x1 DUP3 AND DUP1 PUSH2 0x11B4 JUMPI PUSH1 0x7F DUP3 AND SWAP2 POP JUMPDEST PUSH1 0x20 DUP3 LT DUP2 SUB PUSH2 0x11C7 JUMPI PUSH2 0x11C6 PUSH2 0x1170 JUMP JUMPDEST JUMPDEST POP SWAP2 SWAP1 POP JUMP JUMPDEST PUSH32 0x46697273742C2063686F6F736520796F7572206F7074696F6E20284556454E20 PUSH0 DUP3 ADD MSTORE PUSH32 0x6F72204F44442900000000000000000000000000000000000000000000000000 PUSH1 0x20 DUP3 ADD MSTORE POP JUMP JUMPDEST PUSH0 PUSH2 0x1227 PUSH1 0x27 DUP4 PUSH2 0xEAD JUMP JUMPDEST SWAP2 POP PUSH2 0x1232 DUP3 PUSH2 0x11CD JUMP JUMPDEST PUSH1 0x40 DUP3 ADD SWAP1 POP SWAP2 SWAP1 POP JUMP JUMPDEST PUSH0 PUSH1 0x20 DUP3 ADD SWAP1 POP DUP2 DUP2 SUB PUSH0 DUP4 ADD MSTORE PUSH2 0x1254 DUP2 PUSH2 0x121B JUMP JUMPDEST SWAP1 POP SWAP2 SWAP1 POP JUMP JUMPDEST PUSH32 0x546865206E756D626572206D7573742062652067726561746572207468616E20 PUSH0 DUP3 ADD MSTORE PUSH32 0x302E000000000000000000000000000000000000000000000000000000000000 PUSH1 0x20 DUP3 ADD MSTORE POP JUMP JUMPDEST PUSH0 PUSH2 0x12B5 PUSH1 0x22 DUP4 PUSH2 0xEAD JUMP JUMPDEST SWAP2 POP PUSH2 0x12C0 DUP3 PUSH2 0x125B JUMP JUMPDEST PUSH1 0x40 DUP3 ADD SWAP1 POP SWAP2 SWAP1 POP JUMP JUMPDEST PUSH0 PUSH1 0x20 DUP3 ADD SWAP1 POP DUP2 DUP2 SUB PUSH0 DUP4 ADD MSTORE PUSH2 0x12E2 DUP2 PUSH2 0x12A9 JUMP JUMPDEST SWAP1 POP SWAP2 SWAP1 POP JUMP JUMPDEST PUSH0 DUP2 SWAP1 POP DUP2 PUSH0 MSTORE PUSH1 0x20 PUSH0 KECCAK256 SWAP1 POP SWAP2 SWAP1 POP JUMP JUMPDEST PUSH0 PUSH1 0x20 PUSH1 0x1F DUP4 ADD DIV SWAP1 POP SWAP2 SWAP1 POP JUMP JUMPDEST PUSH0 DUP3 DUP3 SHL SWAP1 POP SWAP3 SWAP2 POP POP JUMP JUMPDEST PUSH0 PUSH1 0x8 DUP4 MUL PUSH2 0x1345 PUSH32 0xFFFFFFFFFFFFFFFFFFFFFFFFFFFFFFFFFFFFFFFFFFFFFFFFFFFFFFFFFFFFFFFF DUP3 PUSH2 0x130A JUMP JUMPDEST PUSH2 0x134F DUP7 DUP4 PUSH2 0x130A JUMP JUMPDEST SWAP6 POP DUP1 NOT DUP5 AND SWAP4 POP DUP1 DUP7 AND DUP5 OR SWAP3 POP POP POP SWAP4 SWAP3 POP POP POP JUMP JUMPDEST PUSH0 DUP2 SWAP1 POP SWAP2 SWAP1 POP JUMP JUMPDEST PUSH0 DUP2 SWAP1 POP SWAP2 SWAP1 POP JUMP JUMPDEST PUSH0 PUSH2 0x1393 PUSH2 0x138E PUSH2 0x1389 DUP5 PUSH2 0x1367 JUMP JUMPDEST PUSH2 0x1370 JUMP JUMPDEST PUSH2 0x1367 JUMP JUMPDEST SWAP1 POP SWAP2 SWAP1 POP JUMP JUMPDEST PUSH0 DUP2 SWAP1 POP SWAP2 SWAP1 POP JUMP JUMPDEST PUSH2 0x13AC DUP4 PUSH2 0x1379 JUMP JUMPDEST PUSH2 0x13C0 PUSH2 0x13B8 DUP3 PUSH2 0x139A JUMP JUMPDEST DUP5 DUP5 SLOAD PUSH2 0x1316 JUMP JUMPDEST DUP3 SSTORE POP POP POP POP JUMP JUMPDEST PUSH0 SWAP1 JUMP JUMPDEST PUSH2 0x13D4 PUSH2 0x13C8 JUMP JUMPDEST PUSH2 0x13DF DUP2 DUP5 DUP5 PUSH2 0x13A3 JUMP JUMPDEST POP POP POP JUMP JUMPDEST JUMPDEST DUP2 DUP2 LT ISZERO PUSH2 0x1402 JUMPI PUSH2 0x13F7 PUSH0 DUP3 PUSH2 0x13CC JUMP JUMPDEST PUSH1 0x1 DUP2 ADD SWAP1 POP PUSH2 0x13E5 JUMP JUMPDEST POP POP JUMP JUMPDEST PUSH1 0x1F DUP3 GT ISZERO PUSH2 0x1447 JUMPI PUSH2 0x1418 DUP2 PUSH2 0x12E9 JUMP JUMPDEST PUSH2 0x1421 DUP5 PUSH2 0x12FB JUMP JUMPDEST DUP2 ADD PUSH1 0x20 DUP6 LT ISZERO PUSH2 0x1430 JUMPI DUP2 SWAP1 POP JUMPDEST PUSH2 0x1444 PUSH2 0x143C DUP6 PUSH2 0x12FB JUMP JUMPDEST DUP4 ADD DUP3 PUSH2 0x13E4 JUMP JUMPDEST POP POP JUMPDEST POP POP POP JUMP JUMPDEST PUSH0 DUP3 DUP3 SHR SWAP1 POP SWAP3 SWAP2 POP POP JUMP JUMPDEST PUSH0 PUSH2 0x1467 PUSH0 NOT DUP5 PUSH1 0x8 MUL PUSH2 0x144C JUMP JUMPDEST NOT DUP1 DUP4 AND SWAP2 POP POP SWAP3 SWAP2 POP POP JUMP JUMPDEST PUSH0 PUSH2 0x147F DUP4 DUP4 PUSH2 0x1458 JUMP JUMPDEST SWAP2 POP DUP3 PUSH1 0x2 MUL DUP3 OR SWAP1 POP SWAP3 SWAP2 POP POP JUMP JUMPDEST PUSH2 0x1498 DUP3 PUSH2 0xEA3 JUMP JUMPDEST PUSH8 0xFFFFFFFFFFFFFFFF DUP2 GT ISZERO PUSH2 0x14B1 JUMPI PUSH2 0x14B0 PUSH2 0xFAD JUMP JUMPDEST JUMPDEST PUSH2 0x14BB DUP3 SLOAD PUSH2 0x119D JUMP JUMPDEST PUSH2 0x14C6 DUP3 DUP3 DUP6 PUSH2 0x1406 JUMP JUMPDEST PUSH0 PUSH1 0x20 SWAP1 POP PUSH1 0x1F DUP4 GT PUSH1 0x1 DUP2 EQ PUSH2 0x14F7 JUMPI PUSH0 DUP5 ISZERO PUSH2 0x14E5 JUMPI DUP3 DUP8 ADD MLOAD SWAP1 POP JUMPDEST PUSH2 0x14EF DUP6 DUP3 PUSH2 0x1474 JUMP JUMPDEST DUP7 SSTORE POP PUSH2 0x1556 JUMP JUMPDEST PUSH1 0x1F NOT DUP5 AND PUSH2 0x1505 DUP7 PUSH2 0x12E9 JUMP JUMPDEST PUSH0 JUMPDEST DUP3 DUP2 LT ISZERO PUSH2 0x152C JUMPI DUP5 DUP10 ADD MLOAD DUP3 SSTORE PUSH1 0x1 DUP3 ADD SWAP2 POP PUSH1 0x20 DUP6 ADD SWAP5 POP PUSH1 0x20 DUP2 ADD SWAP1 POP PUSH2 0x1507 JUMP JUMPDEST DUP7 DUP4 LT ISZERO PUSH2 0x1549 JUMPI DUP5 DUP10 ADD MLOAD PUSH2 0x1545 PUSH1 0x1F DUP10 AND DUP3 PUSH2 0x1458 JUMP JUMPDEST DUP4 SSTORE POP JUMPDEST PUSH1 0x1 PUSH1 0x2 DUP9 MUL ADD DUP9 SSTORE POP POP POP JUMPDEST POP POP POP POP POP POP JUMP JUMPDEST PUSH32 0x506C617965722031206E6565647320746F20706C61792066697273742E000000 PUSH0 DUP3 ADD MSTORE POP JUMP JUMPDEST PUSH0 PUSH2 0x1592 PUSH1 0x1D DUP4 PUSH2 0xEAD JUMP JUMPDEST SWAP2 POP PUSH2 0x159D DUP3 PUSH2 0x155E JUMP JUMPDEST PUSH1 0x20 DUP3 ADD SWAP1 POP SWAP2 SWAP1 POP JUMP JUMPDEST PUSH0 PUSH1 0x20 DUP3 ADD SWAP1 POP DUP2 DUP2 SUB PUSH0 DUP4 ADD MSTORE PUSH2 0x15BF DUP2 PUSH2 0x1586 JUMP JUMPDEST SWAP1 POP SWAP2 SWAP1 POP JUMP JUMPDEST PUSH32 0x4E487B7100000000000000000000000000000000000000000000000000000000 PUSH0 MSTORE PUSH1 0x11 PUSH1 0x4 MSTORE PUSH1 0x24 PUSH0 REVERT JUMPDEST PUSH0 PUSH2 0x15FD DUP3 PUSH2 0xF44 JUMP JUMPDEST SWAP2 POP PUSH2 0x1608 DUP4 PUSH2 0xF44 JUMP JUMPDEST SWAP3 POP DUP3 DUP3 ADD SWAP1 POP PUSH1 0xFF DUP2 GT ISZERO PUSH2 0x1621 JUMPI PUSH2 0x1620 PUSH2 0x15C6 JUMP JUMPDEST JUMPDEST SWAP3 SWAP2 POP POP JUMP JUMPDEST PUSH32 0x4E487B7100000000000000000000000000000000000000000000000000000000 PUSH0 MSTORE PUSH1 0x12 PUSH1 0x4 MSTORE PUSH1 0x24 PUSH0 REVERT JUMPDEST PUSH0 PUSH2 0x165E DUP3 PUSH2 0xF44 JUMP JUMPDEST SWAP2 POP PUSH2 0x1669 DUP4 PUSH2 0xF44 JUMP JUMPDEST SWAP3 POP DUP3 PUSH2 0x1679 JUMPI PUSH2 0x1678 PUSH2 0x1627 JUMP JUMPDEST JUMPDEST DUP3 DUP3 MOD SWAP1 POP SWAP3 SWAP2 POP POP JUMP JUMPDEST PUSH32 0x506C617965722063686F6F736520000000000000000000000000000000000000 DUP2 MSTORE POP JUMP JUMPDEST PUSH0 DUP2 SWAP1 POP SWAP3 SWAP2 POP POP JUMP JUMPDEST PUSH0 DUP2 SLOAD PUSH2 0x16C0 DUP2 PUSH2 0x119D JUMP JUMPDEST PUSH2 0x16CA DUP2 DUP7 PUSH2 0x16AA JUMP JUMPDEST SWAP5 POP PUSH1 0x1 DUP3 AND PUSH0 DUP2 EQ PUSH2 0x16E4 JUMPI PUSH1 0x1 DUP2 EQ PUSH2 0x16F9 JUMPI PUSH2 0x172B JUMP JUMPDEST PUSH1 0xFF NOT DUP4 AND DUP7 MSTORE DUP2 ISZERO ISZERO DUP3 MUL DUP7 ADD SWAP4 POP PUSH2 0x172B JUMP JUMPDEST PUSH2 0x1702 DUP6 PUSH2 0x12E9 JUMP JUMPDEST PUSH0 JUMPDEST DUP4 DUP2 LT ISZERO PUSH2 0x1723 JUMPI DUP2 SLOAD DUP2 DUP10 ADD MSTORE PUSH1 0x1 DUP3 ADD SWAP2 POP PUSH1 0x20 DUP2 ADD SWAP1 POP PUSH2 0x1704 JUMP JUMPDEST DUP4 DUP9 ADD SWAP6 POP POP POP JUMPDEST POP POP POP SWAP3 SWAP2 POP POP JUMP JUMPDEST PUSH32 0x20616E6420706C61797320000000000000000000000000000000000000000000 DUP2 MSTORE POP JUMP JUMPDEST PUSH0 PUSH2 0x1764 DUP3 PUSH2 0xEA3 JUMP JUMPDEST PUSH2 0x176E DUP2 DUP6 PUSH2 0x16AA JUMP JUMPDEST SWAP4 POP PUSH2 0x177E DUP2 DUP6 PUSH1 0x20 DUP7 ADD PUSH2 0xEBD JUMP JUMPDEST DUP1 DUP5 ADD SWAP2 POP POP SWAP3 SWAP2 POP POP JUMP JUMPDEST PUSH32 0x2E20506C61796572203220706C61797320000000000000000000000000000000 DUP2 MSTORE POP JUMP JUMPDEST PUSH0 PUSH2 0x17BA DUP3 PUSH2 0x1684 JUMP JUMPDEST PUSH1 0xE DUP3 ADD SWAP2 POP PUSH2 0x17CA DUP3 DUP7 PUSH2 0x16B4 JUMP JUMPDEST SWAP2 POP PUSH2 0x17D5 DUP3 PUSH2 0x1734 JUMP JUMPDEST PUSH1 0xB DUP3 ADD SWAP2 POP PUSH2 0x17E5 DUP3 DUP6 PUSH2 0x175A JUMP JUMPDEST SWAP2 POP PUSH2 0x17F0 DUP3 PUSH2 0x178A JUMP JUMPDEST PUSH1 0x11 DUP3 ADD SWAP2 POP PUSH2 0x1800 DUP3 DUP5 PUSH2 0x175A JUMP JUMPDEST SWAP2 POP DUP2 SWAP1 POP SWAP5 SWAP4 POP POP POP POP JUMP JUMPDEST PUSH32 0x2E20506C61796572203120776F6E2E0000000000000000000000000000000000 DUP2 MSTORE POP JUMP JUMPDEST PUSH0 PUSH2 0x183E DUP3 DUP5 PUSH2 0x175A JUMP JUMPDEST SWAP2 POP PUSH2 0x1849 DUP3 PUSH2 0x180D JUMP JUMPDEST PUSH1 0xF DUP3 ADD SWAP2 POP DUP2 SWAP1 POP SWAP3 SWAP2 POP POP JUMP JUMPDEST PUSH32 0x2E20506C61796572203220776F6E2E0000000000000000000000000000000000 DUP2 MSTORE POP JUMP JUMPDEST PUSH0 PUSH2 0x1889 DUP3 DUP5 PUSH2 0x175A JUMP JUMPDEST SWAP2 POP PUSH2 0x1894 DUP3 PUSH2 0x1858 JUMP JUMPDEST PUSH1 0xF DUP3 ADD SWAP2 POP DUP2 SWAP1 POP SWAP3 SWAP2 POP POP JUMP JUMPDEST PUSH32 0x43686F6F7365204556454E206F72204F44440000000000000000000000000000 PUSH0 DUP3 ADD MSTORE POP JUMP JUMPDEST PUSH0 PUSH2 0x18D7 PUSH1 0x12 DUP4 PUSH2 0xEAD JUMP JUMPDEST SWAP2 POP PUSH2 0x18E2 DUP3 PUSH2 0x18A3 JUMP JUMPDEST PUSH1 0x20 DUP3 ADD SWAP1 POP SWAP2 SWAP1 POP JUMP JUMPDEST PUSH0 PUSH1 0x20 DUP3 ADD SWAP1 POP DUP2 DUP2 SUB PUSH0 DUP4 ADD MSTORE PUSH2 0x1904 DUP2 PUSH2 0x18CB JUMP JUMPDEST SWAP1 POP SWAP2 SWAP1 POP JUMP JUMPDEST PUSH32 0x506C61796572203120616C72656164792063686F6F7365200000000000000000 DUP2 MSTORE POP JUMP JUMPDEST PUSH0 PUSH2 0x193B DUP3 PUSH2 0x190B JUMP JUMPDEST PUSH1 0x18 DUP3 ADD SWAP2 POP PUSH2 0x194B DUP3 DUP5 PUSH2 0x16B4 JUMP JUMPDEST SWAP2 POP DUP2 SWAP1 POP SWAP3 SWAP2 POP POP JUMP JUMPDEST PUSH32 0x506C617965722031206973200000000000000000000000000000000000000000 DUP2 MSTORE POP JUMP JUMPDEST PUSH32 0x20616E642063686F6F7365200000000000000000000000000000000000000000 DUP2 MSTORE POP JUMP JUMPDEST PUSH0 PUSH2 0x19AC DUP3 PUSH2 0x1956 JUMP JUMPDEST PUSH1 0xC DUP3 ADD SWAP2 POP PUSH2 0x19BC DUP3 DUP6 PUSH2 0x175A JUMP JUMPDEST SWAP2 POP PUSH2 0x19C7 DUP3 PUSH2 0x197C JUMP JUMPDEST PUSH1 0xC DUP3 ADD SWAP2 POP PUSH2 0x19D7 DUP3 DUP5 PUSH2 0x16B4 JUMP JUMPDEST SWAP2 POP DUP2 SWAP1 POP SWAP4 SWAP3 POP POP POP JUMP JUMPDEST PUSH0 PUSH2 0x19ED DUP3 PUSH2 0x1367 JUMP JUMPDEST SWAP2 POP PUSH2 0x19F8 DUP4 PUSH2 0x1367 JUMP JUMPDEST SWAP3 POP DUP3 DUP3 MUL PUSH2 0x1A06 DUP2 PUSH2 0x1367 JUMP JUMPDEST SWAP2 POP DUP3 DUP3 DIV DUP5 EQ DUP4 ISZERO OR PUSH2 0x1A1D JUMPI PUSH2 0x1A1C PUSH2 0x15C6 JUMP JUMPDEST JUMPDEST POP SWAP3 SWAP2 POP POP JUMP JUMPDEST PUSH0 PUSH2 0x1A2E DUP3 PUSH2 0x1367 JUMP JUMPDEST SWAP2 POP PUSH2 0x1A39 DUP4 PUSH2 0x1367 JUMP JUMPDEST SWAP3 POP DUP3 DUP3 ADD SWAP1 POP DUP1 DUP3 GT ISZERO PUSH2 0x1A51 JUMPI PUSH2 0x1A50 PUSH2 0x15C6 JUMP JUMPDEST JUMPDEST SWAP3 SWAP2 POP POP JUMP JUMPDEST PUSH32 0x4E487B7100000000000000000000000000000000000000000000000000000000 PUSH0 MSTORE PUSH1 0x32 PUSH1 0x4 MSTORE PUSH1 0x24 PUSH0 REVERT JUMPDEST PUSH0 PUSH2 0x1A8E DUP3 PUSH2 0x1367 JUMP JUMPDEST SWAP2 POP PUSH0 DUP3 SUB PUSH2 0x1AA0 JUMPI PUSH2 0x1A9F PUSH2 0x15C6 JUMP JUMPDEST JUMPDEST PUSH1 0x1 DUP3 SUB SWAP1 POP SWAP2 SWAP1 POP JUMP JUMPDEST PUSH2 0x1AB4 DUP2 PUSH2 0x1367 JUMP JUMPDEST DUP3 MSTORE POP POP JUMP JUMPDEST PUSH0 PUSH1 0x40 DUP3 ADD SWAP1 POP PUSH2 0x1ACD PUSH0 DUP4 ADD DUP6 PUSH2 0x1AAB JUMP JUMPDEST PUSH2 0x1ADA PUSH1 0x20 DUP4 ADD DUP5 PUSH2 0x1AAB JUMP JUMPDEST SWAP4 SWAP3 POP POP POP JUMP INVALID POP PUSH13 0x61796572203120616C72656164 PUSH26 0x20706C617965642E2057616974696E6720706C6179657220322E LOG2 PUSH5 0x6970667358 0x22 SLT KECCAK256 0xDF SWAP13 0xBF SWAP11 0x2F PUSH29 0xCA2B949E031DD3B7D05C2AC99DACF99FEC0F2A8479005EA7940064736F PUSH13 0x634300081A0033000000000000 "
		},
		"gasEstimates": {
			"creation": {
				"codeDepositCost": "1395400",
				"executionCost": "infinite",
				"totalCost": "infinite"
			},
			"external": {
				"choicePlayer1()": "infinite",
				"choose(string)": "infinite",
				"play(uint8)": "infinite",
				"player1()": "2574",
				"status()": "infinite"
			},
			"internal": {
				"compare(string memory,string memory)": "infinite"
			}
		},
		"methodIdentifiers": {
			"choicePlayer1()": "82b54173",
			"choose(string)": "98c8d81f",
			"play(uint8)": "53a04b05",
			"player1()": "d30895e4",
			"status()": "200d2ed2"
		}
	},
	"abi": [
		{
			"inputs": [
				{
					"internalType": "uint256",
					"name": "value",
					"type": "uint256"
				},
				{
					"internalType": "uint256",
					"name": "length",
					"type": "uint256"
				}
			],
			"name": "StringsInsufficientHexLength",
			"type": "error"
		},
		{
			"inputs": [],
			"name": "choicePlayer1",
			"outputs": [
				{
					"internalType": "string",
					"name": "",
					"type": "string"
				}
			],
			"stateMutability": "view",
			"type": "function"
		},
		{
			"inputs": [
				{
					"internalType": "string",
					"name": "newChoice",
					"type": "string"
				}
			],
			"name": "choose",
			"outputs": [],
			"stateMutability": "nonpayable",
			"type": "function"
		},
		{
			"inputs": [
				{
					"internalType": "uint8",
					"name": "number",
					"type": "uint8"
				}
			],
			"name": "play",
			"outputs": [],
			"stateMutability": "nonpayable",
			"type": "function"
		},
		{
			"inputs": [],
			"name": "player1",
			"outputs": [
				{
					"internalType": "address",
					"name": "",
					"type": "address"
				}
			],
			"stateMutability": "view",
			"type": "function"
		},
		{
			"inputs": [],
			"name": "status",
			"outputs": [
				{
					"internalType": "string",
					"name": "",
					"type": "string"
				}
			],
			"stateMutability": "view",
			"type": "function"
		}
	]
}